:020000040000FA
:1000000000300020C9020000332D0000D3020000A0
:1000100000000000000000000000000000000000E0
:10002000000000000000000000000000D5020000F9
:100030000000000000000000D7020000D90200000C
:10004000DB020000DB020000DB020000DB0200003C
:10005000DB020000DB020000DB020000DB0200002C
:10006000DB020000DB020000DB020000DB0200001C
:10007000DB020000DB020000DB020000DB0200000C
:10008000DB020000DB020000DB020000DB020000FC
:10009000DB020000DB020000DB020000DB020000EC
:1000A000DB020000DB020000DB020000DB020000DC
:1000B000DB020000DB020000DB020000DB020000CC
:1000C00000F002F800F0B5F80CA030C80838241889
:1000D0002D18A246671EAB4654465D46AC4201D180
:1000E00000F0A7F87E460F3E0FCCB64601263342FD
:1000F00000D0FB1AA246AB4633431847445C0000CD
:10010000645C00000023002400250026103A01D37F
:1001100078C1FBD8520700D330C100D50B607047BF
:1001200010B56E2902D100F071FF10BD702902D107
:1001300000F0ADF910BD662902D105F08FF910BDB0
:10014000652902D105F08AF910BD672902D105F0B1
:1001500085F910BD612902D105F088F910BD036849
:100160001B0A01D380231943692902D100F018FF2B
:1001700010BD642902D100F013FF10BD752902D112
:1001800000F00EFF10BD6F2902D101F03DF810BD47
:10019000782902D100F068F910BDE92902D100F0F8
:1001A000D9FF10BDE42902D100F0D4FF10BDF5291C
:1001B00002D100F0CFFF10BDEF2902D101F030F8DD
:1001C00010BDF82902D100F05DF910BD0368DB090C
:1001D00001D380231943632902D101F010FF10BD20
:1001E000732902D101F013FF10BDE32902D101F000
:1001F0001DFF10BDF32902D101F020FF10BD00202A
:1002000010BD1FB50098019900F0DCFD02F090F9D7
:1002100004000020002105F067F8401C6060002009
:10022000002105F04BF8E06001F062FA00F078FD83
:100230001FBD03F023FC114603B403F02EFC03BCE6
:10024000FFF7DFFF02F06CFD03F072FE704708005D
:100250007047100070471800704720007047280052
:100260007047300070473800704740467047484636
:10027000704750467047584670476046704768461A
:100280007047704670477846704768467047000070
:1002900070B505460C46164602E00FCC0FC5103E61
:1002A000102EFAD2082E02D303CC03C5083E042E2A
:1002B00007D301CC01C5361F03E021782970641CE7
:1002C0006D1C761EF9D270BD044880470448004773
:1002D000FEE7FEE7FEE7FEE7FEE7FEE7792D00001A
:1002E000C100000070B5064600F084F8056830468D
:1002F0000B30C408E400B44201D8002070BD686827
:100300002A46002818D00168A14211D30B46214685
:1003100008318B4208D3436801194B6003681B1BEB
:100320000B605160046001E041685160001D70BDC8
:10033000024640680028E6D12146284600F02DFDFF
:100340000028DCD170BD70B50446051F00F052F8DE
:100350000068002C1AD0446801E020466468002C34
:1003600001D0AC42F9D301680A18AA4204D12A6824
:1003700005468918016000E0456028684119A142DE
:1003800005D16168696021684018286070BD6C60A3
:1003900070BD00001CB50C46064B7B4469460090BE
:1003A000204600F04CFE04460020694600F05AFE4C
:1003B00020461CBDC70C000010B50B460146184670
:1003C00000F056FE10BD00000FB41CB5084B06AA85
:1003D0007B4469460090059800F031FE04460020F9
:1003E000694600F03FFE20461CBC08BC04B018471C
:1003F000910C0000004870472CF4FF1F70477047B5
:10040000FFFFFFFFFFFFFFFFFFFFFFFFFEFFFFFFFD
:10041000F8B50F460188090502D5224C7C4402E05C
:10042000204C7C440E3405460021243508E0160794
:100430001209360FA65D6E541E0732431B09491C74
:1004400016461E43F3D1224604780023240705D51F
:10045000702F06D0002901D00223113200F048FD90
:10046000F8BD01231032F9E770B504460D46214668
:10047000106800F00BFD0023024629462046FFF7D6
:10048000C7FF70BDD21DD308DB000CCBC0E730B472
:10049000036820241268234303600823C36130BC2F
:1004A0000023B5E7E8510000F3B50446002081B011
:1004B00020622046E1688847002872D0252802D0B3
:1004C0006268A168ABE0594F00267F442046E1688E
:1004D00088472028054608DB312D06D278192038B8
:1004E0000078002801D00643F0E7B00701D50420CA
:1004F00086430020E0610746A0612A2D0AD02846E5
:1005000003F0C4FA002827D0B8000019303D00904D
:10051000856119E00298BA00121902C8916102902F
:100520002046E1688847012F054617D1E069002879
:100530001FDA202086431CE000980A218069484386
:1005400000994019303888612046E168884705469F
:1005500003F09CFA0028EFD1012F0AD02E2D08D1EC
:100560002046E16888470546202006437F1C022F6D
:10057000C3DBA069002803DA4042A06101200643E2
:10058000F00701D0102086436C2D0BD0682D09D0C8
:100590004C2D3CD06A2D38D0742D38D07A2D36D0E1
:1005A00016E040E0E1682F4620468847B8420546FD
:1005B00009D16C2F29D001208002E1680643204632
:1005C0008847054604E06C2F1DD0FF20013006430C
:1005D000002D28D028464138192803D80120C00210
:1005E00006432035204626602946029A1646FFF724
:1005F00097FD002810D001280BD0F61DF008C00090
:100600000830029055E74020E1E78020D5E7002040
:10061000D3E7361D02964CE762682846A1689047EA
:10062000206A401C44E7206AFEBD000062510000C1
:100630000FB400B58DB010A909900B900020C043F5
:1006400000910A9000200C900748784406900748D3
:1006500078446A4607900F9909A800F001FE0DB092
:1006600008BC04B018470000370C0000510C000013
:10067000FFB51D460027FF4383B05C680020019052
:100680009E68A96904987F1C88470090296A88475A
:100690000028F6D10098401C0CD00320400284436F
:1006A000002E19DD600614D500982B2809D02D28BE
:1006B0000FD103E00020C04307B0F0BD012080024D
:1006C0000443A96904987F1C8847761E002E009079
:1006D00002DD0098302803D00598002825D035E0A9
:1006E0000120A96940020443761E04987F1C8847B4
:1006F000002E009003DD782805D0582803D00598F7
:10070000002810D022E00598002801D010281DD123
:100710000120A96940028443761E04987F1C884703
:100720000090102002E0082000E00A2005900DE073
:100730000121059A49020C430199761E514308187C
:100740000190A96904987F1C88470090002E05DD60
:100750000599009800F06EFD0028E9DAE96904982F
:100760008847A00502D40120C043A5E7E00722D1B5
:10077000600611D56005019800D5404229680A1D20
:100780002A600968220501D5087014E0220701D506
:10079000088010E008600EE02868011D29600068EC
:1007A000210502D50199017005E02107019901D5C4
:1007B000018000E0016038467EE7000070B5044625
:1007C000C068810713D0800601D5A56A04E0A1693D
:1007D000606840182169451A204600F041FF002258
:1007E00006462946204600F06BFE304670BD0020CC
:1007F00070BD70B5002802D0FFF7E0FF70BD002586
:10080000074C6E1E08E02046FFF7D8FF002800D0F6
:100810003546206D44086400002CF4D1284670BD94
:1008200030F3FF1FF7B516460C46104600F07CF873
:100830002078611C61280AD0722802D0772839D12B
:1008400002E00125002404E00225042401E02D4DEE
:1008500008240222032301270878491C2B2806D0EC
:10086000622807D02039C87F742807D008E01D43CC
:100870001443F1E7042005433C43EDE71020044313
:100880000098214603F04CF9411C13D0002131613E
:1008900071600121F5604902F1617061200704D5A2
:1008A00030460222002100F00BFE306D38433065E7
:1008B0003046FEBD0020FEBDF8B50D460646124C82
:1008C000206DC10704D0410804D044086400F7E754
:1008D000224610E05420FFF705FD070010D07908EC
:1008E000206D4900012211430843542120653846F8
:1008F00000F0D0F83A4629463046FFF793FFF8BD9E
:100900000020F8BD0280000030F3FF1F10B5002961
:1009100002D0FF22013201E00122920201235B0298
:1009200000F048FE10BD0000FEB5044646690069AF
:100930000F4F0190E56800200090A80707D02046DF
:1009400000F08EFE304603F0ADF8002801DA38469C
:10095000FEBD280502D50198FFF7F5FC4C21204685
:1009600000F098F8206D4008400020650098FEBD1A
:10097000FFFFFFFF30B5441C03E00178401C002955
:100980000DD08107F9D10B4BDD0104C8D11A914379
:100990002940FAD0001B0A0603D0C01E30BD001B40
:1009A00030BD0A0401D0801E30BD0902FCD0401EBB
:1009B00030BD0000010101010346F0B50B439B0768
:1009C0002DD1244DEF01042A29D308C810C95E1B7C
:1009D0009E43121F3E4017D0D8B2E1B2401A3106F2
:1009E000014310D198B2A1B2401A310401430AD197
:1009F00018022102000A090A401A3102014302D1F9
:100A0000180E210E401AF0BDA342DCD018BA21BA4C
:100A1000884201D90120F0BD0020C043F0BD002A6A
:100A200001D10020F0BD03780C78401C491C002B3C
:100A30000DD0A3420BD1521E09D003780C78401C74
:100A4000491C002B03D0A34201D1521EEBD1181B2D
:100A5000F0BD00000101010101E004C0091F0429EB
:100A6000FBD28B0701D50280801CC90700D0027021
:100A7000704700290BD0C30702D00270401C491EEA
:100A8000022904D3830702D50280801C891EE3E774
:100A90000022EEE70022DFE782078B079A4237D178
:100AA00070B5920F0AD0032402780B78401C491CC1
:100AB000002A2BD09A4229D12042F5D11D4EF401B3
:100AC00004C808C9951B9543254010D19A4207D107
:100AD00004C808C9951B9543254008D19A42EFD018
:100AE00012BA1BBA01209A4200D2404270BD12BA1B
:100AF0001BBA2DBA18241000E0401900E140401A3A
:100B000005D12E00E64002D1083CF4D1D01A70BDC8
:100B100002780B78401C491C002A09D09A4207D160
:100B200002780B78401C491C002A01D09A42EFD071
:100B3000D01A704701010101002203098B4273D3CF
:100B4000030A8B4258D3030B8B423CD3030C8B42DA
:100B500021D312E003460B437FD4002243088B428B
:100B600074D303098B425FD3030A8B4244D3030B34
:100B70008B4228D3030C8B420DD3FF22090212BAF9
:100B8000030C8B4202D31212090265D0030B8B4275
:100B900019D300E0090AC30B8B4201D3CB03C01A5F
:100BA0005241830B8B4201D38B03C01A5241430B3A
:100BB0008B4201D34B03C01A5241030B8B4201D32A
:100BC0000B03C01A5241C30A8B4201D3CB02C01A95
:100BD0005241830A8B4201D38B02C01A5241430A0D
:100BE0008B4201D34B02C01A5241030A8B4201D3FC
:100BF0000B02C01A5241CDD2C3098B4201D3CB01A3
:100C0000C01A524183098B4201D38B01C01A524151
:100C100043098B4201D34B01C01A524103098B4255
:100C200001D30B01C01A5241C3088B4201D3CB0040
:100C3000C01A524183088B4201D38B00C01A524123
:100C400043088B4201D34B00C01A5241411A00D2D3
:100C500001465241104670475DE0CA0F00D049423C
:100C6000031000D34042534000229C4603098B42AC
:100C70002DD3030A8B4212D3FC22890112BA030A34
:100C80008B420CD3890192118B4208D389019211B6
:100C90008B4204D389013AD0921100E08909C3093B
:100CA0008B4201D3CB01C01A524183098B4201D33D
:100CB0008B01C01A524143098B4201D34B01C01A28
:100CC000524103098B4201D30B01C01A5241C308A0
:100CD0008B4201D3CB00C01A524183088B4201D30F
:100CE0008B00C01A5241D9D243088B4201D34B002A
:100CF000C01A5241411A00D20146634652415B106C
:100D0000104601D34042002B00D54942704763464C
:100D10005B1000D3404201B50020C046C04602BD72
:100D200070B5064C7C44064D7D4403E020680019F4
:100D30008047241DAC42F9D170BD00006451000011
:100D400064510000F8B517460E460546002B07D043
:100D5000104658434419E41B2046B047A542FAD137
:100D600028460838F8BD0102C21504D00123DB076C
:100D70001943002A0ADB9E239A1A02D40846D0405F
:100D80007047FF2241001206914201D900207047AE
:100D9000C017C04370477047704738B504460A46CD
:100DA0000020694601F09AFB002805D00246204643
:100DB000009900F041FD012038BD10B5012001F07F
:100DC0004EFB10BDF8B501F07DFB054600200C463A
:100DD0001020C0460646A819A0420DD932466946E1
:100DE000002001F07BFB070001D101F038FB0098E7
:100DF000A04200D00546C419FFF7FCFAF61D0746CD
:100E00000560F008C0004619284600F008F8B44212
:100E100004D031463868A21B00F00EFDF8BD002159
:100E200001604160806070471020704770B50446D3
:100E300085690068C10601D5302600E02026C0077C
:100E400007D070BD62683046A1689047206A401C98
:100E500020626D1EF6D570BD70B5044685690078B8
:100E6000C00707D170BD6268A16820209047206A42
:100E7000401C20626D1EF6D570BD09684A0501D57B
:100E800040B27047C905FCD500B2704709684A05F1
:100E900001D5C0B27047C905FCD580B2704770B5A6
:100EA0000C460546012A05D02878800600D5EA6957
:100EB000002302E0012305E05B1C934202D2E05CC8
:100EC0000028F9D1A869E618C01AA861286AC018D4
:100ED00028622846FFF7AAFF04E06A682078A9681C
:100EE000641C9047B442F8D32846FFF7B5FF70BDA5
:100EF000FFB504460D4681B0243000902168880675
:100F000004D51022E0699143216000E00120A8424D
:100F100001DD471B00E000270498A1697A19101829
:100F2000081AA0612078C00602D42046FFF77EFF91
:100F3000002608E003986268A168805D9047206AF7
:100F4000401C761C206204988642F3DB2078C006A1
:100F50000AD52046FFF76AFF06E06268A1683020E4
:100F60009047206A401C206238467F1E0028F4DC2F
:100F700007E000986268A168405D9047206A401CC5
:100F8000206228466D1E0028F3DC2046FFF764FF30
:100F90002078000602D5022005B0F0BD0120FBE755
:100FA000F7B5002575291068009914A611D0FFF730
:100FB00064FF002802DA404211A608E0009909689F
:100FC0008A0701D50FA602E0490704D50EA6012520
:100FD00001E0FFF75BFF009F0024243704E001F0ED
:100FE0005DFA30313955641C0028F8D12B46324661
:100FF00021460098FFF77CFFFEBD000000000000C6
:101000002D0000002B000000200000001168026885
:10101000006A530501D5087009E0D30501D50880A1
:1010200005E0130602D5C21705C100E008600120E3
:101030007047000001694A1C02610878704700B5DA
:101040008FB00291002105910549019379440391E4
:10105000114604906846FFF727FA0FB000BD000064
:10106000E5FFFFFF0A681070521C0A60704700001D
:10107000084B70B50D467B44FFF7E1FF0446284658
:1010800000F022F9002802D00020C04370BD2046A5
:1010900070BD0000072F0000F7B50446154686B066
:1010A0002B487844002703C83E460090019111E088
:1010B00007986A467100415A02A801F0A4F9411C40
:1010C00007D02178890603D5E269391891420ED8F4
:1010D0003F18761C2078800602D5E069B84206DD0C
:1010E000AE42E5DB07987100405A0028E0D1A069C4
:1010F000C01BA0612046FFF799FE154878445A3876
:1011000003C800900020019116E041006A4607984C
:10111000415A02A801F077F90590401C0AD0002539
:1011200005E0626802A8A168405D90476D1C0598C3
:101130008542F6D30498401CB0420490E5DB206A57
:10114000C01920622046FFF787FE09B0F0BD0000FD
:101150009E450000F7B5D21D0025D20815A6D20085
:10116000F52905CA11D0002A05DA00214042914133
:1011700011A60A4608E0009909688B0701D50FA659
:1011800002E0490701D50EA601251146009F002463
:10119000243704E000F06AFB30323A55641C024602
:1011A0000A43F7D12B46324621460098FFF7A0FEAE
:1011B000FEBD0000000000002D0000002B0000001C
:1011C0002000000070B504460021243408E05507D3
:1011D000D2086D0F303565545D072A43DB08491C82
:1011E00015461D43F3D10468002310A2250708D536
:1011F000A40601D4002904D0C46901230CA2641EF2
:10120000C461FFF775FE70BD10B504462146106835
:10121000FFF73CFE002302462046FFF7D3FF10BD38
:10122000D21DD108C9000CC9CCE7000000000000A5
:10123000300000003A2800D23038202302469A437A
:10124000412A01D310463738884201D30020C043D9
:101250007047000002685118137801601846704703
:1012600010B5D1600549794451610549794411624D
:1012700000211161114600F0E5FE10BDEBFFFFFFFC
:10128000770600004268002A08D001680B78491CE4
:10129000002B03D0521E06C0184670470121C160C2
:1012A000881E70474268002A0BD0C3680168002B73
:1012B00007D183688B4204D0491E521C06C000200F
:1012C00070470020C0437047C068802108407047C5
:1012D000F8B505460C46C8680521C90488430121B4
:1012E00089050843E060800602D5204600F0DEF95B
:1012F0007149E0680140022903D0204600F080F9DE
:10130000BCE00521012249030140D20391420FD1E3
:10131000C00306D56168E06A884200D8084660606C
:1013200006E02069E0626060606902F0D1FBA061C4
:10133000A1680022EEB200290EDAE06883050BD422
:10134000C943A1600921226049030843E060606845
:10135000411C61600670ACE0E0680121490308436C
:10136000E060002020602069002831D1606902F02F
:10137000C3FB012527462437ED02002816D0A0899B
:101380008005800F08D0E069FEF7ACFF00282061DF
:1013900002D0E068284318E001202761E061E0689E
:1013A000032109028843012189020DE0E069FEF76B
:1013B00099FF00282061EFD0E0682843E0608105B4
:1013C000890F03D1FF2101310843E060206960608B
:1013D000E2683A4F2569D0051FD56168E06A884206
:1013E00000D80846411B05D02246284600F012F9D5
:1013F000002843D1E068010204D5E5620020656061
:10140000A06053E0691CE1626160E169491E3843F4
:10141000A160E06030462E70F8BD100201D53A4060
:1014200009E06068411C61600670E06838430A2E7C
:10143000E06006D00022E16A6068814203D90B4671
:1014400002E00122F7E70346A7895B1B7F0504D46E
:10145000E7699F4201DD002A1ED0814200D8014683
:101460000F1A0020E5626560002BA06009DD2246AE
:101470001946284600F0CEF8002802D00020C043CC
:10148000F8BD002F08D0A069E5626560C01BA061AF
:10149000E06810210843E060E068000209D5616857
:1014A000A069E562491B40186560A0610120C04346
:1014B000F8BD3046F8BD00008210000000000100B9
:1014C000F8B5044616460D464769007B800730D0C4
:1014D000384602F011FB00282BD132461026002A94
:1014E00025D0012A02D0022A23D104E0204600F0B0
:1014F00069FF45191BE0384602F0EAFAE16831431A
:101500000028E16004DA204600F07AF80120F8BDF6
:10151000C9030BD56268E16A914200D81146A269FD
:1015200089182269891A814200DD08462D18002D8C
:1015300001DA0220F8BDE16A6068E268814206D201
:101540009103E06203D5012149048A433243A6692D
:10155000AE4211DCE16A814201D90B4600E003464C
:101560009F192369FF1AAF4206DD814201D90F4658
:1015700000E007469F4206D1202002430020A060E1
:10158000A56220600DE0AD1BE669AE1B8142A6603E
:1015900000D90846C01A281A206058196060202017
:1015A0008243034802400020E26040342072F8BDCC
:1015B000BFCFD7FF70B5C468A50713D0650211D49B
:1015C000D51FF93D0AD0FF3D6D1E07D0FF3DFF3D01
:1015D000022D07D101462431012305E0074E5D1E8F
:1015E000B54201D3012070BD0161C36141600F218B
:1015F00009028C431443C460002070BDFFFFFF004C
:10160000C1688022114392039143C160002181602F
:1016100001607047F7B514460E463348D5685769E0
:10162000054209D03846A16902F060FB002811DBB1
:101630002D48C0430540E5602B46324638460099A8
:1016400002F068FB4200A1695208B21A891800280A
:10165000A16104D02046FFF7D3FF0020C043FEBDA8
:1016600070B504460569C06A6168884200D80846BA
:10167000E1680522D2049143E160C90314D5A84270
:1016800009D02246411B2846FFF7C4FF002802D09C
:101690000020C04370BDE56200206560A060E06886
:1016A000012109048843E060002070BD10B50446A4
:1016B000C06820218843E060A16AA06988420ED0FA
:1016C0002046FFF7CDFFE06803210903884310217E
:1016D0000843E060A06AA0612069E062606003499D
:1016E000E0680840E06010BD10000200BFBFFFFFCF
:1016F00010B543485421FFF7CDF942485421FFF774
:10170000C9F941485421FFF7C5F940483C493D4BD0
:10171000404A01603E4803603B4810605A1C0A651D
:10172000411C1965012101653C48354A3AA17844BC
:10173000FFF778F8002804D1384878440C3800F0D6
:1017400088FE38482F4A36A17844FFF76BF8002806
:1017500004D1344878440C3800F07BFE32482A4AE1
:101760002FA17844FFF75EF8002804D12E48784472
:101770000C3800F06EFE40232148DC000021224698
:10178000FFF718FF002804D0244878445C3800F0A4
:1017900060FE1C48224640230021FFF70BFF002873
:1017A00004D0204878445C3800F053FE16482246A6
:1017B00010230021FFF7FEFE002804D01A487844C9
:1017C0005C3800F046FE10BD0F4870B5006D44084F
:1017D0000B486400FFF7A8F80A48FFF7A5F80A4885
:1017E000FFF7A2F809E0206D450820466D00FFF7DD
:1017F0009BF82046FEF7A7FD2C46002CF3D170BDC8
:1018000030F3FF1F84F3FF1FD8F3FF1FDCF1FF1F2E
:10181000E0F1FF1FE4F1FF1F72000000223E000014
:10182000770000000F3E0000FD3D000010B500F005
:101830001DFE00F008FE10BD10B50346406801E033
:1018400003464068002801D08842F9D31868C318BD
:101850008B4206D0CB1CD808C000001D411A521A7A
:101860000146081D0A60FEF76EFD10BD0B4670B5FF
:10187000024689078008084319469D08141AA941A1
:1018800025090807054308092C194841250A0106BE
:101890000D43010A2C194141200C0D0428430D0C65
:1018A00000194D41002140194D41C0086907084306
:1018B000E908840F8D002543840024184D41241924
:1018C0006D41121BAB4107E00925ED432C11521964
:1018D00063410024401C61411C460A250026551B1B
:1018E000B441F1D270BD10B5044600F019FE006895
:1018F000005DC007C00F10BD7047FFB50C461E4607
:101900008FB003CA089009914F007D0D00D16D1E64
:10191000002108460020C0460321099A8905084095
:10192000002A03DA8200801840080840800D012850
:101930000A9002DD0020C0430A90089807430DD0AA
:10194000F048F149281848430714189800281DD07A
:101950007542291E1DDD0A9842421BE01898012895
:1019600002D00020302104E00020F24305E02154A1
:10197000401CB042FBDB30460022189B0021215462
:101980000F998B600A60486013B0F0BDBD1B6D1CE1
:10199000DFE70A9A002900DA69420BA800F014FE7A
:1019A0000BAB07CB03AB07C30899099800F078FE8F
:1019B0006B4607C30146D5480918002D00910BDD81
:1019C000D24903980A9A49424018002303A9039078
:1019D000684601F0D5F808E003990A9A0023081830
:1019E00003A90390684601F075F86B4607C300042D
:1019F000000C03D00020C043410800E01046189AB4
:101A0000002A03D00022009215461EE0751E05D460
:101A1000FFF72CFF303262556D1EF9D501220843C5
:101A2000079602D000227F1C04E02078302801D1E4
:101A300000227F1E002A069787D01EE0112D07DAAC
:101A4000FFF714FF303262556D1C02460A43F5D190
:101A5000084303D00098002819D00EE00021681E2A
:101A600005E0235C625C63542254401E491C8142A1
:101A7000F7DBA81B401E07950690079A18990020CF
:101A8000A0540F98079B069A81600CC07CE7112632
:101A90000020189059E7D21DF0B50D460446D10834
:101AA00093B0C90003C90C900D9101F06FFF02467D
:101AB0000D98C00F01D02D2007E02068810701D5C7
:101AC0002B2002E04007C00F4001032A0F9001D0F5
:101AD000072A05DB03462946204600F031FD0EE1CA
:101AE0002078800601D5E76900E006272846652DA5
:101AF00004D0662814D0672D69D12DE00020112F65
:101B0000009001DB112300E07B1C0CAA03A910A8A4
:101B1000FFF7F3FE1199002610987D1C0E9142E00C
:101B200001203B460CAAC0070B900120009003A99E
:101B300010A8FFF7E2FE119D1298109900260028C8
:101B40000E9501D1781C0D18781B02D446427D1CDD
:101B5000761EE81B00903AE0012F00DA01270020F2
:101B6000112F009001DD112300E03B460CAA03A9D0
:101B700010A8FFF7C2FE11993D46109800260E915D
:101B8000217809070BD40E99A94200DA0D4603A962
:101B9000012D04DD4A19203AD27F302A06D0B842FE
:101BA00001DA011D04DA012100910FE06D1EEFE75B
:101BB000002802DC86192D1A03E0411CA94200DD31
:101BC0000D46801B401C00900120C0070B90207820
:101BD000000705D40098A84202DB0020C043009013
:101BE00069460020C8720B98012102AF0337C9076C
:101BF000884225D0022010902B2011900B980028AD
:101C00000BDA40420B902D20119006E00B9800F06B
:101C100045FC30317F1E0B9039701099481E002909
:101C20001090F3DC0B980028F0D111987F1E3870CB
:101C30002088000501D5452000E065207F1E387012
:101C400001A8C01BC01D0B900F98002800D00120D8
:101C500041190098C01709180B980818A169081AAB
:101C6000401EA0612078C00602D42046FFF7DEF8AF
:101C70000F98002805D06268A1689047206A401C30
:101C800020622078C00625D52046FFF7CFF821E056
:101C9000002E07DB0E98B04204DD03A86268805D69
:101CA000A16802E06268A16830209047206A761C33
:101CB000401C20620098401E002800900AD100F0CD
:101CC00037FCC06862680168405CA1689047206A80
:101CD000401C206228466D1E0028D9DC07E062689F
:101CE0003878A1687F1C9047206A401C20620B99BD
:101CF000481E00290B90F2DC2046FFF7ADF80320C8
:101D000042E6000001FCFFFF104D0000E1DFFFFF95
:101D1000D21DF0B504460D46D0088DB0C00046680F
:101D200007683146384601F031FE0246F00F01D017
:101D30002D2307E02068810701D52B2302E040070F
:101D4000C00F43016846002B037001D0012000E062
:101D50000020032A0A9001D0072A04DB29462046E6
:101D600000F0EEFB2DE12078800601D40D2500E087
:101D7000E5697000400D0D2D01904BDA300D00210A
:101D80000B9008460020C046032189050840002E1C
:101D900005DA82008018C20F101840100840801524
:101DA000012801DD0020C043A9000023182906D323
:101DB0009C460A460123183A1B07D34003E0012240
:101DC0001205CA4094460C31202902D33A462039E4
:101DD00000E032468A40002802DD002A06D119E0E0
:101DE000002817D10121C9078A4213D31946634637
:101DF0007F185E41002806D10120C007824202D12F
:101E0000084687439E430B98310D814202D00198CA
:101E1000401C01902088000502D57149794402E0F8
:101E20006F49794419396B460A9830221A540A9836
:101E30000A7C401C1A54401C0A900198002801DCBE
:101E4000302000E031201872019A0120002A02D0CF
:101E5000644BD21804E072003A4302D0614A521C2B
:101E60000192002D02DC2278120703D56A462E204B
:101E7000507202200022864694460CE0320336015E
:101E8000120F6D1E8B5C02AA13546246521C401C3A
:101E90009446052A01DA002DF0DC002202AE08E0AB
:101EA0003B0F3F01CB5C521C6D1E3354401C082A73
:101EB00001DA002DF4DC23689A0601D511E0401EFA
:101EC000704504DD3218203AD27F302AF7D000283E
:101ED00007DD3218203AD27F2E2A02D11A0700D409
:101EE000401E002D03DD3E223254401C6D1E497CF5
:101EF00031540199401C002906DA2D21471C315428
:101F000001984042019003E02B21471C3154019875
:101F10007D21C900884206DBFEF71CFE3030F055FB
:101F20007F1C019101E0642808DB01986421FEF721
:101F300011FE3030F0557F1C019101E00A2806DBCC
:101F400001980A21FEF706FE3030F0557F1C0198FB
:101F50000A21FEF7FFFD3031F1550A98A1697F1C77
:101F60007A191018081AA0612078C00602D42046F9
:101F7000FEF75CFF216A6E460A980818206204E0AA
:101F800062683078A168761C90470A98401E0A90D3
:101F9000401CF5D12078C00602D52046FEF746FF4A
:101FA00002AE09E03078761C3E280DD06268A16848
:101FB0009047206A401C20627F1EF3D22046FEF725
:101FC0004BFF0DB00320F0BD206A4019206203E0F2
:101FD0006268A168302090476D1EEDD3F8E70000DD
:101FE0003F38000001FCFFFF10B54369002B02D011
:101FF000C046C04601E0FEF752FF012010BD127836
:10200000014624310A7000224A700122ECE711686F
:102010000022D243E8E710B54369002B02D0C04646
:10202000C04601E0FFF738F8012010BD12880146D4
:10203000243182840022C2840122ECE7116800224C
:10204000D243E8E7F3B50C468FB000200C90012096
:1020500000260E9008460C30039062690398012117
:102060009047051E2ED0252D2DD0216A88470028A7
:1020700018D06269039801219047216A8847002897
:10208000F7D16269411E0398904700E0761CA16970
:102090000F988847216A88470028F7D1E1690F988F
:1020A0008847DAE7A1690F988847A842074601D117
:1020B000761CD2E7E1690F9888477F1C02D10C9803
:1020C000002877D06BE16269039800273D463946C6
:1020D00090472A280CD16269039801219047012575
:1020E00006E00A214F433F18303FEBD41020054350
:1020F0006269039801219047014630390A2903D2C9
:10210000AC498F42DEDCECE7E90600D4AA4F6C282C
:102110000AD04C2810D0682824D06A282ED07428E1
:102120000CD07A280AD00DE062690398012190470B
:102130006C2823D004211CE0202005436269039809
:1021400001219047A760652865604FD026DC58289C
:1021500039D01ADC452849D012DC252834D0412852
:10216000B0D143E06269039801219047682802D00A
:1021700008210D43E6E70120C002DEE70220DCE78C
:10218000462833D047289DD130E05B2870D06128A5
:102190002CD063286CD0642894D161E06F284FD094
:1021A00009DC662822D0672820D0692826D06E282E
:1021B00017D12EE0EFE070284DD073286FD075282E
:1021C0004ED078280DD154E0A1690F988847252872
:1021D000054600D16CE7E1690F9888476D1C00D176
:1021E0006DE7DCE00A224CE00A2252E0012023469F
:1021F0006A460F99C043C046C046C5E04021284604
:10220000234608436060A80701D5002239E0002278
:102210003FE0E80700D020E72068011D216000684A
:10222000290501D5067018E7290701D5068014E7AE
:10223000A90703D5F117066041600EE706600CE7B9
:1022400040212846234608436060A80701D508229C
:1022500017E008221DE0594928460840606016E052
:1022600040212846234608436060A807BCD5B9E74B
:1022700015E04021284608436060A80707D523469B
:10228000102201200F99C043C046C0467CE01022B6
:10229000234601200F99C043FEF7EAF974E00021BC
:1022A00063280B460191009102910D9102D05B28A9
:1022B00007D03BE0E80601D40120A0600120009097
:1022C00034E0E06801210D906269039890475E2830
:1022D00007D101200190E06801210D906269039807
:1022E00090472169002906D10B4604AA8F00491C9A
:1022F0000829D351FADB002851D02169002926D0C2
:102300000298401C029062690398012190475D2861
:10231000F1D10198002808D0002004AB8100401CB6
:102320005A58D24308285A50F8DB04AB20690028D9
:1023300020791CD04007029A00980D9B00922246FB
:1023400002901F480F991DD5C046C0461CE0C1171A
:10235000C90E09184A114909930004AA9A1849019B
:10236000411A13680120884003431360CBE74007FC
:10237000224613480F9902D5C046C04604E0C04625
:10238000C04601E0C046C04600280ADA401C06D11B
:102390000E98002803D00020C04311B0F0BD0C9867
:1023A000FBE7E90702D10C99491C0C913618002073
:1023B0000E9052E6CCCCCC0CFFFFFF7FF1F7FFFF75
:1023C000FEFFFFFF10B50146C268900703D09006DC
:1023D00007D5886A0AE000F0AFF801210160881E85
:1023E00010BD8B694868C0180B69C01A40310B7A60
:1023F000002B02D0497A401A10BD1103FCD50028E9
:10240000FADD401E10BD70B516460C46054600F0BC
:1024100087F80368FF200230C05C012807D0FF2C3A
:102420000ED8185D00280BD001202C7070BDFF3332
:102430003246214608331868C3182846984770BDAD
:102440000020C04370BD10B5002801D000F062F834
:1024500010BD10B500F0FEFBFFF7F5FF10BD10B585
:1024600000F012FCFFF7EFFF10BD000010B50021D7
:1024700002A000F0D5FB012010BD000053494750D9
:1024800056464E3A205075726520766972747561B1
:102490006C20666E2063616C6C6564000146800888
:1024A000081A02091018020A1018020C1018C008A5
:1024B000820012185200891A01E0401C0A390A29C8
:1024C000FBD2704701226946114B120382188A42DF
:1024D0001A6001D8114670471960704770B50C4CEE
:1024E0006D46012636032368AD1B9A18AA420ED802
:1024F000AD1A9019EE0F75196D10AA18904200D9F7
:102500001046C01D0B60C208D200D01A226070BDF8
:10251000E8F1FF1F01491820ABBEFEE726000200CC
:1025200010B500F005F8001D10BD00BFBD2D000066
:102530000048704730F4FF1F0048704744F4FF1F05
:10254000F8B51F46044601230068DB020326014656
:102550001840072A05DB002801D017A506E017A5BB
:1025600004E0002801D016A500E016A51020814344
:102570002160A069C01E002FA06101D0401EA06193
:102580002046FEF753FC002F09D038466268A16848
:102590009047206A401C2062C01C206206E0206A2E
:1025A000FAE762682878A1686D1C9047761EF8D219
:1025B0002046FEF751FCF8BD4E414E006E616E00A4
:1025C000494E4600696E6600F7B516468AB0334834
:1025D00078446C4603467C33C06F5A689B680DC4D0
:1025E0002E487844763003AC0DC80DC43720C001A6
:1025F000081837211B30FEF7ADFA05460C46803D22
:102600001B3C02D56442012000E000200027099015
:1026100010E0E0070CD00C20204978437944324682
:102620004C3941186846012300F054FA6B4607C341
:1026300064107F1C002CECD1184F7F442E3F16E015
:10264000E80712D02001C0190EC80691089307921E
:102650000068F04201D1981908903246012306A97A
:1026600003A800F037FA03AB07C36D10641C002DFC
:10267000E6D10998002806D032466946012303A80E
:1026800000F07EFA05E001233246694603A800F017
:1026900021FA0A9B07C30DB0F0BD0000A030000076
:1026A000034640000A4610B5400D0BD00121C90772
:1026B0000F24A40200191C0364082143540D214374
:1026C000D20207E000210120F2E7D40F49002143A4
:1026D0005200401E0029F8DADB0FDB07184310BD5B
:1026E000FFB50D46144685B04868516801F028F9D9
:1026F00000910190A868A16801F022F9029103906D
:10270000A868616801F01CF9029A121882420292CC
:1027100001D2012000E00020019A0B18D2180028F5
:10272000019202D08A4202D903E08A4201D20120FA
:1027300000E000200099081800906868A16801F086
:10274000FFF8029A12188242029201D2012000E0A0
:102750000020019A0B18D2180028019202D08A4258
:1027600002D903E08A4201D2012000E00020009952
:10277000081800902868216840004900400849086E
:102780004018FA49471814E001994000C90F08435E
:102790000090019802994000C90F084301900298E7
:1027A00003994000C90F08430290039840007F1E20
:1027B000039000980028E7DA0898002801D0EC4E32
:1027C00000E00026B74201DA012000E000200028E6
:1027D00004902AD0F71BF806C00E15D0029B2021CA
:1027E000091A039A8B401A430392029A019BC24032
:1027F0008B401A430292019A009BC2408B40009981
:102800001A430192C14000917B110DD06F46032005
:10281000C11A03D500218200B95003E08A0081006B
:10282000BA587A50401EF3D53746039802990028CB
:1028300000D00120014308980291002808460CD0DE
:10284000002800D001200199019A4905084301217F
:10285000D20AC902D202019200E001210E9B01229C
:10286000D207012B02D0002B03D013E0002807D1A0
:1028700020E0904204D890420CD1019B0B4209D039
:10288000019B5918019105D10099491C009101D172
:102890007F1C009200280DD0102108460020C04661
:1028A0000498002806D00F98002803D00821084675
:1028B0000020C04628682168019B009A4840C10F4B
:1028C0000598C90739430EC009B0F0BDFFB587B000
:1028D000099A0898089953689268406889689646EA
:1028E0000022039317469446089A12685300099AE7
:1028F0005B081268520052089A1A9E4BD4180A9A22
:10290000002A01D0352200E0402206920022012355
:1029100015460492DB07059324E0002D05D175468A
:102920000346039E4D1BB34109D375466646039B80
:10293000491B049D9841059B7519AC465F41634650
:102940003B4308D0059B049EDD0776082E435B08B9
:102950000496059301E0521E641EC50FED07491849
:102960004041521C069B9A42D7DB002D04D175468C
:10297000039A6B1A824101D203200CE0039A0B46A2
:102980006B404240134303D0014303D0012002E0D7
:10299000022000E000206146019100210097029191
:1029A0000A99002905D0614640020143704B01910C
:1029B00002E08007002302909C4201DA012000E03F
:1029C000002007003AD01A1BD006C00E15D0029D79
:1029D0002021019C091AC5408C402543029C8C4053
:1029E00000D001242543019C0295009DC4408D40E8
:1029F00000992C430194C140009154111DD06D46A3
:102A00000221002202290CD10320001B07E000282C
:102A100004DB8600AE59002E00D00122401C0328A2
:102A2000F5DB081B02D588002A5004E080002858F6
:102A300010438A00A850491EE3D51C460A98002876
:102A400002980CD0002800D001200199019A490574
:102A500008430121D20AC902D202019200E00121F9
:102A6000109B0122D207012B02D0002B03D013E0D0
:102A7000002807D11FE0904204D890420CD1019B5E
:102A80000B4209D0019B5918019105D10099491CAD
:102A9000009101D1641C009200280CD0102108463E
:102AA0000020C046002F06D01198002803D008212E
:102AB00008460020C04608980999019A009B0068C2
:102AC00009684840C10F0798C907214382600AC0BE
:102AD0000BB0F0BD00B585B0019300920A460146E7
:102AE000002302A8FFF7FCFD02A807C805B000BD3F
:102AF000FFB50A461F4685B007990193012300914F
:102B0000014602A8FFF7ECFD02990398049ECA0F44
:102B10004900D20700920F22490892028C1A002124
:102B2000002800DB0C46450013486D08844214D38E
:102B3000079A002A04DA441E0026104DF64302E0EC
:102B400004460D460E46102108460020C046002FC0
:102B500003D0042108460020C0462005E90A0843A6
:102B6000009908436905F20A1143ADE602C0FFFF70
:102B7000013C0000FF3F0000FF070000FFFFFF7F58
:102B800000B585B0019300920A460146002302A8D1
:102B9000FFF79CFE02A807C8A8E7FFB50A461F4634
:102BA00085B00799019301230091014602A8FFF720
:102BB0008DFE02990398049ECA0F4900D207009225
:102BC0000F22490892028C1A0021002800DB0C46D3
:102BD000450011486D08844214D3079A002A04DA8C
:102BE000441E00260D4DF64302E004460D460E46F7
:102BF000102108460020C046002F03D004210846BB
:102C00000020C0462005E90A0843009908436905E9
:102C1000F20A114358E60000FF070000FFFFFF7FA4
:102C200070B505460C460A2000E06D1C00F054F813
:102C3000002D06D028780028F7D102E0641C00F0AF
:102C40004BF8002C02D020780028F7D10A2000F0A1
:102C500043F870BD10B5014602A0FFF7E1FF012067
:102C600010BD000053494752545245443A20526522
:102C70006469726563743A2063616E2774206F70B3
:102C8000656E3A200000000010B5012805D0002133
:102C900003A0FFF7C5FF012010BD09A1F8E7000060
:102CA00053494752544D454D3A204F7574206F6635
:102CB0002068656170206D656D6F7279000000009D
:102CC0003A2048656170206D656D6F727920636F81
:102CD000727275707465640008B5694608700320E7
:102CE000ABBE08BD704730B58C180278401C130786
:102CF0001B0F01D10378401C120906D10278401C39
:102D000003E00578401C0D70491C5B1EF9D101E001
:102D10000B70491C521EFBD1A142E6D3002030BDEE
:102D200010B5C046C04601F021FA10BD0021C160B7
:102D3000704700B587B01021684601F07DF907B0F3
:102D400000BD0000F3B50A4D81B0AC680F46A8681D
:102D5000002807D1074E21463446C0222046FDF701
:102D600097FAAE60019880000019076403B0F0BDC7
:102D700000ED00E000F0FF1F1D48002101601D482C
:102D8000826B43151A4382631C4A1B4850601C48DF
:102D900083681C4A13408360C3681340C3601A4AA7
:102DA000892010701948242242709A220270C27839
:102DB000D206D20EC2700122027141718179C90618
:102DC000FCD481790907890F0229FAD14021417188
:102DD00081790907890F0229FAD181794906FCD541
:102DE0001A21017081790907890F0329FAD17047E7
:102DF0000081044000800440000001104080044035
:102E000040900440FFF8FFFE00500640004006409E
:102E100000B502461106080F00F002F90B49C8710F
:102E200000BF0A480079802108400028F9D0100727
:102E3000000F00F0F5F80549C87100BF034800799C
:102E4000802108400028F9D000BD000000A0064005
:102E500010E00178094AD171401C00BF0749097987
:102E6000802211400029F9D00449097940221140FB
:102E70000029F3D001780029EBD1704700A006406B
:102E800000BF0B4909680B4A12689142F9D0094901
:102E90000968087807490968491C064A1160114603
:102EA0000A6805498A4202D30A39024A116070470A
:102EB000ECF0FF1FF0F0FF1F42F2FF1F0448006814
:102EC00004490968884201D1002070470120FCE7CD
:102ED000ECF0FF1FF0F0FF1F10B5002400BF26E04C
:102EE0000C2161431B4A50581B4900F0CBF80028C5
:102EF00000D11EE0174A516D0C226243154B9858C1
:102F000000F0C0F8002810D114A0FFF7A1FF12486C
:102F1000FFF79EFF12A0FFF79BFF0A210E48FDF767
:102F2000B7FD00201949087010BD601CC4B2082C00
:102F3000D6DB00BF0A210848FDF7AAFD0C2161433A
:102F4000044A89188868804700201049087000BF2B
:102F5000EAE7000040F1FF1F6AF2FF1F0D0A270099
:102F60002720636F6D6D616E6420666F756E642CD3
:102F7000207072657373206820666F7220746865B4
:102F8000206D656E75210D0A00000000FCF0FF1F2A
:102F900011E001780A4A12681170401C084909685A
:102FA000491C074A116011460A6806498A4202D341
:102FB0002839034A116001780029EAD170470000DE
:102FC000F4F0FF1F6AF2FF1F0849096808700749FB
:102FD0000968491C054A116011460A6804498A4279
:102FE00002D32839014A116070470000F4F0FF1F36
:102FF0006AF2FF1F10B502200449087004A0FFF711
:10300000C7FF00200549087010BD0000E8F0FF1F51
:103010000D0A44454255470D0A000000ACF1FF1F60
:103020000146092903DC08463030C0B27047080762
:10303000000F3730FAE7000010B50020044908708F
:1030400004A0FFF7A5FF00200549087010BD00008F
:10305000E8F0FF1F0D0A51554945540D0A000000C4
:10306000ACF1FF1F10B501200249087002A0FFF764
:103070008FFF10BDE8F0FF1F0D0A4E4F524D414C1F
:103080000D0A000010B502460B46002100BF08E003
:10309000505C5C5CA04203D0505C5C5C001B10BDCB
:1030A000491C505C0028F3D1585C002800D1F6E799
:1030B0000020C043F3E7000010B5074800F0E0F837
:1030C000002801D1012000E00020044621460248EA
:1030D00000F0CDF810BD0000B4F2FF1F10B50420C1
:1030E0000449087004A0FFF7B3FE002006490870E9
:1030F00010BD0000E8F0FF1F0D0A5072696E7420C9
:10310000737461636B0D0A00ACF1FF1F10B50520ED
:103110000449087004A0FFF79BFE002007490870CF
:1031200010BD0000E8F0FF1F0D0A5072696E742098
:103130006D656D6F72790D0A00000000ACF1FF1F24
:1031400010B506200749087007A0FFF721FF07A068
:10315000FFF71EFF09A0FFF71BFF00200A490870B8
:1031600010BD0000E8F0FF1F0D0A0000322E3020D5
:10317000323031362F30392F323900000D0A536585
:103180006C65637420200000ACF1FF1F10B50320B4
:103190000449087004A0FFF75BFE0020074908708F
:1031A00010BD0000E8F0FF1F0D0A5072696E742018
:1031B0005265676973746572730D0A00ACF1FF1F85
:1031C00070B504460D462E4600BF00BF0020205EAD
:1031D000401C002804D1242207A117A001F062F8A6
:1031E00000BF002E03D0E1686068086002E021693A
:1031F0006068086000BF70BD6D6265642F54415205
:103200004745545F4B4C32355A2F54415247455431
:103210005F467265657363616C652F544152474523
:10322000545F4B4C58582F6770696F5F6F626A65C7
:1032300063742E68000000006F626A2D3E70696E34
:1032400020213D202850696E4E616D65294E430056
:1032500070B504460D46164618212046FDF71AFCA7
:1032600032462946204600F019FF204670BD70B551
:1032700004460D4629462046FFF7A2FF204670BDB2
:1032800010B5044600BF00BF00BF00BF00BF002054
:10329000205E401C002804D12C2207A116A001F0BA
:1032A00001F800BF6069006861680840002801D02B
:1032B000012010BD0020FCE76D6265642F5441526F
:1032C0004745545F4B4C32355A2F54415247455471
:1032D0005F467265657363616C652F544152474563
:1032E000545F4B4C58582F6770696F5F6F626A6507
:1032F00063742E68000000006F626A2D3E70696E74
:1033000020213D202850696E4E616D65294E430095
:1033100070B504460068416A20468847206801224B
:1033200003690021204698470546401C206811D0BB
:1033300002220369002120469847064620680022A1
:1033400003692946204698472068816A20468847B5
:10335000304670BD816A204688470020C04370BD5A
:1033600070477047F8B504461748184D2060286824
:10337000002801D1281D28600146281D00908142A7
:1033800004D059221249134800F08CFF0021124842
:103390002F6810220E468B00C558A54200D1C6509A
:1033A000491C521EF7D10948002F01D0016801E0E5
:1033B000011D01600098814204D05922044905484A
:1033C00000F070FF2046F8BD10570000C0F0FF1F4E
:1033D0009C58000088580000ECF1FF1F10B50C4607
:1033E000001D01F081FC204610BD000010B5090150
:1033F0000C18A0690C34002805D1FF22E8320449DA
:10340000044800F04FFFE06801682046884710BD7F
:10341000FD580000F8580000FFB581B01849016060
:103420000021416081601C460223102215490C30A6
:1034300000F0C2FA05460C3D002604623001441932
:103440000C34E168104F2046002901D08968884774
:103450000E48761C2760E060022EEFD3281D039AE9
:10346000029901F06FFB281DE96A01F041FA2A4632
:103470000749281D01F02CFC284605B0F0BD0000CE
:10348000445700002D2D000031390000EC58000099
:10349000ED33000001688968084710B50A460469E1
:1034A0000346011D204601F07DFC10BD10B50269E8
:1034B000011D104601F0C0FC10BD000010B504460F
:1034C0000648206000206060A060E06000F068FDB9
:1034D0000349206101F0D3FC204610BD5C57000079
:1034E0009534000010B5044603482060211D206972
:1034F00001F0A2FC204610BD5C57000010B5002171
:10350000FDF704FA10BD000010B51C46029BFFF742
:1035100083FF2146303000F06DF8044930380160F7
:10352000034941630349016310BD00007057000067
:10353000CC5700009057000010B50A4901600A49B5
:1035400041630A490163303000F076F830380849A9
:10355000016004460223102206490C30FDF7F2FBFD
:10356000204610BD70570000CC5700009057000057
:103570004457000097530000002070470020704718
:1035800000207047F8B5054600680E460C468F18B7
:10359000416A28468847BC4209D028682178C26A17
:1035A0002846641C9047401C01D0BC42F5D12868D5
:1035B000816A28468847A01BF8BD002070470FB4D9
:1035C00070B504460068416A2046884706AD6069C8
:1035D000FDF70FF92A4660690599FCF7EDFE0546EF
:1035E0002068816A20468847284670BC08BC04B021
:1035F0001847000010B584B000F030F904460A48BE
:1036000020600A48606000206061224608A1684688
:10361000FCF7DAFE07A16846FDF74EF96061FFF797
:103620006DFF204604B010BDDC57000018580000A4
:103630003A257000772B000010B50446054820603D
:10364000054860606069FDF76FF9204600F018F9E1
:1036500010BD0000DC5700001858000070B50D4682
:10366000044600F0E9FB2046FFF720FF6561206972
:1036700001F0DFFB616941182046FFF70EFF00F003
:1036800021FC70BDF7B588B005462E4604A80999FF
:1036900001F072FE114902900A9801F087FE04467B
:1036A000FDF761FB039034461834029F204601F079
:1036B00072FE00BF00BF0194002C04D0394601986F
:1036C00001F05AFE019000BF30460399FFF7C6FF94
:1036D00000BF04A801F05FFE0BB0F0BD00247449E8
:1036E00010B504464068616941182046FFF7D5FED1
:1036F000606A1834002805D1FF22E83204490548E1
:1037000000F0D0FDE06801682046884710BD000049
:10371000FD580000F858000010B51049044601603B
:1037200000F08AFB2046FFF7C1FE606A18340028CB
:1037300002D0816820468847200001D00021E16046
:1037400000F0C0FBE068002802D08168204688476E
:1037500020461838FFF7C6FE10BD000028580000AC
:1037600070B506460D46164801F0D4FD15480468AC
:10377000002C20D0A06800281AD02A463146FDF738
:103780001BF9002814D1A068FDF7F4F8A8420FD166
:103790000B480168002901D1011D0160001D814213
:1037A00004D059220849094800F07CFD204670BD2C
:1037B0006468002CDED1024801F0ACFD002070BD31
:1037C000D4F1FF1FD0F1FF1F9C5800008858000063
:1037D00070B50446002666600A48A16020600D4668
:1037E0002273094801F096FD002D04D007480168B6
:1037F0006160046000E06660034801F08BFD2046D4
:1038000070BD00003C580000D4F1FF1FD0F1FF1F35
:1038100010B504460E4820600E4801F07BFDA068FC
:1038200000280FD00C490868A04202D160680860E7
:1038300008E04168A14203D008464968A142FBD193
:1038400061684160034801F065FD204610BD00003D
:103850003C580000D4F1FF1FD0F1FF1F10B5054AFE
:1038600004C00022FFF7B4FF0349001F01600349B1
:10387000416010BD105700004C58000080580000F7
:1038800010B5001DFFF7C4FF001FFFF76BFD10BD53
:1038900010B504464068002803D0007BC0460128CC
:1038A00001D0002010BD606810BD10B5044640680E
:1038B000002803D0007BC046002801D0002010BDA6
:1038C00060680028FBD0001F10BD4068002800D0B1
:1038D0000120704710B54068002804D0007BC04626
:1038E000002801D0002010BD012010BD10B50446F5
:1038F00000202060606008782F280FD148780028C9
:103900000CD04B1C00211A46236010782F2807D0BA
:10391000002807D0521C491C2260F6E7204610BD43
:10392000501C20601846FFF71BFF6060204610BD4A
:103930007047704710B53038FFF750FD10BD704725
:10394000F8B5040C8BB2264682B25E43104658434B
:103950000D0C370C360400218019164679416E4350
:10396000370C36048019264679416E438919F8BD13
:1039700030B47446641E2578641CAB4204D3635D86
:103980005B00E31830BC18471D46F8E74900CA023F
:103990000243100000D004204A0D01D00122104340
:1039A000044A490D914201D102210843012800D166
:1039B00005207047FF070000FFB581B01C46174681
:1039C0000E0007D0019D02E02846B047ED192046C1
:1039D000641EF9D2019805B0F0BD10B50020FDF7C6
:1039E00025FF10BD38B51A4C2046FFF767FD044689
:1039F0001848206000212046183001F0A9FC044638
:103A0000183C00BF2546144A144928460120C046E8
:103A1000012213491348FFF71BFC01221049091D1D
:103A20001148FFF715FC012210491148FFF710FC5F
:103A30004B20C00100230422082100900D48FFF70D
:103A400063FD0446044A0C490120C04638BD00000D
:103A500074F2FF1F28580000000000001937000012
:103A6000481000009CF2FF1FB4F2FF1F043000005A
:103A7000CCF2FF1FE4F2FF1F3935000002486A460E
:103A8000C008C000704700004FF4FF1F30380A28FC
:103A900001D2012070470020704710B5C046C046D3
:103AA00010BD0000032801DA00207047810007489C
:103AB000002209188039486F4A67002802D001683F
:103AC000496808470020C04370470000ECF1FF1F21
:103AD000032801DA0020704706498000401880382A
:103AE000406F002802D00168896908470020C04360
:103AF00070470000ECF1FF1F032801DA0120704736
:103B00000649800040188038406F002802D00168C4
:103B1000C96808470020C04370470000ECF1FF1F50
:103B2000F3B583B067490398FCF7B6FF4B25664CA5
:103B3000ED01002810D065490398FCF7ADFF00287F
:103B400019D063490398FCF7A7FF002822D0614CE5
:103B5000206800282DD02EE02068002808D10422FB
:103B600008215D4800F0EEFF29465B4800F0C0FEEA
:103B7000002005B0F0BD2068002808D104220821EB
:103B8000554800F0DFFF2946534800F0B1FE012000
:103B900005B0F0BD2068002808D1042208214E4855
:103BA00000F0D0FF29464C4800F0A2FE022005B0EC
:103BB000F0BD201D2060271DB84204D0592247497E
:103BC000474800F06FFB0025464E21686C1EA80098
:103BD0003058002803D06D1C102DF8D301E0102DB3
:103BE0000FD33C48002901D1011D01600068B84293
:103BF00004D0592239493A4800F054FB204605B018
:103C0000F0BD0020C043AC0030513248002901D142
:103C1000011D01600068B84204D059222F49304884
:103C200000F040FB039800783A2811D068460399C9
:103C3000FFF75CFE6846FFF748FE00283CD0684668
:103C4000FFF748FE0028684609D0FFF72EFE2DE05A
:103C50006A4625A10398FCF7EBFC009826E0FFF7E5
:103C600017FE070028D00499880701D5022008E034
:103C7000480701D5012004E0080701D5092000E02C
:103C800000200A07920F02D0012252021043490776
:103C900002D5012189020843029068460068C046A7
:103CA00001463868029A836838469847002803D04E
:103CB0003051E81C05B0F0BD00203051401E05B069
:103CC000F0BD000054550000C8F0FF1F5B55000018
:103CD00063550000C0F0FF1FD0F0FF1F9C5800008C
:103CE00088580000ECF1FF1F3A257000032801DA24
:103CF00000207047064A800080188038406F0028F6
:103D000003D002681369002218470020C04370479F
:103D1000ECF1FF1F70B514460E46032819DA15485A
:103D20000068002809D104220821134800F00AFF86
:103D30004B21C901104800F0DBFD0025002C06D9FD
:103D4000715D0D4800F0D0FF6D1CA542F8D32046F0
:103D50000AE00A49800040188038406F002805D0EA
:103D600001680B6831469847201A70BD0020C04397
:103D700070BD0000C8F0FF1FD0F0FF1FECF1FF1F67
:103D800010B543E0FFF77CF804460D2C02D1FFF795
:103D9000A3F83BE0022C02D02046FFF715F9082CCF
:103DA0000CD11D480078002830D01CA0FFF7F0F897
:103DB00019480078401E1849087027E0032C01D0EC
:103DC000682C0BD10020164908701649087000F0C5
:103DD0009DFF0A211448FCF75BFE17E00E480078AF
:103DE0000A280ADB11A0FFF7D3F80A210E48FCF7D6
:103DF0004FFE00200849087008E00B480649097882
:103E0000445405480078401C03490870FFF756F8F1
:103E10000028B7D110BD0000FCF0FF1F20080000F3
:103E2000E8F0FF1FACF1FF1F6AF2FF1F0D0A546F8D
:103E30006F204C6F6E67210070B5EFF31080C007E4
:103E4000C4170120641C444072B60D4D68680028F8
:103E500000D12C706868401C04D1352209490AA0A1
:103E600000F020FA6868002806D0002C04D139221E
:103E700004490FA000F016FA6868401C686070BD25
:103E8000C4F1FF1FFC5C0000696E7465727275708E
:103E9000745F656E61626C655F636F756E74657289
:103EA000203C2055494E5433325F4D4158000000AC
:103EB000696E74657272757074735F646973616240
:103EC0006C65640010B50E4C6068002816D0EFF3E6
:103ED0001080C007C0170121401C484004D14A226D
:103EE000084909A000F0DEF96068401E6060606863
:103EF000002803D12078002800D162B610BD000050
:103F0000C4F1FF1FFC5C0000696E7465727275700D
:103F100074735F64697361626C6564000FB410B59B
:103F200003A9029800F04CFA012000F001F800000B
:103F300004460848FCF75DFC0748FCF75AFC00F013
:103F400067FA002801D000F049FC002C01D000F0F5
:103F5000D3F9FEE784F3FF1FD8F3FF1F10B507481E
:103F6000FFF78EF9002801D1012000E0002004466F
:103F700021460248FFF77BF910BD00009CF2FF1FAD
:103F800010B58A68002A02DCFDF7A2F910BD521EA6
:103F90008A604A68C0B2531C4B60107010BD0000AC
:103FA000004870470056000070B504460020205EAF
:103FB0000D46401C04D1332209490AA000F072F9D1
:103FC000002D07D0012D04D1A0680168626811435B
:103FD000016070BDA068016862689143F8E7000065
:103FE000485900006F626A2D3E70696E20213D20A5
:103FF0002850696E4E616D65294E430070B50546C7
:1040000001800C46481C14D00121204600F01CFB06
:104010006006C10E012088406860200B05498001C0
:104020004018011DE960091D2961083114306961DA
:10403000A86070BD00F00FF870B5022605460C466A
:10404000FFF7DCFF611C07D000212846FFF7ACFF1B
:104050003146284600F052F870BD000070B50D469C
:1040600004460026FFF7CAFF6D1C12D0A05F401C5B
:1040700004D124220749084800F014F92169606836
:10408000086001212046FFF78FFF3146204600F0EF
:1040900035F870BDA4590000E4400000F8B50446AE
:1040A0000E4600271546FFF7A9FF761C16D0E05FE5
:1040B000401C04D124220A490AA000F0F3F86068E9
:1040C000002D01D0E16800E021690860012120464F
:1040D000FFF76AFF3946204600F010F8F8BD0000EF
:1040E000A45900006F626A2D3E70696E20213D2048
:1040F0002850696E4E616D65294E430010B5024629
:104100000020105E00F0D2FA10BD000070B5144817
:104110000168802211430160124900228B6840240B
:104120000125002B0BD0104E0260866002682243EE
:10413000026002682A4302605B1E8B6070BD0B88C0
:10414000002B09D002608360036823430360036887
:104150002B4303600A8070BD01F050F870BD000071
:1041600000000440DCF0FF1FFFFF00001FB52549E1
:10417000684601F0EDF80546234A29462348FFF733
:1041800081FA684601F007F90024214821490860B6
:10419000214908602148224908602249086022A17B
:1041A0002648FFF70CFA26A0FEF752FE2BA0FEF7DA
:1041B0004FFE2EA0FEF74CFE2DA0FEF749FE2BA0D1
:1041C000FEF746FE00F0A2FD1BE0641C00F00CFBB5
:1041D000FFF7D6FD00F020F92F480088C004C00C7E
:1041E0002E49884204DDFEF767FF00202A49088037
:1041F0002B480078002804D0FFF7B0FE00202849A3
:104200000870E2E7914E000017B7D13874F2FF1F33
:1042100038F2FF1FECF0FF1FF0F0FF1F42F2FF1F0C
:10422000F4F0FF1FF8F0FF1F0D0A48656C6C6F205B
:10423000576F726C64210A0A0D00000014F3FF1F0F
:104240000D0A53797374656D2052657365740D0A98
:10425000436F6465207665722E200000322E302078
:10426000323031362F30392F323900000D0A00003C
:10427000436F707972696768742028632920556ECE
:104280006976657273697479206F6620436F6C6F0D
:104290007261646F00000000A8F1FF1FFF0F0000B3
:1042A000ABF1FF1F70B514460D460646FFF7C4FD7F
:1042B00023462A46314603A000F056F800F01CF8C9
:1042C00070BD00006D626564206173736572746116
:1042D00074696F6E206661696C65643A2025732C81
:1042E0002066696C653A2025732C206C696E652008
:1042F0002564200A0000000086B0FFF79DFD1249EA
:104300006846FFF7ABFE69460020085E401C04D1FA
:1043100024220E490EA0FFF7C5FF039901980860FB
:10432000962000F0BDFF69460020085E401C04D1C5
:104330002422064906A0FFF7B5FF049901980860FA
:10434000962000F0ADFFDEE748100000A459000001
:104350006F626A2D3E70696E20213D202850696E83
:104360004E616D65294E43000FB470B5A0B025AC09
:10437000249DFFF761FD224629466846FCF70AF8AE
:10438000051E11DD0C480068002804D10422082114
:104390000A4800F0D7FB00246E46315D074800F064
:1043A000A3FC641CAC42F8DBFFF78CFD20B070BCB2
:1043B00008BC04B018470000C8F0FF1FD0F0FF1F72
:1043C00070B5A0B00C460546FFF736FD22462946DB
:1043D0006846FBF7DFFF051E11DD0B48006800286B
:1043E00004D104220821094800F0ACFB00246E46E9
:1043F000315D064800F078FC641CAC42F8DBFFF746
:1044000061FD20B070BD0000C8F0FF1FD0F0FF1F9D
:1044100010B500F0DDF910BDF0B5A1B080226D49F6
:1044200001A8FBF735FF6C4800780300FFF7A0FAFE
:1044300007050D2135986409CB00002067490870F5
:10444000C5E0002065490870C1E064480078012893
:104450000ED163A0FEF7FCFC64A0FEF7F9FC65A09A
:10446000FEF7F6FC65A0FEF7F3FC00205B49087040
:10447000ADE05A48007801280ED162A0FEF7E8FCB2
:104480005AA0FEF7E5FC5BA0FEF7E2FC5BA0FEF79E
:10449000DFFC00205149087099E05048007801285D
:1044A00029D15AA0FEF7D4FC00241DE0E10001AAA6
:1044B0008918486880470546E10001AA5058FEF770
:1044C000C7FC280EFEF7A4FC2902080EFEF7A0FC8C
:1044D0002904080EFEF79CFCE8B2FEF799FC4BA0FD
:1044E000FEF7B6FC601CC4B2102CDFDB00203B4999
:1044F0000870394908706AE03848007801282ED1E0
:1045000043A0FEF7A5FC00261027002000903446AB
:104510001AE043A0FEF79CFCE0B2FEF779FC42A053
:10452000FEF796FCA10000984558280EFEF770FC97
:104530002902080EFEF76CFC2904080EFEF768FC41
:10454000E8B2FEF765FC641CBC42E2D32FA0FEF784
:104550007FFC0020214908701F49087000BF36E029
:104560001E48007801282DD132A0FEF771FC684664
:10457000C046064600251AE029A0FEF769FC284639
:10458000FEF746FC28A0FEF763FC3468200EFEF719
:104590003FFC2102080EFEF73BFC2104080EFEF74B
:1045A00037FCE0B2FEF734FC361F681CC5B20F2D95
:1045B000E2DB16A0FEF74CFC002008490870064913
:1045C000087000BF03E01DA0FEF7E2FC00BF00BFC3
:1045D00021B0F0BD6C550000E8F0FF1FADF1FF1FEA
:1045E0000D0A4E4F524D414C2000000020466C6F8A
:1045F000773A20002054656D703A2000204672659D
:10460000713A20000D0A4445425547000D0A00004A
:104610004D656D6F7279206C61796F75740D0A004C
:104620000D0A3078000000003A20202020202030A1
:1046300078000000537461636B0D0A004D6F646570
:10464000204572726F72000070B504460D46401C22
:1046500004D114220D490EA0FFF724FE114A200BAD
:104660006106936BC90E044609340126A640334304
:1046700093630003890040180B4940180168072222
:10468000120291432A021143016070BD145A0000C6
:1046900070696E20213D202850696E4E616D65293C
:1046A0004E430000008004400090044070B5044672
:1046B0000D46401C04D12122054906A0FFF7F2FD5A
:1046C000094820180168890889002943016070BDE4
:1046D000145A000070696E20213D202850696E4EEA
:1046E000616D65294E43000000900440884202D06D
:1046F000421C01D10846704710B5491C04D003A0E4
:10470000FFF70CFC0020C04310BD000070696E6D07
:104710006170206D69732D6D617463680000000025
:10472000002210B5D243431C0BD00023CB5E5B1C90
:104730000ED00023CB5E834205D14C68601C08D0AC
:104740000AE0104610BD0C23CB5E0C315B1CF0D18F
:10475000144602A0FFF7E2FB204610BD70696E6DA3
:104760006170206E6F7420666F756E6420666F7264
:10477000207065726970686572616C0010B50446DE
:10478000401C0FD00020085E401C12D00020085EA4
:10479000A04208D189682046FFF756FF0021204635
:1047A000FFF784FF10BD0C20085E0C31401C002870
:1047B000ECD102A0FFF7B2FB10BD0000636F756C77
:1047C00064206E6F742070696E6F75740000000055
:1047D0000148006870470000CCF1FF1F84B06946B3
:1047E0001820ABBE04B07047384800790821084053
:1047F000002810D036480078401C354908703348EE
:10480000C078042188433149C8700846C078042123
:1048100008432E49C8702D4800790221084000281D
:1048200013D02B480078401C294908702748C079CC
:104830002648C078042188432449C8700846C078B7
:10484000042108432149C87017E02048007920213D
:104850000840002811D01D48C0791E490968087019
:104860001C480068401C1B490860084601681A483B
:10487000814202D30A381749086014480079802120
:10488000084000281ED0154800681549096888426C
:1048900015D01348006800780C49C87110480068AA
:1048A000401C0F490860084601680E48814202D347
:1048B00028380B49086001200B49087002E00020ED
:1048C00009490870012009490870704700A0064096
:1048D000B8F1FF1FECF0FF1F42F2FF1FF4F0FF1FC3
:1048E000F8F0FF1F6AF2FF1FEAF0FF1FE9F0FF1F59
:1048F000F3B50446006881B0C5780C210D40C1783D
:10490000F3221140C17052492068884270D1514F42
:104910003878800927D1504840685049000F0B680B
:10492000401C797958434E064D494E4A4E6802D490
:1049300096434E6002E016434E604008002812D0B5
:104940003878800964D144484068000F401C5843BF
:104950007B795B064B6802D493434B6063E013435F
:104960004B6040085FE03C4840683C49000F0968E4
:10497000401C484339788909022954D0397889097B
:1049800046D17979490637D4B979C90640D43978FE
:1049900001228906490F8A407978D2B28906890FA7
:1049A00000D05201F97849094901CB06DB0E20D12C
:1049B000491107291DD20B007B441B79DB189F444A
:1049C0000306090C0F1215000521C90112E005218B
:1049D00009020FE00F21C9010CE00521490209E09D
:1049E000B721890006E0B721C90003E01E4901E0B4
:1049F00010E01E49504308E03979CA067979D20E91
:104A0000C906C90E521C50431831FCF795F80AE04C
:104A1000002008E0104840684003410F0F48491C3F
:104A20000068FCF789F802990901FCF785F821680C
:104A30000A78C30452095201DB0E1A430A70216836
:104A40004A7848702068C1782943C17003B0F0BD2E
:104A500000A006400040064040800440D8F0FF1F00
:104A6000008004400000010095080000710B000068
:104A7000F8B51E4615460F460446012B06D0022EF9
:104A800004D0A6221F4920A0FFF70CFC002D08D05F
:104A9000012D06D0022D04D0A7221A492448FFF781
:104AA00001FC082F04D0A822164922A0FFF7FAFB28
:104AB0002068C3780C210B40C178F3221140C170EB
:104AC000280004D0012804D0022D07D104E00025DD
:104AD00003E001252F4601E0012500276800216839
:104AE0003843887020680178DF2211400170206807
:104AF00001787201203A114301702068C17819438E
:104B0000C170F8BDB85A00002873746F705F626995
:104B10007473203D3D203129207C7C202873746FE4
:104B2000705F62697473203D3D20322900000000EF
:104B30006C5A0000646174615F62697473203D3D6A
:104B400020380000F7B5044651490198FFF7E8FD09
:104B5000054650490298FFF7E3FD01462846FFF756
:104B6000C5FD0546401C04D141224B494BA0FFF72F
:104B700099FB4E484F4F2B184D48256006D0D91B46
:104B80002DD0B94230D1416B394326E04A4A1178E1
:104B9000890919D149494968494E090F3668491CA4
:104BA000527971435606474A466802D49643466096
:104BB00002E0164346604908002905D041680122F9
:104BC00092061143416004E041680122D20611437C
:104BD0004160416B012292021143416304E0416B49
:104BE0000122D202114341632068C178F3221140AF
:104BF000C1702068C17808263143C17020680179EE
:104C00004906FCD5C1781140C1700126002B3BD06C
:104C1000D81B3BD0B84201D1022060604B21C901B2
:104C20002046FFF765FE0123002208212046FFF7FA
:104C30001FFF17490198FFF7A1FD16490298FFF7DA
:104C40009DFD0198401C08D02068C17808221143BE
:104C5000C17002210198FFF729FD0298401C08D07D
:104C60002068C17804221143C17002210298FFF725
:104C70001DFD1548854205D114480660626821680B
:104C8000C260816003B0F0BD0020C6E76660C5E782
:104C90007C540000E8540000B85A000028696E7483
:104CA000297561727420213D204E43000060F9BFD8
:104CB0000080044000100000004006404080044096
:104CC000D8F0FF1F0000010000A00640C8F0FF1F41
:104CD000034B59604068034980000A507047000048
:104CE000C8F0FF1F2CF2FF1F10B4082402681379CC
:104CF0001B0702D513792343137102681279D20975
:104D0000D201F3D00068C17110BC704710B511A07A
:104D1000FEF79EF816A0FEF79BF8002414E00C2185
:104D200061431D4A5058FEF793F81CA0FEF790F817
:104D30000C216143184A89184868FEF789F815A0C4
:104D4000FEF786F8601CC4B2072CE8DB14A0FEF75F
:104D50007FF810BD436F6D6D616E64732020204439
:104D600065736372697074696F6E0D0A00000000EC
:104D70002D2D2D2D2D2D2D2D2D2D2D2D2D2D2D2D63
:104D80002D2D2D2D2D2D2D2D2D2D2D2D2D2D2D2D53
:104D90002D2D2D2D0D0A000040F1FF1F2020200099
:104DA0003E000000F8B51C4616460D460746FFF7C4
:104DB00043F82E606C60796800204C68002C0DD0A0
:104DC0002268B21A03D42046A468002CF8D1002827
:104DD00004D08560AC60FFF775F8F8BD4D603868A9
:104DE000016930468847F5E710B504460068C06899
:104DF0008047606840680028206811D0406880477C
:104E000061680246486803689A1A002A0BDC8268C7
:104E10004A60616809680029EBD040688847E8E784
:104E20008068804710BD4868216800680969884724
:104E300010BD00684068004770B50C460546FEF797
:104E4000FBFF68684268A2420CD1A168416000295A
:104E500004D008682968096988470DE028688068D7
:104E6000804709E0002A07D09068A04202D1A068DC
:104E7000906001E00200F7D1FFF724F870BD70B533
:104E8000044600680D46006880476068056070BD94
:104E900055480078401C544908700846007800289E
:104EA00004D152480078401C50490870504800789E
:104EB000002804DD4E480078401E4D4908704D48DA
:104EC0000078002804DD4B480078401E49490870EE
:104ED00045480078C007C00F002875D142480078C7
:104EE00002210840002812D043480078002804DD41
:104EF00041480078401E404908704048007800282A
:104F000062DD3E480078401E3C4908705CE036484F
:104F1000007804210840002856D133480078082141
:104F20000840002850D1304800781021084000285F
:104F300012D033480078002804DD31480078401E44
:104F40002F4908702F48007800283DDD2D48007853
:104F5000401E2C49087037E0234800782021084083
:104F6000002812D028480078002804DD2648007860
:104F7000401E2549087025480078002824DD234874
:104F80000078401E214908701EE021480078401E2C
:104F90001F49087008460078012801D11D49087092
:104FA0001D480078401E1C490870084600780028FB
:104FB0000AD14E20087019480078002801D101203C
:104FC00000E000201549087015480068401C14498D
:104FD000086014480088401C124908801248008864
:104FE000401C114908807047B6F1FF1FB7F1FF1F41
:104FF000A0F1FF1FA1F1FF1FA2F1FF1FA3F1FF1FEF
:10500000A4F1FF1FA5F1FF1FA6F1FF1FA7F1FF1FCE
:10501000ACF1FF1FADF1FF1FAAF1FF1FABF1FF1FA6
:10502000B0F1FF1FB4F1FF1FA8F1FF1F7047000090
:10503000024801684022914301607047000004402B
:1050400060484168002970D1F8B501245E4E446083
:10505000F06BE1050843F0635C48002707605C4D96
:10506000A01E28610420A861A8692043A8615948AE
:1050700040684003410F5848491C0068FBF75CFD3D
:10508000564940184900FBF757FD401E2860AC60A8
:10509000B06B2043B063524D2F6052491C20FDF786
:1050A00051FE5149200708604A4840684A49000FAC
:1050B0000968401C4D4E484331788909022948D07F
:1050C0003178890953D17179490637D4B179C90644
:1050D0004DD4317889064A0F21469140CAB2717881
:1050E0008906890F00D05201F17849094901CB06A0
:1050F000DB0E20D1491107291DD20B007B441B79FF
:10510000DB189F440306090C0F1316000521C90183
:1051100012E0052109020FE00F21C9010CE0052171
:10512000490209E0B721890006E04AE0B721C90039
:1051300002E02F4900E02F49504308E03179CA06C8
:105140007179D20EC906C90E521C50431831FBF7B3
:10515000F3FC00280BD02849FBF7EEFC002906D110
:1051600001281ED0400801281DD0C2071FD030786A
:105170000221084330707078204370706F60307A7D
:105180000E21084016D0022818D0307AF1210840AC
:105190003072317A042001433172696801436960D9
:1051A000F8BD07200BE00807400EC01C07E04008D0
:1051B000491CD8E768680821084300E0686868600F
:1051C000F8BD7047DCF0FF1F008004400070034012
:1051D0000071034040800440D8F0FF1F20A1070069
:1051E000000004400D41000000E100E000400640E6
:1051F00095080000710B000040420F0010B50248F6
:10520000FFF7F2FD10BD00000056000010B5054884
:105210004068002801D1FFF713FF03484069C043ED
:1052200010BD0000DCF0FF1F0071034070B5184C8A
:1052300005466068002801D1FFF702FF1548406964
:10524000C043281A002802DCFFF7D8FF70BD011404
:1052500083B2A16000221048402501262380002946
:105260000BD00E4B0260836002682A430260026822
:1052700032430260491EA16070BD02608360016814
:1052800029430160016831430160228070BD000044
:10529000DCF0FF1F0071034000000440FFFF00002E
:1052A00070B57D21C90048430446FFF7AFFF0546AE
:1052B000FFF7ACFF401BA042FAD370BD10B5002928
:1052C0000AD00878002807D005487844FBF7E4FBAB
:1052D000002801D0002010BD0248784410BD000015
:1052E000960A00008E0A000010B500290AD008783E
:1052F000002807D005487844FBF7CEFB002801D0F2
:10530000002010BD0248784410BD0000860A00004D
:105310007E0A000010B504460068002801D1201D57
:1053200020602168201D814204D05922024903488F
:10533000FEF7B8FF206810BD9C5800008858000098
:10534000006800477047002801D009680160704775
:1053500010B50A46002A01D1C16009E0014608469D
:1053600000BF031E00D01A60024CCC6000BF00BF1B
:1053700010BD0000EC58000070B505460C46E06812
:10538000002804D0E0682146426828469047E0683B
:10539000E860284670BD10B50446C068002802D0F9
:1053A000816820468847204610BD000070B5420045
:1053B00064414B005C41120E39D01B0E38D0FF2ADD
:1053C0003CD0FF2B3AD040024902400A490A06006D
:1053D00045184E43000A090AD2184843ED017F3AA6
:1053E0000104731A4019190C4318990F04D00121B4
:1053F0005B0849075B1A521CD80904D3401CF5030B
:1054000001D19D0607D0FF2A08D2D50506D0E407B2
:105410002043401970BD0125A843F4E7002A01DCB0
:10542000E00770BD2402FF202043C00570BD1B0EA5
:10543000FF2A03D0FF2B01D0E00770BDFF264500F7
:105440003606B54206D84D00B54203D8D218FF2A19
:1054500000D0E7E7004870BD0000C07F03B40248F9
:105460007844844603BC604733C6FFFF03B4024858
:105470007844844603BC60479DC8FFFF10200000AD
:1054800000B00640030000000800000000A0064035
:10549000020000001430000000C0064003000000BD
:1054A0000C30000000C00640030000001C3000006B
:1054B00000A00640030000005040000000A006408D
:1054C000040000005840000000C006400400000036
:1054D0000040000000B0064003000000FFFF000095
:1054E000FFFFFFFF000000000C20000000B006409E
:1054F000030000000400000000A0064002000000BD
:105500001030000000C0064003000000083000001A
:1055100000C00640030000001830000000A0064054
:10552000030000005C40000000C0064004000000D2
:105530005440000000A006400400000004400000A9
:1055400000B0064003000000FFFF0000FFFFFFFF68
:10555000000000002F737464696E002F7374646F11
:105560007574002F7374646572720000585C0000DB
:105570004D0200006C5C00004F020000805C0000E7
:1055800053020000945C000057020000A85C000079
:105590005B020000BC5C00005F020000C45C000015
:1055A00063020000CC5C000067020000D45C0000D5
:1055B0006B020000DC5C00006F0200004C5C00002D
:1055C00073020000605C000077020000745C000061
:1055D0007B020000885C00007F0200009C5C0000F1
:1055E00083020000B05C0000870200004150000010
:1055F0000D520000315000002D5000002D520000CF
:10560000EC550000BCF1FF1F3031323334353637F2
:1056100038394142434445464030580030313233F6
:1056200034353637383961626364656640307800F6
:10563000040000080000000000000002000100005B
:105640001000000000000000000000003031323384
:105650003435363738396162636465667870003096
:105660003132333435363738394142434445465870
:105670005000000002400000000000A000000000F8
:1056800005400000000000C8000000000C400000C1
:105690000000409C00000000194000000020BCBE3B
:1056A0000000000034400000BFC91B8E0000000451
:1056B000B5400000504BCFD06607E2CF010000009C
:1056C0006C4100003E8251AADFEEA73401000000C9
:1056D000D9420000DCB5A0E23A301F97FFFFFFFF80
:1056E000B4450000FD25A0C8E9A3C14FFFFFFFFF9F
:1056F000FF3F00000000008000000000FF3F0000AE
:105700000000008000000000000000000000000019
:10571000DB390000DB390000DB390000DB39000039
:10572000DB390000DB390000113300006533000075
:10573000000000006133000063330000000000003F
:105740000000000000000000000000000000000059
:10575000000000000000000000000000E534000030
:1057600000000000DB390000000000000000000025
:1057700000000000000000003935000000000000BB
:105780000000000000000000D0FFFFFF000000004C
:10579000853500007D35000000000000BB350000AD
:1057A0008135000000000000793500000000000095
:1057B00000000000333900003F3900003539000097
:1057C00000000000CCFFFFFF000000000000000010
:1057D000000000000000000000000000853500000F
:1057E0007D35000000000000BB3500008135000061
:1057F000000000007935000039360000000000008C
:105800006133000063330000DB390000DB39000046
:10581000FCFFFFFF0000000000000000000000008F
:105820000000000000000000193700000000000028
:10583000E136000000000000000000001138000008
:10584000000000000000000000000000DB39000044
:10585000DB390000DB390000DB390000DB390000F8
:10586000DB39000011330000813800000000000027
:105870006133000063330000FCFFFFFF0000000005
:1058800000000000000000005F707472203D3D20A9
:105890002854202A29265F6461746100433A2F4A04
:1058A000656E6B696E732F776F726B737061636572
:1058B0002F6D6265642D322D6275696C642D6C6983
:1058C00062726172792F4255494C442F6D62656452
:1058D0002F706C6174666F726D2F53696E676C65A3
:1058E000746F6E5074722E68000000004153000007
:1058F00047530000455300005F6F707300433A2F19
:105900004A656E6B696E732F776F726B737061632C
:10591000652F6D6265642D322D6275696C642D6C26
:105920006962726172792F4255494C442F6D6265EC
:10593000642F706C6174666F726D2F43616C6C6262
:1059400061636B2E68000000433A5C4A656E6B69C8
:105950006E735C776F726B73706163655C6D6265AB
:10596000642D322D6275696C642D6C69627261728E
:10597000795C746172676574735C54415247455435
:105980005F467265657363616C655C54415247455F
:10599000545F4B4C58585C6770696F5F6170692E3B
:1059A00063000000433A2F4A656E6B696E732F7770
:1059B0006F726B73706163652F6D6265642D322D3C
:1059C0006275696C642D6C6962726172792F4255DF
:1059D000494C442F6D6265642F5441524745545FD2
:1059E0004B4C32355A2F5441524745545F467265ED
:1059F000657363616C652F5441524745545F4B4C4E
:105A000058582F6770696F5F6F626A6563742E689C
:105A100000000000433A5C4A656E6B696E735C7708
:105A20006F726B73706163655C6D6265642D322D9E
:105A30006275696C642D6C6962726172795C746103
:105A400072676574735C5441524745545F46726592
:105A5000657363616C655C5441524745545F4B4CC0
:105A600058585C70696E6D61702E630028706172A9
:105A7000697479203D3D205061726974794E6F6E72
:105A80006529207C7C2028706172697479203D3DF5
:105A9000205061726974794F646429207C7C2028CD
:105AA000706172697479203D3D205061726974792A
:105AB0004576656E29000000433A5C4A656E6B6965
:105AC0006E735C776F726B73706163655C6D62653A
:105AD000642D322D6275696C642D6C69627261721D
