:020000040000FA
:1000000000300020E5020000152D0000EF02000086
:1000100000000000000000000000000000000000E0
:10002000000000000000000000000000F1020000DD
:100030000000000000000000F3020000F5020000D4
:10004000F7020000F7020000F7020000F7020000CC
:10005000F7020000F7020000F7020000F7020000BC
:10006000F7020000F7020000F7020000F7020000AC
:10007000F7020000F7020000F7020000F70200009C
:10008000F7020000F7020000F7020000F70200008C
:10009000F7020000F7020000F7020000F70200007C
:1000A000F7020000F7020000F7020000F70200006C
:1000B000F7020000F7020000F7020000F70200005C
:1000C00000F002F800F0C3F80CA030C8083824187B
:1000D0002D18A246671EAB4654465D46AC4201D180
:1000E00000F0B5F87E460F3E0FCCB64601263342EF
:1000F00000D0FB1AA246AB4633431847305A0000E3
:10010000505A0000103A02D378C878C1FAD8520782
:1001100001D330C830C101D504680C6070470000BD
:100120000023002400250026103A01D378C1FBD813
:10013000520700D330C100D50B60704710B56E294F
:1001400002D100F071FF10BD702902D100F0B5F9A5
:1001500010BD662902D105F017F910BD652902D13D
:1001600005F012F910BD672902D105F00DF910BD97
:10017000612902D105F010F910BD03681B0A01D3F3
:1001800080231943692902D100F018FF10BD6429AA
:1001900002D100F013FF10BD752902D100F00EFF4F
:1001A00010BD6F2902D101F03DF810BD782902D1B0
:1001B00000F070F910BDE92902D100F0D9FF10BD9F
:1001C000E42902D100F0D4FF10BDF52902D100F0DE
:1001D000CFFF10BDEF2902D101F030F810BDF82992
:1001E00002D100F065F910BD0368DB0901D380235B
:1001F0001943632902D101F010FF10BD732902D108
:1002000001F013FF10BDE32902D101F01DFF10BD65
:10021000F32902D101F020FF10BD002010BD1FB551
:100220000098019900F0DBFD02F090F90400002035
:10023000002104F0EFFF401C60600020002104F06A
:10024000D3FFE06001F062FA00F072FD1FBD03F021
:1002500095FB114603B403F0A0FB03BCFFF7DFFFDF
:1002600002F04FFD03F0FEFD7047080070471000DC
:100270007047180070472000704728007047300012
:1002800070473800704740467047484670475046B0
:1002900070475846704760467047684670477046DA
:1002A00070477846704768467047000070B505464D
:1002B0000C46164602E00FCC0FC5103E102EFAD2A7
:1002C000082E02D303CC03C5083E042E07D301CC6D
:1002D00001C5361F03E021782970641C6D1C761E51
:1002E000F9D270BD0448804704480047FEE7FEE7A6
:1002F000FEE7FEE7FEE7FEE7592D0000C100000023
:1003000070B5064600F050FD056830460B30C40855
:10031000E400B44201D8002070BD68682A46002875
:1003200018D00168A14211D30B46214608318B42F7
:1003300008D3436801194B6003681B1B0B605160B5
:10034000046001E041685160001D70BD02464068D4
:100350000028E6D12146284600F02CFD0028DCD1FB
:1003600070BD70B50446051F00F01EFD0068002C2E
:100370001AD0446801E020466468002C01D0AC42E9
:10038000F9D301680A18AA4204D12A6805468918D7
:10039000016000E0456028684119A14205D161680B
:1003A000696021684018286070BD6C6070BD0000F5
:1003B0001CB50C46064B7B4469460090204600F075
:1003C0004CFE04460020694600F05AFE20461CBD43
:1003D000C70C000010B50B460146184600F056FE4B
:1003E00010BD10B5002902D0FF22013201E0012228
:1003F000920201235B0201F0EBF810BD70477047D9
:10040000FFFFFFFFFFFFFFFFFFFFFFFFFEFFFFFFFD
:100410000FB41CB5084B06AA7B44694600900598AA
:1004200000F01BFE04460020694600F029FE20462D
:100430001CBC08BC04B01847650C0000F8B50F469A
:100440000188090502D5224C7C4402E0204C7C4402
:100450000E3405460021243508E016071209360F30
:10046000A65D6E541E0732431B09491C16461E43E7
:10047000F3D1224604780023240705D5702F06D037
:10048000002901D00223113200F03FFDF8BD012305
:100490001032F9E770B504460D462146106800F0A9
:1004A00002FD0023024629462046FFF7C7FF70BD24
:1004B000D21DD308DB000CCBC0E730B40368202486
:1004C0001268234303600823C36130BC0023B5E7EF
:1004D000E8500000F3B50446002081B020622046B9
:1004E000E1688847002872D0252802D06268A16898
:1004F000ABE0594F00267F442046E168884720281A
:10050000054608DB312D06D27819203800780028FE
:1005100001D00643F0E7B00701D504208643002050
:10052000E0610746A0612A2D0AD0284603F02EFA82
:10053000002827D0B8000019303D0090856119E0EF
:100540000298BA00121902C8916102902046E1682F
:100550008847012F054617D1E06900281FDA2020BF
:1005600086431CE000980A2180694843009940199D
:10057000303888612046E1688847054603F006FA6E
:100580000028EFD1012F0AD02E2D08D12046E16896
:1005900088470546202006437F1C022FC3DBA06945
:1005A000002803DA4042A06101200643F00701D091
:1005B000102086436C2D0BD0682D09D04C2D3CD0DB
:1005C0006A2D38D0742D38D07A2D36D016E040E020
:1005D000E1682F4620468847B842054609D16C2F6E
:1005E00029D001208002E16806432046884705465D
:1005F00004E06C2F1DD0FF2001300643002D28D0D1
:1006000028464138192803D80120C0020643203566
:10061000204626602946029A1646FFF78FFD0028DD
:1006200010D001280BD0F61DF008C0000830029051
:1006300055E74020E1E78020D5E70020D3E7361DCD
:1006400002964CE762682846A1689047206A401CE1
:1006500044E7206AFEBD0000625000000FB400B500
:100660008DB010A909900B900020C04300910A9012
:1006700000200C90074878440690074878446A4662
:1006800007900F9909A800F0F9FD0DB008BC04B05F
:1006900018470000270C0000410C0000FFB51D4664
:1006A0000027FF4383B05C68002001909E68A96921
:1006B00004987F1C88470090296A88470028F6D153
:1006C0000098401C0CD0032040028443002E19DD0A
:1006D000600614D500982B2809D02D280FD103E0EF
:1006E0000020C04307B0F0BD012080020443A96987
:1006F00004987F1C8847761E002E009002DD00982B
:10070000302803D00598002825D035E00120A969BC
:1007100040020443761E04987F1C8847002E0090F8
:1007200003DD782805D0582803D00598002810D07C
:1007300022E00598002801D010281DD10120A969C8
:1007400040028443761E04987F1C88470090102046
:1007500002E0082000E00A2005900DE00121059A42
:1007600049020C430199761E514308180190A9696A
:1007700004987F1C88470090002E05DD059900989D
:1007800000F066FD0028E9DAE96904988847A005C9
:1007900002D40120C043A5E7E00722D1600611D5AD
:1007A0006005019800D5404229680A1D2A60096841
:1007B000220501D5087014E0220701D5088010E059
:1007C00008600EE02868011D29600068210502D537
:1007D0000199017005E02107019901D5018000E030
:1007E000016038467EE7000070B50446C0688107A6
:1007F00013D0800601D5A56A04E0A169606840189D
:100800002169451A204600F039FF00220646294694
:10081000204600F063FE304670BD002070BD70B50C
:10082000002802D0FFF7E0FF70BD0025074C6E1EC8
:1008300008E02046FFF7D8FF002800D03546206D9D
:1008400044086400002CF4D1284670BD90F2FF1FCC
:10085000F7B516460C46104600F06EF82078611C7D
:1008600061280AD0722802D0772839D102E0012508
:10087000002404E00225042401E02D4D0824022276
:10088000032301270878491C2B2806D0622807D0AB
:100890002039C87F742807D008E01D431443F1E7CE
:1008A000042005433C43EDE7102004430098214613
:1008B00003F0B6F8411C13D00021316171600121B1
:1008C000F5604902F1617061200704D530460222CB
:1008D000002100F003FE306D384330653046FEBD28
:1008E0000020FEBDF8B50D460646124C206DC1072E
:1008F00004D0410804D044086400F7E7224610E021
:100900005420FFF7FDFC070010D07908206D490046
:1009100001221143084354212065384600F0C2F8F3
:100920003A4629463046FFF793FFF8BD0020F8BD50
:100930000280000090F2FF1FFEB504464669006980
:100940000F4F0190E56800200090A80707D02046CF
:1009500000F094FE304603F025F8002801DA38460E
:10096000FEBD280502D50198FFF7FBFC4C2120466F
:1009700000F098F8206D4008400020650098FEBD0A
:10098000FFFFFFFF30B5441C03E00178401C002945
:100990000DD08107F9D10B4BDD0104C8D11A914369
:1009A0002940FAD0001B0A0603D0C01E30BD001B30
:1009B00030BD0A0401D0801E30BD0902FCD0401EAB
:1009C00030BD0000010101010346F0B50B439B0758
:1009D0002DD1244DEF01042A29D308C810C95E1B6C
:1009E0009E43121F3E4017D0D8B2E1B2401A3106E2
:1009F000014310D198B2A1B2401A310401430AD187
:100A000018022102000A090A401A3102014302D1E8
:100A1000180E210E401AF0BDA342DCD018BA21BA3C
:100A2000884201D90120F0BD0020C043F0BD002A5A
:100A300001D10020F0BD03780C78401C491C002B2C
:100A40000DD0A3420BD1521E09D003780C78401C64
:100A5000491C002B03D0A34201D1521EEBD1181B1D
:100A6000F0BD00000101010101E004C0091F0429DB
:100A7000FBD28B0701D50280801CC90700D0027011
:100A8000704700290BD0C30702D00270401C491EDA
:100A9000022904D3830702D50280801C891EE3E764
:100AA0000022EEE70022DFE782078B079A4237D168
:100AB00070B5920F0AD0032402780B78401C491CB1
:100AC000002A2BD09A4229D12042F5D11D4EF401A3
:100AD00004C808C9951B9543254010D19A4207D1F7
:100AE00004C808C9951B9543254008D19A42EFD008
:100AF00012BA1BBA01209A4200D2404270BD12BA0B
:100B00001BBA2DBA18241000E0401900E140401A29
:100B100005D12E00E64002D1083CF4D1D01A70BDB8
:100B200002780B78401C491C002A09D09A4207D150
:100B300002780B78401C491C002A01D09A42EFD061
:100B4000D01A704701010101002203098B4273D3BF
:100B5000030A8B4258D3030B8B423CD3030C8B42CA
:100B600021D312E003460B437FD4002243088B427B
:100B700074D303098B425FD3030A8B4244D3030B24
:100B80008B4228D3030C8B420DD3FF22090212BAE9
:100B9000030C8B4202D31212090265D0030B8B4265
:100BA00019D300E0090AC30B8B4201D3CB03C01A4F
:100BB0005241830B8B4201D38B03C01A5241430B2A
:100BC0008B4201D34B03C01A5241030B8B4201D31A
:100BD0000B03C01A5241C30A8B4201D3CB02C01A85
:100BE0005241830A8B4201D38B02C01A5241430AFD
:100BF0008B4201D34B02C01A5241030A8B4201D3EC
:100C00000B02C01A5241CDD2C3098B4201D3CB0192
:100C1000C01A524183098B4201D38B01C01A524141
:100C200043098B4201D34B01C01A524103098B4245
:100C300001D30B01C01A5241C3088B4201D3CB0030
:100C4000C01A524183088B4201D38B00C01A524113
:100C500043088B4201D34B00C01A5241411A00D2C3
:100C600001465241104670475DE0CA0F00D049422C
:100C7000031000D34042534000229C4603098B429C
:100C80002DD3030A8B4212D3FC22890112BA030A24
:100C90008B420CD3890192118B4208D389019211A6
:100CA0008B4204D389013AD0921100E08909C3092B
:100CB0008B4201D3CB01C01A524183098B4201D32D
:100CC0008B01C01A524143098B4201D34B01C01A18
:100CD000524103098B4201D30B01C01A5241C30890
:100CE0008B4201D3CB00C01A524183088B4201D3FF
:100CF0008B00C01A5241D9D243088B4201D34B001A
:100D0000C01A5241411A00D20146634652415B105B
:100D1000104601D34042002B00D54942704763463C
:100D20005B1000D3404201B50020C046C04602BD62
:100D300070B5064C7C44064D7D4403E020680019E4
:100D40008047241DAC42F9D170BD0000404F000027
:100D5000404F0000F8B517460E460546002B07D059
:100D6000104658434419E41B2046B047A542FAD127
:100D700028460838F8BD0102C21504D00123DB075C
:100D80001943002A0ADB9E239A1A02D40846D0404F
:100D90007047FF2241001206914201D9002070479E
:100DA000C017C04370470000004870478CF3FF1F16
:100DB0007047704738B504460A460020694601F07E
:100DC0009BFB002805D002462046009900F042FD1A
:100DD000012038BD10B5012001F04FFB10BDF8B562
:100DE00001F07EFB054600200C461020C04606465A
:100DF000A819A0420DD932466946002001F07CFBBB
:100E0000070001D101F039FB0098A04200D005464F
:100E1000C419FFF7C9FFF61D07460560F008C000BA
:100E20004619284600F008F8B44204D03146386824
:100E3000A21B00F00FFDF8BD002101604160806041
:100E400070471020704770B5044685690068C10678
:100E500001D5302600E02026C00707D070BD6268AB
:100E60003046A1689047206A401C20626D1EF6D56E
:100E700070BD70B5044685690078C00707D170BDA4
:100E80006268A16820209047206A401C20626D1E85
:100E9000F6D570BD09684A0501D540B27047C9054D
:100EA000FCD500B2704709684A0501D5C0B2704749
:100EB000C905FCD580B2704770B50C460546012ABD
:100EC00005D02878800600D5EA69002302E00123D6
:100ED00005E05B1C934202D2E05C0028F9D1A869CE
:100EE000E618C01AA861286AC01828622846FFF7C9
:100EF000AAFF04E06A682078A968641C9047B4429D
:100F0000F8D32846FFF7B5FF70BDFFB504460D4680
:100F100081B0243000902168880604D51022E06951
:100F20009143216000E00120A84201DD471B00E061
:100F300000270498A1697A191018081AA06120786E
:100F4000C00602D42046FFF77EFF002608E0039883
:100F50006268A168805D9047206A401C761C206210
:100F600004988642F3DB2078C0060AD52046FFF7B6
:100F70006AFF06E06268A16830209047206A401C42
:100F8000206238467F1E0028F4DC07E00098626883
:100F9000A168405D9047206A401C206228466D1E73
:100FA0000028F3DC2046FFF764FF2078000602D516
:100FB000022005B0F0BD0120FBE70000F7B50025D9
:100FC00075291068009914A611D0FFF763FF002857
:100FD00002DA404211A608E0009909688A0701D5A3
:100FE0000FA602E0490704D50EA6012501E0FFF790
:100FF0005AFF009F0024243704E001F05DFA3031ED
:101000003955641C0028F8D12B46324621460098F9
:10101000FFF77BFFFEBD0000000000002D00000078
:101020002B0000002000000011680268006A5305D0
:1010300001D5087009E0D30501D5088005E0130645
:1010400002D5C21705C100E008600120704700000A
:1010500001694A1C02610878704700B58FB002919F
:1010600000210591054901937944039111460490AB
:101070006846FFF72FFA0FB000BD0000E5FFFFFF45
:101080000A681070521C0A6070470000084B70B567
:101090000D467B44FFF7E1FF0446284600F022F9A5
:1010A000002802D00020C04370BD204670BD000063
:1010B0001F2E0000F7B50446154686B02B4878442D
:1010C000002703C83E460090019111E007986A4648
:1010D0007100415A02A801F0A4F9411C07D02178FF
:1010E000890603D5E269391891420ED83F18761C5B
:1010F0002078800602D5E069B84206DDAE42E5DB25
:1011000007987100405A0028E0D1A069C01BA06177
:101110002046FFF798FE154878445A3803C80090D7
:101120000020019116E041006A460798415A02A842
:1011300001F077F90590401C0AD0002505E06268AF
:1011400002A8A168405D90476D1C05988542F6D3C2
:101150000498401CB0420490E5DB206AC01920626C
:101160002046FFF786FE09B0F0BD0000AE44000047
:10117000F7B5D21D0025D20815A6D200F52905CA5B
:1011800011D0002A05DA00214042914111A60A46F9
:1011900008E0009909688B0701D50FA602E049070E
:1011A00001D50EA601251146009F0024243704E036
:1011B00000F06AFB30323A55641C02460A43F7D10C
:1011C0002B46324621460098FFF79FFEFEBD0000E9
:1011D000000000002D0000002B0000002000000097
:1011E00070B504460021243408E05507D2086D0F7D
:1011F000303565545D072A43DB08491C15461D43FD
:10120000F3D10468002310A2250708D5A40601D451
:10121000002904D0C46901230CA2641EC461FFF735
:1012200074FE70BD10B5044621461068FFF73BFE02
:10123000002302462046FFF7D3FF10BDD21DD10880
:10124000C9000CC9CCE7000000000000300000001D
:101250003A2800D23038202302469A43412A01D34B
:1012600010463738884201D30020C0437047000041
:1012700002685118137801601846704710B5D160A4
:101280000549794451610549794411620021116190
:10129000114600F0E5FE10BDEBFFFFFF77060000F2
:1012A0004268002A08D001680B78491C002B03D043
:1012B000521E06C0184670470121C160881E704743
:1012C0004268002A0BD0C3680168002B07D18368ED
:1012D0008B4204D0491E521C06C0002070470020DB
:1012E000C0437047C068802108407047F8B5054684
:1012F0000C46C8680521C9048843012189050843B3
:10130000E060800602D5204600F0DEF97149E06811
:101310000140022903D0204600F080F9BCE00521FD
:10132000012249030140D20391420FD1C00306D5E7
:101330006168E06A884200D80846606006E020697B
:10134000E0626060606902F043FBA061A168002276
:10135000EEB200290EDAE06883050BD4C943A16020
:101360000921226049030843E0606068411C616014
:101370000670ACE0E068012149030843E06000200A
:1013800020602069002831D1606902F035FB012519
:1013900027462437ED02002816D0A0898005800F4B
:1013A00008D0E069FEF7ACFF0028206102D0E068B9
:1013B000284318E001202761E061E0680321090269
:1013C0008843012189020DE0E069FEF799FF0028BA
:1013D0002061EFD0E0682843E0608105890F03D1E8
:1013E000FF2101310843E06020696060E2683A4F04
:1013F0002569D0051FD56168E06A884200D8084693
:10140000411B05D02246284600F012F9002843D19E
:10141000E068010204D5E56200206560A06053E049
:10142000691CE1626160E169491E3843A160E060C6
:1014300030462E70F8BD100201D53A4009E06068D0
:10144000411C61600670E06838430A2EE06006D0F7
:101450000022E16A6068814203D90B4602E0012262
:10146000F7E70346A7895B1B7F0504D4E7699F4222
:1014700001DD002A1ED0814200D801460F1A00204B
:10148000E5626560002BA06009DD2246194628460A
:1014900000F0CEF8002802D00020C043F8BD002F95
:1014A00008D0A069E5626560C01BA061E0681021FA
:1014B0000843E060E068000209D56168A069E56260
:1014C000491B40186560A0610120C043F8BD30464B
:1014D000F8BD00008210000000000100F8B50446CD
:1014E00016460D464769007B800730D0384602F02B
:1014F00083FA00282BD132461026002A25D0012A53
:1015000002D0022A23D104E0204600F069FF4519E9
:101510001BE0384602F05CFAE16831430028E160E4
:1015200004DA204600F07AF80120F8BDC9030BD593
:101530006268E16A914200D81146A269891822695D
:10154000891A814200DD08462D18002D01DA02209B
:10155000F8BDE16A6068E268814206D29103E06208
:1015600003D5012149048A433243A669AE4211DC06
:10157000E16A814201D90B4600E003469F192369C5
:10158000FF1AAF4206DD814201D90F4600E007464F
:101590009F4206D1202002430020A060A562206067
:1015A0000DE0AD1BE669AE1B8142A66000D908467E
:1015B000C01A281A2060581960602020824303480E
:1015C00002400020E26040342072F8BDBFCFD7FF58
:1015D00070B5C468A50713D0650211D4D51FF93DB5
:1015E0000AD0FF3D6D1E07D0FF3DFF3D022D07D104
:1015F00001462431012305E0074E5D1EB54201D3AB
:10160000012070BD0161C36141600F2109028C435B
:101610001443C460002070BDFFFFFF00C16880223A
:10162000114392039143C1600021816001607047C2
:10163000F7B514460E463348D5685769054209D0B8
:101640003846A16902F0D2FA002811DB2D48C043C8
:101650000540E5602B4632463846009902F0DAFA3A
:101660004200A1695208B21A89180028A16104D069
:101670002046FFF7D3FF0020C043FEBD70B50446EF
:101680000569C06A6168884200D80846E168052299
:10169000D2049143E160C90314D5A84209D022467F
:1016A000411B2846FFF7C4FF002802D00020C0439A
:1016B00070BDE56200206560A060E068012109045A
:1016C0008843E060002070BD10B50446C06820214A
:1016D0008843E060A16AA06988420ED02046FFF7E7
:1016E000CDFFE06803210903884310210843E0602F
:1016F000A06AA0612069E06260600349E068084078
:10170000E06010BD10000200BFBFFFFF10B54348EE
:101710005421FFF7C7F942485421FFF7C3F9414864
:101720005421FFF7BFF940483C493D4B404A016016
:101730003E4803603B4810605A1C0A65411C19650D
:10174000012101653C48354A3AA17844FFF780F809
:10175000002804D1384878440C3800F088FE384816
:101760002F4A36A17844FFF773F8002804D1344893
:1017700078440C3800F07BFE32482A4A2FA1784486
:10178000FFF766F8002804D12E4878440C3800F0A2
:101790006EFE40232148DC0000212246FFF718FF9F
:1017A000002804D0244878445C3800F060FE1C48CF
:1017B000224640230021FFF70BFF002804D02048D9
:1017C00078445C3800F053FE16482246102300216E
:1017D000FFF7FEFE002804D01A4878445C3800F079
:1017E00046FE10BD0F4870B5006D44080B486400FC
:1017F000FFF7A2F80A48FFF79FF80A48FFF79CF89E
:1018000009E0206D450820466D00FFF795F8204659
:10181000FEF7A7FD2C46002CF3D170BD90F2FF1F00
:10182000E4F2FF1F38F3FF1F3CF1FF1F40F1FF1FE1
:1018300044F1FF1F72000000323D000077000000FD
:101840001F3D00000D3D000010B500F01DFE00F032
:1018500008FE10BD10B50346406801E0034640682D
:10186000002801D08842F9D31868C3188B4206D0EB
:10187000CB1CD808C000001D411A521A0146081D91
:101880000A60FEF76EFD10BD0B4670B50246890773
:101890008008084319469D08141AA941250908071C
:1018A000054308092C194841250A01060D43010A80
:1018B0002C194141200C0D0428430D0C00194D41F9
:1018C000002140194D41C00869070843E908840F09
:1018D0008D002543840024184D4124196D41121BAD
:1018E000AB4107E00925ED432C1152196341002457
:1018F000401C61411C460A250026551BB441F1D20B
:1019000070BD10B5044600F019FE0068005DC00708
:10191000C00F10BD7047FFB50C461E468FB003CAFE
:10192000089009914F007D0D00D16D1E00210846E1
:101930000020C0460321099A89050840002A03DADD
:101940008200801840080840800D01280A9002DDBE
:101950000020C0430A90089807430DD0F048F14991
:10196000281848430714189800281DD07542291ECE
:101970001DDD0A9842421BE01898012802D0002081
:10198000302104E00020F24305E02154401CB04225
:10199000FBDB30460022189B002121540F998B60FD
:1019A0000A60486013B0F0BDBD1B6D1CDFE70A9AEA
:1019B000002900DA69420BA800F014FE0BAB07CB3C
:1019C00003AB07C30899099800F078FE6B4607C37C
:1019D0000146D5480918002D00910BDDD249039826
:1019E0000A9A49424018002303A90390684601F06F
:1019F000D5F808E003990A9A0023081803A9039070
:101A0000684601F075F86B4607C30004000C03D06C
:101A10000020C043410800E01046189A002A03D075
:101A20000022009215461EE0751E05D4FFF72CFF1C
:101A3000303262556D1EF9D501220843079602D057
:101A400000227F1C04E02078302801D100227F1E74
:101A5000002A069787D01EE0112D07DAFFF714FF42
:101A6000303262556D1C02460A43F5D1084303D05B
:101A70000098002819D00EE00021681E05E0235CC4
:101A8000625C63542254401E491C8142F7DBA81B50
:101A9000401E07950690079A18990020A0540F98A9
:101AA000079B069A81600CC07CE7112600201890E5
:101AB00059E7D21DF0B50D460446D10893B0C900D0
:101AC00003C90C900D9101F0E1FE02460D98C00F84
:101AD00001D02D2007E02068810701D52B2002E0EE
:101AE0004007C00F4001032A0F9001D0072A05DBF1
:101AF00003462946204600F031FD0EE1207880069D
:101B000001D5E76900E006272846652D04D0662840
:101B100014D0672D69D12DE00020112F009001DB3A
:101B2000112300E07B1C0CAA03A910A8FFF7F3FE09
:101B30001199002610987D1C0E9142E001203B4631
:101B40000CAAC0070B900120009003A910A8FFF772
:101B5000E2FE119D12981099002600280E9501D1E1
:101B6000781C0D18781B02D446427D1C761EE81B9B
:101B700000903AE0012F00DA01270020112F009099
:101B800001DD112300E03B460CAA03A910A8FFF7D2
:101B9000C2FE11993D46109800260E912178090742
:101BA0000BD40E99A94200DA0D4603A9012D04DDDC
:101BB0004A19203AD27F302A06D0B84201DA011DF4
:101BC00004DA012100910FE06D1EEFE7002802DC2E
:101BD00086192D1A03E0411CA94200DD0D46801B29
:101BE000401C00900120C0070B902078000705D40E
:101BF0000098A84202DB0020C04300906946002004
:101C0000C8720B98012102AF0337C907884225D05B
:101C1000022010902B2011900B9800280BDA4042E4
:101C20000B902D20119006E00B9800F045FC303110
:101C30007F1E0B9039701099481E00291090F3DC1C
:101C40000B980028F0D111987F1E3870208800056D
:101C500001D5452000E065207F1E387001A8C01B1B
:101C6000C01D0B900F98002800D00120411900984A
:101C7000C01709180B980818A169081A401EA0611E
:101C80002078C00602D42046FFF7DDF80F98002820
:101C900005D06268A1689047206A401C20622078C5
:101CA000C00625D52046FFF7CEF821E0002E07DB41
:101CB0000E98B04204DD03A86268805DA16802E06E
:101CC0006268A16830209047206A761C401C206220
:101CD0000098401E002800900AD100F037FCC06830
:101CE00062680168405CA1689047206A401C2062DD
:101CF00028466D1E0028D9DC07E062683878A168A4
:101D00007F1C9047206A401C20620B99481E0029C6
:101D10000B90F2DC2046FFF7ACF8032042E600000F
:101D200001FCFFFF104D0000E1DFFFFFD21DF0B509
:101D300004460D46D0088DB0C0004668076831469D
:101D4000384601F0A3FD0246F00F01D02D2307E035
:101D50002068810701D52B2302E04007C00F430113
:101D60006846002B037001D0012000E00020032A08
:101D70000A9001D0072A04DB2946204600F0EEFB3A
:101D80002DE12078800601D40D2500E0E569700082
:101D9000400D0D2D01904BDA300D00210B900846BF
:101DA0000020C046032189050840002E05DA820084
:101DB0008018C20F1018401008408015012801DD5E
:101DC0000020C043A9000023182906D39C460A46D8
:101DD0000123183A1B07D34003E001221205CA4031
:101DE00094460C31202902D33A46203900E032468D
:101DF0008A40002802DD002A06D119E0002817D108
:101E00000121C9078A4213D3194663467F185E41F0
:101E1000002806D10120C007824202D1084687432C
:101E20009E430B98310D814202D00198401C0190D5
:101E30002088000502D57149794402E06F49794450
:101E400019396B460A9830221A540A980A7C401CA9
:101E50001A54401C0A900198002801DC302000E050
:101E600031201872019A0120002A02D0644BD21846
:101E700004E072003A4302D0614A521C0192002DE4
:101E800002DC2278120703D56A462E205072022007
:101E90000022864694460CE032033601120F6D1E76
:101EA0008B5C02AA13546246521C401C9446052ABD
:101EB00001DA002DF0DC002202AE08E03B0F3F010A
:101EC000CB5C521C6D1E3354401C082A01DA002DD5
:101ED000F4DC23689A0601D511E0401E704504DD4C
:101EE0003218203AD27F302AF7D0002807DD321886
:101EF000203AD27F2E2A02D11A0700D4401E002D8C
:101F000003DD3E223254401C6D1E497C3154019940
:101F1000401C002906DA2D21471C3154019840420B
:101F2000019003E02B21471C315401987D21C90009
:101F3000884206DBFEF716FE3030F0557F1C01911B
:101F400001E0642808DB01986421FEF70BFE3030C5
:101F5000F0557F1C019101E00A2806DB01980A2157
:101F6000FEF700FE3030F0557F1C01980A21FEF785
:101F7000F9FD3031F1550A98A1697F1C7A191018C2
:101F8000081AA0612078C00602D42046FEF75BFF45
:101F9000216A6E460A980818206204E06268307868
:101FA000A168761C90470A98401E0A90401CF5D103
:101FB0002078C00602D52046FEF745FF02AE09E0B4
:101FC0003078761C3E280DD06268A1689047206A60
:101FD000401C20627F1EF3D22046FEF74AFF0DB060
:101FE0000320F0BD206A4019206203E06268A16806
:101FF000302090476D1EEDD3F8E700004F3700000A
:1020000001FCFFFF10B54369002B02D0C046C0465B
:1020100001E0FEF751FF012010BD12780146243186
:102020000A7000224A700122ECE711680022D243B4
:10203000E8E710B54369002B02D0C046C04601E076
:10204000FFF738F8012010BD128801462431828440
:102050000022C2840122ECE711680022D243E8E7A3
:10206000F3B50C468FB000200C90012000260E9096
:1020700008460C3003906269039801219047051EC1
:102080002ED0252D2DD0216A8847002818D06269CE
:10209000039801219047216A88470028F7D1626997
:1020A000411E0398904700E0761CA1690F9888476D
:1020B000216A88470028F7D1E1690F988847DAE755
:1020C000A1690F988847A842074601D1761CD2E73C
:1020D000E1690F9888477F1C02D10C98002877D0BF
:1020E0006BE16269039800273D46394690472A28EC
:1020F0000CD16269039801219047012506E00A216D
:102100004F433F18303FEBD41020054362690398DA
:1021100001219047014630390A2903D2AC498F4248
:10212000DEDCECE7E90600D4AA4F6C280AD04C2884
:1021300010D0682824D06A282ED074280CD07A2891
:102140000AD00DE062690398012190476C2823D0E2
:1021500004211CE020200543626903980121904777
:10216000A760652865604FD026DC582839D01ADC76
:10217000452849D012DC252834D04128B0D143E08D
:102180006269039801219047682802D008210D4315
:10219000E6E70120C002DEE70220DCE7462833D074
:1021A00047289DD130E05B2870D061282CD063286F
:1021B0006CD0642894D161E06F284FD009DC662888
:1021C00022D0672820D0692826D06E2817D12EE08B
:1021D000EFE070284DD073286FD075284ED0782846
:1021E0000DD154E0A1690F9888472528054600D1F4
:1021F0006CE7E1690F9888476D1C00D16DE7DCE062
:102200000A224CE00A2252E0012023466A460F9936
:10221000C043C046C046C5E0402128462346084387
:102220006060A80701D5002239E000223FE0E807FE
:1022300000D020E72068011D21600068290501D534
:10224000067018E7290701D5068014E7A90703D50A
:10225000F117066041600EE706600CE74021284652
:10226000234608436060A80701D5082217E008222A
:102270001DE0594928460840606016E04021284684
:10228000234608436060A807BCD5B9E715E04021A4
:10229000284608436060A80707D52346102201207E
:1022A0000F99C043C046C0467CE01022234601205F
:1022B0000F99C043FEF7F2F974E0002163280B4642
:1022C0000191009102910D9102D05B2807D03BE073
:1022D000E80601D40120A0600120009034E0E0680D
:1022E00001210D906269039890475E2807D1012073
:1022F0000190E06801210D9062690398904721697F
:10230000002906D10B4604AA8F00491C0829D35185
:10231000FADB002851D02169002926D00298401C00
:10232000029062690398012190475D28F1D10198DC
:10233000002808D0002004AB8100401C5A58D2432A
:1023400008285A50F8DB04AB2069002820791CD0FB
:102350004007029A00980D9B0092224602901F4867
:102360000F991DD5C046C0461CE0C117C90E0918FB
:102370004A114909930004AA9A184901411A13689D
:102380000120884003431360CBE7400722461348EF
:102390000F9902D5C046C04604E0C046C04601E0E1
:1023A000C046C04600280ADA401C06D10E98002814
:1023B00003D00020C04311B0F0BD0C98FBE7E90743
:1023C00002D10C99491C0C91361800200E9052E64F
:1023D000CCCCCC0CFFFFFF7FF1F7FFFFFEFFFFFF30
:1023E00010B50146C268900703D0900607D5886AE9
:1023F0000AE000F0AFF801210160881E10BD8B6972
:102400004868C0180B69C01A40310B7A002B02D003
:10241000497A401A10BD1103FCD50028FADD401E90
:1024200010BD70B516460C46054600F087F80368E7
:10243000FF200230C05C012807D0FF2C0ED8185DA9
:1024400000280BD001202C7070BDFF33324621468E
:1024500008331868C3182846984770BD0020C04349
:1024600070BD10B5002801D000F062F810BD10B5A5
:1024700000F0FEFBFFF7F5FF10BD10B500F012FCF9
:10248000FFF7EFFF10BD000010B5002102A000F023
:10249000D5FB012010BD00005349475056464E3A27
:1024A0002050757265207669727475616C20666E55
:1024B0002063616C6C65640001468008081A02099B
:1024C0001018020A1018020C1018C0088200121806
:1024D0005200891A01E0401C0A390A29FBD27047D0
:1024E00001226946114B120382188A421A6001D8F0
:1024F000114670471960704770B50C4C6D46012647
:1025000036032368AD1B9A18AA420ED8AD1A90194B
:10251000EE0F75196D10AA18904200D91046C01D13
:102520000B60C208D200D01A226070BD48F1FF1FB4
:1025300001491820ABBEFEE72600020010B500F0EE
:1025400005F8001D10BD00BFCD2C000000487047ED
:1025500090F3FF1F00487047A4F3FF1FF8B51F4614
:10256000044601230068DB02032601461840072ABF
:1025700005DB002801D017A506E017A504E0002818
:1025800001D016A500E016A5102081432160A069A6
:10259000C01E002FA06101D0401EA0612046FEF7A2
:1025A00052FC002F09D038466268A1689047206A23
:1025B000401C2062C01C206206E0206AFAE76268C4
:1025C0002878A1686D1C9047761EF8D22046FEF749
:1025D00050FCF8BD4E414E006E616E00494E460003
:1025E000696E6600F7B516468AB0334878446C4683
:1025F00003467C33C06F5A689B680DC42E487844EC
:10260000763003AC0DC80DC43720C001081837213F
:102610001B30FEF7A7FA05460C46803D1B3C02D551
:102620006442012000E000200027099010E0E0074C
:102630000CD00C2020497843794432464C3941185B
:102640006846012300F054FA6B4607C364107F1CF0
:10265000002CECD1184F7F442E3F16E0E80712D033
:102660002001C0190EC80691089307920068F04235
:1026700001D1981908903246012306A903A800F059
:1026800037FA03AB07C36D10641C002DE6D109981F
:10269000002806D032466946012303A800F07EFADE
:1026A00005E001233246694603A800F021FA0A9B9F
:1026B00007C30DB0F0BD0000B02F0000034640007E
:1026C0000A4610B5400D0BD00121C9070F24A40202
:1026D00000191C0364082143540D2143D20207E072
:1026E00000210120F2E7D40F490021435200401E8F
:1026F0000029F8DADB0FDB07184310BDFFB50D46E4
:10270000144685B04868516801F0A8F8009101901E
:10271000A868A16801F0A2F802910390A868616816
:1027200001F09CF8029A12188242029201D2012012
:1027300000E00020019A0B18D2180028019202D064
:102740008A4202D903E08A4201D2012000E000203F
:102750000099081800906868A16801F07FF8029A53
:1027600012188242029201D2012000E00020019A58
:102770000B18D2180028019202D08A4202D903E035
:102780008A4201D2012000E0002000990818009040
:102790002868216840004900400849084018FA4963
:1027A000471814E001994000C90F084300900198B0
:1027B00002994000C90F0843019002980399400014
:1027C000C90F08430290039840007F1E03900098B1
:1027D0000028E7DA0898002801D0EC4E00E0002637
:1027E000B74201DA012000E00020002804902AD03E
:1027F000F71BF806C00E15D0029B2021091A039A78
:102800008B401A430392029A019BC2408B401A43A9
:102810000292019A009BC2408B4000991A43019298
:10282000C14000917B110DD06F460320C11A03D522
:1028300000218200B95003E08A008100BA587A5022
:10284000401EF3D5374603980299002800D0012096
:10285000014308980291002808460CD0002800D0B7
:1028600001200199019A490508430121D20AC902B0
:10287000D202019200E001210E9B0122D207012B1E
:1028800002D0002B03D013E0002807D120E09042B3
:1028900004D890420CD1019B0B4209D0019B5918DE
:1028A000019105D10099491C009101D17F1C009232
:1028B00000280DD0102108460020C04604980028AA
:1028C00006D00F98002803D0082108460020C046F3
:1028D00028682168019B009A4840C10F0598C907E4
:1028E00039430EC009B0F0BDFFB587B0099A08980A
:1028F0000899536892684068896896460022039355
:1029000017469446089A12685300099A5B081268A1
:10291000520052089A1A9E4BD4180A9A002A01D0E3
:10292000352200E04022069200220123154604923F
:10293000DB07059324E0002D05D175460346039E71
:102940004D1BB34109D375466646039B491B049D45
:102950009841059B7519AC465F4163463B4308D0DF
:10296000059B049EDD0776082E435B0804960593BD
:1029700001E0521E641EC50FED0749184041521C6C
:10298000069B9A42D7DB002D04D17546039A6B1A39
:10299000824101D203200CE0039A0B466B40424077
:1029A000134303D0014303D0012002E0022000E0E2
:1029B0000020614601910021009702910A990029A7
:1029C00005D0614640020143704B019102E080074F
:1029D000002302909C4201DA012000E00020070061
:1029E0003AD01A1BD006C00E15D0029D2021019CA2
:1029F000091AC5408C402543029C8C4000D001241C
:102A00002543019C0295009DC4408D4000992C43B4
:102A10000194C140009154111DD06D460221002245
:102A200002290CD10320001B07E0002804DB8600EC
:102A3000AE59002E00D00122401C0328F5DB081BF4
:102A400002D588002A5004E08000285810438A00EC
:102A5000A850491EE3D51C460A98002802980CD0BD
:102A6000002800D001200199019A4905084301215D
:102A7000D20AC902D202019200E00121109B012278
:102A8000D207012B02D0002B03D013E0002807D17E
:102A90001FE0904204D890420CD1019B0B4209D018
:102AA000019B5918019105D10099491C009101D150
:102AB000641C009200280CD0102108460020C0465B
:102AC000002F06D01198002803D0082108460020C6
:102AD000C04608980999019A009B00680968484017
:102AE000C10F0798C907214382600AC00BB0F0BD2F
:102AF00000B585B0019300920A460146002302A862
:102B0000FFF7FCFD02A807C805B000BDFFB50A46E7
:102B10001F4685B00799019301230091014602A841
:102B2000FFF7ECFD02990398049ECA0F4900D207F3
:102B300000920F22490892028C1A0021002800DB23
:102B40000C46450013486D08844214D3079A002AA6
:102B500004DA441E0026104DF64302E004460D46FA
:102B60000E46102108460020C046002F03D0042145
:102B700008460020C0462005E90A0843009908439A
:102B80006905F20A1143ADE602C0FFFF013C0000F7
:102B9000FF3F0000FF070000FFFFFF7F00B585B08B
:102BA000019300920A460146002302A8FFF79CFE0B
:102BB00002A807C8A8E7FFB50A461F4685B00799CF
:102BC000019301230091014602A8FFF78DFE0299AF
:102BD0000398049ECA0F4900D20700920F224908A9
:102BE00092028C1A0021002800DB0C464500114897
:102BF0006D08844214D3079A002A04DA441E002682
:102C00000D4DF64302E004460D460E4610210846DF
:102C10000020C046002F03D0042108460020C046F3
:102C20002005E90A0843009908436905F20A11439F
:102C300058E60000FF070000FFFFFF7F70B5054664
:102C40000C460A2000E06D1C00F054F8002D06D060
:102C500028780028F7D102E0641C00F04BF8002C23
:102C600002D020780028F7D10A2000F043F870BD88
:102C700010B5014602A0FFF7E1FF012010BD0000E2
:102C800053494752545245443A205265646972652B
:102C900063743A2063616E2774206F70656E3A200A
:102CA0000000000010B5012805D0002103A0FFF7A7
:102CB000C5FF012010BD09A1F8E7000053494752A4
:102CC000544D454D3A204F7574206F6620686561FC
:102CD00070206D656D6F7279000000003A204865C4
:102CE0006170206D656D6F727920636F727275709F
:102CF0007465640008B5694608700320ABBE08BD62
:102D0000704710B5C046C04601F0CAF910BD002199
:102D1000C160704700B587B01021684601F026F900
:102D200007B000BDF3B50A4D81B0AC680F46A86886
:102D3000002807D1074E21463446C0222046FDF721
:102D4000B5FAAE60019880000019076403B0F0BDC9
:102D500000ED00E000F0FF1F1D48002101601D484C
:102D6000826B43151A4382631C4A1B4850601C48FF
:102D700083681C4A13408360C3681340C3601A4AC7
:102D8000892010701948242242709A220270C27859
:102D9000D206D20EC2700122027141718179C90638
:102DA000FCD481790907890F0229FAD140214171A8
:102DB00081790907890F0229FAD181794906FCD561
:102DC0001A21017081790907890F0329FAD1704707
:102DD0000081044000800440000001104080044055
:102DE00040900440FFF8FFFE0050064000400640BF
:102DF00000B502461106080F00F052F90B49C871E0
:102E000000BF0A480079802108400028F9D0100747
:102E1000000F00F045F90549C87100BF034800796B
:102E2000802108400028F9D000BD000000A0064025
:102E300010E00178094AD171401C00BF07490979A7
:102E4000802211400029F9D004490979402211401B
:102E50000029F3D001780029EBD1704700A006408B
:102E600000BF0B4909680B4A12689142F9D0094921
:102E70000968087807490968491C064A1160114623
:102E80000A6805498A4202D30A39024A116070472A
:102E9000ECF0FF1FF0F0FF1FA2F1FF1F04480068D5
:102EA00004490968884201D1002070470120FCE7ED
:102EB000ECF0FF1FF0F0FF1F70B500243E480078D3
:102EC0000546602860DC442D06D04E2D1CD0512DC7
:102ED0002FD0562D55D144E037484078452811D1A0
:102EE0003548807842280DD134480078032809D12C
:102EF00002203349087033A000F0A0F800203549C3
:102F0000087000E001243EE02B4840784F280ED1A5
:102F10002948807852280AD128480078032806D109
:102F20000120274908702CA000F088F800E0012457
:102F300029E021484078552811D11F488078492838
:102F40000DD11E480078032809D100201C490870C3
:102F500025A000F073F800201E49087000E001244D
:102F600011E003201649087023A000F067F823A0A1
:102F700000F064F825A000F061F800201549087001
:102F800001E0012400BF03E000BF012400BF00BF37
:102F9000012C03D120A000F051F808E0022C03D14D
:102FA00020A000F04BF802E0002004490870002047
:102FB0000249087070BD0000CAF1FF1FFCF0FF1F3E
:102FC000E8F0FF1F0D0A4D6F64653D4445425547CB
:102FD0000A0000000BF1FF1F0D0A4D6F64653D4EA6
:102FE0004F524D414C0A00000D0A4D6F64653D5132
:102FF000554945540A0000000D0A0000322E3020C9
:10300000323031362F30392F323900000D0A5365F6
:103010006C656374202000000A0D4572726F722186
:10302000000000000A0D4E6F7420696E2044454276
:103030005547204D6F6465210000000011E00178C4
:103040000A4A12681170401C08490968491C074A5D
:10305000116011460A6806498A4202D32839034A98
:10306000116001780029EAD170470000F4F0FF1FD9
:10307000CAF1FF1F08490968087007490968491C17
:10308000054A116011460A6804498A4202D3283968
:10309000014A116070470000F4F0FF1FCAF1FF1FE2
:1030A0000146092903DC08463030C0B270470807E2
:1030B000000F3730FAE7000010B5074800F06EF84F
:1030C000002801D1012000E00020044621460248EA
:1030D00000F05BF810BD000014F2FF1F70B504464D
:1030E0000D462E4600BF00BF0020205E401C002879
:1030F00004D1242207A117A001F072F800BF002E0E
:1031000003D0E1686068086002E0216960680860D7
:1031100000BF70BD6D6265642F5441524745545FD6
:103120004B4C32355A2F5441524745545F467265D5
:10313000657363616C652F5441524745545F4B4C36
:1031400058582F6770696F5F6F626A6563742E6885
:10315000000000006F626A2D3E70696E20213D20E4
:103160002850696E4E616D65294E430070B5044666
:103170000D46164618212046FDF794FC3246294696
:10318000204600F025FF204670BD70B504460D4670
:1031900029462046FFF7A2FF204670BD10B5044621
:1031A00000BF00BF00BF00BF00BF0020205E401C6A
:1031B000002804D12C2207A116A001F011F800BFAD
:1031C0006069006861680840002801D0012010BDD6
:1031D0000020FCE76D6265642F5441524745545FFF
:1031E0004B4C32355A2F5441524745545F46726515
:1031F000657363616C652F5441524745545F4B4C76
:1032000058582F6770696F5F6F626A6563742E68C4
:10321000000000006F626A2D3E70696E20213D2023
:103220002850696E4E616D65294E430070B50446A5
:103230000068416A2046884720680122036900210E
:10324000204698470546401C206811D00222036999
:103250000021204698470646206800220369294637
:10326000204698472068816A20468847304670BDCE
:10327000816A204688470020C04370BD7047704770
:10328000F8B504461748184D20602868002801D179
:10329000281D28600146281D0090814204D0592233
:1032A0001249134800F09CFF002112482F68102299
:1032B0000E468B00C558A54200D1C650491C521E6F
:1032C000F7D10948002F01D0016801E0011D01601C
:1032D0000098814204D059220449054800F080FF3B
:1032E0002046F8BD3C560000C0F0FF1FC857000044
:1032F000B45700004CF1FF1F10B50C46001D01F043
:1033000097FC204610BD000010B509010C18A069FB
:103310000C34002805D1FF22E8320449044800F0AB
:103320005FFFE06801682046884710BD295800000B
:1033300024580000FFB581B01849016000214160A8
:1033400081601C460223102215490C3000F0B4FAAB
:1033500005460C3D00260462300144190C34E16836
:10336000104F2046002901D0896888470E48761CF6
:103370002760E060022EEFD3281D039A029901F026
:1033800085FB281DE96A01F057FA2A460749281DDE
:1033900001F042FC284605B0F0BD00007056000068
:1033A0000F2D00004D3800001858000009330000B0
:1033B00001688968084710B50A4604690346011D7B
:1033C000204601F08FFC10BD10B50269011D1046AA
:1033D00001F0D2FC10BD000010B504460648206084
:1033E00000206060A060E06000F074FD034920618F
:1033F00001F0E5FC204610BD88560000B133000006
:1034000010B5044603482060211D206901F0B4FC7A
:10341000204610BD8856000010B50021FCF7E1FFE2
:1034200010BD000010B51C46029BFFF783FF21462C
:10343000303000F06DF804493038016003494163D1
:103440000349016310BD00009C560000F8560000BF
:10345000BC56000010B50A4901600A4941630A4997
:103460000163303000F076F83038084901600446D6
:103470000223102206490C30FDF76CFC204610BDDB
:103480009C560000F8560000BC5600007056000024
:10349000C352000000207047002070470020704792
:1034A000F8B5054600680E460C468F18416A284656
:1034B0008847BC4209D028682178C26A2846641C23
:1034C0009047401C01D0BC42F5D12868816A28464B
:1034D0008847A01BF8BD002070470FB470B50446A4
:1034E0000068416A2046884706AD6069FDF797F994
:1034F0002A4660690599FCF76DFF05462068816AD8
:1035000020468847284670BC08BC04B01847000015
:1035100010B584B000F030F904460A4820600A482B
:10352000606000206061224608A16846FCF770FFD9
:1035300007A16846FDF7D6F96061FFF76DFF2046E9
:1035400004B010BD08570000445700003A25700031
:10355000772B000010B504460548206005486060E0
:103560006069FDF7E9F9204600F018F910BD000088
:10357000085700004457000070B50D46044600F09F
:10358000F5FB2046FFF720FF6561206901F0F1FBA4
:10359000616941182046FFF70EFF00F02DFC70BD59
:1035A000F7B588B005462E4604A8099901F07AFEC1
:1035B000114902900A9801F08FFE0446FDF7DBFBEB
:1035C000039034461834029F204601F07AFE00BF73
:1035D00000BF0194002C04D03946019801F062FE2E
:1035E000019000BF30460399FFF7C6FF00BF04A853
:1035F00001F067FE0BB0F0BD0024744910B504461D
:103600004068616941182046FFF7D5FE606A1834AA
:10361000002805D1FF22E8320449054800F0E0FD0A
:10362000E06801682046884710BD00002958000066
:103630002458000010B510490446016000F096FBC4
:103640002046FFF7C1FE606A1834002802D0816866
:1036500020468847200001D00021E16000F0CCFB2B
:10366000E068002802D08168204688472046183844
:10367000FFF7C6FE10BD00005457000070B50646A7
:103680000D46164801F0DCFD15480468002C20D0DA
:10369000A06800281AD02A463146FDF795F900287F
:1036A00014D1A068FDF76EF9A8420FD10B4801684C
:1036B000002901D1011D0160001D814204D0592261
:1036C0000849094800F08CFD204670BD6468002C54
:1036D000DED1024801F0B4FD002070BD34F1FF1FBF
:1036E00030F1FF1FC8570000B457000070B5044602
:1036F000002666600A48A16020600D4622730948D2
:1037000001F09EFD002D04D007480168616004604F
:1037100000E06660034801F093FD204670BD0000A4
:103720006857000034F1FF1F30F1FF1F10B5044649
:103730000E4820600E4801F083FDA06800280FD0DD
:103740000C490868A04202D16068086008E041683E
:10375000A14203D008464968A142FBD1616841609B
:10376000034801F06DFD204610BD000068570000C1
:1037700034F1FF1F30F1FF1F10B5054A04C00022CD
:10378000FFF7B4FF0349001F01600349416010BD0A
:103790003C56000078570000AC57000010B5001DE3
:1037A000FFF7C4FF001FFFF76BFD10BD10B5044607
:1037B0004068002803D0007BC046012801D00020CB
:1037C00010BD606810BD10B504464068002803D0E5
:1037D000007BC046002801D0002010BD6068002892
:1037E000FBD0001F10BD4068002800D001207047AA
:1037F00010B54068002804D0007BC046002801D0E6
:10380000002010BD012010BD10B50446002020602E
:10381000606008782F280FD1487800280CD04B1C06
:1038200000211A46236010782F2807D0002807D0DF
:10383000521C491C2260F6E7204610BD501C206037
:103840001846FFF71BFF6060204610BD70477047A9
:1038500010B53038FFF750FD10BD7047F8B5040CB7
:103860008BB2264682B25E43104658430D0C370C8D
:10387000360400218019164679416E43370C360410
:103880008019264679416E438919F8BD4900CA025C
:103890000243100000D004204A0D01D00122104341
:1038A000044A490D914201D102210843012800D167
:1038B00005207047FF070000FFB581B01C46174682
:1038C0000E0007D0019D02E02846B047ED192046C2
:1038D000641EF9D2019805B0F0BD10B50020FDF7C7
:1038E000B3FF10BD38B51A4C2046FFF775FD0446EE
:1038F0001848206000212046183001F0BFFC044623
:10390000183C00BF2546144A144928460120C046E9
:10391000012213491348FFF729FC01221049091D10
:103920001148FFF723FC012210491148FFF71EFC44
:103930004B20C00100230422082100900D48FFF70E
:1039400071FD0446044A0C490120C04638BD000000
:10395000D4F1FF1F5457000000000000353600006E
:1039600048100000FCF1FF1F14F2FF1F043000009C
:103970002CF2FF1F44F2FF1F5534000002486A4634
:10398000C008C00070470000AFF3FF1F30380A289E
:1039900001D2012070470020704710B5C046C046D4
:1039A00010BD0000032801DA00207047810007489D
:1039B000002209188039486F4A67002802D0016840
:1039C000496808470020C043704700004CF1FF1FC2
:1039D000032801DA0020704706498000401880382B
:1039E000406F002802D00168896908470020C04361
:1039F000704700004CF1FF1F032801DA01207047D7
:103A00000649800040188038406F002802D00168C5
:103A1000C96808470020C043704700004CF1FF1FF1
:103A2000F3B583B067490398FDF73EF84B25664C24
:103A3000ED01002810D065490398FDF735F80028FE
:103A400019D063490398FDF72FF8002822D0614C64
:103A5000206800282DD02EE02068002808D10422FC
:103A600008215D4801F012F829465B4800F0E4FEA9
:103A7000002005B0F0BD2068002808D104220821EC
:103A8000554801F003F82946534800F0D5FE0120BF
:103A900005B0F0BD2068002808D1042208214E4856
:103AA00000F0F4FF29464C4800F0C6FE022005B0A5
:103AB000F0BD201D2060271DB84204D0592247497F
:103AC000474800F08DFB0025464E21686C1EA8007B
:103AD0003058002803D06D1C102DF8D301E0102DB4
:103AE0000FD33C48002901D1011D01600068B84294
:103AF00004D0592239493A4800F072FB204605B0FB
:103B0000F0BD0020C043AC0030513248002901D143
:103B1000011D01600068B84204D059222F49304885
:103B200000F05EFB039800783A2811D068460399AC
:103B3000FFF76AFE6846FFF756FE00283CD068464D
:103B4000FFF756FE0028684609D0FFF73CFE2DE03F
:103B50006A4625A10398FCF781FD009826E0FFF74F
:103B600025FE070028D00499880701D5022008E027
:103B7000480701D5012004E0080701D5092000E02D
:103B800000200A07920F02D0012252021043490777
:103B900002D5012189020843029068460068C046A8
:103BA00001463868029A836838469847002803D04F
:103BB0003051E81C05B0F0BD00203051401E05B06A
:103BC000F0BD000080540000C8F0FF1F87540000C3
:103BD0008F540000C0F0FF1FD0F0FF1FC857000037
:103BE000B45700004CF1FF1F3A257000032801DA9A
:103BF00000207047064A800080188038406F0028F7
:103C000003D002681369002218470020C0437047A0
:103C10004CF1FF1F70B514460E46032819DA1548FB
:103C20000068002809D104220821134800F02EFF63
:103C30004B21C901104800F0FFFD0025002C06D9DA
:103C4000715D0D4800F0F4FF6D1CA542F8D32046CD
:103C50000AE00A49800040188038406F002805D0EB
:103C600001680B6831469847201A70BD0020C04398
:103C700070BD0000C8F0FF1FD0F0FF1F4CF1FF1F08
:103C800010B55BE0FFF7ECF804460D2C05D12EA033
:103C9000FFF7D4F9FFF710F950E0022C02D02046CC
:103CA000FFF7E8F9082C0BD128480078002807D046
:103CB00027A0FFF7C3F925480078401E2349087064
:103CC000032C05D100202349087000F0C3FF35E024
:103CD0001E4800780A2806DB1FA0FFF7AFF9002076
:103CE0001A4908702AE01F480078002817D11E489A
:103CF0000078022813D01C48007844280FD01A48B6
:103D000000784E280BD018480078562807D00F4866
:103D10000078002803D000200C4908700EE01248FB
:103D20000A490978445409480078401C074908703A
:103D300008460078022801DDFFF7BEF8FFF7AEF86D
:103D400000289FD110BD00002D3E0000FCF0FF1F99
:103D5000200800000BF1FF1F0D0A546F6F204C6FFD
:103D60006E672100E8F0FF1FCAF1FF1F70B5EFF387
:103D70001080C007C4170120641C444072B60D4D6A
:103D80006868002800D12C706868401C04D1352276
:103D900009490AA000F024FA6868002806D0002C1F
:103DA00004D1392204490FA000F01AFA6868401CB7
:103DB000686070BD24F1FF1FE85A0000696E7465E9
:103DC00072727570745F656E61626C655F636F754A
:103DD0006E746572203C2055494E5433325F4D411C
:103DE00058000000696E74657272757074735F6458
:103DF000697361626C65640010B50E4C60680028E0
:103E000016D0EFF31080C007C0170121401C4840B6
:103E100004D14A22084909A000F0E2F96068401E76
:103E200060606068002803D12078002800D162B665
:103E300010BD000024F1FF1FE85A0000696E746590
:103E40007272757074735F64697361626C6564002B
:103E50000FB410B503A9029800F050FA012000F049
:103E600001F8000004460848FCF7D9FC0748FCF7B5
:103E7000D6FC00F06BFA002801D000F04DFC002CBD
:103E800001D000F0D7F9FEE7E4F2FF1F38F3FF1F7F
:103E900010B50748FFF782F9002801D1012000E0A2
:103EA0000020044621460248FFF76FF910BD0000CC
:103EB000FCF1FF1F10B58A68002A02DCFDF716FA34
:103EC00010BD521E8A604A68C0B2531C4B6010700D
:103ED00010BD0000004870472C55000070B5044626
:103EE0000020205E0D46401C04D1332209490AA05F
:103EF00000F076F9002D07D0012D04D1A0680168EB
:103F000062681143016070BDA068016862689143F6
:103F1000F8E70000745800006F626A2D3E70696E09
:103F200020213D202850696E4E616D65294E430069
:103F300070B5054601800C46481C14D0012120466E
:103F400000F020FB6006C10E012088406860200B55
:103F5000054980014018011DE960091D29610831EA
:103F600014306961A86070BD00F00FF870B50226CA
:103F700005460C46FFF7DCFF611C07D000212846F0
:103F8000FFF7ACFF3146284600F052F870BD000044
:103F900070B50D4604460026FFF7CAFF6D1C12D00F
:103FA000A05F401C04D124220749084800F018F9FA
:103FB00021696068086001212046FFF78FFF3146C4
:103FC000204600F035F870BDD058000018400000C1
:103FD000F8B504460E4600271546FFF7A9FF761CE4
:103FE00016D0E05F401C04D124220A490AA000F048
:103FF000F7F86068002D01D0E16800E021690860F1
:1040000001212046FFF76AFF3946204600F010F8EC
:10401000F8BD0000D05800006F626A2D3E70696ED6
:1040200020213D202850696E4E616D65294E430068
:1040300010B502460020105E00F0D6FA10BD000058
:1040400070B51448016880221143016012490022B2
:104050008B6840240125002B0BD0104E0260866037
:1040600002682243026002682A4302605B1E8B6082
:1040700070BD0B88002B09D0026083600368234366
:10408000036003682B4303600A8070BD01F04CF8A5
:1040900070BD000000000440DCF0FF1FFFFF0000C7
:1040A0001FB52449684601F0E9F80546224A294629
:1040B0002248FFF775FA684601F003F920A1244869
:1040C000FFF70BFA002423482349086023490860BE
:1040D0002348244908602449086024A11C48FFF7AC
:1040E000FCF927A0FEF7A4FE2CA0FEF7A1FE17A066
:1040F000FEF79EFE2DA0FEF79BFE14A0FEF798FE95
:1041000000F0A8FD15E0641C00F00CFBFFF7B8FD03
:1041100000F020F92F480088C004C00C2E498842C6
:1041200001DDFEF7C9FF2D480078482801D1FFF7CF
:10413000AFFEE8E7D14D000017B7D138D4F1FF1F2B
:1041400048656C6C6F20576F726C64210D0A00001B
:1041500074F2FF1F98F1FF1FECF0FF1FF0F0FF1F3C
:10416000A2F1FF1FF4F0FF1FF8F0FF1F0D0A4865D2
:104170006C6C6F20576F726C64210A0A0D0000008E
:104180000D0A53797374656D2052657365740D0A59
:10419000436F6465207665722E200000322E302039
:1041A000323031362F30392F32390000436F707979
:1041B00072696768742028632920556E6976657274
:1041C00073697479206F6620436F6C6F7261646FDE
:1041D0000000000008F1FF1FFF0F00000AF1FF1FA1
:1041E00070B514460D460646FFF7C0FD23462A4625
:1041F000314603A000F056F800F01CF870BD000036
:104200006D626564206173736572746174696F6E49
:10421000206661696C65643A2025732C2066696CA0
:10422000653A2025732C206C696E65202564200A70
:104230000000000086B0FFF799FD12496846FFF7BD
:10424000A7FE69460020085E401C04D124220E49C6
:104250000EA0FFF7C5FF039901980860962000F0B3
:10426000B5FF69460020085E401C04D1242206499F
:1042700006A0FFF7B5FF049901980860962000F0AA
:10428000A5FFDEE748100000D05800006F626A2DDD
:104290003E70696E20213D202850696E4E616D652B
:1042A000294E43000FB470B5A0B025AC249DFFF794
:1042B0005DFD224629466846FCF77AF8051E11DDA9
:1042C0000C480068002804D1042208210A4800F0A4
:1042D000DDFB00246E46315D074800F0A9FC641C3C
:1042E000AC42F8DBFFF788FD20B070BC08BC04B01E
:1042F00018470000C8F0FF1FD0F0FF1F70B5A0B036
:104300000C460546FFF732FD224629466846FCF773
:104310004FF8051E11DD0B480068002804D1042267
:104320000821094800F0B2FB00246E46315D0648C2
:1043300000F07EFC641CAC42F8DBFFF75DFD20B0B2
:1043400070BD0000C8F0FF1FD0F0FF1F10B500F0D7
:10435000DDF910BDF0B5A3B08022634903A8FBF7D7
:10436000A5FF62480078002806D001280FD0022857
:1043700021D003287ED106E05DA0FEF75FFE00207D
:104380005C490870ACE000205A490870A8E0594820
:10439000007801280ED158A0FEF74AFD59A0FEF77B
:1043A00047FD5AA0FEF744FD5AA0FEF741FD00204C
:1043B0005049087094E04F48007801287ED157A0FA
:1043C000FEF736FD4FA0FEF733FD50A0FEF730FD9F
:1043D00050A0FEF72DFD53A0FEF72AFD00251DE09D
:1043E000E90003AA8918486880470646E90003AA3D
:1043F0005058FEF71DFD300EFEF7FAFC3102080E94
:10440000FEF7F6FC3104080EFEF7F2FCF0B2FEF700
:10441000EFFC49A0FEF70CFD681CC5B2102DDFDBD8
:1044200046A0FEF705FD0027102002900020019015
:104430003D461AE047A0FEF7FBFCE8B2FEF7D8FCC9
:1044400046A0FEF7F5FCA90001984658300EFEF78D
:10445000CFFC3102080EFEF7CBFC3104080EFEF74C
:10446000C7FCF0B2FEF7C4FC6D1C02988542E1D394
:1044700031A000E030E0FEF7DBFC3BA0FEF7D8FC0B
:104480006846C046044600261CE032A0FEF7D0FC79
:104490003046FEF7ADFC31A0FEF7CAFC2568280EB9
:1044A000FEF7A6FC2902080EFEF7A2FC2904080E5E
:1044B000FEF79EFCE8B2FEF79BFC00E00BE0241F39
:1044C000701CC6B20F2EE0DB1BA0FEF7B1FC002073
:1044D0000849087000BF03E027A0FEF7AFFD00BF4A
:1044E00000BF23B0F0BD000098540000E8F0FF1FAB
:1044F0000D0A20000CF1FF1F0D0A4E4F524D414C8A
:104500002000000020466C6F773A20002054656D33
:10451000703A200020467265713A20000D0A444529
:10452000425547000D0A41524D2052656769737428
:104530006572730D0A0000000D0A00000D0A526535
:104540006164206D656D6F72792073656374696F46
:104550006E0D0A000D0A3078000000003A2020207D
:1045600020202030780000000D0A5072696E7420FF
:10457000537461636B0D0A004D6F64652045727260
:104580006F72000070B504460D46401C04D1142221
:104590000D490EA0FFF724FE114A200B6106936B14
:1045A000C90E044609340126A64033439363000331
:1045B000890040180B4940180168072212029143F4
:1045C0002A021143016070BD4059000070696E20DD
:1045D000213D202850696E4E616D65294E430000D3
:1045E000008004400090044070B504460D46401C15
:1045F00004D12122054906A0FFF7F2FD0948201841
:104600000168890889002943016070BD4059000094
:1046100070696E20213D202850696E4E616D6529BC
:104620004E43000000900440884202D0421C01D159
:104630000846704710B5491C04D003A0FFF708FCDA
:104640000020C04310BD000070696E6D6170206D68
:1046500069732D6D6174636800000000002210B55D
:10466000D243431C0BD00023CB5E5B1C0ED0002337
:10467000CB5E834205D14C68601C08D00AE010462E
:1046800010BD0C23CB5E0C315B1CF0D1144602A094
:10469000FFF7DEFB204610BD70696E6D6170206E05
:1046A0006F7420666F756E6420666F72207065721D
:1046B0006970686572616C0010B50446401C0FD0CB
:1046C0000020085E401C12D00020085EA04208D1E5
:1046D00089682046FFF756FF00212046FFF784FF38
:1046E00010BD0C20085E0C31401C0028ECD102A04B
:1046F000FFF7AEFB10BD0000636F756C64206E6F3A
:10470000742070696E6F75740000000001480068C5
:10471000704700002CF1FF1F84B069461820ABBE23
:1047200004B070473A48007908210840002810D0AA
:1047300038480078401C374908703548C078042153
:1047400088433349C8700846C0780421084330497B
:10475000C8702F48007902210840002813D02D4846
:104760000078401C2B4908702948C0792848C07837
:10477000042188432649C8700846C07804210843AC
:104780002349C87017E022480079202108400028FA
:1047900011D01F48C0792049096808701E48006878
:1047A000401C1D490860084601681C48814202D32C
:1047B0000A38194908601648007980210840002805
:1047C00022D01748006817490968884219D016484E
:1047D0000078002815D01348006800780C49C8718B
:1047E00010480068401C0F490860084601680F48DF
:1047F000814202D328380B49086001200C49087017
:1048000002E000200A49087001200A490870704738
:1048100000A0064018F1FF1FECF0FF1FA2F1FF1FE0
:10482000F4F0FF1FF8F0FF1FE8F0FF1FCAF1FF1FB1
:10483000EAF0FF1FE9F0FF1FF3B50446006881B0FE
:10484000C5780C210D40C178F3221140C170524946
:104850002068884270D1514F3878800927D150485C
:1048600040685049000F0B68401C797958434E0648
:104870004D494E4A4E6802D496434E6002E01643BC
:104880004E604008002812D03878800964D144482E
:104890004068000F401C58437B795B064B6802D48C
:1048A00093434B6063E013434B6040085FE03C4838
:1048B00040683C49000F0968401C48433978890921
:1048C000022954D03978890946D17979490637D4F3
:1048D000B979C90640D4397801228906490F8A403E
:1048E0007978D2B28906890F00D05201F978490946
:1048F0004901CB06DB0E20D1491107291DD20B003F
:104900007B441B79DB189F440306090C0F1215002A
:104910000521C90112E0052109020FE00F21C9019B
:104920000CE00521490209E0B721890006E0B72122
:10493000C90003E01E4901E010E01E49504308E0B1
:104940003979CA067979D20EC906C90E521C50436C
:104950001831FCF7F9F80AE0002008E01048406838
:104960004003410F0F48491C0068FCF7EDF802991D
:104970000901FCF7E9F821680A78C30452095201D9
:10498000DB0E1A430A7021684A7848702068C178A3
:104990002943C17003B0F0BD00A0064000400640AE
:1049A00040800440D8F0FF1F008004400000010058
:1049B00095080000710B0000F8B51E4615460F461D
:1049C0000446012B06D0022E04D0A6221F4920A0A7
:1049D000FFF706FC002D08D0012D06D0022D04D0D3
:1049E000A7221A492448FFF7FBFB082F04D0A8226E
:1049F000164922A0FFF7F4FB2068C3780C210B4076
:104A0000C178F3221140C170280004D0012804D0DD
:104A1000022D07D104E0002503E001252F4601E027
:104A200001250027680021683843887020680178D4
:104A3000DF2211400170206801787201203A114391
:104A400001702068C1781943C170F8BDE4590000B5
:104A50002873746F705F62697473203D3D20312943
:104A6000207C7C202873746F705F62697473203DB2
:104A70003D203229000000009859000064617461F3
:104A80005F62697473203D3D20380000F7B504462D
:104A900051490198FFF7E2FD054650490298FFF79A
:104AA000DDFD01462846FFF7BFFD0546401C04D149
:104AB00041224B494BA0FFF793FB4E484F4F2B1819
:104AC0004D48256006D0D91B2DD0B94230D1416B5D
:104AD000394326E04A4A1178890919D14949496878
:104AE000494E090F3668491C527971435606474AA8
:104AF000466802D49643466002E016434660490881
:104B0000002905D04168012292061143416004E06A
:104B100041680122D20611434160416B0122920299
:104B20001143416304E0416B0122D202114341630E
:104B30002068C178F3221140C1702068C17808262E
:104B40003143C170206801794906FCD5C178114014
:104B5000C1700126002B3BD0D81B3BD0B84201D1FD
:104B6000022060604B21C9012046FFF765FE01234A
:104B7000002208212046FFF71FFF17490198FFF781
:104B80009BFD16490298FFF797FD0198401C08D03D
:104B90002068C17808221143C17002210198FFF7F3
:104BA00023FD0298401C08D02068C17804221143DC
:104BB000C17002210298FFF717FD1548854205D103
:104BC0001448066062682168C260816003B0F0BD6D
:104BD0000020C6E76660C5E7A85300001454000033
:104BE000E459000028696E74297561727420213DB2
:104BF000204E43000060F9BF008004400010000018
:104C00000040064040800440D8F0FF1F0000010033
:104C100000A00640C8F0FF1F034B596040680349DD
:104C200080000A5070470000C8F0FF1F8CF1FF1F82
:104C300010B40824026813791B0702D513792343A3
:104C4000137102681279D209D201F3D00068C171E0
:104C500010BC704710B509A0FEF7EAF80EA0FEF7E9
:104C6000E7F811A0FEF7E4F813A0FEF7E1F816A0AC
:104C7000FEF7DEF819A0FEF7DBF810BD0D0A436F52
:104C80006D6D616E6473202D2020446573636970BF
:104C900074696F6E000000000D0A4E4F52202D20E7
:104CA0004E6F726D616C00000D0A515549202D2028
:104CB00051756965740000000D0A444542202D209D
:104CC00044656275670000000D0A56202D20566568
:104CD0007273696F6E230D0A000000000D0A3E20FA
:104CE00000000000F8B51C4616460D460746FFF7C3
:104CF0003DF82E606C60796800204C68002C0DD067
:104D00002268B21A03D42046A468002CF8D10028E7
:104D100004D08560AC60FFF76FF8F8BD4D6038686F
:104D2000016930468847F5E710B504460068C06859
:104D30008047606840680028206811D0406880473C
:104D400061680246486803689A1A002A0BDC826888
:104D50004A60616809680029EBD040688847E8E745
:104D60008068804710BD48682168006809698847E5
:104D700010BD00684068004770B50C460546FEF758
:104D8000F5FF68684268A2420CD1A1684160002921
:104D900004D008682968096988470DE02868806898
:104DA000804709E0002A07D09068A04202D1A0689D
:104DB000906001E00200F7D1FFF71EF870BD70B5FA
:104DC000044600680D46006880476068056070BD55
:104DD00051480078401C5049087008460078002867
:104DE00004D14E480078401C4C4908704C4800786B
:104DF000002804DD4A480078401E494908704948A7
:104E00000078002804DD47480078401E45490870B6
:104E100041480078C007C00F00286CD13E48007898
:104E200002210840002812D03F480078002804DD05
:104E30003D480078401E3C4908703C4800780028F6
:104E400059DD3A480078401E3849087053E032482E
:104E500000780421084000284DD12F48007808210F
:104E60000840002847D12C4800781021084000282D
:104E700012D02F480078002804DD2D480078401E0D
:104E80002B4908702B480078002834DD2948007829
:104E9000401E284908702EE01F4800782021084055
:104EA000002812D024480078002804DD2248007829
:104EB000401E214908702148007800281BDD1F484A
:104EC0000078401E1D49087015E01D480078401EFE
:104ED0001B49087008460078012801D1194908705B
:104EE00019480078401E18490870084600780028C4
:104EF00001D14820087015480068401C134908601B
:104F000013480088401C1249088012480088401C41
:104F1000104908807047000016F1FF1F17F1FF1FAE
:104F200000F1FF1F01F1FF1F02F1FF1F03F1FF1F3F
:104F300004F1FF1F05F1FF1F06F1FF1F07F1FF1F1F
:104F40000BF1FF1F0CF1FF1F0AF1FF1F10F1FF1FF4
:104F500014F1FF1F08F1FF1F7047000002480168AD
:104F6000402291430160704700000440604841685E
:104F7000002970D1F8B501245E4E4460F06BE10564
:104F80000843F0635C48002707605C4DA01E286161
:104F90000420A861A8692043A861594840684003DB
:104FA000410F5848491C0068FBF7CEFD5649401890
:104FB0004900FBF7C9FD401E2860AC60B06B204380
:104FC000B063524D2F6052491C20FDF7ABFE514992
:104FD000200708604A4840684A49000F0968401C99
:104FE0004D4E484331788909022948D031788909E2
:104FF00053D17179490637D4B179C9064DD4317886
:1050000089064A0F21469140CAB271788906890FF4
:1050100000D05201F17849094901CB06DB0E20D1BD
:10502000491107291DD20B007B441B79DB189F44D3
:105030000306090C0F1316000521C90112E0052112
:1050400009020FE00F21C9010CE00521490209E026
:10505000B721890006E04AE0B721C90002E02F49E4
:1050600000E02F49504308E03179CA067179D20E29
:10507000C906C90E521C50431831FBF765FD0028C4
:105080000BD02849FBF760FD002906D101281ED06E
:10509000400801281DD0C2071FD0307802210843E4
:1050A00030707078204370706F60307A0E21084045
:1050B00016D0022818D0307AF12108403072317AA7
:1050C000042001433172696801436960F8BD07201B
:1050D0000BE00807400EC01C07E04008491CD8E759
:1050E00068680821084300E068686860F8BD704798
:1050F000DCF0FF1F0080044000700340007103409B
:1051000040800440D8F0FF1F20A1070000000440A9
:105110004140000000E100E000400640950800002A
:10512000710B000040420F0010B50248FFF7FCFD74
:1051300010BD00002C55000010B50548406800283F
:1051400001D1FFF713FF03484069C04310BD0000C1
:10515000DCF0FF1F0071034070B5184C0546606815
:10516000002801D1FFF702FF15484069C043281A03
:10517000002802DCFFF7D8FF70BD011483B2A160E4
:105180000022104840250126238000290BD00E4B19
:105190000260836002682A43026002683243026050
:1051A000491EA16070BD02608360016829430160EF
:1051B000016831430160228070BD0000DCF0FF1FF8
:1051C0000071034000000440FFFF000070B57D2126
:1051D000C90048430446FFF7AFFF0546FFF7ACFFA1
:1051E000401BA042FAD370BD10B500290AD0087840
:1051F000002807D005487844FBF756FC002801D06A
:10520000002010BD0248784410BD0000560900007F
:105210004E09000010B500290AD00878002807D0F0
:1052200005487844FBF740FC002801D0002010BD61
:105230000248784410BD0000460900003E09000005
:1052400010B504460068002801D1201D20602168A7
:10525000201D814204D0592202490348FEF7C0FFB5
:10526000206810BDC8570000B45700000068004710
:105270007047002801D009680160704710B50A46E0
:10528000002A01D1C16009E00146084600BF031EA3
:1052900000D01A60024CCC6000BF00BF10BD0000FF
:1052A0001858000070B505460C46E068002804D088
:1052B000E0682146426828469047E068E860284652
:1052C00070BD10B50446C068002802D08168204631
:1052D0008847204610BD000070B5420064414B0075
:1052E0005C41120E39D01B0E38D0FF2A3CD0FF2B68
:1052F0003AD040024902400A490A060045184E4386
:10530000000A090AD2184843ED017F3A0104731AD2
:105310004019190C4318990F04D001215B08490763
:105320005B1A521CD80904D3401CF50301D19D0619
:1053300007D0FF2A08D2D50506D0E407204340193C
:1053400070BD0125A843F4E7002A01DCE00770BD29
:105350002402FF202043C00570BD1B0EFF2A03D08E
:10536000FF2B01D0E00770BDFF2645003606B54291
:1053700006D84D00B54203D8D218FF2A00D0E7E77F
:10538000004870BD0000C07F03B4024878448446E2
:1053900003BC604723C7FFFF03B402487844844638
:1053A00003BC60478DC9FFFF1020000000B006401D
:1053B000030000000800000000A0064002000000FA
:1053C0001430000000C00640030000000C30000054
:1053D00000C00640030000001C30000000A0064092
:1053E000030000005040000000A006400400000040
:1053F0005840000000C006400400000000400000CB
:1054000000B0064003000000FFFF0000FFFFFFFFA9
:10541000000000000C20000000B006400300000067
:105420000400000000A00640020000001030000050
:1054300000C00640030000000830000000C0064025
:10544000030000001830000000A006400300000028
:105450005C40000000C00640040000005440000012
:1054600000A00640040000000440000000B0064018
:1054700003000000FFFF0000FFFFFFFF000000002F
:105480002F737464696E002F7374646F7574002FCA
:1054900073746465727200005C5A00006902000057
:1054A000705A00006B020000845A00006F02000076
:1054B000985A000073020000AC5A00007702000006
:1054C000C05A00007B020000C85A00007F020000A2
:1054D000D05A000083020000D85A00008702000062
:1054E000E05A00008B020000505A00008F020000BA
:1054F000645A000093020000785A000097020000EE
:105500008C5A00009B020000A05A00009F0200007D
:10551000B45A0000A30200006D4F00003951000092
:105520005D4F0000594F0000595100001855000010
:105530001CF1FF1F303132333435363738394142B0
:1055400043444546403058003031323334353637E5
:105550003839616263646566403078000400000891
:105560000000000000000002000100001000000028
:10557000000000000000000030313233343536378F
:105580003839616263646566787000303132333473
:1055900035363738394142434445465850000000BB
:1055A00002400000000000A00000000005400000D4
:1055B000000000C8000000000C4000000000409CFB
:1055C00000000000194000000020BCBE00000000E8
:1055D00034400000BFC91B8E00000004B54000002D
:1055E000504BCFD06607E2CF010000006C410000B5
:1055F0003E8251AADFEEA73401000000D94200002C
:10560000DCB5A0E23A301F97FFFFFFFFB445000072
:10561000FD25A0C8E9A3C14FFFFFFFFFFF3F00002A
:105620000000008000000000FF3F0000000000803C
:10563000000000000000000000000000DB38000057
:10564000DB380000DB380000DB380000DB3800000E
:10565000DB3800002D320000813200000000000025
:105660007D3200007F3200000000000000000000DA
:10567000000000000000000000000000000000002A
:1056800000000000000000000134000000000000E5
:10569000DB380000000000000000000000000000F7
:1056A0000000000055340000000000000000000071
:1056B00000000000D0FFFFFF00000000A134000048
:1056C0009934000000000000D73400009D34000031
:1056D0000000000095340000000000000000000001
:1056E0004F3800005B380000513800000000000017
:1056F000CCFFFFFF000000000000000000000000E1
:105700000000000000000000A134000099340000F7
:1057100000000000D73400009D34000000000000AD
:105720009534000055350000000000007D32000077
:105730007F320000DB380000DB380000FCFFFFFF99
:105740000000000000000000000000000000000059
:10575000000000003536000000000000FD350000AC
:1057600000000000000000002D37000000000000D5
:105770000000000000000000DB380000DB38000003
:10578000DB380000DB380000DB380000DB380000CD
:105790002D3200009D370000000000007D32000027
:1057A0007F320000FCFFFFFF00000000000000004F
:1057B000000000005F707472203D3D202854202AB4
:1057C00029265F6461746100433A2F4A656E6B69F4
:1057D0006E732F776F726B73706163652F6D626587
:1057E000642D322D6275696C642D6C696272617210
:1057F000792F4255494C442F6D6265642F706C615E
:1058000074666F726D2F53696E676C65746F6E503E
:1058100074722E68000000006D5200007352000088
:10582000715200005F6F707300433A2F4A656E6BD0
:10583000696E732F776F726B73706163652F6D6222
:1058400065642D322D6275696C642D6C69627261BC
:1058500072792F4255494C442F6D6265642F706CEC
:105860006174666F726D2F43616C6C6261636B2E45
:1058700068000000433A5C4A656E6B696E735C7742
:105880006F726B73706163655C6D6265642D322D40
:105890006275696C642D6C6962726172795C7461A5
:1058A00072676574735C5441524745545F46726534
:1058B000657363616C655C5441524745545F4B4C62
:1058C00058585C6770696F5F6170692E63000000F3
:1058D000433A2F4A656E6B696E732F776F726B73E5
:1058E000706163652F6D6265642D322D6275696C20
:1058F000642D6C6962726172792F4255494C442F54
:105900006D6265642F5441524745545F4B4C3235AC
:105910005A2F5441524745545F467265657363611F
:105920006C652F5441524745545F4B4C58582F6774
:1059300070696F5F6F626A6563742E6800000000B3
:10594000433A5C4A656E6B696E735C776F726B731A
:10595000706163655C6D6265642D322D6275696C82
:10596000642D6C6962726172795C746172676574CE
:10597000735C5441524745545F4672656573636179
:105980006C655C5441524745545F4B4C58585C70B1
:10599000696E6D61702E6300287061726974792080
:1059A0003D3D205061726974794E6F6E6529207C8F
:1059B0007C2028706172697479203D3D20506172AD
:1059C0006974794F646429207C7C20287061726935
:1059D0007479203D3D205061726974794576656E19
:1059E00029000000433A5C4A656E6B696E735C7710
:1059F0006F726B73706163655C6D6265642D322DCF
:105A00006275696C642D6C6962726172795C746133
:105A100072676574735C5441524745545F467265C2
:105A2000657363616C655C5441524745545F4B4CF0
:105A300058585C5441524745545F4B4C32355A5C80
:105A400073657269616C5F6170692E6300000000AC
:105A5000723130203D203078000000007230203D4F
:105A600020307800723131203D2030780000000075
:105A70007231203D20307800723132203D20307864
:105A8000000000007232203D203078007231332057
:105A90003D203078000000007233203D2030780037
:105AA000723134203D203078000000007234203DF7
:105AB00020307800723135203D2030780000000021
:105AC0007235203D203078007236203D203078003D
:105AD0007237203D203078007238203D2030780029
