:020000040000FA
:10000000003000207103000003310000A102000055
:1000100000000000000000000000000000000000E0
:100020000000000000000000000000007D03000050
:1000300000000000000000007F03000081030000BA
:100040008303000083030000830300008303000098
:100050008303000083030000830300008303000088
:100060008303000083030000830300008303000078
:100070008303000083030000830300008303000068
:100080008303000083030000830300008303000058
:100090008303000083030000830300008303000048
:1000A0008303000083030000830300008303000038
:1000B0008303000083030000830300008303000028
:1000C00000F002F800F0C3F80CA030C8083824187B
:1000D0002D18A246671EAB4654465D46AC4201D180
:1000E00000F0B5F87E460F3E0FCCB64601263342EF
:1000F00000D0FB1AA246AB463343184758730000A2
:1001000078730000103A02D378C878C1FAD8520741
:1001100001D330C830C101D504680C6070470000BD
:100120000023002400250026103A01D378C1FBD813
:10013000520700D330C100D50B60704710B56E294F
:1001400002D101F085FA10BD702902D101F0DBFB6C
:1001500010BD662902D106F0F7FA10BD652902D15B
:1001600006F0F2FA10BD672902D106F0EDFA10BDD3
:10017000612902D106F0F0FA10BD03681B0A01D311
:1001800080231943692902D101F02CFA10BD64299A
:1001900002D101F027FA10BD752902D101F022FA2F
:1001A00010BD6F2902D101F059FB10BD782902D191
:1001B00001F096FB10BDE92902D101F0F5FA10BD5E
:1001C000E42902D101F0F0FA10BDF52902D101F0C5
:1001D000EBFA10BDEF2902D101F04CFB10BDF8295C
:1001E00002D101F08BFB10BD0368DB0901D3802332
:1001F0001943632902D102F0EAFA10BD732902D132
:1002000002F0EDFA10BDE32902D102F0F7FA10BDB9
:10021000F32902D102F0FAFA10BD002010BD1FB57B
:100220000098019901F047F902F088FB04000020D2
:10023000002106F0FBF9401C60600020002106F060
:10024000DFF9E06001F0ECFD00F000FD1FBD03F000
:1002500077FF114603B403F087FF03BCFFF7DFFF0E
:1002600002F043FF04F02EF970B505460C46164621
:1002700002E00FCC0FC5103E102EFAD2082E02D38A
:1002800003CC03C5083E042E07D301CC01C5361F9D
:1002900003E021782970641C6D1C761EF9D270BDB4
:1002A0002C4B05E02C4B03E02C4B01E02C4BC046C3
:1002B000EFF308802B4972460A4201D0EFF3098020
:1002C0009C46294B196802680A60043142680A603A
:1002D000043182680A600431C2680A600431F0C1E6
:1002E00047460F6004314F460F60043157460F6098
:1002F00004315F460F60043102690A6008314269C7
:100300000A60043182690A600431C2690A600431FA
:1003100003462033154E324200D0043375460D4E4D
:10032000354200D148330C46103C2360EFF309827C
:100330000A600431EFF308820A60043172460A60F1
:100340000431EFF314820A606046074904F094FE1A
:10035000FEE7000010000000200000003000000058
:100360004000000004000000F067000000020000F0
:100370000448804704480047FEE7FEE7FEE7FEE743
:10038000FEE7FEE715310000C1000000004870479D
:1003900038F4FF1F70B5064600F02EF805683046A9
:1003A0000B30C408E400B44201D8002070BD686876
:1003B0002A46002818D00168A14211D30B462146D5
:1003C00008318B4208D3436801194B6003681B1B3B
:1003D0000B605160046001E041685160001D70BD18
:1003E000024640680028E6D12146284601F04EF832
:1003F0000028DCD170BD00000048704738F5FF1FB1
:10040000FFFFFFFFFFFFFFFFFFFFFFFFFEFFFFFFFD
:1004100070B50446051FFFF7EFFF0068002C1AD0E7
:10042000446801E020466468002C01D0AC42F9D356
:1004300001680A18AA4204D12A6805468918016091
:1004400000E0456028684119A14205D161686960F2
:1004500021684018286070BD6C6070BD10B5202AFE
:1004600004DB0146203A9140002010BD914020233A
:100470009C1A0346E3401943904010BD10B5202A52
:1004800004DB0846203AD040002110BD0B46202452
:10049000D340D040A21A91400843194610BD4343AF
:1004A000514330B55C18010C130C0D4692B25D43FC
:1004B00080B251432C19054655430A0C09044D19C5
:1004C00062415843010C00044019514130BDFEB552
:1004D000054610460C46184373D0AE468C460020A5
:1004E000AD1A01469C4167D36646002701243D466C
:1004F000B61A9D4102D313463A46212465467646F4
:100500002F04360C3E432D0CB61A9D4104D3150C16
:100510001B042B4312041034654676462F06360A18
:100520003E432D0AB61A9D4104D3150E1B022B43E0
:1005300012020834654676462F0736093E432D09D8
:10054000B61A9D4104D3150F1B012B431201241D24
:1005500065467646AF07B6083E43AD08B61A9D41DC
:1005600004D3950F9B002B439200A41C654676464E
:10057000EF0776083E436D08B61A9D411AD39218CC
:100580005B41641C16E00018764665464941B71A7F
:100590009D410191009009D36046B11A98418E4661
:1005A0008446009801990025401C6941DD075208E6
:1005B0002A435B08641EE6D57246634603B0F0BD6D
:1005C000FFE700200146C046C0462A462346F5E71D
:1005D0007CB51D4616460C00009001D00019401E47
:1005E000084B7B442A4669460190304601F049F8A1
:1005F000002C054603D06946002001F055F8284636
:100600007CBD0000CD10000010B50B460146184619
:1006100001F058F810BD000070B50446C0688107AD
:1006200013D0800601D5A56A04E0A169606840186E
:100630002169451A204601F0ABFB002206462946F7
:10064000204600F01DF8304670BD002070BD70B52A
:10065000002802D0FFF7E0FF70BD0025074C6E1E9A
:1006600008E02046FFF7D8FF002800D03546206D6F
:1006700044086400002CF4D1284670BD3CF4FF1FF0
:10068000F8B5044616460D464769007B800730D012
:10069000384603F0B1FD00282BD132461026002A3F
:1006A00025D0012A02D0022A23D104E0204601F0FD
:1006B000F7FA45191BE0384603F086FDE16831433F
:1006C0000028E16004DA204601F032FB0120F8BD89
:1006D000C9030BD56268E16A914200D81146A2694C
:1006E00089182269891A814200DD08462D18002DDB
:1006F00001DA0220F8BDE16A6068E268814206D250
:100700009103E06203D5012149048A433243A6697B
:10071000AE4211DCE16A814201D90B4600E003469A
:100720009F192369FF1AAF4206DD814201D90F46A6
:1007300000E007469F4206D1202002430020A0602F
:10074000A56220600DE0AD1BE669AE1B8142A6608C
:1007500000D90846C01A281A206058196060202065
:100760008243034802400020E26040342072F8BD1A
:10077000BFCFD7FFF7B516460C46104600F07CF801
:100780002078611C61280AD0722802D0772839D1DC
:1007900002E00125002404E00225042401E02D4D9F
:1007A00008240222032301270878491C2B2806D09D
:1007B000622807D02039C87F742807D008E01D437D
:1007C0001443F1E7042005433C43EDE710200443C4
:1007D0000098214603F028FD411C13D0002131610F
:1007E00071600121F5604902F1617061200704D553
:1007F000304602220021FFF743FF306D3843306559
:100800003046FEBD0020FEBDF8B50D460646124C32
:10081000206DC10704D0410804D044086400F7E704
:10082000224610E05420FFF7B5FD070010D07908EC
:10083000206D4900012211430843542120653846A8
:1008400000F0BEF83A4629463046FFF793FFF8BD60
:100850000020F8BD028000003CF4FF1F10B5002905
:1008600002D0FF22013201E00122920201235B0249
:1008700001F038FA10BD0000FEB504464669006973
:100880000F4F0190E56800200090A80707D0204690
:1008900001F07EFA304603F077FC002801DA384692
:1008A000FEBD280502D50198FFF7B2FD4C21204678
:1008B00000F086F8206D4008400020650098FEBDDD
:1008C000FFFFFFFF30B503461D78002D08D00A4614
:1008D0001478521C002C03D0AC42F9D15B1CF3E716
:1008E000181A30BD034610B50B439B070FD1042ADD
:1008F0000DD308C810C9121FA342F8D018BA21BAE4
:10090000884201D9012010BD0020C04310BD002A3B
:1009100003D0D30703D0521C07E0002010BD03789A
:100920000C78401C491C1B1B07D103780C78401C19
:10093000491C1B1B01D1921EF1D1184610BD0000AD
:1009400030B5441C03E00178401C00290DD081071C
:10095000F9D10B4BDD0104C8D11A91432940FAD0DB
:10096000001B0A0603D0C01E30BD001B30BD0A04A8
:1009700001D0801E30BD0902FCD0401E30BD0000F9
:100980000101010101E004C0091F0429FBD28B070A
:1009900001D50280801CC90700D002707047002971
:1009A0000BD0C30702D00270401C491E022904D399
:1009B000830702D50280801C891EE3E70022EEE750
:1009C0000022DFE782078B079A4237D170B5920F7A
:1009D0000AD0032402780B78401C491C002A2BD033
:1009E0009A4229D12042F5D11D4EF40104C808C90C
:1009F000951B9543254010D19A4207D104C808C9D8
:100A0000951B9543254008D19A42EFD012BA1BBAE4
:100A100001209A4200D2404270BD12BA1BBA2DBAD0
:100A200018241000E0401900E140401A05D12E00C2
:100A3000E64002D1083CF4D1D01A70BD02780B78A0
:100A4000401C491C002A09D09A4207D102780B7831
:100A5000401C491C002A01D09A42EFD0D01A70479E
:100A600001010101002203098B4273D3030A8B4267
:100A700058D3030B8B423CD3030C8B4221D312E09F
:100A800003460B437FD4002243088B4274D30309EF
:100A90008B425FD3030A8B4244D3030B8B4228D390
:100AA000030C8B420DD3FF22090212BA030C8B42B6
:100AB00002D31212090265D0030B8B4219D300E056
:100AC000090AC30B8B4201D3CB03C01A5241830BDB
:100AD0008B4201D38B03C01A5241430B8B4201D38B
:100AE0004B03C01A5241030B8B4201D30B03C01AB4
:100AF0005241C30A8B4201D3CB02C01A5241830A2E
:100B00008B4201D38B02C01A5241430A8B4201D35C
:100B10004B02C01A5241030A8B4201D30B02C01A86
:100B20005241CDD2C3098B4201D3CB01C01A5241ED
:100B300083098B4201D38B01C01A524143098B4276
:100B400001D34B01C01A524103098B4201D30B015F
:100B5000C01A5241C3088B4201D3CB00C01A524184
:100B600083088B4201D38B00C01A524143088B4249
:100B700001D34B00C01A5241411A00D201465241E2
:100B8000104670475DE0CA0F00D04942031000D301
:100B90004042534000229C4603098B422DD3030A56
:100BA0008B4212D3FC22890112BA030A8B420CD366
:100BB000890192118B4208D3890192118B4204D38F
:100BC00089013AD0921100E08909C3098B4201D30F
:100BD000CB01C01A524183098B4201D38B01C01A49
:100BE000524143098B4201D34B01C01A52410309C0
:100BF0008B4201D30B01C01A5241C3088B4201D36F
:100C0000CB00C01A524183088B4201D38B00C01A1B
:100C10005241D9D243088B4201D34B00C01A5241F2
:100C2000411A00D20146634652415B10104601D37F
:100C30004042002B00D54942704763465B1000D309
:100C4000404201B50020C046C04602BD70B5064C0A
:100C50007C44064D7D4403E0206800198047241D34
:100C6000AC42F9D170BD00004C6900004C69000035
:100C7000F8B517460E460546002B07D010465843D8
:100C80004419E41B2046B047A542FAD1284608384B
:100C9000F8BD00000246C80FC00781434B0030B5C5
:100CA0004B405B009B0D20D01923DB06C9180123A4
:100CB0001B05994220DB0324A40704251346AB40FF
:100CC0000BD3002B04D1EB0613409B00E34204D46A
:100CD00001246407002312195941FF231B0599427F
:100CE0000BD2C9000143500F09E0CB0204D50143E8
:100CF0000803024305D0054830BDFF21C90508435C
:100D000030BD084607210905884330BD0000C07F7B
:100D1000F0B5F94D0C091E092C402E402F468BB022
:100D2000A7437DD0B543FCD0002E7AD0002CFCD058
:100D30000D465D40ED0F2543AC1BFF25AD04641946
:100D40000894C502440DC9022143500DDC0204433E
:100D50000120C00701430443D2020191200C110C71
:100D600000958C46010423468B430A916146090491
:100D7000E24D8A430991010A7D4449198039097875
:100D800005464D4301266D18F605751B6943C90CD0
:100D9000640B891C4C436418B5012C1B250C2E04D4
:100DA000B4434C434D43210C691889090591009DBA
:100DB000E90701D00121C90704912C460199670870
:100DC000CD072F434C08059DE10B4D432D0C2946C3
:100DD0006646754302950D4645432E46029D7D1B92
:100DE000B44100950D465D4301942C0C2F040D4633
:100DF0005543AE462D0C3D43029503947546049C25
:100E00002D04641B049406D2029C039D641C0026DE
:100E100075410395029401AC70CC009F7D1B01E0ED
:100E20003EE162E1B44109040095079101940599FE
:100E3000A4086143090C0C464443650BE7040C46C7
:100E400066467443A646640B3C430395029474467D
:100E5000049DE4042C1B049406D2029C039D641C94
:100E6000002675410395029401AC70CC009F7D1B58
:100E7000B44101940C465C430095650FE7000C46B5
:100E80005443A646640F3C43039502947446049D64
:100E9000E4002C1B049406D2029C039D641C0026D3
:100EA00075410395029401AC70CC009F7D1BB44149
:100EB000AE09AF06049DC900AD092F43049DA406E9
:100EC000AD060495079D344369180791059DE10B14
:100ED0004D432D0C29466646754302950D46454304
:100EE0002E46029D7D1BB44100950D465D43019445
:100EF0002C0C2F040D465543AE462D0C3D43029558
:100F000003947546049C2D04641B049406D2029C31
:100F1000039D641C002675410395029401AC70CCBE
:100F2000009F7D1BB44101948C050694079C890A9F
:100F3000611800950791019C0599A4086143090C6B
:100F40000D464543680BEF040D46644665436C0B44
:100F50003C43049FED047D1BAC4602D20025641C7B
:100F60006841009E019D371B854108465843019505
:100F70000C46460FC5005443600F28436546E40005
:100F80002C1B02D20025401C6E41019D3F1AB54129
:100F90002846BD09800628438446A009BF064E02A4
:100FA0000699A40676180743079D002068410A9910
:100FB000079019430020099B00906046FF191343D6
:100FC0004041E20F64003A43A4460446D71A8C41DC
:100FD000A04203D90120009020463A46C70F94183A
:100FE00040416246D20F2243644664000494009C50
:100FF000BE466400D71AA446044602978C41774641
:10100000002F01D1A04204D96046401C8446029AB8
:101010002046C40FA64694184041049A0546D20FB4
:10102000224364466400D31A8D417146002901D1E0
:10103000A84202D928461A46641C104301220028FF
:1010400000D0164361020020079B891904465C41C9
:101050000223002C02DB491813466441089DCE0A86
:101060002D145D194B056705E10A2C050D1908992A
:101070003E43C9076940002B08D0934006D30022A5
:10108000761C5141002B01D1760876001C4A002DB8
:1010900043DB154241D0AA433FD030460BB0F0BDF0
:1010A00006180D464D41174C7642AC411AD395189F
:1010B0001C465C41134A6D42A24113D301225205E2
:1010C0004C00D4420AD15C00D4420BD04B4002D534
:1010D00092021143E2E749004908DFE75940C90F8E
:1010E000C90718E000200849D8E7054801420DD19A
:1010F0000342F7D0F2E700000000FF07305E000077
:101100000000F07F0000E0FF0000F87F1148594028
:101110000143C01241400020C0E70123089A9B060A
:101120009A4205DC032252078918C90FC907B5E79F
:10113000052252078918074A1143D2125140ADE7E0
:1011400070B515461C4602460B4628462146FFF759
:10115000DFFD70BDFFFFFF7F1F22030C02D10F22B6
:10116000000402D0030E03D004E0002001467047C3
:101170000002083A030F01D10001121F830F01D1B1
:101180008000921E002801DB4000521E12055118FB
:101190004205C012411810467047C10FC90700D060
:1011A0004042012292071143D6E701218907D3E784
:1011B0000121C9050123411842001B06D3185B0E0B
:1011C0000AD0C1100722D206891840075242D142E4
:1011D00001D5520089187047090208D50146002A36
:1011E00003D0C10FC9070020704710467047420264
:1011F00002D0002002497047072109050143F4E7A6
:101200000000F87FF0B5FF252D04C609C209FF27AD
:1012100004462E400137CB093E4348402A402B402C
:101220000746002A6BD0002B69D0AA4267D0AB4298
:1012300065D0002800DA32460125ED0529432C430C
:1012400009022002090AD21A4B0C7F24E31A434CEC
:10125000000A7C44E35C7D242404121914145B000E
:10126000A218884201D3521C00E0400049420C46BB
:101270005C4324115C43DB016415E318040A5C43FE
:10128000C502200D0C4644436419250A5D4323031F
:10129000EC0C0D46654300030019EB184C42A342C9
:1012A00001D35B18401CD4052018002B07D05B002D
:1012B000C91804D3401C002901D1400840003F2137
:1012C00089048A4209D3002A08DC1106090F04D0D8
:1012D000032149074018C00FC007F0BD012241009B
:1012E000120689187F2252069142F6D2052149073B
:1012F000C84201D59010F0BDFF20C005F0BD002F01
:1013000000DA32461648AA4207D2AB4205D2190289
:10131000090E17D0F80FC007F0BDFF2563002D069A
:10132000AB42F9D84900A942F6D8AB4201D1A94253
:10133000F2D0A94201D1002101E061004908D005A5
:101340000843F0BD1102090EFBD0FF200243D00577
:10135000F0BD0A460146104654E70000D659000089
:101360000000C07F10B501469E240002CA15A307E5
:10137000002A02D01843002A04DBA21A002A0CDD3E
:10138000D04010BD1206120E01D140004008A21A32
:1013900003D4D04040420028F3DDFF22480012066B
:1013A000904201D9002010BDC817C043584010BD5D
:1013B0000102C21504D00123DB071943002A0ADB0E
:1013C0009E239A1A02D40846D0407047FF2241005B
:1013D0001206914201D900207047C017C0437047E0
:1013E0001F22030C02D10F2200041CD0030E01D1D6
:1013F0000002083A030F01D10001121F830F01D12F
:101400008000921E002801DB4000521ED2055118B8
:10141000021251181922904004D3491C002801D10E
:101420004908490008467047C10FC90700D040422B
:10143000012292071143D3E701218907D0E7000079
:1014400010B5FF22C30D134009D05A4007D0914276
:1014500005DA5C42A14202DDC905081810BDC40FBF
:10146000E407002B06D0002A06D0002902DBFF206B
:10147000C0050443204610BD4102FCD0004810BD09
:101480000000C07F704770477047704738B504460A
:101490000A460020694601F027FA002805D00246D6
:1014A0002046009900F060FD012038BD10B50120F4
:1014B00001F0DCF910BDF8B501F00AFA054600208C
:1014C0000C461020C0460646A819A0420DD9324647
:1014D0006946002001F008FA070001D101F0C6F9C1
:1014E0000098A04200D00546C419FEF785FFF61DFE
:1014F00007460560F008C0004619284600F008F8C5
:10150000B44204D031463868A21B00F02DFDF8BD6E
:10151000002101604160806070471020704770B505
:10152000044685690068C10601D5302600E0202602
:10153000C00707D070BD62683046A1689047206A36
:10154000401C20626D1EF6D570BD70B504468569DD
:101550000078C00707D170BD6268A168202090475D
:10156000206A401C20626D1EF6D570BD09684A05D0
:1015700001D540B27047C905FCD500B27047096873
:101580004A0501D5C0B27047C905FCD580B2704785
:1015900070B50C460546012A05D02878800600D58E
:1015A000EA69002302E0012305E05B1C934202D2BA
:1015B000E05C0028F9D1A869E618C01AA861286A79
:1015C000C01828622846FFF7AAFF04E06A6820785E
:1015D000A968641C9047B442F8D32846FFF7B5FFCA
:1015E00070BD0000F7B5002575291068009914A694
:1015F00011D0FFF7BBFF002802DA404211A608E035
:10160000009909688A0701D50FA602E0490704D5A9
:101610000EA6012501E0FFF7B2FF009F002424374A
:1016200004E001F041F930313955641C0028F8D14B
:101630002B4632462146009800F0EDFCFEBD00002E
:10164000000000002D0000002B0000002000000022
:1016500011680268006A530501D5087009E0D305D6
:1016600001D5088005E0130602D5C21705C100E0C8
:10167000086001207047000001694A1C0261087877
:10168000704700B58FB00291002105910549019383
:101690007944039111460490684600F041F90FB077
:1016A00000BD0000E5FFFFFF0A681070521C0A60D1
:1016B00070470CC908399A4202D2531C0B60107053
:1016C00070470000084B70B50D467B44FFF7D9FF0B
:1016D0000446284600F0E8F9002802D00020C04364
:1016E00070BD204670BD00006F2E0000F7B50446A7
:1016F000154686B02B487844002703C83E46009024
:10170000019111E007986A467100415A02A801F060
:1017100081F8411C07D02178890603D5E269391880
:1017200091420ED83F18761C2078800602D5E069D9
:10173000B84206DDAE42E5DB07987100405A00284A
:10174000E0D1A069C01BA0612046FFF7E8FE154864
:1017500078445A3803C800900020019116E04100F7
:101760006A460798415A02A801F054F80590401CB7
:101770000AD0002505E0626802A8A168405D904794
:101780006D1C05988542F6D30498401CB042049025
:10179000E5DB206AC01920622046FFF7D6FE09B0BB
:1017A000F0BD000072550000F7B5D21D0025D2082B
:1017B00015A6D200F52905CA11D0002A05DA0021A4
:1017C0004042914111A60A4608E0009909688B073A
:1017D00001D50FA602E0490701D50EA60125114645
:1017E000009F0024243704E000F0D8FB30323A5543
:1017F000641C02460A43F7D12B4632462146009824
:1018000000F009FCFEBD0000000000002D000000FB
:101810002B0000002000000070B504460021243495
:1018200008E05507D2086D0F303565545D072A432F
:10183000DB08491C15461D43F3D10468002310A2A0
:10184000250708D5A40601D4002904D0C4690123C2
:101850000CA2641EC46100F0DEFB70BD10B504462E
:1018600021461068FFF78BFE002302462046FFF753
:10187000D3FF10BDD21DD108C9000CC9CCE70000B0
:101880000000000030000000F8B50F46018809058F
:1018900002D5224C7C4402E0204C7C440E340546A8
:1018A0000021243508E016071209360FA65D6E5494
:1018B0001E0732431B09491C16461E43F3D122461C
:1018C00004780023240705D5702F06D0002901D005
:1018D0000223113200F09FFBF8BD01231032F9E71B
:1018E00070B504460D4621461068FFF748FE0023F8
:1018F000024629462046FFF7C7FF70BDD21DD30818
:10190000DB000CCBC0E730B403682024126823430B
:1019100003600823C36130BC0023B5E7DC5300003B
:10192000F3B50446002081B020622046E168884774
:10193000002872D0252802D06268A168ABE0594F18
:1019400000267F442046E16888472028054608DBBA
:10195000312D06D2781920380078002801D00643AE
:10196000F0E7B00701D5042086430020E061074678
:10197000A0612A2D0AD0284602F0E6FB002827D0D5
:10198000B8000019303D0090856119E00298BA0056
:10199000121902C8916102902046E1688847012F20
:1019A000054617D1E06900281FDA202086431CE095
:1019B00000980A21806948430099401930388861AD
:1019C0002046E1688847054602F0BEFB0028EFD1BB
:1019D000012F0AD02E2D08D12046E1688847054600
:1019E000202006437F1C022FC3DBA069002803DAF6
:1019F0004042A06101200643F00701D01020864339
:101A00006C2D0BD0682D09D04C2D3CD06A2D38D0D0
:101A1000742D38D07A2D36D016E040E0E1682F469C
:101A200020468847B842054609D16C2F29D00120AD
:101A30008002E168064320468847054604E06C2F93
:101A40001DD0FF2001300643002D28D02846413804
:101A5000192803D80120C0020643203520462660FD
:101A60002946029A1646FEF769FB002810D0012885
:101A70000BD0F61DF008C0000830029055E740205A
:101A8000E1E78020D5E70020D3E7361D02964CE73A
:101A900062682846A1689047206A401C44E7206A93
:101AA000FEBD000056530000C0688021084070470A
:101AB000F8B505460C46C8680521C90488430121CC
:101AC00089050843E060800602D5204600F086F9CB
:101AD0007149E0680140022903D0204600F028F94E
:101AE000BCE00521012249030140D20391420FD1FC
:101AF000C00306D56168E06A884200D80846606085
:101B000006E02069E0626060606902F05DFBA06150
:101B1000A1680022EEB200290EDAE06883050BD43A
:101B2000C943A1600921226049030843E06060685D
:101B3000411C61600670ACE0E06801214903084384
:101B4000E060002020602069002831D1606902F047
:101B500053FB012527462437ED02002816D0A08923
:101B60008005800F08D0E069FEF714FC0028206192
:101B700002D0E068284318E001202761E061E068B6
:101B8000032109028843012189020DE0E069FEF783
:101B900001FC00282061EFD0E0682843E060810567
:101BA000890F03D1FF2101310843E06020696060A3
:101BB000E2683A4F2569D0051FD56168E06A88421E
:101BC00000D80846411B05D02246284600F0BAF846
:101BD000002843D1E068010204D5E5620020656079
:101BE000A06053E0691CE1626160E169491E38430D
:101BF000A160E06030462E70F8BD100201D53A4079
:101C000009E06068411C61600670E06838430A2E94
:101C1000E06006D00022E16A6068814203D90B4689
:101C200002E00122F7E70346A7895B1B7F0504D486
:101C3000E7699F4201DD002A1ED0814200D801469B
:101C40000F1A0020E5626560002BA06009DD2246C6
:101C50001946284600F076F8002802D00020C0433C
:101C6000F8BD002F08D0A069E5626560C01BA061C7
:101C7000E06810210843E060E068000209D561686F
:101C8000A069E562491B40186560A0610120C0435E
:101C9000F8BD3046F8BD00008210000000000100D1
:101CA00010B50146C268900703D0900607D5886A30
:101CB0000AE0FEF76BFB01210160881E10BD8B69F5
:101CC0004868C0180B69C01A40310B7A002B02D04B
:101CD000497A401A10BD1103FCD50028FADD401ED8
:101CE00010BD000070B5C468A50713D0650211D4FB
:101CF000D51FF93D0AD0FF3D6D1E07D0FF3DFF3DCA
:101D0000022D07D101462431012305E0074E5D1E57
:101D1000B54201D3012070BD0161C36141600F2153
:101D200009028C431443C460002070BDFFFFFF0014
:101D3000C1688022114392039143C16000218160F8
:101D400001607047F7B514460E463348D5685769A9
:101D5000054209D03846A16902F0C6FA002811DB15
:101D60002D48C0430540E5602B4632463846009971
:101D700002F0D6FA4200A1695208B21A8918002866
:101D8000A16104D02046FFF7D3FF0020C043FEBD71
:101D900070B504460569C06A6168884200D8084683
:101DA000E1680522D2049143E160C90314D5A84239
:101DB00009D02246411B2846FFF7C4FF002802D065
:101DC0000020C04370BDE56200206560A060E0684F
:101DD000012109048843E060002070BD10B504466D
:101DE000C06820218843E060A16AA06988420ED0C3
:101DF0002046FFF7CDFFE068032109038843102147
:101E00000843E060A06AA0612069E0626060034965
:101E1000E0680840E06010BD10000200BFBFFFFF97
:101E200010B543485421FEF7CBFD42485421FEF73C
:101E3000C7FD41485421FEF7C3FD40483C493D4B96
:101E4000404A01603E4803603B4810605A1C0A65E6
:101E5000411C1965012101653C48354A3AA1784485
:101E6000FEF788FC002804D1384878440C3800F08C
:101E7000F7FC38482F4A36A17844FEF77BFC00284F
:101E800004D1344878440C3800F0EAFC32482A4A3D
:101E90002FA17844FEF76EFC002804D12E48784428
:101EA0000C3800F0DDFC40232148DC0000212246F4
:101EB000FFF718FF002804D0244878445C3800F06D
:101EC000CFFC1C48224640230021FFF70BFF0028CF
:101ED00004D0204878445C3800F0C2FC1648224602
:101EE00010230021FFF7FEFE002804D01A48784492
:101EF0005C3800F0B5FC10BD0F4870B5006D4408AB
:101F00000B486400FEF7B8FC0A48FEF7B5FC0A4827
:101F1000FEF7B2FC09E0206D450820466D00FEF793
:101F2000ABFC2046FEF774FA2C46002CF3D170BDB2
:101F30003CF4FF1F90F4FF1FE4F4FF1F6CF1FF1F40
:101F400070F1FF1F74F1FF1F720000009249000042
:101F5000770000007F4900006D49000010B500F0D7
:101F60008BFC00F077FC10BD10B50346406801E023
:101F700003464068002801D08842F9D31868C31886
:101F80008B4206D0CB1CD808C000001D411A521A43
:101F90000146081D0A60FEF73BFA10BD0B4670B5FE
:101FA000024689078008084319469D08141AA9416A
:101FB00025090807054308092C194841250A010687
:101FC0000D43010A2C194141200C0D0428430D0C2E
:101FD00000194D41002140194D41C00869070843CF
:101FE000E908840F8D002543840024184D412419ED
:101FF0006D41121BAB4107E00925ED432C1152192D
:1020000063410024401C61411C460A250026551BE3
:10201000B441F1D270BDFFB504460D4681B0243005
:1020200000902168880604D51022E0699143216060
:1020300000E00120A84201DD471B00E000270498D2
:10204000A1697A191018081AA0612078C00602D474
:102050002046FFF764FA002608E003986268A1684A
:10206000805D9047206A401C761C2062049886425E
:10207000F3DB2078C0060AD52046FFF750FA06E0C9
:102080006268A16830209047206A401C2062384670
:102090007F1E0028F4DC07E000986268A168405DBC
:1020A0009047206A401C206228466D1E0028F3DC01
:1020B0002046FFF74AFA2078000602D5022005B034
:1020C000F0BD0120FBE700007047FFB50C461E463F
:1020D0008FB003CA089009914F007D0D00D16D1E8D
:1020E000002108460020C0460321099A89050840BE
:1020F000002A03DA8200801840080840800D012879
:102100000A9002DD0020C0430A90089807430DD0D2
:10211000F048F149281848430714189800281DD0A2
:102120007542291E1DDD0A9842421BE018980128BD
:1021300002D00020302104E00020F24305E02154C9
:10214000401CB042FBDB30460022189B002121548A
:102150000F998B600A60486013B0F0BDBD1B6D1C09
:10216000DFE70A9A002900DA69420BA800F02EFC8A
:102170000BAB07CB03AB07C30899099800F092FC9F
:102180006B4607C30146D5480918002D00910BDDA9
:10219000D24903980A9A49424018002303A90390A0
:1021A000684600F0EFFE08E003990A9A0023081839
:1021B00003A90390684600F08FFE6B4607C3000436
:1021C000000C03D00020C043410800E01046189ADC
:1021D000002A03D00022009215461EE0751E05D489
:1021E000FFF7DCFE303262556D1EF9D5012208433F
:1021F000079602D000227F1C04E02078302801D10D
:1022000000227F1E002A069787D01EE0112D07DAD4
:10221000FFF7C4FE303262556D1C02460A43F5D109
:10222000084303D00098002819D00EE00021681E52
:1022300005E0235C625C63542254401E491C8142C9
:10224000F7DBA81B401E07950690079A18990020F7
:10225000A0540F98079B069A81600CC07CE711265A
:102260000020189059E7D21DF0B50D460446D1085C
:1022700093B0C90003C90C900D9101F0BDFE024658
:102280000D98C00F01D02D2007E02068810701D5EF
:102290002B2002E04007C00F4001032A0F9001D01D
:1022A000072A05DB03462946204600F04BFB0EE1DA
:1022B0002078800601D5E76900E006272846652DCD
:1022C00004D0662814D0672D69D12DE00020112F8D
:1022D000009001DB112300E07B1C0CAA03A910A8CD
:1022E000FFF7F3FE1199002610987D1C0E9142E035
:1022F00001203B460CAAC0070B900120009003A9C7
:1023000010A8FFF7E2FE119D1298109900260028F0
:102310000E9501D1781C0D18781B02D446427D1C05
:10232000761EE81B00903AE0012F00DA012700201A
:10233000112F009001DD112300E03B460CAA03A9F8
:1023400010A8FFF7C2FE11993D46109800260E9185
:10235000217809070BD40E99A94200DA0D4603A98A
:10236000012D04DD4A19203AD27F302A06D0B84226
:1023700001DA011D04DA012100910FE06D1EEFE783
:10238000002802DC86192D1A03E0411CA94200DD59
:102390000D46801B401C00900120C0070B90207848
:1023A000000705D40098A84202DB0020C04300903B
:1023B00069460020C8720B98012102AF0337C90794
:1023C000884225D0022010902B2011900B980028D5
:1023D0000BDA40420B902D20119006E00B9800F094
:1023E00063FA30317F1E0B9039701099481E002916
:1023F0001090F3DC0B980028F0D111987F1E3870F4
:102400002088000501D5452000E065207F1E38703A
:1024100001A8C01BC01D0B900F98002800D0012000
:1024200041190098C01709180B980818A169081AD3
:10243000401EA0612078C00602D42046FFF76FF846
:102440000F98002805D06268A1689047206A401C58
:1024500020622078C00625D52046FFF760F821E0ED
:10246000002E07DB0E98B04204DD03A86268805D91
:10247000A16802E06268A16830209047206A761C5B
:10248000401C20620098401E002800900AD100F0F5
:1024900055FAC06862680168405CA1689047206A8C
:1024A000401C206228466D1E0028D9DC07E06268C7
:1024B0003878A1687F1C9047206A401C20620B99E5
:1024C000481E00290B90F2DC2046FFF73EF803205F
:1024D00042E6000001FCFFFF104D0000E1DFFFFFBE
:1024E000D21DF0B504460D46D0088DB0C000466838
:1024F00007683146384601F07FFD0246F00F01D0F3
:102500002D2307E02068810701D52B2302E0400737
:10251000C00F43016846002B037001D0012000E08A
:102520000020032A0A9001D0072A04DB294620460E
:1025300000F008FA2DE12078800601D40D2500E096
:10254000E5697000400D0D2D01904BDA300D002132
:102550000B9008460020C046032189050840002E44
:1025600005DA82008018C20F10184010084080154C
:10257000012801DD0020C043A9000023182906D34B
:102580009C460A460123183A1B07D34003E0012268
:102590001205CA4094460C31202902D33A4620390C
:1025A00000E032468A40002802DD002A06D119E008
:1025B000002817D10121C9078A4213D3194663465F
:1025C0007F185E41002806D10120C007824202D157
:1025D000084687439E430B98310D814202D00198F3
:1025E000401C01902088000502D57149794402E021
:1025F0006F49794419396B460A9830221A540A985F
:102600000A7C401C1A54401C0A900198002801DCE6
:10261000302000E031201872019A0120002A02D0F7
:10262000644BD21804E072003A4302D0614A521C53
:102630000192002D02DC2278120703D56A462E2073
:10264000507202200022864694460CE03203360186
:10265000120F6D1E8B5C02AA13546246521C401C62
:102660009446052A01DA002DF0DC002202AE08E0D3
:102670003B0F3F01CB5C521C6D1E3354401C082A9B
:1026800001DA002DF4DC23689A0601D511E0401E22
:10269000704504DD3218203AD27F302AF7D0002866
:1026A00007DD3218203AD27F2E2A02D11A0700D431
:1026B000401E002D03DD3E223254401C6D1E497C1D
:1026C00031540199401C002906DA2D21471C315450
:1026D00001984042019003E02B21471C315401989E
:1026E0007D21C900884206DBFEF7CAF93030F0557B
:1026F0007F1C019101E0642808DB01986421FEF74A
:10270000BFF93030F0557F1C019101E00A2806DB4B
:1027100001980A21FEF7B4F93030F0557F1C01987A
:102720000A21FEF7ADF93031F1550A98A1697F1CF5
:102730007A191018081AA0612078C00602D4204621
:10274000FEF7EDFE216A6E460A980818206204E042
:1027500062683078A168761C90470A98401E0A90FB
:10276000401CF5D12078C00602D52046FEF7D7FEE2
:1027700002AE09E03078761C3E280DD06268A16870
:102780009047206A401C20627F1EF3D22046FEF74D
:10279000DCFE0DB00320F0BD206A4019206203E08A
:1027A0006268A168302090476D1EEDD3F8E7000005
:1027B000D046000001FCFFFF10B54369002B02D09A
:1027C000C046C04601E0FEF7E3FE012010BD1278CE
:1027D000014624310A7000224A700122ECE7116898
:1027E0000022D243E8E710B54369002B02D0C0466F
:1027F000C04601E0FEF77AFF012010BD12880146B5
:10280000243182840022C2840122ECE71168002274
:10281000D243E8E770B516460C46054600F086F848
:102820000368FF200230C05C012807D0FF2C0ED8BF
:10283000185D00280BD001202C7070BDFF3332468C
:10284000214608331868C3182846984770BD0020F1
:10285000C04370BD10B5002801D000F061F810BD74
:1028600010B500F0F9FBFFF7F5FF10BD10B500F053
:102870000DFCFFF7EFFF10BD10B5002102A000F026
:10288000D1FB012010BD00005349475056464E3A37
:102890002050757265207669727475616C20666E61
:1028A0002063616C6C65640001468008081A0209A7
:1028B0001018020A1018020C1018C0088200121812
:1028C0005200891A01E0401C0A390A29FBD27047DC
:1028D00001226946114B120382188A421A6001D8FC
:1028E000114670471960704770B50C4C6D46012653
:1028F00036032368AD1B9A18AA420ED8AD1A901958
:10290000EE0F75196D10AA18904200D91046C01D1F
:102910000B60C208D200D01A226070BD78F1FF1F90
:1029200001491820ABBEFEE72600020010B500F0FA
:1029300005F8001D10BD00BFF53C000000487047C1
:102940003CF5FF1FF8B51F46044601230068DB0273
:10295000032601461840072A05DB002801D017A5E9
:1029600006E017A504E0002801D016A500E016A592
:10297000102081432160A069C01E002FA06101D0FA
:10298000401EA0612046FEF7CAFD002F09D0384640
:102990006268A1689047206A401C2062C01C2062C7
:1029A00006E0206AFAE762682878A1686D1C904703
:1029B000761EF8D22046FEF7C8FDF8BD4E414E0007
:1029C0006E616E00494E4600696E6600F7B51646A8
:1029D0008AB0334878446C4603467C33C06F5A68EB
:1029E0009B680DC42E487844763003AC0DC80DC4E6
:1029F0003720C001081837211B30FEF741F8054683
:102A00000C46803D1B3C02D56442012000E00020C2
:102A10000027099010E0E0070CD00C2020497843F3
:102A2000794432464C3941186846012300F054FA83
:102A30006B4607C364107F1C002CECD1184F7F44F9
:102A40002E3F16E0E80712D02001C0190EC80691EB
:102A5000089307920068F04201D198190890324615
:102A6000012306A903A800F037FA03AB07C36D10D2
:102A7000641C002DE6D10998002806D0324669462C
:102A8000012303A800F07EFA05E0012332466946DF
:102A900003A800F021FA0A9B07C30DB0F0BD0000A7
:102AA000FC420000034640000A4610B5400D0BD022
:102AB0000121C9070F24A40200191C036408214343
:102AC000540D2143D20207E000210120F2E7D40F88
:102AD000490021435200401E0029F8DADB0FDB07D2
:102AE000184310BDFFB50D46144685B048685168BF
:102AF00001F05FFA00910190A868A16801F059FA0D
:102B000002910390A868616801F053FA029A1218C2
:102B10008242029201D2012000E00020019A0B18AB
:102B2000D2180028019202D08A4202D903E08A42D8
:102B300001D2012000E00020009908180090686888
:102B4000A16801F036FA029A12188242029201D26A
:102B5000012000E00020019A0B18D21800280192F1
:102B600002D08A4202D903E08A4201D2012000E069
:102B7000002000990818009028682168400049004A
:102B8000400849084018FA49471814E001994000E4
:102B9000C90F08430090019802994000C90F0843EB
:102BA0000190029803994000C90F084302900398CE
:102BB00040007F1E039000980028E7DA089800285C
:102BC00001D0EC4E00E00026B74201DA012000E01F
:102BD0000020002804902AD0F71BF806C00E15D05C
:102BE000029B2021091A039A8B401A430392029AEE
:102BF000019BC2408B401A430292019A009BC24043
:102C00008B4000991A430192C14000917B110DD075
:102C10006F460320C11A03D500218200B95003E09A
:102C20008A008100BA587A50401EF3D5374603987F
:102C30000299002800D00120014308980291002841
:102C400008460CD0002800D001200199019A4905BE
:102C500008430121D20AC902D202019200E00121F7
:102C60000E9B0122D207012B02D0002B03D013E0D0
:102C7000002807D120E0904204D890420CD1019B5B
:102C80000B4209D0019B5918019105D10099491CAB
:102C9000009101D17F1C009200280DD01021084620
:102CA0000020C0460498002806D00F98002803D0C2
:102CB000082108460020C04628682168019B009A28
:102CC0004840C10F0598C90739430EC009B0F0BD8F
:102CD000FFB587B0099A08980899536892684068C8
:102CE000896896460022039317469446089A12680C
:102CF0005300099A5B081268520052089A1A9E4BB8
:102D0000D4180A9A002A01D0352200E04022069207
:102D10000022012315460492DB07059324E0002DD1
:102D200005D175460346039E4D1BB34109D3754635
:102D30006646039B491B049D9841059B7519AC464B
:102D40005F4163463B4308D0059B049EDD07760840
:102D50002E435B080496059301E0521E641EC50FC6
:102D6000ED0749184041521C069B9A42D7DB002DC3
:102D700004D17546039A6B1A824101D203200CE0FC
:102D8000039A0B466B404240134303D0014303D0E8
:102D9000012002E0022000E00020614601910021B4
:102DA000009702910A99002905D06146400201432B
:102DB000704B019102E08007002302909C4201DAEF
:102DC000012000E0002007003AD01A1BD006C00EF8
:102DD00015D0029D2021019C091AC5408C40254335
:102DE000029C8C4000D001242543019C0295009D4B
:102DF000C4408D4000992C430194C140009154116E
:102E00001DD06D460221002202290CD10320001B97
:102E100007E0002804DB8600AE59002E00D0012216
:102E2000401C0328F5DB081B02D588002A5004E06B
:102E30008000285810438A00A850491EE3D51C463C
:102E40000A98002802980CD0002800D0012001998F
:102E5000019A490508430121D20AC902D20201920E
:102E600000E00121109B0122D207012B02D0002B90
:102E700003D013E0002807D11FE0904204D890420D
:102E80000CD1019B0B4209D0019B5918019105D12E
:102E90000099491C009101D1641C009200280CD0BB
:102EA000102108460020C046002F06D011980028A7
:102EB00003D0082108460020C04608980999019AC5
:102EC000009B006809684840C10F0798C907214363
:102ED00082600AC00BB0F0BD00B585B001930092CE
:102EE0000A460146002302A8FFF7FCFD02A807C816
:102EF00005B000BDFFB50A461F4685B0079901938E
:102F000001230091014602A8FFF7ECFD0299039806
:102F1000049ECA0F4900D20700920F22490892026C
:102F20008C1A0021002800DB0C46450013486D0870
:102F3000844214D3079A002A04DA441E0026104D56
:102F4000F64302E004460D460E46102108460020D6
:102F5000C046002F03D0042108460020C0462005AB
:102F6000E90A0843009908436905F20A1143ADE6EE
:102F700002C0FFFF013C0000FF3F0000FF07000010
:102F8000FFFFFF7F00B585B0019300920A4601461E
:102F9000002302A8FFF79CFE02A807C8A8E7FFB518
:102FA0000A461F4685B00799019301230091014607
:102FB00002A8FFF78DFE02990398049ECA0F4900EC
:102FC000D20700920F22490892028C1A0021002891
:102FD00000DB0C46450011486D08844214D3079A63
:102FE000002A04DA441E00260D4DF64302E0044692
:102FF0000D460E46102108460020C046002F03D083
:10300000042108460020C0462005E90A084300992B
:1030100008436905F20A114358E60000FF07000063
:10302000FFFFFF7F70B505460C460A2000E06D1CCF
:1030300000F054F8002D06D028780028F7D102E0DF
:10304000641C00F04BF8002C02D020780028F7D147
:103050000A2000F043F870BD10B5014602A0FFF74A
:10306000E1FF012010BD000053494752545245442E
:103070003A2052656469726563743A2063616E2711
:1030800074206F70656E3A200000000010B50128B2
:1030900005D0002103A0FFF7C5FF012010BD09A145
:1030A000F8E7000053494752544D454D3A204F75BB
:1030B00074206F662068656170206D656D6F727930
:1030C000000000003A2048656170206D656D6F72E8
:1030D0007920636F727275707465640008B5694613
:1030E00008700320ABBE08BD704710B5C046C0468F
:1030F00001F04EFE10BD0021016041608160C160A1
:10310000704700B587B01021684601F071FA07B02A
:1031100000BD00001D48002101601D48826B431561
:103120001A4382631C4A1B4850601C4883681C4A2F
:1031300013408360C3681340C3601A4A892010702B
:103140001948242242709A220270C278D206D20E06
:10315000C2700122027141718179C906FCD4817962
:103160000907890F0229FAD14021417181790907A4
:10317000890F0229FAD181794906FCD51A210170FB
:1031800081790907890F0329FAD17047008104402A
:103190000080044000000110408004404090044042
:1031A000FFF8FFFE005006400040064070B51E4884
:1031B0001E4C0168002900D104600368A3422DD190
:1031C0001B490320CA68051F002A1ED00420820064
:1031D0008E58002E06D052185268002A0DD0801C3E
:1031E0001028F4DB102810DBFDF7D0F8182101605F
:1031F0000D480168002902D002E0401CF2E704609B
:103200000068A0420AD1284670BD82008D50064950
:10321000002B00D10C600968A142F5D06822054955
:10322000054801F01BFE000008F3FF1F10F3FF1F0D
:10323000C8F0FF1F5C6F0000486F0000102801DB22
:1032400000207047F8B51C4D014684002859421CE7
:1032500031D103292FDA0E4608460020C046002847
:1032600028D130460020C046002823D113480078DA
:10327000C0071ED1114800F0E7FE002819D0104EFB
:103280001048306010484B27006808210422FF01D5
:10329000002806D10D4802F05FFD39460B4802F0C8
:1032A00035FC30460A4A0B490120C046034800F06D
:1032B000F7FE03482851F8BDC8F0FF1FC0F0FF1FFC
:1032C000C4F0FF1F706D00000CF1FF1F14F1FF1F11
:1032D00000000000113300001C20C043704715207F
:1032E000C04370470020704770B5002415460E4655
:1032F000002A06D9315D044802F06AFE641CAC4223
:10330000F8D3284670BD000014F1FF1F012070475C
:103310007047000038B5044604A0006800900222FF
:103320006946204600F0C0F838BD00002A010000C0
:10333000F8B504460D461646012000902178334624
:103340002A462046503000F03FFAF8BDF0B591B063
:1033500004460D464FA0006810900120009021788F
:10336000034610AA2046503000F060FA012210A94E
:10337000204600F099F800200F900E900D900B90D1
:103380000C9006220BA92046FFF7D2FF08A8007B6D
:103390007F2805DD08A8007B7F38C1B208A801732B
:1033A00008A8807B7F2805DD08A8807B7F38C1B214
:1033B00008A8817308A8007C7F2805DD08A8007C88
:1033C0007F38C1B208A8017408A8007B810108A851
:1033D000407B801001430F9108A8807B810108A8E1
:1033E000C07B801001430E9108A8007C800108A9D1
:1033F000497C891008430D900F98FDF7CEFE0022FE
:10340000254B07910690FDF783FC09910890FDF785
:1034100041FC06460E98FDF7C0FE00221E4B0791A8
:103420000690FDF775FC09910890FDF733FC0746FF
:103430000D98FDF7B2FE0022174B07910690FDF79D
:1034400067FC09910890FDF725FC0A902E606F60DB
:103450000A98A8600A98FDF7ABFE099108903846D3
:10346000FDF7A6FE079106903046FDF7A1FE0591F7
:103470000490099908980391029007990698019180
:10348000009006A120463430059B049A00F0D0FB42
:1034900011B0F0BD010000000000B04025662025FD
:1034A000662025660D0A0000F8B504460D4616464E
:1034B00001200090217833462A462046503000F003
:1034C000B5F9F8BD3EB504460CA000680290012095
:1034D00000902178034602AA2046503000F0A6F959
:1034E000012202A92046FFF7DFFF012201A92046A1
:1034F000FFF71EFF684600793EBD00000D0000008A
:10350000F8B504460E4617461D4625704B20C001EF
:103510000023042208210090201D00F037FB041F27
:103520003A4631462046503000F0CAFA0446503C34
:103530002046F8BD70B504460068012203690021E9
:103540002046984705000DD4206802220369002117
:1035500020469847064620680022036929462046EF
:103560009847304670BD002070470020704710B566
:103570000C46001D02F02CFD204610BD0901081864
:103580008169002902D009680C30084770477047EC
:1035900070470000FFB585B0002444602049846076
:1035A00001601E46022310221E490C3000F03AFD35
:1035B00005460C3D002706623801441900206E467E
:1035C0000C340090019002900390B4420ED0E16858
:1035D0002046002901D08968884703983146002891
:1035E00002D04268204690470398E06003996846FD
:1035F000002901D0896888477F1C022FDCD3281D51
:10360000079A069902F0A8FB281DE96A02F07EFAE3
:103610002A460549281D02F065FC284609B0F0BD80
:10362000106E0000F73000007D350000F0B5054653
:1036300091B03C4800262860002002A90290039027
:103640000490079105902868F7B2016828468847DA
:1036500000F0F2FE059800281FD039014C19A0692E
:10366000002801D102F0C6FC07980C3484420ED029
:10367000E1682046002901D08968884705980799A4
:10368000002802D04268204690470598E060012259
:103690003946281D02F032FC2AE039014C19A06994
:1036A000002801D002F0DAFC00210CA80C910C34A7
:1036B0000D910E910F91079084420ED0E168204643
:1036C000002901D0896888470F980799002802D0FF
:1036D0004268204690470F98E0600F990CA8002997
:1036E00001D08968884700223946281D02F006FC6F
:1036F00000F0D0FE2868416828468847059902A84E
:10370000002901D089688847761C022E94DB284660
:103710000223102204490C30FDF7AAFA284611B002
:10372000F0BD0000106E000059660000F8B51249A7
:10373000124A0B68002B00D10A6009688C4691423E
:1037400013D100210E4B10240E468D005F59874285
:1037500000D15E51491C641EF7D10748614600291B
:1037600000D102600068904204D0682205490648F2
:1037700001F074FBF8BD000008F3FF1F10F3FF1FFA
:10378000C8F0FF1F5C6F0000486F000010B50021FB
:10379000FDF764F810BD000010B50748074902683E
:1037A000002A00D101600068884204D068220449E0
:1037B000044801F053FB10BD70F3FF1F78F3FF1FA7
:1037C0005C6F0000486F0000FFB50446006881B0E0
:1037D00001681F460A9D20468847206801682046E8
:1037E0008847114E3068A04204D0201DA16801F026
:1037F00023F834602068416820468847012045400E
:103800003B460095201D039A029901F0EFF805460A
:103810002068416820468847AF4202D0012005B0A9
:10382000F0BD002005B0F0BD28F1FF1FFFB5044634
:10383000006881B001681F460A9D204688472068BD
:10384000016820468847114E3068A04204D0201DF0
:10385000A16800F0F1FF3460206841682046884785
:10386000012045403B460095201D039A029901F036
:1038700075F905462068416820468847AF4202D066
:10388000012005B0F0BD002005B0F0BD28F1FF1FFC
:1038900010B5074807490268002A00D10160006896
:1038A000884204D068220449044801F0D7FA10BDC8
:1038B00070F3FF1F78F3FF1F5C6F0000486F00007C
:1038C000F0B58FB00024154601220A9408940092A6
:1038D00008A809940B940C9423460D94224600F0FA
:1038E00099FE012205940294009202A829460394AD
:1038F0000494069423460794224600F08BFE694602
:103900000820085E401C7DD0079800680399584F36
:10391000084278D069462020085E401C72D00D987D
:103920000068099908426FD102AD00F085FD21467B
:10393000284600F017FF00F0ADFD02AC00F07CFD62
:103940000121204600F00EFE00F0A4FD002402AE8E
:10395000002500F071FD2946304600F003FF00F01D
:1039600099FD69460820085E401C76D006990398A8
:103970000860052002F018FE022500F05DFD2946D2
:10398000304600F0EFFE00F085FD69460820085E35
:10399000401C62D0059903980860052002F004FEDF
:1039A000641C0A2CD3DB08AC00F046FD0121204644
:1039B00000F0D8FD00F06EFD69462020085E401C36
:1039C0004BD00C9909980860052002F0EDFD69467E
:1039D0000820085E401C40D0059903980860052027
:1039E00002F0E2FD69462020085E401C35D00B99AC
:1039F00009980860052002F0D7FD00F01DFD0021A8
:103A0000204602E02EE017E023E000F0ABFD00F0DE
:103A100041FD02AC00F010FD0021204600F0A2FDA7
:103A200000F038FD69460820085E401C1AD007984F
:103A300000680399084202D138460FB0F0BD6946CC
:103A40002020085E401C0DD00D980068099908429E
:103A5000F2D000200FB0F0BDFFE7242205A112A094
:103A600001F0FCF92C2203A10FA001F0F7F90000EE
:103A7000FEFFFFFF746172676574732F54415247F4
:103A800045545F467265657363616C652F5441529E
:103A90004745545F4B4C58582F6770696F5F6F6292
:103AA0006A6563742E6800006F626A2D3E70696EED
:103AB00020213D202850696E4E616D65294E4300DE
:103AC00070B5044615482060002060601448A0606E
:103AD0001448154D0368002B00D105600068A8420A
:103AE00015D1A181E2812046FFF7EAFE0E220C21CA
:103AF000A25E615E201D00F0E1FE0C4804600948F2
:103B00000168002900D105600068A84204D068223D
:103B10000749084801F0A2F9204670BD286E000050
:103B2000A086010070F3FF1F78F3FF1F28F1FF1F2D
:103B30005C6F0000486F000070B504460D46002021
:103B4000207300F079FC2946204601F0BBFD00F00F
:103B5000A1FC204670BDF8B505460E462C463746FA
:103B600000F06AFC00BF207B002803D102F042FA7B
:103B70000120207300BF3946204601F003FF00F00A
:103B800089FC00BF2846F8BD7047704710B51C4639
:103B9000029BFFF7FFFC2146303000F067F8044934
:103BA00030380160034941630349016310BD0000DF
:103BB000406E0000C06E0000606E000010B5064947
:103BC00001600649416306490163303000F082F824
:103BD0003038FFF72BFD10BD406E0000C06E0000B6
:103BE000606E000070470020704700207047002082
:103BF000704700207047F8B5054600680E460C4631
:103C00008F18016D28468847BC4209D02868217862
:103C1000826C2846641C9047401C01D0BC42F5D100
:103C20002868416D28468847A01BF8BD00207047D2
:103C30000FB470B504460068016D2046884706AD94
:103C4000012200216069FCF71BFD2A466069059985
:103C5000FCF7DAFC05462068416D20468847284677
:103C600070BC08BC04B018477047000038B50F4A54
:103C700004C0002200F0E4F8041F0D482060002575
:103C80000C48656160600CA1204600F035F8606169
:103C9000000003D0FFF77AFD204638BD2A460023F6
:103CA00006A10B48009501F059F90000C06D000015
:103CB000D06E0000306F0000772B000053747265E7
:103CC000616D206F626A206661696C7572650000C3
:103CD0001901018010B50446054820600548606060
:103CE0006069FCF7C9FD201D00F0CAF8001F10BD77
:103CF000D06E0000306F0000F0B583B00D46064670
:103D0000FFF754FA244F002806DB8200BE50234AF6
:103D100000211154224A1154040021D04022684647
:103D2000027044702004020E684682702002020E67
:103D30006846C270220E29460271FCF765FD050037
:103D40001CD02046FFF77AFA00280CD00168C96918
:103D5000884704000BD5FCF719FB6142016018E0AD
:103D6000002003B0F0BDFCF711FB0921F6E70028A5
:103D70000FD028460021FCF771FD0AE0A000395859
:103D8000B14202D10021395003E0FCF7FFFA0921CA
:103D90000160284603B0F0BDC8F0FF1FE8F2FF1F26
:103DA000F8F2FF1FF8B507460D461E4802F05EFC0C
:103DB0001D4E3468002C10D0A06800280AD0FCF7F3
:103DC000BFFDA84206D12A463946A068FCF78AFD05
:103DD000002805D06468002CEED1072D10D016E025
:103DE000104812490268002A00D101600068884228
:103DF00004D068220E490F4801F030F82046F8BD83
:103E00002A4639460CA0FCF76DFD002804D0054871
:103E100002F02CFC0020F8BD024802F027FC70687C
:103E2000F8BD000028F4FF1F64F1FF1F30F4FF1FEE
:103E30005C6F0000486F000064656661756C74001B
:103E400070B50446002666600A48A16020600D46F1
:103E50002273094802F00AFC002D04D007480168CB
:103E60006160046000E06660034802F0FFFB2046EA
:103E700070BD0000406F000028F4FF1F64F1FF1FB9
:103E800010B5044613482060134802F0EFFBA06809
:103E9000124A00280ED01068A04202D1606810605B
:103EA00008E04168A14203D008464968A142FBD11D
:103EB000616841605068A04201D10020506006480E
:103EC00002F0D4FB207B002802D1201FFFF72EFC3C
:103ED000204610BD406F000028F4FF1F64F1FF1F53
:103EE00010B504464068002803D0007BC046012876
:103EF00001D0002010BD60680028FBD0001F10BD5D
:103F000010B504464068002803D0007BC046002856
:103F100001D0002010BD60680028FBD0001F10BD3C
:103F20004068002800D00120704710B54068002884
:103F300004D0007BC046002801D0002010BD012025
:103F400010BD000070B5044600200D462060606082
:103F50000FA12846FCF7B6FC431900211846236040
:103F600002782F2A05D0002A05D0401C491C206069
:103F7000F6E7401C2060002905D01846FFF712FF25
:103F80006060204670BD2A22024903A000F066FF4F
:103F90002F000000D07200006C656E20213D2030A3
:103FA00000000000704710B53038FFF7E0FA10BD90
:103FB0007047F8B5040C8BB2264682B25E431046B9
:103FC00058430D0C370C36040021801916467941F0
:103FD0006E43370C36048019264679416E438919A1
:103FE000F8BD0A7802704B7843708A788270CA787C
:103FF000C2700B79037170474900CA020243100076
:1040000000D004204A0D01D001221043044A490D7A
:10401000914201D102210843012800D105207047B7
:10402000FF070000FFB581B01C4617460E0007D001
:10403000019D02E02846B047ED192046641EF9D2E2
:10404000019805B0F0BD000010B501788A07920F05
:10405000012A06D08A0706D0054A064906A000F0C4
:10406000FDFE002010BD022211430170012010BD91
:104070008C050000BC70000030203D3D20282A67E0
:10408000756172645F6F626A6563742026204358AD
:10409000415F47554152445F4D41534B2900000059
:1040A00010B501788A07920F022A04D0044A054904
:1040B00005A000F0D3FE89088900491C017010BDDD
:1040C00094050000BC7000004358415F47554152C1
:1040D000445F494E49545F494E5F50524F475245E5
:1040E0005353203D3D20282A67756172645F6F62DB
:1040F0006A6563742026204358415F475541524406
:104100005F4D41534B29000010B50020FDF726FFFD
:1041100010BD000038B54B20C00100230422082147
:1041200000900448FFF732FD0446034A034901208A
:10413000C04638BD24F3FF1F00000000BD3B000057
:1041400010B500F009F810BD30380A2801D201205E
:10415000704700207047000002486A46C008C0004F
:104160007047000057F5FF1F70B5054CA168054D5D
:10417000C0222846FCF778F8A560C046C04670BD4E
:1041800000ED00E000F0FF1F70B50546FFF756F8A0
:104190000024A9000B4A661E545000280AD001686A
:1041A0004969884705000BD5FCF7F0F869420160C2
:1041B000304670BDFCF7EAF809210160304670BD59
:1041C000204670BDC8F0FF1F70B5FFF737F8002517
:1041D000ED4300280AD00168896A8847040004D5A5
:1041E000FCF7D4F861420160284670BDFCF7CEF8B8
:1041F00009210160284670BD70B5FFF71FF8002542
:1042000000280AD00168C9698847040004D5FCF772
:10421000BDF861420160284670BDFCF7B7F809217E
:104220000160284670BD000070B50C4605462B495C
:10423000FCF7C8FB002812D029492846FCF7C2FB2E
:10424000002811D027492846FCF7BCFB002810D0D5
:104250002878402812D0A00727D502212EE0002080
:10426000FEF7ECFF002070BD0120FEF7E7FF012004
:1042700070BD0220FEF7E2FF022070BD6878090AD7
:1042800009020143A878FF22120200029143104064
:104290000143E878120200049143104001432A7957
:1042A0000802000A1106084370BD600701D501210C
:1042B00004E0200701D5092100E000212007800F3C
:1042C00002D0012040020143600702D50120800294
:1042D0000143284600F05CFF70BD0000F467000059
:1042E000FB6700000368000070B500240E46FEF76F
:1042F000A5FF651E00280DD0016822460B693146D6
:104300009847040004D5FCF741F8614201602C464F
:10431000204670BDFCF73AF8092101602C46F7E70A
:10432000F8B5064617480D46824206D9FCF72EF826
:10433000162101600020C043F8BD00271446002A62
:104340001DDD3046FEF77AFF00280DD001682246B9
:10435000CB682946984707000AD5FCF717F8794239
:1043600001600020C043F8BDFCF710F80921F7E711
:10437000002F04DDE81920380349C07F8855E01B71
:10438000F8BD0000FFFFFF7FF8F2FF1FEFF3108082
:10439000C007C017401C704770B50D46044600F0BA
:1043A0004BF82088401B85B225800748016800290A
:1043B00007D00168491E01600068002801D100F0A3
:1043C000E9F9284670BD000030F1FF1F70B50446C2
:1043D00000F032F825780120207009480168002992
:1043E00007D00168491E01600068002801D100F073
:1043F000D1F9002D01D0012070BD002070BD00005A
:1044000030F1FF1F70B50D46044600F015F8208806
:10441000401985B2258007480168002907D0016846
:10442000491E01600068002801D100F0B3F9284658
:1044300070BD000030F1FF1F10B5074C2068401C14
:1044400005D000F097F92068401C206010BD512273
:10445000024903A000F002FD30F1FF1F18730000B5
:10446000637269746963616C5F73656374696F6EAD
:104470005F7265656E7472616E63795F636F756E8E
:10448000746572203C2055494E5433325F4D41587B
:104490000000000007480168002909D00168491E92
:1044A00001600068002803D110B500F073F910BD59
:1044B0007047000030F1FF1FEFF30580002800D0A7
:1044C0000120704705461B48FCF7C1F81A48FCF765
:1044D000BEF80120FEF7B2FE0926002820D00168B0
:1044E00089698847040003D5FBF750FF61420160EA
:1044F0000220FEF7A3FE002816D0016889698847CC
:10450000040003D5FBF742FF6142016000F03CFE6E
:10451000002801D001F0F4FA002D09D000F0AEFC23
:10452000FBF734FF0660E3E7FBF730FF0660EDE7DB
:10453000FEE7000090F4FF1FE4F4FF1F10B58A6847
:10454000002A02DCFDF7B4FA10BD521E8A604A68E8
:10455000C0B2531C4B60107010BD00000048704783
:10456000A46B000010B50022825E521C09D0002905
:104570000CD0012904D181680A68406802430A60AE
:1045800010BD3322044905A000F068FC81680A6868
:1045900040688243F3E70000B06F00006F626A2D4D
:1045A0003E70696E20213D202850696E4E616D6518
:1045B000294E430070B5054601800C46481C14D0B6
:1045C0000121204600F03CFE6006C10E012088401B
:1045D0006860200B054980014018011DE960091D34
:1045E0002961083114306961A86070BD00F00FF8CE
:1045F00070B5022605460C46FFF7DCFF611C07D0AC
:1046000000212846FFF7AEFF3146284600F0AAF801
:1046100070BD0000F8B5069E0446002A0D461F46F0
:104620000CD0FFF7C7FF6D1C1FD00020205E401C80
:104630001CD06068002E1ED0E1681DE0FFF7BAFFB5
:104640006D1C12D000212046FFF78CFF3946204612
:1046500000F088F80020205E401C07D06068002E23
:1046600001D0E16800E021690860F8BD2422074913
:10467000074800F0F3FB2169086001212046FFF79D
:1046800071FF3946204600F06DF8F8BD184700006C
:104690004C47000070B50D4604460026FFF78AFF20
:1046A0006D1C0DD0A05F401C0BD0216960680860B4
:1046B00001212046FFF756FF3146204600F052F810
:1046C00070BD24220149024800F0C8FB18470000D1
:1046D0004C470000F8B504460E4600271546FFF784
:1046E00069FF761C16D0E05F401C04D06068002D86
:1046F00006D0E16805E0242207A114A000F0AEFB7B
:104700002169086001212046FFF72CFF3946204629
:1047100000F028F8F8BD0000746172676574732FAB
:104720005441524745545F467265657363616C65D9
:104730002F5441524745545F4B4C58582F6770696E
:104740006F5F6F626A6563742E6800006F626A2D26
:104750003E70696E20213D202850696E4E616D6566
:10476000294E430010B502460020105E00F098FD6F
:1047700010BD0000EFF31080C007C01772B60449E7
:104780004A78401C002A02D1087001204870704706
:1047900060F1FF1F10B5EFF31080C007C017401C79
:1047A00004D03622054906A000F058FB0B48002132
:1047B00041700078002800D062B610BD047400007B
:1047C000216172655F696E74657272757074735F72
:1047D000656E61626C6564282900000060F1FF1F4E
:1047E00030B4026811710223124C01680022CD78A6
:1047F0001D4208D1CD781D4205D1921CA242F6D3AC
:1048000030BC02207047CA7802231A43CA70802243
:1048100000680021C378134206D1C378134203D144
:10482000891CA142F6D3EBE7C07830BCC007C00FAB
:1048300070470000A0860100F3B58BB000200890FF
:104840000790401E00901A4840684003410F1948E5
:10485000491C0068FCF706F9012401900026402756
:10486000154D600809902988AD1C61430198FCF73B
:10487000F9F80C99884208D8081A0099884204D29D
:10488000F1B20891099907910090761C7F1E3F06AE
:104890003F0EE8D16006040E052CDFD30798089977
:1048A000800108430B99096848700DB0F0BD000005
:1048B000408004401CF1FF1F68670000F7B58CB012
:1048C0003C490D9800F028FD04463B490E9800F045
:1048D00023FD0146204600F001FD0C990860411CB3
:1048E00058D036494118364859D001221203914216
:1048F00007D1816BC21411438163416B8022114344
:10490000416330480190002007900690401E0290BD
:104910002D4840684003410F2C48491C0068FCF7B3
:10492000A1F80124039000264027294D60080A9031
:104930002988AD1C61430398FCF794F801998842DB
:1049400008D8081A0299884204D2F1B207910A994C
:1049500006910290761C7F1E3F063F0EE8D160064E
:10496000040E052CDFD306980799800108430C99A3
:10497000096848700C980068817880221143817022
:104980000C490D9800F0F8FC0B490E9800F0F4FC6F
:104990000FB0F0BD2E220F490FA000F05FFA816B1F
:1049A0000122520311438163416B40221143416351
:1049B000A7E700001C6800008868000000A0F9BF9D
:1049C00000800440A0860100408004401CF1FF1FCD
:1049D000686700001070000028696E74296F626AB1
:1049E0002D3E69326320213D204E4300FFB5044631
:1049F000006883B0C27893060022002B17DA437850
:104A000045789B09AD06AD0E457020688578042673
:104A100035438570019200BF0198401C01906428C5
:104A2000F9DB206845789B011D43457008E08378D9
:104A300020252B4383702068837810252B438370B7
:104A4000012001432046FFF7CBFE002806D0204678
:104A500000F054F80020C04307B0F0BD2068817812
:104A6000EF221140817006980025002837DD461E90
:104A70000827684604E0002DFBD005984019401E29
:104A8000B54201D1012100E00021002921688A7886
:104A900001D03A4301E0F7231A408A70216809796E
:104AA0000170204600F040F8002814D0002001904A
:104AB00020688178DF221140817020688178EF22A0
:104AC0001140817000BF0198401C01906428F9D307
:104AD000284607B0F0BD06986D1C8542CBDB0C98CC
:104AE000002802D0204600F009F8206801790598D6
:104AF00040192038C177069807B0F0BD81B0002179
:104B0000009101688A78DF231A408A7000688178F2
:104B1000EF221140817000BF0098401C0090642873
:104B2000F9D3002001B0704710B402220A4C00688B
:104B30000021C378134208D1C378134205D1891CE0
:104B4000A142F6D310BC01207047C1780222114364
:104B5000C17010BC00207047A0860100F8B58C46DB
:104B600001680446C8781D46164682060020002AC1
:104B700017DA4A7893094A789206920E4A702268A8
:104B8000977804210F439770009000BF0099491C4B
:104B900000916429F9DB21684A789B011A434A7025
:104BA00008E08A7820231A438A7021688A781023C3
:104BB0001A438A706146FE2001402046FFF710FE2E
:104BC000002805D02046FFF799FF0020C043F8BD1C
:104BD0000027002D1CDDF15D2046FFF701FE0028B7
:104BE00013D00020009020688178DF22114081706E
:104BF00020688178EF221140817000BF0098401C2E
:104C000000906428F9D33846F8BD7F1CAF42E2DB40
:104C10000698002802D02046FFF770FF2846F8BD0E
:104C2000F0B50446406887B02030017E002972D17B
:104C3000807E00286FD12068006880472068C069A6
:104C4000804705680246002D09D0002005901F20EE
:104C5000012739468140A94206D1059008E02D225E
:104C60002E492FA000F0FAF8401E0006000EF0D1E9
:104C700050680190001F1D2804D33B22274928A01B
:104C800000F0ECF807228240104626490492FFF714
:104C900090F90026731E6A1E7341801859412A46F6
:104CA0003346FBF714FC039102906068066060686D
:104CB000466020684068804761680862626800203A
:104CC0009062D06260688560616805982031C8761E
:104CD00001200021019AFBF7C1FB6168401EC860FA
:104CE0006068049A0261626803990298D1619061D8
:104CF0006268002010635063606820304676606808
:104D000020308676606820300776204601F06CFA05
:104D1000204600F055FE07B0F0BD0000887200008C
:104D20003000000040420F0070B516480168802234
:104D300011430160144900224D6840230124002DD5
:104D40000BD0124E0260866002681A43026002684D
:104D5000224302606D1E4D6070BD4D88002D09D04C
:104D60000260856005681D43056003682343036096
:104D70004A8070BD016849084900016001F0BCFB30
:104D800070BD00000000044020F1FF1FFFFF000085
:104D9000A8B022A12548FEF74BFF3A23244A111D53
:104DA00010A8FEF7ADFB10A8FEF7B4FA7F20C005EF
:104DB00001F0E4FB10A8FEF785FB044622461DA186
:104DC0001A48FEF735FF00200D900E900F901F49F6
:104DD00009A8FEF7B1FE1D49091D05A8FEF7ACFEA6
:104DE0001B4901A8FEF7A8FE16E003220DA910A892
:104DF000FEF7ACFA09A80D99FEF7ADFE05A80E99CD
:104E0000FEF7A9FE01A80F99FEF7A5FE114801F0D3
:104E1000B5FB114801F0B2FBE7E700005374617283
:104E200074696E672E2E2E0D0A00000054F3FF1FCA
:104E30006040000077686F5F616D5F692829203AE4
:104E4000203078253032580D0A000000481000004C
:104E500004300000CDCC4C3ECDCCCC3E82B01446CC
:104E60000D460646FFF7E8FA2B4600223146024877
:104E7000009400F073F800004401FF8086B0FFF753
:104E8000DBFA20496846FFF705FC1F4E1F4D002442
:104E900069460020085E401C2ED0039901980860E6
:104EA000304601F081FB69460020085E401C23D09B
:104EB000049901980860304601F076FB641C042CCC
:104EC000E6DB002469460020085E401C14D00399EC
:104ED00001980860284601F067FB69460020085EDB
:104EE000401C09D0049901980860284601F05CFB39
:104EF000641C042CE6DBCAE7242205A111A0FFF7FD
:104F0000ADFF000048100000F0490200801A0600C2
:104F1000746172676574732F5441524745545F46FC
:104F20007265657363616C652F5441524745545FE8
:104F30004B4C58582F6770696F5F6F626A65637476
:104F40002E6800006F626A2D3E70696E20213D2040
:104F50002850696E4E616D65294E4300FFB58DB0D6
:104F6000044615462348169EFFF730FA002829D13B
:104F7000159F002C00DB204C34216846FBF720FDF8
:104F8000019702950094FFF757FA1A4C6068401C8D
:104F90006060012804D1342269461848FBF764F99F
:104FA000342269461648FBF75FF9A168002901D051
:104FB00013488847FFF76EFA33461148109A0E9946
:104FC00000F094FA0F48FFF701FA002805D0FFF728
:104FD00033FABFF34F8F20BFFDE7FFF76DFA0028CC
:104FE00006D1FFF7D3F9002802D00120FFF76AFAB3
:104FF000FFF744FF34F1FF1F0101FF80C0F3FF1FE3
:10500000F4F3FF1F35F1FF1F0FB410B5A2B025ABAD
:1050100084216846249AFBF7DBFA0446842804D3EB
:105020001FA80C490330FEF7DCFF002C0CDD6C469A
:10503000FFF702FA2046FBF783FC024621460220D6
:1050400001F0C1FAFFF726FA22B010BC08BC04B088
:1050500018470000E867000010B50446FFF7ECF9B8
:105060002046FBF76DFC02462146022001F0ABFA18
:10507000FFF710FA10BD0000044682B016A0FFF73B
:10508000C3FF202C19D0302C1CD0402C1FD01DA0C9
:10509000FFF7BAFF1E4C1FA0FFF7B6FF00F09CF908
:1050A0001FA0FFF7B1FF00200090254800230068F3
:1050B00024A1C26B2046FFF751FF26A0FFF7A4FFF3
:1050C000284CE8E728A0FFF79FFF2A4CE3E72AA037
:1050D000FFF79AFF2B4CDEE70A2B2B204D6265640D
:1050E0004F53204661756C742048616E646C657224
:1050F000202B2B0A0A4661756C74547970653A202E
:1051000000000000486172644661756C7400000024
:105110003D01FF800A0A436F6E746578743A00009F
:105120000A0A2D2D204D6265644F53204661756C2F
:10513000742048616E646C6572202D2D0A0A00008F
:10514000F06700004661756C742065786365707463
:10515000696F6E004D656D4D616E61676546617585
:105160006C7400003E01FF804275734661756C747B
:10517000000000003F01FF8055736167654661755F
:105180006C7400004001FF8010B500F0B3FC10BD4E
:105190000FB4F0B587B00646FEF708F8040032D425
:1051A0000025314604A80195FEF7CCFE04A8FEF7C1
:1051B000B7FE13261F4F00282AD004A8FEF7B5FE1D
:1051C000002804A803D0FEF79BFE019029E0FEF71B
:1051D00087FE00281CD0064604A80068C046024688
:1051E000306801A980680D9B844630466646B0470A
:1051F000002815D00646FBF7C9F871420160A000EF
:105200003D500020C04307B0F0BC08BC04B01847B4
:10521000FBF7BCF80660A0003D500020C043F2E759
:105220000198A100785004480555044805552046CA
:10523000E9E70000C8F0FF1FE8F2FF1FF8F2FF1FC8
:1052400070B5421C17D00E4B020B40069C6BC00E73
:10525000154609350126AE4034439C631203800095
:105260001018084A8018026807231B029A43090293
:105270000A43026070BD1422034904A0FFF7EEFD4B
:1052800000800440009004400871000070696E20A6
:10529000213D202850696E4E616D65294E43000006
:1052A00010B5421C07D0064A801802689208920086
:1052B0000A43026010BD2122024903A0FFF7CEFD80
:1052C000009004400871000070696E20213D202884
:1052D00050696E4E616D65294E430000884202D0D0
:1052E000421C01D10846704708B5491C07D000216F
:1052F0000B460246009102A10648FFF72FFE08BDAB
:1053000070696E6D6170206D69732D6D6174636875
:10531000000000003001018008B50022D243431C88
:105320000AD00023CB5E5B1C0DD00023CB5E8342F2
:1053300004D14A68501C06D0104608BD0C23CB5E31
:105340000C315B1CF1D100200346009001A10948FB
:10535000FFF704FE70696E6D6170206E6F742066D9
:105360006F756E6420666F72207065726970686513
:1053700072616C003001018038B50446401C0FD0CA
:105380000020085E401C12D00020085EA04208D118
:1053900089682046FFF754FF00212046FFF780FF71
:1053A00038BD0C20085E0C31401C0028ECD10020D8
:1053B00003460090224602A10648FFF7CFFD0000F9
:1053C000636F756C64206E6F742070696E6F757496
:1053D000000000003001018030B5224D83B0002470
:1053E0002968A0000A5821461FA0FFF70DFE641C83
:1053F0000D2CF5DB2A6829682868926C496C006CD2
:105400000292019100902868C36B826B416B1A482D
:10541000FFF7FAFD1948016819A0FFF7F5FD2868A4
:10542000C06C00070CD51AA0FFF7EEFD2868006DD0
:10543000C00701D01AA000E01DA0FFF7E5FD05E0C0
:1054400020A0FFF7E1FD1AA0FFF7DEFD2868C06C81
:10545000400701D51FA000E021A0FFF7D5FD03B054
:1054600030BD0000F06700000A52252D34643A2058
:1054700025303858000000007070000000ED00E09A
:105480000A43505549443A2025303858000000005E
:105490000A4D6F6465203A205468726561640000AB
:1054A0000A50726976203A20557365720000000038
:1054B0000A50726976203A2050726976696C656785
:1054C000656400000A4D6F6465203A2048616E648F
:1054D0006C6572000A537461636B3A20505350003C
:1054E0000A537461636B3A204D535000FFB50F4669
:1054F00001680446480FC04381B01646800716D0A5
:105500008DB20802030E2A462D48FFF77DFDFF21CC
:105510003631681A8D4221D00BDCFF3D323D11D06F
:10552000012D12D0022D13D0032D28D113E04D42AE
:10553000E7E7012818D0022813D0032817D00F2836
:105540001DD119E01FA0A16813E024A0A16810E0FC
:1055500026A0A1680DE029A0A1680AE02CA0A168FE
:1055600007E030A0A16804E033A0A16801E036A004
:10557000A168FFF749FD02E039A0FFF745FD384675
:10558000FFF76AFD3BA06168FFF73EFD002E09D0E2
:105590003CA0FFF761FD3046FFF75EFD3BA004999C
:1055A000FFF732FD3AA0A168FFF72EFD3D482168C4
:1055B000FFF72AFD3CA0FFF727FD05B0F0BD000076
:1055C000647300004B65726E656C204572726F7279
:1055D0003A20307825582C2000000000546872656D
:1055E00061643A20307825582C2000004D75746590
:1055F000783A20307825582C2000000053656D61E2
:1056000070686F72653A20307825582C20000000B1
:105610004D656D6F7279506F6F6C3A2030782558F8
:105620002C2000004576656E74466C6167733A20E5
:10563000307825582C20000054696D65723A20306E
:105640007825582C200000004D6573736167655103
:10565000756575653A20307825582C2000000000CB
:10566000417373657274696F6E206661696C6564FD
:105670003A2000000A4C6F636174696F6E3A203003
:10568000782558000A46696C653A20002B2564008D
:105690000A4572726F722056616C75653A203078D7
:1056A00025580000B87300000A2D2D204D62656456
:1056B0004F53204572726F7220496E666F202D2DF8
:1056C0000A000000F3B581B0044678490298FFF75C
:1056D00023FE87B27648874204D11D22754976A001
:1056E000FFF7BCFB794800250078794E80092FD15F
:1056F000784840687849000F0B687449401C497924
:1057000058434A067549726802D48A43726002E0BF
:105710000A437260400800281AD0706801221206FD
:1057200010437060694A1078800901D0002069E058
:10573000684840685279000F401C5843520672680E
:1057400002D48A4372605DE00A437260400859E007
:10575000706801214906084370605E4840685E49F0
:10576000000F0968401C484358490A789209022AE8
:1057700048D00A789209D9D14A79520637D48A7921
:10578000D206D3D40B46097889064A0F01219140ED
:10579000CAB259788906890F00D05201D9784909CF
:1057A0004901CB06DB0E1FD1491107291CD20B0082
:1057B0007B441B79DB189F440306090C0F1215006C
:1057C0000521C90111E0052109020EE00F21C901DF
:1057D0000BE00521490208E0B721890005E0B72167
:1057E000C90002E03E4900E03E49504308E00A7922
:1057F0004979D206D20EC906C90E521C504318313F
:10580000FBF730F9FBF718FE3749FBF7FBFC7F216C
:10581000C90588420ADD0021C9436D1CFBF710FE53
:10582000072D03D07F21C9058842F4DC2F49086089
:105830000298B36B020B380AF9B20127093297407C
:105840003B43B363F36B074618370122BA40134357
:10585000F363274A000380186A07520F0832026078
:105860002822C9000918CA601031A1600146083118
:105870002160001D606020461E4900F03DF8206850
:1058800000250068401CFBF7D7FD294600F004FF07
:10589000FBF78EFDA168086061680020086003497D
:1058A0000298FFF769FD03B0F0BD0000C069000079
:1058B000FFFF00006871000070776D20213D2028F7
:1058C00050574D4E616D65294E4300000040064023
:1058D00000800440408004401CF1FF1F00000100D4
:1058E00095080000710B00000024744908F1FF1FA7
:1058F00000800340204E0000F3B505680446286888
:1059000081B0401CFBF798FD0646A0680068FBF7D5
:1059100093FD3146FBF776FC7F26F605B04202DDAB
:105920000020164901E0FBF743FCFBF7B3F90746FB
:105930000298FBF779FD1249096800F0ADFEFBF70C
:1059400037FD401E2860FF20C0053D46C74201D3F9
:10595000002502E0B54200DD354620680068401CA5
:10596000FBF76AFD294600F097FEFBF721FDA168D1
:10597000086061680020086003B0F0BD0000F03FDF
:1059800008F1FF1F70B50546FF20C0050C46C14257
:1059900001D3002404E07F20C005844200DD0446DA
:1059A00028680068401CFBF747FD214600F074FEA4
:1059B000FBF7FEFCA968086069680020086070BDFC
:1059C000F8B54468054620462030817E002965D11F
:1059D000407E002862D1284600F006FC6A685168C3
:1059E000002964D0566B136B08684968B4461F1AC7
:1059F0008E4158D2C71A009266461069B141936928
:105A0000D269DB1B06468A412BD300982D4A806859
:105A1000904203D13846864252D322E0009A203287
:105A2000D27E002A0DD03846FAF718FD264B002208
:105A3000C01851415A1C0023FAF749FD86423FD352
:105A40000FE000220B4611463A46FAF728FD1E4B9E
:105A50000022C01851415A1C0023FAF738FD864233
:105A60002ED30099096A0E180098C0680640206A73
:105A7000B04205D1FF220932144915A0FFF7EEF913
:105A80002868016930468847286840688047216A4D
:105A90008E4204D9B04206D2884204D3F8BD88426F
:105AA000FCD2B042FAD3286840698047F8BD21692A
:105AB000206A4018E1680840296809698847F8BDEC
:105AC0003046CEE740420F003F420F008872000090
:105AD0006D617463685F7469636B20213D2071752B
