:020000040000FA
:1000000000300020050300003D2D00000F0300001C
:1000100000000000000000000000000000000000E0
:1000200000000000000000000000000011030000BC
:100030000000000000000000130300001503000092
:100040001703000017030000170300001703000048
:100050001703000017030000170300001703000038
:100060001703000017030000170300001703000028
:100070001703000017030000170300001703000018
:100080001703000017030000170300001703000008
:1000900017030000170300001703000017030000F8
:1000A00017030000170300001703000017030000E8
:1000B00017030000170300001703000017030000D8
:1000C00000F002F800F0C1F80CA030C8083824187D
:1000D0002D18A246671EAB4654465D46AC4201D180
:1000E00000F0B3F87E460F3E0FCCB64601263342F1
:1000F00000D0FB1AA246AB4633431847203D000010
:10010000403D0000103A02D378C878C1FAD85207AF
:1001100001D330C830C101D504680C6070470000BD
:100120000023002400250026103A01D378C1FBD813
:10013000520700D330C100D50B60704710B56E294F
:1001400002D100F0EBFC10BD702902D100F01BFEC3
:1001500010BD662902D103F01FFD10BD652902D133
:1001600003F01AFD10BD672902D103F015FD10BD83
:10017000612902D103F018FD10BD03681B0A01D3E9
:1001800080231943692902D100F092FC10BD642933
:1001900002D100F08DFC10BD752902D100F088FC61
:1001A00010BD6F2902D100F099FD10BD782902D150
:1001B00000F0D6FD10BDE92902D100F035FD10BDDB
:1001C000E42902D100F030FD10BDF52902D100F084
:1001D0002BFD10BDEF2902D100F08CFD10BDF829D8
:1001E00002D100F0CBFD10BD0368DB0901D38023F1
:1001F0001943632902D101F05CFD10BD732902D1BE
:1002000001F05FFD10BDE32902D101F069FD10BDD1
:10021000F32902D101F06CFD10BD002010BD1FB507
:100220000098019901F0D7F802F064F8040000206A
:10023000002103F09BFC401C60600020002103F0C3
:100240007FFCE06000F0ACFF1FBD02F097FE11469E
:10025000FFF7E5FF02F06AFD02F0CEFFFEB40022D8
:100260000023040000250D4EFFE7002F00D112D01F
:10027000B54206D10FD00122F7E73300F5E734008D
:10028000F3E735001F197E0801277743774387423C
:10029000F1D0F2DBF3DC3000FEBC7047FFFFFFFF64
:1002A00070B505460C46164602E00FCC0FC5103E51
:1002B000102EFAD2082E02D303CC03C5083E042E1A
:1002C00007D301CC01C5361F03E021782970641CD7
:1002D0006D1C761EF9D270BD1CB500200090002464
:1002E00008E02046FFF7BAFF0190019900984018F6
:1002F0000090641C02488442F3DB00BFFEE700006C
:10030000102700000448804704480047FEE7FEE746
:10031000FEE7FEE7FEE7FEE7A52D0000C1000000B6
:1003200010B50B460146184600F00CFC10BD00004D
:100330000FB400B58DB010A909900B900020C043F8
:1003400000910A9000200C900748784406900748D6
:1003500078446A4607900F9909A800F0FBFD0DB09C
:1003600008BC04B0184700002B0C0000450C00002E
:1003700070B50446C068810713D0800601D5A56A10
:1003800004E0A169606840182169451A204600F020
:10039000BFFE002206462946204600F00FFE3046EA
:1003A00070BD002070BD70B5002802D0FFF7E0FFDF
:1003B00070BD0025074C6E1E08E02046FFF7D8FFF1
:1003C000002800D03546206D44086400002CF4D18C
:1003D000284670BD40F1FF1F09684A0501D540B2AB
:1003E0007047C905FCD500B2704709684A0501D5B8
:1003F000C0B27047C905FCD580B2704770477047DE
:10040000FFFFFFFFFFFFFFFFFFFFFFFFFEFFFFFFFD
:10041000FFB51D460027FF4383B05C6800200190B4
:100420009E68A96904987F1C88470090296A8847BC
:100430000028F6D10098401C0CD0032040028443D1
:10044000002E19DD600614D500982B2809D02D2820
:100450000FD103E00020C04307B0F0BD01208002AF
:100460000443A96904987F1C8847761E002E0090DB
:1004700002DD0098302803D00598002825D035E00B
:100480000120A96940020443761E04987F1C884716
:10049000002E009003DD782805D0582803D0059859
:1004A000002810D022E00598002801D010281DD186
:1004B0000120A96940028443761E04987F1C884766
:1004C0000090102002E0082000E00A2005900DE0D6
:1004D0000121059A49020C430199761E51430818DF
:1004E0000190A96904987F1C88470090002E05DDC3
:1004F0000599009800F018FD0028E9DAE9690498E8
:100500008847A00502D40120C043A5E7E00722D117
:10051000600611D56005019800D5404229680A1D82
:100520002A600968220501D5087014E0220701D568
:10053000088010E008600EE02868011D296000684E
:10054000210502D50199017005E02107019901D526
:10055000018000E0016038467EE7000030B5441CB1
:1005600003E00178401C00290DD08107F9D10B4B25
:10057000DD0104C8D11A91432940FAD0001B0A06B4
:1005800003D0C01E30BD001B30BD0A0401D0801E48
:1005900030BD0902FCD0401E30BD00000101010148
:1005A0000346F0B50B439B072DD1244DEF01042AE0
:1005B00029D308C810C95E1B9E43121F3E4017D0A6
:1005C000D8B2E1B2401A3106014310D198B2A1B2BB
:1005D000401A310401430AD118022102000A090A13
:1005E000401A3102014302D1180E210E401AF0BD0B
:1005F000A342DCD018BA21BA884201D90120F0BD4B
:100600000020C043F0BD002A01D10020F0BD0378D6
:100610000C78401C491C002B0DD0A3420BD1521E5C
:1006200009D003780C78401C491C002B03D0A3424E
:1006300001D1521EEBD1181BF0BD000001010101D8
:10064000431A70B593421BD28918801804E0491EE2
:10065000401E0B78521E03709307F8D106E0103944
:10066000103878C9103978C01038103A102AF6D2EC
:1006700003E0091F001F0B680360121FF9D570BD4E
:10068000FFF70EFE70BDF8B5064614460843800716
:1006900007D0751AA54219D20819102D13D2311995
:1006A00007E03046FFF7CCFFF8BD401E491E027838
:1006B0000A70641EF9D2F8BD471B2A46394600F07D
:1006C0000DFE641B3846A542F6D3011B2246304678
:1006D00000F004FEF8BD000082078B079A4237D174
:1006E00070B5920F0AD0032402780B78401C491C85
:1006F000002A2BD09A4229D12042F5D11D4EF40177
:1007000004C808C9951B9543254010D19A4207D1CA
:1007100004C808C9951B9543254008D19A42EFD0DB
:1007200012BA1BBA01209A4200D2404270BD12BADE
:100730001BBA2DBA18241000E0401900E140401AFD
:1007400005D12E00E64002D1083CF4D1D01A70BD8C
:1007500002780B78401C491C002A09D09A4207D124
:1007600002780B78401C491C002A01D09A42EFD035
:10077000D01A704701010101002203098B4273D393
:10078000030A8B4258D3030B8B423CD3030C8B429E
:1007900021D312E003460B437FD4002243088B424F
:1007A00074D303098B425FD3030A8B4244D3030BF8
:1007B0008B4228D3030C8B420DD3FF22090212BABD
:1007C000030C8B4202D31212090265D0030B8B4239
:1007D00019D300E0090AC30B8B4201D3CB03C01A23
:1007E0005241830B8B4201D38B03C01A5241430BFE
:1007F0008B4201D34B03C01A5241030B8B4201D3EE
:100800000B03C01A5241C30A8B4201D3CB02C01A58
:100810005241830A8B4201D38B02C01A5241430AD0
:100820008B4201D34B02C01A5241030A8B4201D3BF
:100830000B02C01A5241CDD2C3098B4201D3CB0166
:10084000C01A524183098B4201D38B01C01A524115
:1008500043098B4201D34B01C01A524103098B4219
:1008600001D30B01C01A5241C3088B4201D3CB0004
:10087000C01A524183088B4201D38B00C01A5241E7
:1008800043088B4201D34B00C01A5241411A00D297
:1008900001465241104670475DE0CA0F00D0494200
:1008A000031000D34042534000229C4603098B4270
:1008B0002DD3030A8B4212D3FC22890112BA030AF8
:1008C0008B420CD3890192118B4208D3890192117A
:1008D0008B4204D389013AD0921100E08909C309FF
:1008E0008B4201D3CB01C01A524183098B4201D301
:1008F0008B01C01A524143098B4201D34B01C01AEC
:10090000524103098B4201D30B01C01A5241C30863
:100910008B4201D3CB00C01A524183088B4201D3D2
:100920008B00C01A5241D9D243088B4201D34B00ED
:10093000C01A5241411A00D20146634652415B102F
:10094000104601D34042002B00D549427047634610
:100950005B1000D3404201B50020C046C04602BD36
:1009600070B5064600F01CFD056830460B30C40823
:10097000E400B44201D8002070BD68682A4600280F
:1009800018D00168A14211D30B46214608318B4291
:1009900008D3436801194B6003681B1B0B6051604F
:1009A000046001E041685160001D70BD024640686E
:1009B0000028E6D12146284600F0F8FC0028DCD1CA
:1009C00070BD70B50446051F00F0EAFC0068002CFD
:1009D0001AD0446801E020466468002C01D0AC4283
:1009E000F9D301680A18AA4204D12A680546891871
:1009F000016000E0456028684119A14205D16168A5
:100A0000696021684018286070BD6C6070BD70B569
:100A1000044685690068C10601D5302600E020261D
:100A2000C00707D070BD62683046A1689047206A51
:100A3000401C20626D1EF6D570BD70B504468569F8
:100A40000078C00707D170BD6268A1682020904778
:100A5000206A401C20626D1EF6D570BD70B50C4634
:100A60000546012A05D02878800600D5EA690023CA
:100A700002E0012305E05B1C934202D2E05C002807
:100A8000F9D1A869E618C01AA861286AC0182862B6
:100A90002846FFF7BCFF04E06A682078A968641C58
:100AA0009047B442F8D32846FFF7C7FF70BD000057
:100AB000F7B5002575291068009914A611D0FFF725
:100AC0008BFC002802DA404211A608E00099096870
:100AD0008A0701D50FA602E0490704D50EA6012515
:100AE00001E0FFF782FC009F0024243704E001F0BE
:100AF000DFFB30313955641C0028F8D12B463246D3
:100B00002146009800F0E1FCFEBD0000000000005E
:100B10002D0000002B00000020000000116802687A
:100B2000006A530501D5087009E0D30501D5088096
:100B300005E0130602D5C21705C100E008600120D8
:100B400070470000084B70B50D467B4401F093F8E8
:100B50000446284601F09AFA002802D00020C0433B
:100B600070BD204670BD0000D7260000F7B50446D2
:100B7000154686B02B487844002703C83E460090AF
:100B8000019111E007986A467100415A02A801F0EC
:100B900063FB411C07D02178890603D5E269391827
:100BA00091420ED83F18761C2078800602D5E06965
:100BB000B84206DDAE42E5DB07987100405A0028D6
:100BC000E0D1A069C01BA0612046FFF720FF1548B7
:100BD00078445A3803C800900020019116E0410083
:100BE0006A460798415A02A801F036FB0590401C5E
:100BF0000AD0002505E0626802A8A168405D904720
:100C00006D1C05988542F6D30498401CB0420490B0
:100C1000E5DB206AC01920622046FFF70EFF09B00D
:100C2000F0BD0000A6310000F7B5D21D0025D208A6
:100C300015A6D200F52905CA11D0002A05DA00212F
:100C40004042914111A60A4608E0009909688B07C5
:100C500001D50FA602E0490701D50EA601251146D0
:100C6000009F0024243704E000F0E9FB30323A55BD
:100C7000641C02460A43F7D12B46324621460098AF
:100C800000F023FCFEBD0000000000002D0000006D
:100C90002B0000002000000070B504460021243421
:100CA00008E05507D2086D0F303565545D072A43BB
:100CB000DB08491C15461D43F3D10468002310A22C
:100CC000250708D5A40601D4002904D0C46901234E
:100CD0000CA2641EC46100F0F8FB70BD10B50446A0
:100CE00021461068FFF781FB002302462046FFF7EC
:100CF000D3FF10BDD21DD108C9000CC9CCE700003C
:100D00000000000030000000F8B50F46018809051A
:100D100002D5224C7C4402E0204C7C440E34054633
:100D20000021243508E016071209360FA65D6E541F
:100D30001E0732431B09491C16461E43F3D12246A7
:100D400004780023240705D5702F06D0002901D090
:100D50000223113200F0B9FBF8BD01231032F9E78C
:100D600070B504460D4621461068FFF73EFB002390
:100D7000024629462046FFF7C7FF70BDD21DD308A3
:100D8000DB000CCBC0E730B4036820241268234397
:100D900003600823C36130BC0023B5E710300000B6
:100DA000F3B50446002081B020622046E168884700
:100DB000002872D0252802D06268A168ABE0594FA4
:100DC00000267F442046E16888472028054608DB46
:100DD000312D06D2781920380078002801D006433A
:100DE000F0E7B00701D5042086430020E061074604
:100DF000A0612A2D0AD0284602F0C8F8002827D082
:100E0000B8000019303D0090856119E00298BA00E1
:100E1000121902C8916102902046E1688847012FAB
:100E2000054617D1E06900281FDA202086431CE020
:100E300000980A2180694843009940193038886138
:100E40002046E1688847054602F0A0F80028EFD167
:100E5000012F0AD02E2D08D12046E168884705468B
:100E6000202006437F1C022FC3DBA069002803DA81
:100E70004042A06101200643F00701D010208643C4
:100E80006C2D0BD0682D09D04C2D3CD06A2D38D05C
:100E9000742D38D07A2D36D016E040E0E1682F4628
:100EA00020468847B842054609D16C2F29D0012039
:100EB0008002E168064320468847054604E06C2F1F
:100EC0001DD0FF2001300643002D28D02846413890
:100ED000192803D80120C002064320352046266089
:100EE0002946029A1646FFF729F9002810D0012852
:100EF0000BD0F61DF008C0000830029055E74020E6
:100F0000E1E78020D5E70020D3E7361D02964CE7C5
:100F100062682846A1689047206A401C44E7206A1E
:100F2000FEBD00008A2F00003A2800D2303820236E
:100F300002469A43412A01D310463738884201D3EA
:100F40000020C04370470000026851181378016008
:100F50001846704710B5D16005497944516105497B
:100F60007944116200211161114600F0C5FE10BDE7
:100F7000EBFFFFFF550500004268002A08D001681A
:100F80000B78491C002B03D0521E06C01846704730
:100F90000121C160881E70474268002A0BD0C368D7
:100FA0000168002B07D183688B4204D0491E521C74
:100FB00006C0002070470020C0437047F8B50446C3
:100FC00016460D464769007B800730D0384602F050
:100FD0000FF800282BD132461026002A25D0012AEE
:100FE00002D0022A23D104E0204601F053F845192B
:100FF0001BE0384601F0E8FFE16831430028E1607A
:1010000004DA204600F054F80120F8BDC9030BD5DE
:101010006268E16A914200D81146A2698918226982
:10102000891A814200DD08462D18002D01DA0220C0
:10103000F8BDE16A6068E268814206D29103E0622D
:1010400003D5012149048A433243A669AE4211DC2B
:10105000E16A814201D90B4600E003469F192369EA
:10106000FF1AAF4206DD814201D90F4600E0074674
:101070009F4206D1202002430020A060A56220608C
:101080000DE0AD1BE669AE1B8142A66000D90846A3
:10109000C01A281A20605819606020208243034833
:1010A00002400020E26040342072F8BDBFCFD7FF7D
:1010B000C1688022114392039143C1600021816085
:1010C00001607047F7B514460E463348D568576936
:1010D000054209D03846A16902F03EF8002811DB2C
:1010E0002D48C0430540E5602B46324638460099FE
:1010F00002F046F84200A1695208B21A8918002885
:10110000A16104D02046FFF7D3FF0020C043FEBDFD
:1011100070B504460569C06A6168884200D808460F
:10112000E1680522D2049143E160C90314D5A842C5
:1011300009D02246411B2846FFF7C4FF002802D0F1
:101140000020C04370BDE56200206560A060E068DB
:10115000012109048843E060002070BD10B50446F9
:10116000C06820218843E060A16AA06988420ED04F
:101170002046FFF7CDFFE0680321090388431021D3
:101180000843E060A06AA0612069E06260600349F2
:10119000E0680840E06010BD10000200BFBFFFFF24
:1011A00010B54348542100F0F8F84248542100F0AB
:1011B000F4F84148542100F0F0F840483C493D4BD8
:1011C000404A01603E4803603B4810605A1C0A6573
:1011D000411C1965012101653C48354A3AA1784412
:1011E00000F0A0FF002804D1384878440C3801F002
:1011F00059F838482F4A36A1784400F093FF002868
:1012000004D1344878440C3801F04CF832482A4A6A
:101210002FA1784400F086FF002804D12E4878449E
:101220000C3801F03FF840232148DC000021224621
:1012300000F052FF002804D0244878445C3801F0C4
:1012400031F81C4822464023002100F045FF0028C9
:1012500004D0204878445C3801F024F8164822462F
:101260001023002100F038FF002804D01A487844E9
:101270005C3801F017F810BD0F4870B5006D4408D8
:101280000B48640000F0C2FF0A4800F0BFFF0A48A4
:1012900000F0BCFF09E0206D450820466D0000F01D
:1012A000B5FF2046FFF78DFB2C46002CF3D170BD17
:1012B00040F1FF1F94F1FF1FE8F1FF1FF0F0FF1F47
:1012C000F4F0FF1FF8F0FF1F72000000D6290000A5
:1012D00077000000C3290000B1290000F8B5042AF6
:1012E0002CD3830712D00B78491C0370401C521E6C
:1012F00083070BD00B78491C0370401C521E8307D8
:1013000004D00B78491C0370401C521E8B079B0FA6
:1013100005D0C91ADF002023DE1B08C90AE0FEF74A
:10132000BFFFF8BD1D4608C9FD401C46B4402C4314
:1013300010C0121F042AF5D2F308C91A521EF0D4A5
:101340000B78491C0370401C521EEAD40B78491CD0
:101350000370401C012AE4D409780170F8BD01E053
:1013600004C0091F0429FBD28B0701D50280801C11
:10137000C90700D00270704700290BD0C30702D004
:101380000270401C491E022904D3830702D5028043
:10139000801C891EE3E70022EEE70022DFE7000061
:1013A000004870473CF2FF1F7047704738B504464D
:1013B0000A460020694601F06DFC002805D002466F
:1013C0002046009900F09EFF012038BD10B5012095
:1013D00001F04EFC10BDF8B501F050FC05460020B0
:1013E0000C461020C0460646A819A0420DD9324628
:1013F0006946002001F04EFC070001D101F038FCE5
:101400000098A04200D00546C419FFF7C9FFF61D99
:1014100007460560F008C0004619284600F008F8A5
:10142000B44204D031463868A21B00F06BFFF8BD0F
:1014300000210160416080607047102070470B46BA
:1014400070B5024689078008084319469D08141A9A
:10145000A94125090807054308092C194841250A0F
:1014600001060D43010A2C194141200C0D042843AB
:101470000D0C00194D41002140194D41C00869076C
:101480000843E908840F8D002543840024184D414A
:1014900024196D41121BAB4107E00925ED432C11C6
:1014A000521963410024401C61411C460A25002654
:1014B000551BB441F1D270BD10B5044600F012FFC7
:1014C0000068005DC007C00F10BDFFB504460D46A3
:1014D00081B0243000902168880604D51022E0698C
:1014E0009143216000E00120A84201DD471B00E09C
:1014F00000270498A1697A191018081AA0612078A9
:10150000C00602D42046FFF782FA002608E00398BE
:101510006268A168805D9047206A401C761C20624A
:1015200004988642F3DB2078C0060AD52046FFF7F0
:101530006EFA06E06268A16830209047206A401C7D
:10154000206238467F1E0028F4DC07E000986268BD
:10155000A168405D9047206A401C206228466D1EAD
:101560000028F3DC2046FFF768FA2078000602D551
:10157000022005B0F0BD0120FBE700007047FFB579
:101580000C461E468FB003CA089009914F007D0D8E
:1015900000D16D1E002108460020C0460321099A93
:1015A00089050840002A03DA8200801840080840B4
:1015B000800D01280A9002DD0020C0430A9008989F
:1015C00007430DD0F048F1492818484307141898EC
:1015D00000281DD07542291E1DDD0A9842421BE0DD
:1015E0001898012802D00020302104E00020F243A6
:1015F00005E02154401CB042FBDB30460022189B22
:10160000002121540F998B600A60486013B0F0BD2F
:10161000BD1B6D1CDFE70A9A002900DA69420BA89E
:1016200000F0CEFE0BAB07CB03AB07C308990998BC
:1016300000F032FF6B4607C30146D5480918002D5C
:1016400000910BDDD24903980A9A494240180023C1
:1016500003A90390684601F08FF908E003990A9AFC
:101660000023081803A90390684601F02FF96B4680
:1016700007C30004000C03D00020C043410800E071
:101680001046189A002A03D00022009215461EE048
:10169000751E05D4FFF7D3FE303262556D1EF9D5A5
:1016A00001220843079602D000227F1C04E0207824
:1016B000302801D100227F1E002A069787D01EE025
:1016C000112D07DAFFF7BBFE303262556D1C024662
:1016D0000A43F5D1084303D00098002819D00EE042
:1016E0000021681E05E0235C625C63542254401EA6
:1016F000491C8142F7DBA81B401E07950690079AFC
:1017000018990020A0540F98079B069A81600CC07E
:101710007CE711260020189059E7D21DF0B50D4640
:101720000446D10893B0C90003C90C900D9101F093
:101730000FFC02460D98C00F01D02D2007E0206855
:10174000810701D52B2002E04007C00F4001032A8A
:101750000F9001D0072A05DB03462946204600F0FA
:10176000EBFD0EE12078800601D5E76900E0062751
:101770002846652D04D0662814D0672D69D12DE048
:101780000020112F009001DB112300E07B1C0CAA2C
:1017900003A910A8FFF7F3FE1199002610987D1CED
:1017A0000E9142E001203B460CAAC0070B9001209D
:1017B000009003A910A8FFF7E2FE119D129810995E
:1017C000002600280E9501D1781C0D18781B02D434
:1017D00046427D1C761EE81B00903AE0012F00DA9D
:1017E00001270020112F009001DD112300E03B466E
:1017F0000CAA03A910A8FFF7C2FE11993D46109844
:1018000000260E91217809070BD40E99A94200DA1F
:101810000D4603A9012D04DD4A19203AD27F302A52
:1018200006D0B84201DA011D04DA012100910FE06F
:101830006D1EEFE7002802DC86192D1A03E0411C1B
:10184000A94200DD0D46801B401C00900120C0070E
:101850000B902078000705D40098A84202DB0020F6
:10186000C043009069460020C8720B98012102AF66
:101870000337C907884225D0022010902B201190F1
:101880000B9800280BDA40420B902D20119006E0B7
:101890000B9800F00DFD30317F1E0B9039701099C0
:1018A000481E00291090F3DC0B980028F0D1119805
:1018B0007F1E38702088000501D5452000E0652096
:1018C0007F1E387001A8C01BC01D0B900F98002808
:1018D00000D0012041190098C01709180B9808186A
:1018E000A169081A401EA0612078C00602D42046D3
:1018F000FFF78DF80F98002805D06268A16890471F
:10190000206A401C20622078C00625D52046FFF7BB
:101910007EF821E0002E07DB0E98B04204DD03A81C
:101920006268805DA16802E06268A168302090472B
:10193000206A761C401C20620098401E00280090FF
:101940000AD100F0D7FCC06862680168405CA168F9
:101950009047206A401C206228466D1E0028D9DC72
:1019600007E062683878A1687F1C9047206A401CB5
:1019700020620B99481E00290B90F2DC2046FFF7ED
:101980005CF8032042E6000001FCFFFF104D000060
:10199000E1DFFFFFD21DF0B504460D46D0088DB043
:1019A000C000466807683146384601F0D1FA024661
:1019B000F00F01D02D2307E02068810701D52B23EC
:1019C00002E04007C00F43016846002B037001D0BE
:1019D000012000E00020032A0A9001D0072A04DB3E
:1019E0002946204600F0A8FC2DE12078800601D48D
:1019F0000D2500E0E5697000400D0D2D01904BDADA
:101A0000300D00210B9008460020C04603218905B7
:101A10000840002E05DA82008018C20F101840100E
:101A200008408015012801DD0020C043A9000023E3
:101A3000182906D39C460A460123183A1B07D340AF
:101A400003E001221205CA4094460C31202902D33A
:101A50003A46203900E032468A40002802DD002A5A
:101A600006D119E0002817D10121C9078A4213D3F2
:101A7000194663467F185E41002806D10120C00741
:101A8000824202D1084687439E430B98310D814222
:101A900002D00198401C01902088000502D57149B0
:101AA000794402E06F49794419396B460A9830222B
:101AB0001A540A980A7C401C1A54401C0A90019837
:101AC000002801DC302000E031201872019A01204A
:101AD000002A02D0644BD21804E072003A4302D0CC
:101AE000614A521C0192002D02DC2278120703D5B4
:101AF0006A462E20507202200022864694460CE050
:101B000032033601120F6D1E8B5C02AA135462461B
:101B1000521C401C9446052A01DA002DF0DC0022FC
:101B200002AE08E03B0F3F01CB5C521C6D1E3354EC
:101B3000401C082A01DA002DF4DC23689A0601D53E
:101B400011E0401E704504DD3218203AD27F302A61
:101B5000F7D0002807DD3218203AD27F2E2A02D192
:101B60001A0700D4401E002D03DD3E223254401CD3
:101B70006D1E497C31540199401C002906DA2D2143
:101B8000471C315401984042019003E02B21471C2F
:101B9000315401987D21C900884206DBFEF7FAFD29
:101BA0003030F0557F1C019101E0642808DB01987A
:101BB0006421FEF7EFFD3030F0557F1C019101E00C
:101BC0000A2806DB01980A21FEF7E4FD3030F055C3
:101BD0007F1C01980A21FEF7DDFD3031F1550A988E
:101BE000A1697F1C7A191018081AA0612078C00614
:101BF00002D42046FEF70BFF216A6E460A980818A9
:101C0000206204E062683078A168761C90470A98E8
:101C1000401E0A90401CF5D12078C00602D520460F
:101C2000FEF7F5FE02AE09E03078761C3E280DD0B6
:101C30006268A1689047206A401C20627F1EF3D230
:101C40002046FEF7FAFE0DB00320F0BD206A4019D1
:101C5000206203E06268A168302090476D1EEDD3DA
:101C6000F8E70000D022000001FCFFFF01694A1CD8
:101C700002610878704700B58FB00291002105918C
:101C80000549019379440391114604906846FFF792
:101C900087F80FB000BD0000E5FFFFFF10B54369F6
:101CA000002B02D0C046C04601E0FEF7D7FE01205F
:101CB00010BD1278014624310A7000224A700122B8
:101CC000ECE711680022D243E8E710B54369002B26
:101CD00002D0C046C04601E0FEF748FF012010BD1B
:101CE00012880146243182840022C2840122ECE75A
:101CF00011680022D243E8E7F3B50C468FB000200C
:101D00000C90012000260E9008460C30039062696A
:101D1000039801219047051E2ED0252D2DD0216A34
:101D20008847002818D06269039801219047216AEA
:101D300088470028F7D16269411E0398904700E068
:101D4000761CA1690F988847216A88470028F7D137
:101D5000E1690F988847DAE7A1690F988847A84298
:101D6000074601D1761CD2E7E1690F9888477F1CAE
:101D700002D10C98002877D075E16269039800279A
:101D80003D46394690472A280CD1626903980121C3
:101D90009047012506E00A214F433F18303FEBD41E
:101DA00010200543626903980121904701463039AC
:101DB0000A2903D2B1498F42DEDCECE7E90600D400
:101DC000AF4F6C280AD04C2810D0682824D06A283D
:101DD0002ED074280CD07A280AD00DE062690398BE
:101DE000012190476C2823D004211CE020200543CA
:101DF0006269039801219047A760652865604FD00C
:101E000026DC582839D01ADC452849D012DC252890
:101E100034D04128B0D143E0626903980121904752
:101E2000682802D008210D43E6E70120C002DEE762
:101E30000220DCE7462833D047289DD130E05B28DC
:101E400070D061282CD063286CD0642894D161E0D4
:101E50006F284FD009DC662822D0672820D0692857
:101E600026D06E2888D12EE0F9E070284DD0732856
:101E70006FD075284ED078280DD154E0A1690F9805
:101E800088472528054600D16CE7E1690F98884707
:101E90006D1C00D16DE7E6E00A224CE00A2252E018
:101EA000012023466A460F99C043C046C046CFE092
:101EB00040212846234608436060A80701D5002238
:101EC00039E000223FE0E80700D020E72068011D4C
:101ED00021600068290501D5067018E7290701D59A
:101EE000068014E7A90703D5F117066041600EE7E5
:101EF00006600CE740212846234608436060A80797
:101F000001D5082217E008221DE05E492846084056
:101F1000606016E040212846234608436060A80719
:101F2000BCD5B9E715E04021284608436060A80702
:101F300007D52346102201200F99C043C046C04652
:101F400086E01022234601200F99C043FEF760FA75
:101F50007EE0002163280B460191009102910D91D2
:101F600002D05B2808D03CE02079C00601D40120D3
:101F7000A0600120009034E0E06801210D906269CA
:101F8000039890475E2807D101200190E068012165
:101F90000D906269039890472169002906D10B468C
:101FA00004AA8F00491C0829D351FADB00285AD013
:101FB0002169002927D00298401C02906269039889
:101FC000012190475D28F1D10198002808D0002018
:101FD00004AB8100401C5A58D24308285A50F8DB01
:101FE00004AB2069002820791DD0400726D5029A2D
:101FF00000980D9B00922246029001200F99C04349
:10200000C046C04624E0C117C90E09184A11490943
:10201000930004AA9A184901411A136801208840C4
:1020200003431360CAE74007224617480F9902D5B9
:10203000C046C0460CE0C046C04609E002982246B1
:1020400000990D9B009002910F480F99C046C04621
:1020500000280ADA401C06D10E98002803D0002080
:10206000C04311B0F0BD0C98FBE7E90702D10C9911
:10207000491C0C91361800200E9048E6CCCCCC0CB4
:10208000FFFFFF7FF1F7FFFFFEFFFFFFC06880212A
:102090000840704710B50146C268900703D090060B
:1020A00007D5886A0AE000F029F901210160881E3D
:1020B00010BD8B694868C0180B69C01A40310B7A93
:1020C000002B02D0497A401A10BD1103FCD500281C
:1020D000FADD401E10BD000070B5C468A50713D01E
:1020E000650211D4D51FF93D0AD0FF3D6D1E07D002
:1020F000FF3DFF3D022D07D101462431012305E0BC
:10210000074E5D1EB54201D3012070BD0161C36160
:1021100041600F2109028C431443C460002070BD4C
:10212000FFFFFF00F7B516460C46104600F06EF8AC
:102130002078611C61280AD0722802D0772839D112
:1021400002E00125002404E00225042401E02D4DD5
:1021500008240222032301270878491C2B2806D0D3
:10216000622807D02039C87F742807D008E01D43B3
:102170001443F1E7042005433C43EDE710200443FA
:102180000098214600F048FF411C13D00021316126
:1021900071600121F5604902F1617061200704D589
:1021A000304602220021FEF709FF306D38433065CA
:1021B0003046FEBD0020FEBDF8B50D460646124C69
:1021C000206DC10704D0410804D044086400F7E73B
:1021D000224610E05420FEF7C3FB070010D0790818
:1021E000206D4900012211430843542120653846DF
:1021F000FFF7D3F83A4629463046FFF793FFF8BD7C
:102200000020F8BD0280000040F1FF1FFEB504462B
:10221000466900690F4F0190E56800200090A8070B
:1022200007D02046FEF774FF304600F0B7FE0028C6
:1022300001DA3846FEBD280502D50198FEF7C1FB3C
:102240004C212046FFF7A9F8206D4008400020658A
:102250000098FEBDFFFFFFFF70B516460C46054611
:1022600000F040F80368FF200230C05C012807D06E
:10227000FF2C0ED8185D00280BD001202C7070BDEB
:10228000FF333246214608331868C318284698475A
:1022900070BD0020C04370BD10B5002801D000F013
:1022A0001BF810BD10B500F0C9FCFFF7F5FF10BD1D
:1022B00001468008081A02091018020A1018020CB8
:1022C0001018C008820012185200891A01E0401C40
:1022D0000A390A29FBD2704701491820ABBEFEE734
:1022E0002600020010B500F005F8001D10BD00BF6B
:1022F0007D1800000048704740F2FF1F00487047FB
:1023000054F2FF1F10B50346406801E003464068E1
:10231000002801D08842F9D31868C3188B4206D030
:10232000CB1CD808C000001D411A521A0146081DD6
:102330000A60FEF746FB10BDF8B51F4604460123B0
:102340000068DB02032601461840072A05DB002847
:1023500001D017A506E017A504E0002801D016A5B6
:1023600000E016A5102081432160A069C01E002F47
:10237000A06101D0401EA0612046FEF748FB002F5F
:1023800009D038466268A1689047206A401C2062E4
:10239000C01C206206E0206AFAE762682878A1681B
:1023A0006D1C9047761EF8D22046FEF746FBF8BD1E
:1023B0004E414E006E616E00494E4600696E6600E9
:1023C000F7B516468AB0334878446C4603467C33EA
:1023D000C06F5A689B680DC42E487844763003ACB1
:1023E0000DC80DC43720C001081837211B30FEF777
:1023F000D1F905460C46803D1B3C02D564420120C4
:1024000000E000200027099010E0E0070CD00C202D
:1024100020497843794432464C39411868460123B3
:1024200000F054FA6B4607C364107F1C002CECD1FB
:10243000184F7F442E3F16E0E80712D02001C01944
:102440000EC80691089307920068F04201D19819CE
:1024500008903246012306A903A800F037FA03AB1F
:1024600007C36D10641C002DE6D10998002806D022
:1024700032466946012303A800F07EFA05E00123F5
:102480003246694603A800F021FA0A9B07C30DB043
:10249000F0BD0000BC190000034640000A4610B51C
:1024A000400D0BD00121C9070F24A40200191C0301
:1024B00064082143540D2143D20207E0002101208A
:1024C000F2E7D40F490021435200401E0029F8DAF8
:1024D000DB0FDB07184310BDFFB50D46144685B072
:1024E0004868516800F01CFD00910190A868A1683F
:1024F00000F016FD02910390A868616800F010FDDD
:10250000029A12188242029201D2012000E00020B9
:10251000019A0B18D2180028019202D08A4202D9DF
:1025200003E08A4201D2012000E00020009908184F
:1025300000906868A16800F0F3FC029A12188242C9
:10254000029201D2012000E00020019A0B18D2185B
:102550000028019202D08A4202D903E08A4201D2C5
:10256000012000E0002000990818009028682168E8
:1025700040004900400849084018FA49471814E04B
:1025800001994000C90F084300900198029940004A
:10259000C90F08430190029803994000C90F0843EE
:1025A0000290039840007F1E039000980028E7DA0D
:1025B0000898002801D0EC4E00E00026B74201DA6E
:1025C000012000E00020002804902AD0F71BF80624
:1025D000C00E15D0029B2021091A039A8B401A4382
:1025E0000392029A019BC2408B401A430292019AC5
:1025F000009BC2408B4000991A430192C140009158
:102600007B110DD06F460320C11A03D50021820033
:10261000B95003E08A008100BA587A50401EF3D5C1
:10262000374603980299002800D0012001430898FA
:102630000291002808460CD0002800D00120019902
:10264000019A490508430121D20AC902D202019226
:1026500000E001210E9B0122D207012B02D0002BAA
:1026600003D013E0002807D120E0904204D8904224
:102670000CD1019B0B4209D0019B5918019105D146
:102680000099491C009101D17F1C009200280DD0B7
:10269000102108460020C0460498002806D00F9854
:1026A000002803D0082108460020C0462868216879
:1026B000019B009A4840C10F0598C90739430EC0D5
:1026C00009B0F0BDFFB587B0099A0898089953681A
:1026D000926840688968964600220393174694469C
:1026E000089A12685300099A5B081268520052084F
:1026F0009A1A9E4BD4180A9A002A01D0352200E07B
:10270000402206920022012315460492DB0705931E
:1027100024E0002D05D175460346039E4D1BB341B1
:1027200009D375466646039B491B049D9841059B4A
:102730007519AC465F4163463B4308D0059B049E38
:10274000DD0776082E435B080496059301E0521ED0
:10275000641EC50FED0749184041521C069B9A4262
:10276000D7DB002D04D17546039A6B1A824101D242
:1027700003200CE0039A0B466B404240134303D006
:10278000014303D0012002E0022000E00020614666
:1027900001910021009702910A99002905D0614614
:1027A00040020143704B019102E080070023029038
:1027B0009C4201DA012000E0002007003AD01A1BF9
:1027C000D006C00E15D0029D2021019C091AC540DB
:1027D0008C402543029C8C4000D001242543019C61
:1027E0000295009DC4408D4000992C430194C14046
:1027F000009154111DD06D460221002202290CD1F6
:102800000320001B07E0002804DB8600AE59002EE1
:1028100000D00122401C0328F5DB081B02D58800EC
:102820002A5004E08000285810438A00A850491E0E
:10283000E3D51C460A98002802980CD0002800D046
:1028400001200199019A490508430121D20AC902D0
:10285000D202019200E00121109B0122D207012B3C
:1028600002D0002B03D013E0002807D11FE09042D4
:1028700004D890420CD1019B0B4209D0019B5918FE
:10288000019105D10099491C009101D1641C00926D
:1028900000280CD0102108460020C046002F06D08A
:1028A0001198002803D0082108460020C046089847
:1028B0000999019A009B006809684840C10F079870
:1028C000C907214382600AC00BB0F0BD00B585B0D6
:1028D000019300920A460146002302A8FFF7FCFD7F
:1028E00002A807C805B000BDFFB50A461F4685B05F
:1028F0000799019301230091014602A8FFF7ECFD1F
:1029000002990398049ECA0F4900D20700920F2231
:10291000490892028C1A0021002800DB0C46450071
:1029200013486D08844214D3079A002A04DA441E1F
:102930000026104DF64302E004460D460E461021D7
:1029400008460020C046002F03D00421084600207E
:10295000C0462005E90A0843009908436905F20AC0
:102960001143ADE602C0FFFF013C0000FF3F000045
:10297000FF070000FFFFFF7F00B585B001930092C5
:102980000A460146002302A8FFF79CFE02A807C8DA
:10299000A8E7FFB50A461F4685B0079901930123B2
:1029A0000091014602A8FFF78DFE02990398049E4C
:1029B000CA0F4900D20700920F22490892028C1ACE
:1029C0000021002800DB0C46450011486D088442B8
:1029D00014D3079A002A04DA441E00260D4DF6434C
:1029E00002E004460D460E46102108460020C0466F
:1029F000002F03D0042108460020C0462005E90A24
:102A00000843009908436905F20A114358E600009B
:102A1000FF070000FFFFFF7FF8B505460C46C868BA
:102A20000521C9048843012189050843E060800627
:102A300002D52046FEF792FB7149E0680140022969
:102A400003D02046FEF734FBBCE0052101224903F8
:102A50000140D20391420FD1C00306D56168E06AFC
:102A6000884200D80846606006E02069E062606045
:102A7000606900F0A9FAA061A1680022EEB2002905
:102A80000EDAE06883050BD4C943A16009212260F6
:102A900049030843E0606068411C61600670ACE077
:102AA000E068012149030843E060002020602069BC
:102AB000002831D1606900F09BFA012527462437B0
:102AC000ED02002816D0A0898005800F08D0E069AB
:102AD000FDF746FF0028206102D0E068284318E097
:102AE00001202761E061E068032109028843012198
:102AF00089020DE0E069FDF733FF00282061EFD087
:102B0000E0682843E0608105890F03D1FF2101318E
:102B10000843E06020696060E2683A4F2569D005AB
:102B20001FD56168E06A884200D80846411B05D07D
:102B300022462846FEF7C6FA002843D1E068010283
:102B400004D5E56200206560A06053E0691CE16285
:102B50006160E169491E3843A160E06030462E7033
:102B6000F8BD100201D53A4009E06068411C61607F
:102B70000670E06838430A2EE06006D00022E16A61
:102B80006068814203D90B4602E00122F7E7034661
:102B9000A7895B1B7F0504D4E7699F4201DD002AFA
:102BA0001ED0814200D801460F1A0020E562656000
:102BB000002BA06009DD224619462846FEF782FA5E
:102BC000002802D00020C043F8BD002F08D0A06923
:102BD000E5626560C01BA061E06810210843E06009
:102BE000E068000209D56168A069E562491B4018E8
:102BF0006560A0610120C043F8BD3046F8BD00000B
:102C0000821000000000010070B505460C460A2045
:102C100000E06D1C00F05AF8002D06D0287800283E
:102C2000F7D102E0641C00F051F8002C02D02078AB
:102C30000028F7D10A2000F049F870BD10B5014610
:102C400002A0FFF7E1FF012010BD000053494752E9
:102C5000545245443A2052656469726563743A205F
:102C600063616E2774206F70656E3A20000000006B
:102C700010B500F033F8FFF70FFB10BD01226946D5
:102C8000114B120382188A421A6001D8114670470C
:102C90001960704770B50C4C6D46012636032368E9
:102CA000AD1B9A18AA420ED8AD1A9019EE0F7519DD
:102CB0006D10AA18904200D91046C01D0B60C208C2
:102CC000D200D01A226070BDFCF0FF1F08B5694623
:102CD00008700320ABBE08BD7047000010B5012886
:102CE00005D0002103A0FFF78FFF012010BD09A12F
:102CF000F8E7000053494752544D454D3A204F756F
:102D000074206F662068656170206D656D6F7279E3
:102D1000000000003A2048656170206D656D6F729B
:102D20007920636F727275707465640010B500F07D
:102D30002CFB00F029FBFDF7CFFA10BD00B587B0E2
:102D40001021684600F0AAFA07B000BDF3B5134E93
:102D500081B0B4680F46B068002819D1104D2146E3
:102D6000681A80102C46002801DD302804DBC022C0
:102D70002846FDF765FC0AE0002082008B58A3502E
:102D8000531812195B68801C53603028F5D3B56066
:102D9000019880000019076403B0F0BD00ED00E069
:102DA00000F0FF1F1D48002101601D48826B431584
:102DB0001A4382631C4A1B4850601C4883681C4AA3
:102DC00013408360C3681340C3601A4A892010709F
:102DD0001948242242709A220270C278D206D20E7A
:102DE000C2700122027141718179C906FCD48179D6
:102DF0000907890F0229FAD1402141718179090718
:102E0000890F0229FAD181794906FCD51A2101706E
:102E100081790907890F0329FAD17047008104409D
:102E200000800440000001104080044040900440B5
:102E3000FFF8FFFE0050064000400640007B704750
:102E400070B506460C480D460468002C12D0A068E8
:102E500000280CD02A463146FDF7A2FB002806D1F7
:102E6000A068FDF77BFBA84201D1204670BD6468D5
:102E7000002CECD1002070BDE0F0FF1F10B504461F
:102E80004068002803D0FFF7D9FF012801D00020B7
:102E900010BD606810BD10B504464068002803D01E
:102EA000FFF7CCFF002801D0002010BD606800288B
:102EB000FBD0001F10BD4068002800D001207047E3
:102EC00010B54068002804D0FFF7B8FF002801D0F3
:102ED000002010BD012010BD0068704710B50446E9
:102EE00000202060606008782F280FD148780028E3
:102EF0000CD04B1C00211A46236010782F2807D0D5
:102F0000002807D0491C521C2260F6E7204610BD5D
:102F1000501C20601846FFF793FF6060204610BDEC
:102F2000F8B5040C8BB2264682B25E431046584375
:102F30000D0C370C360400218019164679416E437A
:102F4000370C36048019264679416E438919F8BD3D
:102F50004900CA020243100000D004204A0D01D0EB
:102F600001221043044A490D914201D10221084334
:102F7000012800D105207047FF07000002486A467B
:102F8000C008C000704700005FF2FF1F30380A28F9
:102F900001D201207047002070470000032801DAA9
:102FA0000020704781000748002209184039486B0B
:102FB0004A63002802D00168496808470020C043DE
:102FC0007047000000F1FF1F032801DA002070475E
:102FD0000649800040184038406B002802D0016844
:102FE000896908470020C0437047000000F1FF1FB7
:102FF000032801DA01207047064980004018403854
:10300000406B002802D00168C96808470020C0430F
:103010007047000000F1FF1FF0B50E4683B0044674
:103020004649FDF759FB464D002815D04549204635
:10303000FDF752FB00281AD043492046FDF74CFB10
:1030400000281FD0414F0025A8003858002824D060
:103050006D1C102DF8D36CE02868002804D10422E0
:1030600008213B4800F042FB002003B0F0BD286877
:10307000002804D104220821354800F037FB012044
:1030800003B0F0BD2868002804D10422082130488C
:1030900000F02CFB022003B0F0BD102D49D22078A7
:1030A0003A2811D021466846FFF718FF6846FFF717
:1030B00002FF00283DD06846FFF702FF002868465F
:1030C00009D0FFF7E8FE2DE06A4622A12046FDF771
:1030D0002FF9009826E0FFF7D1FE002829D0B1078C
:1030E00001D5022408E0710701D5012404E031076D
:1030F00001D5092400E000243107890F02D0012105
:1031000049020C43710702D5012189020C4326466E
:1031100004466846FFF7E0FE0146206832468368B1
:1031200020469847002804D0A9007850E81C03B036
:10313000F0BD0020C04303B0F0BD0000B83B00006C
:10314000C4F0FF1FBF3B0000C73B000000F1FF1FA2
:10315000CCF0FF1F3A257000032801DA00207047E9
:10316000064A800080184038406B002803D002686F
:103170001369002218470020C043704700F1FF1F69
:1031800070B514460E46032814DA12480068002869
:1031900004D104220821104800F0A8FA0025002CD0
:1031A00006D9715D0C4800F057FB6D1CA542F8D3A1
:1031B00020460AE00949800040184038406B00284A
:1031C00005D001680B6831469847201A70BD002071
:1031D000C04370BDC4F0FF1FCCF0FF1F00F1FF1F04
:1031E0000FB410B503AA03480299FDF799F801201E
:1031F00000F002F8E8F1FF1F04460848FDF7D3F895
:103200000748FDF7D0F800F0BBF8002801D000F027
:1032100061F9002C01D000F09DF8FEE794F1FF1F4A
:10322000E8F1FF1F10B58A68002A02DCFFF7F4FB03
:1032300010BD521E8A604A68C0B2531C4B601070A9
:1032400010BD002907D0012904D181680A684068AF
:1032500002430A60704781680A6840688243F8E761
:1032600070B505460C46481C15D02C80012120461F
:1032700000F08CF86006C10E012088406860200BC9
:10328000054980014018011DE960091D29610831C7
:1032900014306961A86070BD00F00FF870B50226A7
:1032A00005460C46FFF7DCFF611C07D000212846CD
:1032B000FFF7C7FF3146284600F015F870BD70B51E
:1032C00004460D460026FFF7CBFF6D1C0AD021698E
:1032D0006068086001212046FFF7B3FF31462046B1
:1032E00000F001F870BD10B502460020105E00F03D
:1032F0006FF810BD70B51448016880221143016059
:10330000124900228B6840240125002B0BD0104E5F
:103310000260866002682243026002682A430260FB
:103320005B1E8B6070BD0B88002B09D00260836030
:1033300003682343036003682B4303600A8070BD66
:1033400000F086FB70BD000000000440D4F0FF1FB9
:10335000FFFF000086B072B608496846FFF7AFFF6E
:10336000039901980860962000F0DCFB049901980D
:103370000860962000F0D6FBF2E70000481000003D
:1033800010B500F0A1F810BD70477047421C19D06D
:1033900070B40D4B020B40069C6BC00E15460935F0
:1033A0000126AE4034439C63120380001018074A84
:1033B0008018026807231B029A4309020A4302602D
:1033C00070BC7047704700000080044000900440CB
:1033D000421C06D0034A80180268920892000A43F1
:1033E0000260704700900440884202D0421C01D124
:1033F0000846704710B5491C04D003A0FFF7F0FE43
:103400000020C04310BD000070696E6D6170206DBA
:1034100069732D6D6174636800000000002210B5AF
:10342000D243431C0BD00023CB5E5B1C0ED0002389
:10343000CB5E834205D14C68601C08D00AE0104680
:1034400010BD0C310023CB5E5B1CF0D1144602A0F2
:10345000FFF7C6FE204610BD70696E6D6170206E6C
:103460006F7420666F756E6420666F72207065726F
:103470006970686572616C0010B50446401C0FD01D
:103480000020085E401C11D00020085EA04208D138
:1034900089682046FFF77AFF00212046FFF798FF52
:1034A00010BD0C310020085E401CEDD101A0FFF7DB
:1034B00097FE10BD636F756C64206E6F7420706929
:1034C0006E6F7574000000000148006870470000CE
:1034D000ECF0FF1F84B069461820ABBE04B0704703
:1034E000F3B50446006881B0C5780C210D40C17861
:1034F000F3221140C17052492068884270D1514F67
:103500003878800927D1504840685049000F0B682F
:10351000401C797958434E064D494E4A4E6802D4B4
:1035200096434E6002E016434E604008002812D0D9
:103530003878800966D144484068000F401C5843E1
:103540007B795B064B6802D493434B605BE013438B
:103550004B60400857E03C4840683C49000F096810
:10356000401C48433978890902294CD039788909A7
:1035700048D17979490639D4B979C90642D439781C
:1035800001228906490F8A407978D2B28906890FCB
:1035900000D05201F97849094901CB06DB0E20D150
:1035A000491107291DD20B007B441B79DB189F446E
:1035B0000306090C0F1215000521C90112E00521AF
:1035C00009020FE00F21C9010CE00521490209E0C1
:1035D000B721890006E0B721C90003E01E4901E0D8
:1035E00026E01E495043FDF7C7F80CE03979CA06BA
:1035F000D20E7979521CC906C90E18315043FDF715
:10360000BBF800E0002002990901FDF7B5F8216838
:103610000A78C30452095201DB0E1A430A7021686A
:103620004A7848702068C1782943C17003B0F0BD62
:10363000054840684003410F0448491C0068D2E730
:1036400000A006400040064040800440C0F0FF1F3C
:10365000008004400000010095080000710B00008C
:10366000F8B5044600681546C2781F460C231A4078
:103670000092C278F3231A40C270082902D0184879
:10368000FFF7AEFD002D07D0012D07D0022D08D089
:103690001448FFF7A5FDF8BD002603E001263546D6
:1036A00001E001260025012F04D0022F02D00E4890
:1036B000FFF796FD70002168284388702068017824
:1036C000DF2211400170216808787A01203A104306
:1036D00008702068C178009A1143C170F8BD0000DD
:1036E000D03B00000C3C00002C3C0000F7B5044629
:1036F00046490198FFF792FE054645490298FFF7B3
:103700008DFE01462846FFF76FFE0546401C02D19C
:1037100040A0FFF765FD4748484F2B1846482560F5
:1037200004D0D91B2BD0C91B2ED13AE0444A1178C2
:10373000890919D143494968434E090F3668491C24
:10374000527971435606414A466802D49643466010
:1037500002E0164346604908002905D0416801226D
:1037600092061143416004E041680122D2061143F0
:103770004160416B012292021143416304E0416BBD
:103780000122D202114341632068C178F322114023
:10379000C1700126002B07D0D81B07D0C01B09D150
:1037A00006E0416B3943E8E7002002E0666001E093
:1037B000022060604B21C9012046FFF791FE0123E2
:1037C000002208212046FFF74BFF10490198FFF720
:1037D00053FE0F490298FFF74FFE02210198FFF7B1
:1037E000F7FD02210298FFF7F3FD2068C1780C2253
:1037F0001143C1701648854205D1164806606268BB
:103800002168C260816003B0F0BD0000483C000048
:10381000B43C000053657269616C2070696E6F750D
:1038200074206D617070696E67206661696C656493
:10383000000000000060F9BF00800440001000009C
:103840000040064040800440C0F0FF1F000001001F
:1038500000A00640C4F0FF1F10B4082402681379CA
:103860001B0702D513792343137102681279D20919
:10387000D201F3D00068C17110BC704770470000DE
:1038800002480168402291430160704700000440F3
:1038900061484168002970D1F8B501265F4D466046
:1038A000E86BF1050843E8635D48002707605D4C5D
:1038B000B01E20610420A061A0693043A0615A4875
:1038C00040684003410F5948491C0068FCF754FF09
:1038D000574940184900FCF74FFF401E2060A66082
:1038E000A86B3043A863534D2F6053491C20FFF74A
:1038F0002DFA5249200508604B4840684B49000F9B
:103900000968401C4E4C48432178890902294AD055
:103910002178890959D16179490639D4A179C90633
:1039200053D4217889064A0F31469140CAB2617852
:103930008906890F00D05201E17849094901CB0677
:10394000DB0E20D1491107291DD20B007B441B79C6
:10395000DB189F440306090C0F1316000521C9014B
:1039600012E0052109020FE00F21C9010CE0052139
:10397000490209E0B721890006E04CE0B721C900FF
:1039800002E0304900E030495043FCF7F5FE0AE020
:103990002179CA06D20E6179521CC906C90E1831A6
:1039A0005043FCF7E9FE00280FD02849FCF7E4FE5D
:1039B00000290AD1012800D022E0072029E00807C9
:1039C000400EC01C25E0C20719D020780221084310
:1039D00020706078304360706F60207A0E2108405C
:1039E00012D0022814D0207AF12108402072217AC6
:1039F000042001432172696801436960F8BD491CD4
:103A000040080128DFD1DAE768680821084300E0B0
:103A100068686860F8BD7047D4F0FF1F00800440FC
:103A2000007003400071034040800440C0F0FF1F5D
:103A300020A1070000000440F532000000E100E092
:103A40000040064095080000710B000040420F0046
:103A500010B5FFF713FF0D4C206800280ED000F0C2
:103A600017F821680A68101A00280ADC88682060A4
:103A70006268002AF0D048689047EDE7FFF700FF42
:103A800010BD086800F014F810BD0000E4F0FF1F3E
:103A900010B505484068002801D1FFF7F9FE03483A
:103AA0004069C04310BD0000D4F0FF1F0071034007
:103AB00070B5184C05466068002801D1FFF7E8FE94
:103AC00015484069C043281A002802DCFFF7C0FFF0
:103AD00070BD011483B2A160002210484025012668
:103AE000238000290BD00E4B0260836002682A43BA
:103AF0000260026832430260491EA16070BD02602C
:103B000083600168294301600168314301602280BC
:103B100070BD0000D4F0FF1F00710340000004409E
:103B2000FFFF000070B57D21C90048430446FFF740
:103B3000AFFF0546FFF7ACFF401BA042FAD370BDB4
:103B400010B500290AD00878002807D00548784425
:103B5000FCF7C2FD002801D0002010BD02487844C7
:103B600010BD0000EE020000E602000010B50029C2
:103B70000AD00878002807D005487844FCF7ACFD47
:103B8000002801D0002010BD0248784410BD00007C
:103B9000DE020000D602000003B4024878448446E6
:103BA00003BC60477BDBFFFF03B4024878448446D4
:103BB00003BC6047E5DDFFFF2F737464696E002F5F
:103BC0007374646F7574002F73746465727200008F
:103BD000496E76616C6964206E756D626572206FE6
:103BE000662062697473202825642920696E207319
:103BF000657269616C20666F726D61742C207368E8
:103C00006F756C642062652038000000496E766133
:103C10006C69642073657269616C2070617269748B
:103C2000792073657474696E67000000496E76616F
:103C30006C69642073746F70206269747320737090
:103C400065636966696564001020000000B0064085
:103C5000030000000800000000A006400200000071
:103C60001430000000C00640030000000C300000CB
:103C700000C00640030000001C30000000A0064009
:103C8000030000005040000000A0064004000000B7
:103C90005840000000C00640040000000040000042
:103CA00000B0064003000000FFFF0000FFFFFFFF21
:103CB000000000000C20000000B0064003000000DF
:103CC0000400000000A006400200000010300000C8
:103CD00000C00640030000000830000000C006409D
:103CE000030000001830000000A0064003000000A0
:103CF0005C40000000C0064004000000544000008A
:103D000000A00640040000000440000000B006408F
:103D100003000000FFFF0000FFFFFFFF00000000A6
:103D200000000000000000003031323334353637F7
:103D300038394142434445464030580030313233EF
:103D400034353637383961626364656640307800EF
:103D50000400000800000000000000020001000054
:103D60001030313233343536373839616263646547
:103D70006678700030313233343536373839414265
:103D8000434445465850000002400000000000A097
:103D90000000000005400000000000C80000000016
:103DA0000C4000000000409C000000001940000092
:103DB0000020BCBE0000000034400000BFC91B8EC4
:103DC00000000004B5400000504BCFD06607E2CFA2
:103DD000010000006C4100003E8251AADFEEA734D2
:103DE00001000000D9420000DCB5A0E23A301F9784
:103DF000FFFFFFFFB4450000FD25A0C8E9A3C14FA8
:103E0000FFFFFFFFFF3F00000000008000000000F8
:103E1000FF3F00000000008000000000683F00003D
:103E2000C0F0FF1F4000000004010000A83F000098
:103E300000F1FF1F58010000200100001C000000DD
:103E400043000000F8FFFFFF0C0000000E00000020
:103E50000F0000002E0000001001000043000000D1
:103E6000F8FFFFFF0040404040404040404041419B
:103E7000414141404040404040404040404040403F
:103E800040404040400502020202020202020202D9
:103E900002020202022020202020202020202002D6
:103EA0000202020202029090909090901010101066
:103EB0001010101010101010101010101010101002
:103EC0000202020202028888888888880808080896
:103ED0000808080808080808080808080808080862
:103EE000020202024000000000000000000000008A
:103EF00000000000000000000000000000000000C2
:103F000000000000000000000000000000000000B1
:103F100000000000000000000000000000000000A1
:103F20000000000000000000000000000000000091
:103F30000000000000000000000000000000000081
:103F40000000000000000000000000000000000071
:103F50000000000000000000000000000000000061
:103F60000000000000000000006CDC020000000007
:103F70000000000000000000000000000000000041
:103F80000000000000000000000000000000000031
:103F90000000000001000000000000000000000020
:083FA000000000000000000019
:04000005000000C136
:00000001FF
