:020000040000FA
:100000000030002039030000592D00004303000098
:1000100000000000000000000000000000000000E0
:100020000000000000000000000000004503000088
:10003000000000000000000047030000490300002A
:100040004B0300004B0300004B0300004B03000078
:100050004B0300004B0300004B0300004B03000068
:100060004B0300004B0300004B0300004B03000058
:100070004B0300004B0300004B0300004B03000048
:100080004B0300004B0300004B0300004B03000038
:100090004B0300004B0300004B0300004B03000028
:1000A0004B0300004B0300004B0300004B03000018
:1000B0004B0300004B0300004B0300004B03000008
:1000C00000F002F800F0C1F80CA030C8083824187D
:1000D0002D18A246671EAB4654465D46AC4201D180
:1000E00000F0B3F87E460F3E0FCCB64601263342F1
:1000F00000D0FB1AA246AB46334318473C3D0000F4
:100100005C3D0000103A02D378C878C1FAD8520793
:1001100001D330C830C101D504680C6070470000BD
:100120000023002400250026103A01D378C1FBD813
:10013000520700D330C100D50B60704710B56E294F
:1001400002D100F00FFD10BD702902D100F03FFE7A
:1001500010BD662902D103F02DFD10BD652902D125
:1001600003F028FD10BD672902D103F023FD10BD67
:10017000612902D103F026FD10BD03681B0A01D3DB
:1001800080231943692902D100F0B6FC10BD64290F
:1001900002D100F0B1FC10BD752902D100F0ACFC19
:1001A00010BD6F2902D100F0BDFD10BD782902D12C
:1001B00000F0FAFD10BDE92902D100F059FD10BD93
:1001C000E42902D100F054FD10BDF52902D100F060
:1001D0004FFD10BDEF2902D100F0B0FD10BDF82990
:1001E00002D100F0EFFD10BD0368DB0901D38023CD
:1001F0001943632902D101F07AFD10BD732902D1A0
:1002000001F07DFD10BDE32902D101F087FD10BD95
:10021000F32902D101F08AFD10BD002010BD1FB5E9
:100220000098019901F0F6F802F074F8040000203B
:10023000002103F0A9FC401C60600020002103F0B5
:100240008DFCE06000F0D0FF1FBD02F0A5FE11465E
:10025000FFF7E5FF02F078FD02F0DCFFFEB40022BC
:100260000023040000250D4EFFE7002F00D112D01F
:10027000B54206D10FD00122F7E73300F5E734008D
:10028000F3E735001F197E0801277743774387423C
:10029000F1D0F2DBF3DC3000FEBC7047FFFFFFFF64
:1002A00070B505460C46164602E00FCC0FC5103E51
:1002B000102EFAD2082E02D303CC03C5083E042E1A
:1002C00007D301CC01C5361F03E021782970641CD7
:1002D0006D1C761EF9D270BD1CB500200090FFF792
:1002E000BDFF01901920FFF7B9FF01908520FFF7AE
:1002F000B5FF01900220FFF7B1FF01900420FFF746
:10030000ADFF01901620FFF7A9FF01907920FFF7BC
:10031000A5FF0190002408E02046FFF79FFF019011
:100320000199009840180090641C02488442F3DB55
:1003300000BFFEE71027000004488047044800473C
:10034000FEE7FEE7FEE7FEE7FEE7FEE7C12D000061
:10035000C100000010B50B460146184600F016FC1F
:1003600010BD00000FB400B58DB010A909900B901E
:100370000020C04300910A9000200C900748784468
:100380000690074878446A4607900F9909A800F03C
:1003900005FE0DB008BC04B0184700003F0C00007B
:1003A000590C000030B5441C03E00178401C0029C2
:1003B0000DD08107F9D10B4BDD0104C8D11A91434F
:1003C0002940FAD0001B0A0603D0C01E30BD001B16
:1003D00030BD0A0401D0801E30BD0902FCD0401E91
:1003E00030BD000001010101004870473CF2FF1FD1
:1003F00070477047C0688021084070477047704759
:10040000FFFFFFFFFFFFFFFFFFFFFFFFFEFFFFFFFD
:10041000FFB51D460027FF4383B05C6800200190B4
:100420009E68A96904987F1C88470090296A8847BC
:100430000028F6D10098401C0CD0032040028443D1
:10044000002E19DD600614D500982B2809D02D2820
:100450000FD103E00020C04307B0F0BD01208002AF
:100460000443A96904987F1C8847761E002E0090DB
:1004700002DD0098302803D00598002825D035E00B
:100480000120A96940020443761E04987F1C884716
:10049000002E009003DD782805D0582803D0059859
:1004A000002810D022E00598002801D010281DD186
:1004B0000120A96940028443761E04987F1C884766
:1004C0000090102002E0082000E00A2005900DE0D6
:1004D0000121059A49020C430199761E51430818DF
:1004E0000190A96904987F1C88470090002E05DDC3
:1004F0000599009800F03CFD0028E9DAE9690498C4
:100500008847A00502D40120C043A5E7E00722D117
:10051000600611D56005019800D5404229680A1D82
:100520002A600968220501D5087014E0220701D568
:10053000088010E008600EE02868011D296000684E
:10054000210502D50199017005E02107019901D526
:10055000018000E0016038467EE7000070B5044687
:10056000C068810713D0800601D5A56A04E0A1699F
:10057000606840182169451A204600F0EDFD002210
:1005800006462946204600F03DFD304670BD00205D
:1005900070BD70B5002802D0FFF7E0FF70BD0025E8
:1005A000074C6E1E08E02046FFF7D8FF002800D059
:1005B0003546206D44086400002CF4D1284670BDF7
:1005C00040F1FF1F0346F0B50B439B072DD1244D8F
:1005D000EF01042A29D308C810C95E1B9E43121FCD
:1005E0003E4017D0D8B2E1B2401A3106014310D1D3
:1005F00098B2A1B2401A310401430AD11802210273
:10060000000A090A401A3102014302D1180E210ED4
:10061000401AF0BDA342DCD018BA21BA884201D9F1
:100620000120F0BD0020C043F0BD002A01D1002010
:10063000F0BD03780C78401C491C002B0DD0A34260
:100640000BD1521E09D003780C78401C491C002B9A
:1006500003D0A34201D1521EEBD1181BF0BD000004
:1006600001010101431A70B593421BD28918801809
:1006700004E0491E401E0B78521E03709307F8D108
:1006800006E01039103878C9103978C01038103A9F
:10069000102AF6D203E0091F001F0B680360121F27
:1006A000F9D570BDFFF7FCFD70BDF8B506461446E0
:1006B0000843800707D0751AA54219D20819102DD2
:1006C00013D2311907E03046FFF7CCFFF8BD401ECA
:1006D000491E02780A70641EF9D2F8BD471B2A46EB
:1006E000394600F01FFE641B3846A542F6D3011BB5
:1006F0002246304600F016FEF8BD000082078B0748
:100700009A4237D170B5920F0AD0032402780B7841
:10071000401C491C002A2BD09A4229D12042F5D1F5
:100720001D4EF40104C808C9951B9543254010D1FE
:100730009A4207D104C808C9951B9543254008D1A2
:100740009A42EFD012BA1BBA01209A4200D240421C
:1007500070BD12BA1BBA2DBA18241000E04019005F
:10076000E140401A05D12E00E64002D1083CF4D108
:10077000D01A70BD02780B78401C491C002A09D0A1
:100780009A4207D102780B78401C491C002A01D0FC
:100790009A42EFD0D01A70470101010100220309EB
:1007A0008B4273D3030A8B4258D3030B8B423CD347
:1007B000030C8B4221D312E003460B437FD400226B
:1007C00043088B4274D303098B425FD3030A8B42E5
:1007D00044D3030B8B4228D3030C8B420DD3FF224F
:1007E000090212BA030C8B4202D31212090265D01D
:1007F000030B8B4219D300E0090AC30B8B4201D3D0
:10080000CB03C01A5241830B8B4201D38B03C01A16
:100810005241430B8B4201D34B03C01A5241030B8D
:100820008B4201D30B03C01A5241C30A8B4201D33E
:10083000CB02C01A5241830A8B4201D38B02C01AE9
:100840005241430A8B4201D34B02C01A5241030A60
:100850008B4201D30B02C01A5241CDD2C3098B4245
:1008600001D3CB01C01A524183098B4201D38B01C2
:10087000C01A524143098B4201D34B01C01A524165
:1008800003098B4201D30B01C01A5241C3088B42AA
:1008900001D3CB00C01A524183088B4201D38B0095
:1008A000C01A524143088B4201D34B00C01A524137
:1008B000411A00D201465241104670475DE0CA0F0E
:1008C00000D04942031000D34042534000229C46CE
:1008D00003098B422DD3030A8B4212D3FC228901D8
:1008E00012BA030A8B420CD3890192118B4208D3AE
:1008F000890192118B4204D389013AD0921100E010
:100900008909C3098B4201D3CB01C01A5241830923
:100910008B4201D38B01C01A524143098B4201D350
:100920004B01C01A524103098B4201D30B01C01A7B
:100930005241C3088B4201D3CB00C01A52418308F5
:100940008B4201D38B00C01A5241D9D243088B424B
:1009500001D34B00C01A5241411A00D201466346EE
:1009600052415B10104601D34042002B00D5494252
:10097000704763465B1000D3404201B50020C0467B
:10098000C04602BD70B50646FFF72EFD056830462D
:100990000B30C408E400B44201D8002070BD686880
:1009A0002A46002818D00168A14211D30B462146DF
:1009B00008318B4208D3436801194B6003681B1B45
:1009C0000B605160046001E041685160001D70BD22
:1009D000024640680028E6D12146284600F005FD81
:1009E0000028DCD170BD70B50446051FFFF7FCFC84
:1009F0000068002C1AD0446801E020466468002C8E
:100A000001D0AC42F9D301680A18AA4204D12A687D
:100A100005468918016000E0456028684119A14237
:100A200005D16168696021684018286070BD6C60FC
:100A300070BD70B5044685690068C10601D53026D1
:100A400000E02026C00707D070BD62683046A1686C
:100A50009047206A401C20626D1EF6D570BD70B5AF
:100A6000044685690078C00707D170BD6268A16837
:100A700020209047206A401C20626D1EF6D570BD74
:100A800009684A0501D540B27047C905FCD500B2D6
:100A9000704709684A0501D5C0B27047C905FCD541
:100AA00080B2704770B50C460546012A05D02878FB
:100AB000800600D5EA69002302E0012305E05B1C03
:100AC000934202D2E05C0028F9D1A869E618C01A66
:100AD000A861286AC01828622846FFF7AAFF04E028
:100AE0006A682078A968641C9047B442F8D3284605
:100AF000FFF7B5FF70BD0000F7B500257529106838
:100B0000009914A611D0FFF7BBFF002802DA40427B
:100B100011A608E0009909688A0701D50FA602E02E
:100B2000490704D50EA6012501E0FFF7B2FF009F9B
:100B30000024243704E001F0CBFB30313955641C2C
:100B40000028F8D12B4632462146009800F0DCFC04
:100B5000FEBD0000000000002D0000002B00000082
:100B60002000000011680268006A530501D5087072
:100B700009E0D30501D5088005E0130602D5C217A8
:100B800005C100E00860012070470000084B70B507
:100B90000D467B4401F08DF804462846FFF72AFCF9
:100BA000002802D00020C04370BD204670BD000068
:100BB000AB260000F7B50446154686B02B487844AE
:100BC000002703C83E460090019111E007986A464D
:100BD0007100415A02A801F04FFB411C07D0217857
:100BE000890603D5E269391891420ED83F18761C60
:100BF0002078800602D5E069B84206DDAE42E5DB2A
:100C000007987100405A0028E0D1A069C01BA0617C
:100C10002046FFF70EFF154878445A3803C8009065
:100C20000020019116E041006A460798415A02A847
:100C300001F022FB0590401C0AD0002505E0626807
:100C400002A8A168405D90476D1C05988542F6D3C7
:100C50000498401CB0420490E5DB206AC019206271
:100C60002046FFF7FCFE09B0F0BD00007A3100001D
:100C7000F7B5D21D0025D20815A6D200F52905CA60
:100C800011D0002A05DA00214042914111A60A46FE
:100C900008E0009909688B0701D50FA602E0490713
:100CA00001D50EA601251146009F0024243704E03B
:100CB00000F0E4FB30323A55641C02460A43F7D197
:100CC0002B4632462146009800F01EFCFEBD000077
:100CD000000000002D0000002B000000200000009C
:100CE00070B504460021243408E05507D2086D0F82
:100CF000303565545D072A43DB08491C15461D4302
:100D0000F3D10468002310A2250708D5A40601D456
:100D1000002904D0C46901230CA2641EC46100F040
:100D2000F3FB70BD10B5044621461068FFF7B1FE15
:100D3000002302462046FFF7D3FF10BDD21DD10885
:100D4000C9000CC9CCE70000000000003000000022
:100D5000F8B50F460188090502D5224C7C4402E013
:100D6000204C7C440E3405460021243508E016074B
:100D70001209360FA65D6E541E0732431B09491C2B
:100D800016461E43F3D1224604780023240705D5D6
:100D9000702F06D0002901D00223113200F0B4FBDD
:100DA000F8BD01231032F9E770B504460D4621461F
:100DB0001068FFF76EFE0023024629462046FFF723
:100DC000C7FF70BDD21DD308DB000CCBC0E730B429
:100DD000036820241268234303600823C36130BCE6
:100DE0000023B5E7E42F0000F3B50446002081B0EE
:100DF00020622046E1688847002872D0252802D06A
:100E00006268A168ABE0594F00267F442046E16844
:100E100088472028054608DB312D06D2781920386E
:100E20000078002801D00643F0E7B00701D5042080
:100E300086430020E0610746A0612A2D0AD028469B
:100E400002F0B2F8002827D0B8000019303D009019
:100E5000856119E00298BA00121902C891610290E6
:100E60002046E1688847012F054617D1E069002830
:100E70001FDA202086431CE000980A21806948433D
:100E800000994019303888612046E1688847054656
:100E900002F08AF80028EFD1012F0AD02E2D08D1B8
:100EA0002046E16888470546202006437F1C022F24
:100EB000C3DBA069002803DA4042A0610120064399
:100EC000F00701D0102086436C2D0BD0682D09D07F
:100ED0004C2D3CD06A2D38D0742D38D07A2D36D098
:100EE00016E040E0E1682F4620468847B8420546B4
:100EF00009D16C2F29D001208002E16806432046E9
:100F00008847054604E06C2F1DD0FF2001300643C2
:100F1000002D28D028464138192803D80120C002C6
:100F200006432035204626602946029A1646FFF7DA
:100F300005F9002810D001280BD0F61DF008C000DC
:100F40000830029055E74020E1E78020D5E70020F7
:100F5000D3E7361D02964CE762682846A1689047A1
:100F6000206A401C44E7206AFEBD00005E2F00009E
:100F70003A2800D23038202302469A43412A01D32E
:100F800010463738884201D30020C0437047000024
:100F900002685118137801601846704710B5D16087
:100FA0000549794451610549794411620021116173
:100FB000114600F0BFFE10BDEBFFFFFF4B05000028
:100FC0004268002A08D001680B78491C002B03D026
:100FD000521E06C0184670470121C160881E704726
:100FE0004268002A0BD0C3680168002B07D18368D0
:100FF0008B4204D0491E521C06C0002070470020BE
:10100000C0437047F8B5044616460D464769007B55
:10101000800730D0384601F0F9FF00282BD1324646
:101020001026002A25D0012A02D0022A23D104E06A
:10103000204601F03FF845191BE0384601F0D2FF89
:10104000E16831430028E16004DA204600F054F8FA
:101050000120F8BDC9030BD56268E16A914200D84E
:101060001146A26989182269891A814200DD084661
:101070002D18002D01DA0220F8BDE16A6068E268EF
:10108000814206D29103E06203D5012149048A43DB
:101090003243A669AE4211DCE16A814201D90B46B6
:1010A00000E003469F192369FF1AAF4206DD814223
:1010B00001D90F4600E007469F4206D12020024397
:1010C0000020A060A56220600DE0AD1BE669AE1BAC
:1010D0008142A66000D90846C01A281A2060581913
:1010E000606020208243034802400020E2604034D8
:1010F0002072F8BDBFCFD7FFC16880221143920391
:101100009143C1600021816001607047F7B51446CA
:101110000E463348D5685769054209D03846A1695B
:1011200002F028F8002811DB2D48C0430540E56097
:101130002B4632463846009902F030F84200A16949
:101140005208B21A89180028A16104D02046FFF77E
:10115000D3FF0020C043FEBD70B504460569C06AD8
:101160006168884200D80846E1680522D2049143AC
:10117000E160C90314D5A84209D02246411B284684
:10118000FFF7C4FF002802D00020C04370BDE56215
:1011900000206560A060E068012109048843E060E8
:1011A000002070BD10B50446C06820218843E0606F
:1011B000A16AA06988420ED02046FFF7CDFFE06803
:1011C00003210903884310210843E060A06AA0615D
:1011D0002069E06260600349E0680840E06010BD9B
:1011E00010000200BFBFFFFF10B54348542100F0BC
:1011F000F8F84248542100F0F4F84148542100F036
:10120000F0F840483C493D4B404A01603E4803608D
:101210003B4810605A1C0A65411C19650121016593
:101220003C48354A3AA1784400F08CFF002804D1AC
:10123000384878440C3801F045F838482F4A36A130
:10124000784400F07FFF002804D1344878440C38FB
:1012500001F038F832482A4A2FA1784400F072FF92
:10126000002804D12E4878440C3801F02BF8402394
:101270002148DC000021224600F03EFF002804D077
:10128000244878445C3801F01DF81C48224640236D
:10129000002100F031FF002804D0204878445C3859
:1012A00001F010F8164822461023002100F024FF18
:1012B000002804D01A4878445C3801F003F810BDC7
:1012C0000F4870B5006D44080B48640000F0AEFF95
:1012D0000A4800F0ABFF0A4800F0A8FF09E0206DC3
:1012E000450820466D0000F0A1FF2046FFF77BFB7C
:1012F0002C46002CF3D170BD40F1FF1F94F1FF1F6D
:10130000E8F1FF1FF0F0FF1FF4F0FF1FF8F0FF1FE0
:1013100072000000AA290000770000009729000051
:1013200085290000F8B5042A2CD3830712D00B7846
:10133000491C0370401C521E83070BD00B78491CBC
:101340000370401C521E830704D00B78491C0370A5
:10135000401C521E8B079B0F05D0C91ADF002023AB
:10136000DE1B08C90AE0FEF79BFFF8BD1D4608C951
:10137000FD401C46B4402C4310C0121F042AF5D275
:10138000F308C91A521EF0D40B78491C0370401C94
:10139000521EEAD40B78491C0370401C012AE4D485
:1013A00009780170F8BD01E004C0091F0429FBD2CF
:1013B0008B0701D50280801CC90700D002707047DE
:1013C00000290BD0C30702D00270401C491E02291D
:1013D00004D3830702D50280801C891EE3E7002224
:1013E000EEE70022DFE77047704738B504460A464B
:1013F0000020694601F05EFC002805D00246204628
:10140000009900F08FFF012038BD10B5012001F0D8
:101410003FFC10BDF8B501F041FC054600200C462C
:101420001020C0460646A819A0420DD9324669468A
:10143000002001F03FFC070001D101F029FC0098D9
:10144000A04200D00546C419FEF7CEFFF61D0746A0
:101450000560F008C0004619284600F008F8B442BC
:1014600004D031463868A21B00F05CFFF8BD0021B3
:101470000160416080607047102070470B4670B576
:10148000024689078008084319469D08141AA94195
:1014900025090807054308092C194841250A0106B2
:1014A0000D43010A2C194141200C0D0428430D0C59
:1014B00000194D41002140194D41C00869070843FA
:1014C000E908840F8D002543840024184D41241918
:1014D0006D41121BAB4107E00925ED432C11521958
:1014E00063410024401C61411C460A250026551B0F
:1014F000B441F1D270BD10B5044600F003FF00689E
:10150000005DC007C00F10BDFFB504460D4681B099
:10151000243000902168880604D51022E0699143A8
:10152000216000E00120A84201DD471B00E0002708
:101530000498A1697A191018081AA0612078C006C9
:1015400002D42046FFF775FA002608E00398626887
:10155000A168805D9047206A401C761C2062049838
:101560008642F3DB2078C0060AD52046FFF761FAF1
:1015700006E06268A16830209047206A401C206223
:1015800038467F1E0028F4DC07E000986268A168F6
:10159000405D9047206A401C206228466D1E00284E
:1015A000F3DC2046FFF75BFA2078000602D5022024
:1015B00005B0F0BD0120FBE77047FFB50C461E46A5
:1015C0008FB003CA089009914F007D0D00D16D1EA8
:1015D000002108460020C0460321099A89050840D9
:1015E000002A03DA8200801840080840800D012894
:1015F0000A9002DD0020C0430A90089807430DD0EE
:10160000F048F149281848430714189800281DD0BD
:101610007542291E1DDD0A9842421BE018980128D8
:1016200002D00020302104E00020F24305E02154E4
:10163000401CB042FBDB30460022189B00212154A5
:101640000F998B600A60486013B0F0BDBD1B6D1C24
:10165000DFE70A9A002900DA69420BA800F0C0FE11
:101660000BAB07CB03AB07C30899099800F024FF25
:101670006B4607C30146D5480918002D00910BDDC4
:10168000D24903980A9A49424018002303A90390BB
:10169000684601F081F908E003990A9A00230818C6
:1016A00003A90390684601F021F96B4607C30004C3
:1016B000000C03D00020C043410800E01046189AF7
:1016C000002A03D00022009215461EE0751E05D4A4
:1016D000FFF7D4FE303262556D1EF9D50122084362
:1016E000079602D000227F1C04E02078302801D128
:1016F00000227F1E002A069787D01EE0112D07DAF0
:10170000FFF7BCFE303262556D1C02460A43F5D12C
:10171000084303D00098002819D00EE00021681E6D
:1017200005E0235C625C63542254401E491C8142E4
:10173000F7DBA81B401E07950690079A1899002012
:10174000A0540F98079B069A81600CC07CE7112675
:101750000020189059E7D21DF0B50D460446D10877
:1017600093B0C90003C90C900D9101F0FFFB024634
:101770000D98C00F01D02D2007E02068810701D50A
:101780002B2002E04007C00F4001032A0F9001D038
:10179000072A05DB03462946204600F0DDFD0EE161
:1017A0002078800601D5E76900E006272846652DE8
:1017B00004D0662814D0672D69D12DE00020112FA8
:1017C000009001DB112300E07B1C0CAA03A910A8E8
:1017D000FFF7F3FE1199002610987D1C0E9142E050
:1017E00001203B460CAAC0070B900120009003A9E2
:1017F00010A8FFF7E2FE119D12981099002600280C
:101800000E9501D1781C0D18781B02D446427D1C20
:10181000761EE81B00903AE0012F00DA0127002035
:10182000112F009001DD112300E03B460CAA03A913
:1018300010A8FFF7C2FE11993D46109800260E91A0
:10184000217809070BD40E99A94200DA0D4603A9A5
:10185000012D04DD4A19203AD27F302A06D0B84241
:1018600001DA011D04DA012100910FE06D1EEFE79E
:10187000002802DC86192D1A03E0411CA94200DD74
:101880000D46801B401C00900120C0070B90207863
:10189000000705D40098A84202DB0020C043009056
:1018A00069460020C8720B98012102AF0337C907AF
:1018B000884225D0022010902B2011900B980028F0
:1018C0000BDA40420B902D20119006E00B9800F0AF
:1018D000FFFC30317F1E0B9039701099481E002993
:1018E0001090F3DC0B980028F0D111987F1E38700F
:1018F0002088000501D5452000E065207F1E387056
:1019000001A8C01BC01D0B900F98002800D001201B
:1019100041190098C01709180B980818A169081AEE
:10192000401EA0612078C00602D42046FFF781F84F
:101930000F98002805D06268A1689047206A401C73
:1019400020622078C00625D52046FFF772F821E0F6
:10195000002E07DB0E98B04204DD03A86268805DAC
:10196000A16802E06268A16830209047206A761C76
:10197000401C20620098401E002800900AD100F010
:10198000C9FCC06862680168405CA1689047206A31
:10199000401C206228466D1E0028D9DC07E06268E2
:1019A0003878A1687F1C9047206A401C20620B9900
:1019B000481E00290B90F2DC2046FFF750F8032068
:1019C00042E6000001FCFFFF104D0000E1DFFFFFD9
:1019D000D21DF0B504460D46D0088DB0C000466853
:1019E00007683146384601F0C1FA0246F00F01D0CF
:1019F0002D2307E02068810701D52B2302E0400753
:101A0000C00F43016846002B037001D0012000E0A5
:101A10000020032A0A9001D0072A04DB2946204629
:101A200000F09AFC2DE12078800601D40D2500E01D
:101A3000E5697000400D0D2D01904BDA300D00214D
:101A40000B9008460020C046032189050840002E5F
:101A500005DA82008018C20F101840100840801567
:101A6000012801DD0020C043A9000023182906D366
:101A70009C460A460123183A1B07D34003E0012283
:101A80001205CA4094460C31202902D33A46203927
:101A900000E032468A40002802DD002A06D119E023
:101AA000002817D10121C9078A4213D3194663467A
:101AB0007F185E41002806D10120C007824202D172
:101AC000084687439E430B98310D814202D001980E
:101AD000401C01902088000502D57149794402E03C
:101AE0006F49794419396B460A9830221A540A987A
:101AF0000A7C401C1A54401C0A900198002801DC02
:101B0000302000E031201872019A0120002A02D012
:101B1000644BD21804E072003A4302D0614A521C6E
:101B20000192002D02DC2278120703D56A462E208E
:101B3000507202200022864694460CE032033601A1
:101B4000120F6D1E8B5C02AA13546246521C401C7D
:101B50009446052A01DA002DF0DC002202AE08E0EE
:101B60003B0F3F01CB5C521C6D1E3354401C082AB6
:101B700001DA002DF4DC23689A0601D511E0401E3D
:101B8000704504DD3218203AD27F302AF7D0002881
:101B900007DD3218203AD27F2E2A02D11A0700D44C
:101BA000401E002D03DD3E223254401C6D1E497C38
:101BB00031540199401C002906DA2D21471C31546B
:101BC00001984042019003E02B21471C31540198B9
:101BD0007D21C900884206DBFEF7EEFD3030F0556E
:101BE0007F1C019101E0642808DB01986421FEF765
:101BF000E3FD3030F0557F1C019101E00A2806DB3F
:101C000001980A21FEF7D8FD3030F0557F1C01986D
:101C10000A21FEF7D1FD3031F1550A98A1697F1CE8
:101C20007A191018081AA0612078C00602D420463C
:101C3000FEF7FFFE216A6E460A980818206204E04B
:101C400062683078A168761C90470A98401E0A9016
:101C5000401CF5D12078C00602D52046FEF7E9FEEB
:101C600002AE09E03078761C3E280DD06268A1688B
:101C70009047206A401C20627F1EF3D22046FEF768
:101C8000EEFE0DB00320F0BD206A4019206203E093
:101C90006268A168302090476D1EEDD3F8E7000020
:101CA000B022000001FCFFFF01694A1C02610878B4
:101CB000704700B58FB0029100210591054901934D
:101CC00079440391114604906846FFF78DF80FB0F0
:101CD00000BD0000E5FFFFFF10B54369002B02D0F7
:101CE000C046C04601E0FEF7DDFE012010BD1278BF
:101CF000014624310A7000224A700122ECE7116883
:101D00000022D243E8E710B54369002B02D0C04659
:101D1000C04601E0FEF74EFF012010BD12880146CB
:101D2000243182840022C2840122ECE7116800225F
:101D3000D243E8E7F3B50C468FB000200C900120A9
:101D400000260E9008460C3003906269039801212A
:101D50009047051E2ED0252D2DD0216A88470028BA
:101D600018D06269039801219047216A88470028AA
:101D7000F7D16269411E0398904700E0761CA16983
:101D80000F988847216A88470028F7D1E1690F98A2
:101D90008847DAE7A1690F988847A842074601D12A
:101DA000761CD2E7E1690F9888477F1C02D10C9816
:101DB000002877D06BE16269039800273D463946D9
:101DC00090472A280CD16269039801219047012588
:101DD00006E00A214F433F18303FEBD41020054363
:101DE0006269039801219047014630390A2903D2DC
:101DF000AC498F42DEDCECE7E90600D4AA4F6C2840
:101E00000AD04C2810D0682824D06A282ED07428F4
:101E10000CD07A280AD00DE062690398012190471E
:101E20006C2823D004211CE020200543626903981C
:101E300001219047A760652865604FD026DC5828AF
:101E400039D01ADC452849D012DC252834D0412865
:101E5000B0D143E06269039801219047682802D01D
:101E600008210D43E6E70120C002DEE70220DCE79F
:101E7000462833D047289DD130E05B2870D06128B8
:101E80002CD063286CD0642894D161E06F284FD0A7
:101E900009DC662822D0672820D0692826D06E2841
:101EA00017D12EE0EFE070284DD073286FD0752841
:101EB0004ED078280DD154E0A1690F988847252885
:101EC000054600D16CE7E1690F9888476D1C00D189
:101ED0006DE7DCE00A224CE00A2252E001202346B2
:101EE0006A460F99C043C046C046C5E04021284617
:101EF000234608436060A80701D5002239E000228C
:101F00003FE0E80700D020E72068011D216000685D
:101F1000290501D5067018E7290701D5068014E7C1
:101F2000A90703D5F117066041600EE706600CE7CC
:101F300040212846234608436060A80701D50822AF
:101F400017E008221DE0594928460840606016E065
:101F500040212846234608436060A807BCD5B9E75E
:101F600015E04021284608436060A80707D52346AE
:101F7000102201200F99C043C046C0467CE01022C9
:101F8000234601200F99C043FEF742FA74E0002176
:101F900063280B460191009102910D9102D05B28BC
:101FA00007D03BE0E80601D40120A06001200090AA
:101FB00034E0E06801210D906269039890475E2843
:101FC00007D101200190E06801210D90626903981A
:101FD00090472169002906D10B4604AA8F00491CAD
:101FE0000829D351FADB002851D02169002926D0D5
:101FF0000298401C029062690398012190475D2875
:10200000F1D10198002808D0002004AB8100401CC9
:102010005A58D24308285A50F8DB04AB20690028EC
:1020200020791CD04007029A00980D9B009222460E
:1020300002901F480F991DD5C046C0461CE0C1172D
:10204000C90E09184A114909930004AA9A184901AE
:10205000411A13680120884003431360CBE740070F
:10206000224613480F9902D5C046C04604E0C04638
:10207000C04601E0C046C04600280ADA401C06D12E
:102080000E98002803D00020C04311B0F0BD0C987A
:10209000FBE7E90702D10C99491C0C913618002086
:1020A0000E9052E6CCCCCC0CFFFFFF7FF1F7FFFF88
:1020B000FEFFFFFF10B50146C268900703D09006EF
:1020C00007D5886A0AE000F029F901210160881E1D
:1020D00010BD8B694868C0180B69C01A40310B7A73
:1020E000002B02D0497A401A10BD1103FCD50028FC
:1020F000FADD401E10BD000070B5C468A50713D0FE
:10210000650211D4D51FF93D0AD0FF3D6D1E07D0E1
:10211000FF3DFF3D022D07D101462431012305E09B
:10212000074E5D1EB54201D3012070BD0161C36140
:1021300041600F2109028C431443C460002070BD2C
:10214000FFFFFF00F7B516460C46104600F06EF88C
:102150002078611C61280AD0722802D0772839D1F2
:1021600002E00125002404E00225042401E02D4DB5
:1021700008240222032301270878491C2B2806D0B3
:10218000622807D02039C87F742807D008E01D4393
:102190001443F1E7042005433C43EDE710200443DA
:1021A0000098214600F046FF411C13D00021316108
:1021B00071600121F5604902F1617061200704D569
:1021C000304602220021FEF71DFF306D3843306596
:1021D0003046FEBD0020FEBDF8B50D460646124C49
:1021E000206DC10704D0410804D044086400F7E71B
:1021F000224610E05420FEF7C5FB070010D07908F6
:10220000206D4900012211430843542120653846BE
:10221000FFF7E7F83A4629463046FFF793FFF8BD47
:102220000020F8BD0280000040F1FF1FFEB504460B
:10223000466900690F4F0190E56800200090A807EB
:1022400007D02046FEF788FF304600F0B5FE002894
:1022500001DA3846FEBD280502D50198FEF7C3FB1A
:102260004C212046FFF7BDF8206D40084000206556
:102270000098FEBDFFFFFFFF70B516460C460546F1
:1022800000F040F80368FF200230C05C012807D04E
:10229000FF2C0ED8185D00280BD001202C7070BDCB
:1022A000FF333246214608331868C318284698473A
:1022B00070BD0020C04370BD10B5002801D000F0F3
:1022C0001BF810BD10B500F0C9FCFFF7F5FF10BDFD
:1022D00001468008081A02091018020A1018020C98
:1022E0001018C008820012185200891A01E0401C20
:1022F0000A390A29FBD2704701491820ABBEFEE714
:102300002600020010B500F005F8001D10BD00BF4A
:10231000791800000048704740F2FF1F00487047DE
:1023200054F2FF1F10B50346406801E003464068C1
:10233000002801D08842F9D31868C3188B4206D010
:10234000CB1CD808C000001D411A521A0146081DB6
:102350000A60FEF748FB10BDF8B51F46044601238E
:102360000068DB02032601461840072A05DB002827
:1023700001D017A506E017A504E0002801D016A596
:1023800000E016A5102081432160A069C01E002F27
:10239000A06101D0401EA0612046FEF74AFB002F3D
:1023A00009D038466268A1689047206A401C2062C4
:1023B000C01C206206E0206AFAE762682878A168FB
:1023C0006D1C9047761EF8D22046FEF748FBF8BDFC
:1023D0004E414E006E616E00494E4600696E6600C9
:1023E000F7B516468AB0334878446C4603467C33CA
:1023F000C06F5A689B680DC42E487844763003AC91
:102400000DC80DC43720C001081837211B30FEF756
:10241000D3F905460C46803D1B3C02D564420120A1
:1024200000E000200027099010E0E0070CD00C200D
:1024300020497843794432464C3941186846012393
:1024400000F054FA6B4607C364107F1C002CECD1DB
:10245000184F7F442E3F16E0E80712D02001C01924
:102460000EC80691089307920068F04201D19819AE
:1024700008903246012306A903A800F037FA03ABFF
:1024800007C36D10641C002DE6D10998002806D002
:1024900032466946012303A800F07EFA05E00123D5
:1024A0003246694603A800F021FA0A9B07C30DB023
:1024B000F0BD0000B8190000034640000A4610B500
:1024C000400D0BD00121C9070F24A40200191C03E1
:1024D00064082143540D2143D20207E0002101206A
:1024E000F2E7D40F490021435200401E0029F8DAD8
:1024F000DB0FDB07184310BDFFB50D46144685B052
:102500004868516800F01AFD00910190A868A16820
:1025100000F014FD02910390A868616800F00EFDC0
:10252000029A12188242029201D2012000E0002099
:10253000019A0B18D2180028019202D08A4202D9BF
:1025400003E08A4201D2012000E00020009908182F
:1025500000906868A16800F0F1FC029A12188242AB
:10256000029201D2012000E00020019A0B18D2183B
:102570000028019202D08A4202D903E08A4201D2A5
:10258000012000E0002000990818009028682168C8
:1025900040004900400849084018FA49471814E02B
:1025A00001994000C90F084300900198029940002A
:1025B000C90F08430190029803994000C90F0843CE
:1025C0000290039840007F1E039000980028E7DAED
:1025D0000898002801D0EC4E00E00026B74201DA4E
:1025E000012000E00020002804902AD0F71BF80604
:1025F000C00E15D0029B2021091A039A8B401A4362
:102600000392029A019BC2408B401A430292019AA4
:10261000009BC2408B4000991A430192C140009137
:102620007B110DD06F460320C11A03D50021820013
:10263000B95003E08A008100BA587A50401EF3D5A1
:10264000374603980299002800D0012001430898DA
:102650000291002808460CD0002800D001200199E2
:10266000019A490508430121D20AC902D202019206
:1026700000E001210E9B0122D207012B02D0002B8A
:1026800003D013E0002807D120E0904204D8904204
:102690000CD1019B0B4209D0019B5918019105D126
:1026A0000099491C009101D17F1C009200280DD097
:1026B000102108460020C0460498002806D00F9834
:1026C000002803D0082108460020C0462868216859
:1026D000019B009A4840C10F0598C90739430EC0B5
:1026E00009B0F0BDFFB587B0099A089808995368FA
:1026F000926840688968964600220393174694467C
:10270000089A12685300099A5B081268520052082E
:102710009A1A9E4BD4180A9A002A01D0352200E05A
:10272000402206920022012315460492DB070593FE
:1027300024E0002D05D175460346039E4D1BB34191
:1027400009D375466646039B491B049D9841059B2A
:102750007519AC465F4163463B4308D0059B049E18
:10276000DD0776082E435B080496059301E0521EB0
:10277000641EC50FED0749184041521C069B9A4242
:10278000D7DB002D04D17546039A6B1A824101D222
:1027900003200CE0039A0B466B404240134303D0E6
:1027A000014303D0012002E0022000E00020614646
:1027B00001910021009702910A99002905D06146F4
:1027C00040020143704B019102E080070023029018
:1027D0009C4201DA012000E0002007003AD01A1BD9
:1027E000D006C00E15D0029D2021019C091AC540BB
:1027F0008C402543029C8C4000D001242543019C41
:102800000295009DC4408D4000992C430194C14025
:10281000009154111DD06D460221002202290CD1D5
:102820000320001B07E0002804DB8600AE59002EC1
:1028300000D00122401C0328F5DB081B02D58800CC
:102840002A5004E08000285810438A00A850491EEE
:10285000E3D51C460A98002802980CD0002800D026
:1028600001200199019A490508430121D20AC902B0
:10287000D202019200E00121109B0122D207012B1C
:1028800002D0002B03D013E0002807D11FE09042B4
:1028900004D890420CD1019B0B4209D0019B5918DE
:1028A000019105D10099491C009101D1641C00924D
:1028B00000280CD0102108460020C046002F06D06A
:1028C0001198002803D0082108460020C046089827
:1028D0000999019A009B006809684840C10F079850
:1028E000C907214382600AC00BB0F0BD00B585B0B6
:1028F000019300920A460146002302A8FFF7FCFD5F
:1029000002A807C805B000BDFFB50A461F4685B03E
:102910000799019301230091014602A8FFF7ECFDFE
:1029200002990398049ECA0F4900D20700920F2211
:10293000490892028C1A0021002800DB0C46450051
:1029400013486D08844214D3079A002A04DA441EFF
:102950000026104DF64302E004460D460E461021B7
:1029600008460020C046002F03D00421084600205E
:10297000C0462005E90A0843009908436905F20AA0
:102980001143ADE602C0FFFF013C0000FF3F000025
:10299000FF070000FFFFFF7F00B585B001930092A5
:1029A0000A460146002302A8FFF79CFE02A807C8BA
:1029B000A8E7FFB50A461F4685B007990193012392
:1029C0000091014602A8FFF78DFE02990398049E2C
:1029D000CA0F4900D20700920F22490892028C1AAE
:1029E0000021002800DB0C46450011486D08844298
:1029F00014D3079A002A04DA441E00260D4DF6432C
:102A000002E004460D460E46102108460020C0464E
:102A1000002F03D0042108460020C0462005E90A03
:102A20000843009908436905F20A114358E600007B
:102A3000FF070000FFFFFF7FF8B505460C46C8689A
:102A40000521C9048843012189050843E060800607
:102A500002D52046FEF7A6FB7149E0680140022935
:102A600003D02046FEF748FBBCE0052101224903C4
:102A70000140D20391420FD1C00306D56168E06ADC
:102A8000884200D80846606006E02069E062606025
:102A9000606900F0A7FAA061A1680022EEB20029E7
:102AA0000EDAE06883050BD4C943A16009212260D6
:102AB00049030843E0606068411C61600670ACE057
:102AC000E068012149030843E0600020206020699C
:102AD000002831D1606900F099FA01252746243792
:102AE000ED02002816D0A0898005800F08D0E0698B
:102AF000FDF748FF0028206102D0E068284318E075
:102B000001202761E061E068032109028843012177
:102B100089020DE0E069FDF735FF00282061EFD064
:102B2000E0682843E0608105890F03D1FF2101316E
:102B30000843E06020696060E2683A4F2569D0058B
:102B40001FD56168E06A884200D80846411B05D05D
:102B500022462846FEF7DAFA002843D1E06801024F
:102B600004D5E56200206560A06053E0691CE16265
:102B70006160E169491E3843A160E06030462E7013
:102B8000F8BD100201D53A4009E06068411C61605F
:102B90000670E06838430A2EE06006D00022E16A41
:102BA0006068814203D90B4602E00122F7E7034641
:102BB000A7895B1B7F0504D4E7699F4201DD002ADA
:102BC0001ED0814200D801460F1A0020E5626560E0
:102BD000002BA06009DD224619462846FEF796FA2A
:102BE000002802D00020C043F8BD002F08D0A06903
:102BF000E5626560C01BA061E06810210843E060E9
:102C0000E068000209D56168A069E562491B4018C7
:102C10006560A0610120C043F8BD3046F8BD0000EA
:102C2000821000000000010070B505460C460A2025
:102C300000E06D1C00F05AF8002D06D0287800281E
:102C4000F7D102E0641C00F051F8002C02D020788B
:102C50000028F7D10A2000F049F870BD10B50146F0
:102C600002A0FFF7E1FF012010BD000053494752C9
:102C7000545245443A2052656469726563743A203F
:102C800063616E2774206F70656E3A20000000004B
:102C900010B500F031F8FFF70FFB10BD01226946B7
:102CA000114B120382188A421A6001D811467047EC
:102CB0001960704770B50C4C6D46012636032368C9
:102CC000AD1B9A18AA420ED8AD1A9019EE0F7519BD
:102CD0006D10AA18904200D91046C01D0B60C208A2
:102CE000D200D01A226070BDFCF0FF1F08B5694603
:102CF00008700320ABBE08BD10B5012805D0002127
:102D000003A0FFF791FF012010BD09A1F8E7000023
:102D100053494752544D454D3A204F7574206F66C4
:102D20002068656170206D656D6F7279000000002C
:102D30003A2048656170206D656D6F727920636F10
:102D4000727275707465640010B500F02BFBFDF7AE
:102D500056FBFDF7C1FA10BD00B587B010216846DB
:102D600000F0AAFA07B000BDF3B5134E81B0B46805
:102D70000F46B068002819D1104D2146681A8010FE
:102D80002C46002801DD302804DBC0222846FDF750
:102D900069FC0AE0002082008B58A35053181219D6
:102DA0005B68801C53603028F5D3B56001988000C3
:102DB0000019076403B0F0BD00ED00E000F0FF1F54
:102DC0001D48002101601D48826B43151A43826330
:102DD0001C4A1B4850601C4883681C4A134083608F
:102DE000C3681340C3601A4A89201070194824220E
:102DF00042709A220270C278D206D20EC2700122AC
:102E0000027141718179C906FCD481790907890F62
:102E10000229FAD14021417181790907890F0229DC
:102E2000FAD181794906FCD51A2101708179090707
:102E3000890F0329FAD170470081044000800440C3
:102E4000000001104080044040900440FFF8FFFE65
:102E50000050064000400640007B704770B50646B3
:102E60000C480D460468002C12D0A06800280CD035
:102E70002A463146FDF7A6FB002806D1A068FDF7DB
:102E800091FAA84201D1204670BD6468002CECD1B3
:102E9000002070BDE0F0FF1F10B504464068002818
:102EA00003D0FFF7D9FF012801D0002010BD6068D2
:102EB00010BD10B504464068002803D0FFF7CCFFD2
:102EC000002801D0002010BD60680028FBD0001F42
:102ED00010BD4068002800D00120704710B5406840
:102EE000002804D0FFF7B8FF002801D0002010BD53
:102EF000012010BD0068704710B504460020206016
:102F0000606008782F280FD1487800280CD04B1C1F
:102F100000211A46236010782F2807D0002807D0F8
:102F2000491C521C2260F6E7204610BD501C206050
:102F30001846FFF793FF6060204610BDF8B5040CFB
:102F40008BB2264682B25E43104658430D0C370CB6
:102F5000360400218019164679416E43370C360439
:102F60008019264679416E438919F8BD4900CA0285
:102F70000243100000D004204A0D01D0012210436A
:102F8000044A490D914201D102210843012800D190
:102F900005207047FF07000002486A46C008C000CD
:102FA000704700005FF2FF1F30380A2801D201206D
:102FB0007047002070470000032801DA00207047A6
:102FC00081000748002209184039486B4A630028ED
:102FD00002D00168496808470020C04370470000DC
:102FE00000F1FF1F032801DA002070470649800026
:102FF00040184038406B002802D0016889690847B2
:103000000020C0437047000000F1FF1F032801DAD1
:10301000012070470649800040184038406B002866
:1030200002D00168C96808470020C043704700000B
:1030300000F1FF1FF0B50E4683B004464649FDF788
:103040005DFB464D002815D045492046FDF756FB4F
:1030500000281AD043492046FDF750FB00281FD016
:10306000414F0025A8003858002824D06D1C102D91
:10307000F8D36CE02868002804D1042208213B48DA
:1030800000F042FB002003B0F0BD2868002804D106
:1030900004220821354800F037FB012003B0F0BDC1
:1030A0002868002804D104220821304800F02CFBB5
:1030B000022003B0F0BD102D49D220783A2811D05B
:1030C00021466846FFF718FF6846FFF702FF002811
:1030D0003DD06846FFF702FF0028684609D0FFF799
:1030E000E8FE2DE06A4622A12046FDF73BF9009854
:1030F00026E0FFF7D1FE002829D0B10701D5022430
:1031000008E0710701D5012404E0310701D5092445
:1031100000E000243107890F02D0012149020C434D
:10312000710702D5012189020C43264604466846F0
:10313000FFF7E0FE01462068324683682046984744
:10314000002804D0A9007850E81C03B0F0BD00208E
:10315000C04303B0F0BD0000D43B0000C4F0FF1F2B
:10316000DB3B0000E33B000000F1FF1FCCF0FF1F42
:103170003A257000032801DA00207047064A8000D3
:1031800080184038406B002803D002681369002281
:1031900018470020C043704700F1FF1F70B5144668
:1031A0000E46032814DA12480068002804D10422CD
:1031B0000821104800F0A8FA0025002C06D9715DFE
:1031C0000C4800F057FB6D1CA542F8D320460AE0DE
:1031D0000949800040184038406B002805D001683C
:1031E0000B6831469847201A70BD0020C04370BD5F
:1031F000C4F0FF1FCCF0FF1F00F1FF1F0FB410B58C
:1032000003AA03480299FDF7A5F8012000F002F88F
:10321000E8F1FF1F04460848FDF7BBF90748FDF732
:10322000B8F900F0BBF8002801D000F061F9002CDB
:1032300001D000F09DF8FEE794F1FF1FE8F1FF1FB9
:1032400010B58A68002A02DCFFF7F6FB10BD521E9B
:103250008A604A68C0B2531C4B60107010BD0029D0
:1032600007D0012904D181680A68406802430A60D6
:10327000704781680A6840688243F8E770B5054680
:103280000C46481C15D02C800121204600F08CF8FB
:103290006006C10E012088406860200B054980014E
:1032A0004018011DE960091D296108311430696168
:1032B000A86070BD00F00FF870B5022605460C46F8
:1032C000FFF7DCFF611C07D000212846FFF7C7FF8E
:1032D0003146284600F015F870BD70B504460D461D
:1032E0000026FFF7CBFF6D1C0AD0216960680860DB
:1032F00001212046FFF7B3FF3146204600F001F8D8
:1033000070BD10B502460020105E00F06FF810BDD1
:1033100070B51448016880221143016012490022EF
:103320008B6840240125002B0BD0104E0260866074
:1033300002682243026002682A4302605B1E8B60BF
:1033400070BD0B88002B09D00260836003682343A3
:10335000036003682B4303600A8070BD00F086FBA6
:1033600070BD000000000440D4F0FF1FFFFF00000C
:1033700086B072B608496846FFF7AFFF0399019817
:103380000860962000F0DCFB049901980860962004
:1033900000F0D6FBF2E700004810000010B500F086
:1033A000A1F810BD70470000421C19D070B40D4B3D
:1033B000020B40069C6BC00E154609350126AE4037
:1033C00034439C63120380001018074A8018026877
:1033D00007231B029A4309020A43026070BC70472C
:1033E000704700000080044000900440421C06D05A
:1033F000034A80180268920892000A4302607047EC
:1034000000900440884202D0421C01D10846704717
:1034100010B5491C04D003A0FFF7F0FE0020C04304
:1034200010BD000070696E6D6170206D69732D6D47
:103430006174636800000000002210B5D243431C91
:103440000BD00023CB5E5B1C0ED00023CB5E8342EF
:1034500005D14C68601C08D00AE0104610BD0C3144
:103460000023CB5E5B1CF0D1144602A0FFF7C6FE22
:10347000204610BD70696E6D6170206E6F7420669D
:103480006F756E6420666F72207065726970686512
:1034900072616C0010B50446401C0FD00020085E1D
:1034A000401C11D00020085EA04208D18968204647
:1034B000FFF77AFF00212046FFF798FF10BD0C317F
:1034C0000020085E401CEDD101A0FFF797FE10BD63
:1034D000636F756C64206E6F742070696E6F7574A5
:1034E000000000000148006870470000ECF0FF1F7A
:1034F00084B069461820ABBE04B07047F3B50446EB
:10350000006881B0C5780C210D40C178F3221140CC
:10351000C17052492068884270D1514F3878800973
:1035200027D1504840685049000F0B68401C7979FA
:1035300058434E064D494E4A4E6802D496434E605B
:1035400002E016434E604008002812D03878800907
:1035500066D144484068000F401C58437B795B06A5
:103560004B6802D493434B605BE013434B604008CD
:1035700057E03C4840683C49000F0968401C4843FC
:103580003978890902294CD03978890948D1797963
:10359000490639D4B979C90642D439780122890655
:1035A000490F8A407978D2B28906890F00D052013A
:1035B000F97849094901CB06DB0E20D149110729C9
:1035C0001DD20B007B441B79DB189F440306090CBA
:1035D0000F1215000521C90112E0052109020FE0B3
:1035E0000F21C9010CE00521490209E0B72189003A
:1035F00006E0B721C90003E01E4901E026E01E49AC
:103600005043FDF7CBF80CE03979CA06D20E797930
:10361000521CC906C90E18315043FDF7BFF800E02F
:10362000002002990901FDF7B9F821680A78C3045E
:1036300052095201DB0E1A430A7021684A78487019
:103640002068C1782943C17003B0F0BD05484068C7
:103650004003410F0448491C0068D2E700A006401F
:103660000040064040800440C0F0FF1F008004403E
:103670000000010095080000710B0000F8B5044639
:1036800000681546C2781F460C231A400092C27883
:10369000F3231A40C270082902D01848FFF7AEFD84
:1036A000002D07D0012D07D0022D08D01448FFF7B8
:1036B000A5FDF8BD002603E00126354601E0012600
:1036C0000025012F04D0022F02D00E48FFF796FDEF
:1036D000700021682843887020680178DF2211403B
:1036E0000170216808787A01203A10430870206838
:1036F000C178009A1143C170F8BD0000EC3B000096
:10370000283C0000483C0000F7B5044646490198B3
:10371000FFF792FE054645490298FFF78DFE0146E8
:103720002846FFF76FFE0546401C02D140A0FFF778
:1037300065FD4748484F2B184648256004D0D91BE3
:103740002BD0C91B2ED13AE0444A1178890919D1EE
:1037500043494968434E090F3668491C5279714301
:103760005606414A466802D49643466002E0164334
:1037700046604908002905D041680122920611439C
:10378000416004E041680122D20611434160416B6F
:10379000012292021143416304E0416B0122D202F3
:1037A000114341632068C178F3221140C1700126A2
:1037B000002B07D0D81B07D0C01B09D106E0416BF6
:1037C0003943E8E7002002E0666001E00220606023
:1037D0004B21C9012046FFF791FE01230022082159
:1037E0002046FFF74BFF10490198FFF753FE0F49A2
:1037F0000298FFF74FFE02210198FFF7F7FD022123
:103800000298FFF7F3FD2068C1780C221143C170C4
:103810001648854205D11648066062682168C26074
:10382000816003B0F0BD0000643C0000D03C0000AB
:1038300053657269616C2070696E6F7574206D617B
:103840007070696E67206661696C656400000000D5
:103850000060F9BF008004400010000000400640F6
:1038600040800440C0F0FF1F0000010000A006409F
:10387000C4F0FF1F10B40824026813791B0702D597
:1038800013792343137102681279D209D201F3D05C
:103890000068C17110BC70477047000002480168A1
:1038A0004022914301607047000004406148416834
:1038B000002970D1F8B501265F4D4660E86BF1052F
:1038C0000843E8635D48002707605D4CB01E206137
:1038D0000420A061A0693043A0615A4840684003B9
:1038E000410F5948491C0068FCF758FF57494018D8
:1038F0004900FCF753FF401E2060A660A86B3043D0
:10390000A863534D2F6053491C20FFF72DFA5249ED
:10391000200508604B4840684B49000F0968401C6F
:103920004E4C48432178890902294AD021788909D7
:1039300059D16179490639D4A179C90653D421787E
:1039400089064A0F31469140CAB261788906890FCB
:1039500000D05201E17849094901CB06DB0E20D1A4
:10396000491107291DD20B007B441B79DB189F44AA
:103970000306090C0F1316000521C90112E00521E9
:1039800009020FE00F21C9010CE00521490209E0FD
:10399000B721890006E04CE0B721C90002E03049B8
:1039A00000E030495043FCF7F9FE0AE02179CA06ED
:1039B000D20E6179521CC906C90E18315043FCF76A
:1039C000EDFE00280FD02849FCF7E8FE00290AD1B7
:1039D000012800D022E0072029E00807400EC01C83
:1039E00025E0C20719D020780221084320706078B2
:1039F000304360706F60207A0E21084012D0022898
:103A000014D0207AF12108402072217A0420014349
:103A10002172696801436960F8BD491C40080128AA
:103A2000DFD1DAE768680821084300E06868686069
:103A3000F8BD7047D4F0FF1F0080044000700340C1
:103A40000071034040800440C0F0FF1F20A1070028
:103A5000000004401133000000E100E00040064097
:103A600095080000710B000040420F0010B5FFF7F1
:103A700013FF0D4C206800280ED000F017F82168C5
:103A80000A68101A00280ADC886820606268002A28
:103A9000F0D048689047EDE7FFF700FF10BD0868D9
:103AA00000F014F810BD0000E4F0FF1F10B5054849
:103AB0004068002801D1FFF7F9FE03484069C04380
:103AC00010BD0000D4F0FF1F0071034070B5184C0A
:103AD00005466068002801D1FFF7E8FE15484069F7
:103AE000C043281A002802DCFFF7C0FF70BD011494
:103AF00083B2A160002210484025012623800029BE
:103B00000BD00E4B0260836002682A430260026899
:103B100032430260491EA16070BD0260836001688B
:103B200029430160016831430160228070BD0000BB
:103B3000D4F0FF1F0071034000000440FFFF0000AD
:103B400070B57D21C90048430446FFF7AFFF054625
:103B5000FFF7ACFF401BA042FAD370BD10B500299F
:103B60000AD00878002807D005487844FCF7C6FD3D
:103B7000002801D0002010BD0248784410BD00008C
:103B8000EE020000E602000010B500290AD0087815
:103B9000002807D005487844FCF7B0FD002801D084
:103BA000002010BD0248784410BD0000DE02000075
:103BB000D602000003B402487844844603BC604740
:103BC0009BDBFFFF03B402487844844603BC604794
:103BD00005DEFFFF2F737464696E002F7374646FCA
:103BE0007574002F7374646572720000496E76619B
:103BF0006C6964206E756D626572206F6620626903
:103C00007473202825642920696E207365726961A8
:103C10006C20666F726D61742C2073686F756C64B4
:103C20002062652038000000496E76616C6964206E
:103C300073657269616C2070617269747920736553
:103C40007474696E67000000496E76616C69642067
:103C500073746F7020626974732073706563696632
:103C6000696564001020000000B0064003000000F9
:103C70000800000000A00640020000001430000010
:103C800000C00640030000000C30000000C00640E9
:103C9000030000001C30000000A0064003000000EC
:103CA0005040000000A00640040000005840000002
:103CB00000C00640040000000040000000B00640C4
:103CC00003000000FFFF0000FFFFFFFF00000000F7
:103CD0000C20000000B006400300000004000000BB
:103CE00000A00640020000001030000000C00640A6
:103CF000030000000830000000C006400300000080
:103D00001830000000A00640030000005C400000E6
:103D100000C00640040000005440000000A006401F
:103D2000040000000440000000B006400300000052
:103D3000FFFF0000FFFFFFFF000000000000000089
:103D400000000000303132333435363738394142E3
:103D500043444546403058003031323334353637ED
:103D60003839616263646566403078000400000899
:103D7000000000000000000200010000103031329D
:103D8000333435363738396162636465667870007C
:103D90003031323334353637383941424344454681
:103DA0005850000002400000000000A00000000089
:103DB00005400000000000C8000000000C400000AA
:103DC0000000409C00000000194000000020BCBE24
:103DD0000000000034400000BFC91B8E000000043A
:103DE000B5400000504BCFD06607E2CF0100000085
:103DF0006C4100003E8251AADFEEA73401000000B2
:103E0000D9420000DCB5A0E23A301F97FFFFFFFF68
:103E1000B4450000FD25A0C8E9A3C14FFFFFFFFF87
:103E2000FF3F00000000008000000000FF3F000096
:103E30000000008000000000843F0000C0F0FF1F71
:103E40004000000004010000C43F000000F1FF1F1B
:103E500058010000200100001C0000004300000089
:103E6000F8FFFFFF0C0000000E0000000F00000034
:103E70002E0000001001000043000000F8FFFFFFCB
:103E8000004040404040404040404141414141406D
:103E90004040404040404040404040404040404022
:103EA00040050202020202020202020202020202B1
:103EB00002202020202020202020200202020202B6
:103EC000020290909090909010101010101010100E
:103ED000101010101010101010101010020202021A
:103EE000020288888888888808080808080808085E
:103EF000080808080808080808080808020202025A
:103F00004000000000000000000000000000000071
:103F100000000000000000000000000000000000A1
:103F20000000000000000000000000000000000091
:103F30000000000000000000000000000000000081
:103F40000000000000000000000000000000000071
:103F50000000000000000000000000000000000061
:103F60000000000000000000000000000000000051
:103F70000000000000000000000000000000000041
:103F800000000000006CDC020000000000000000E7
:103F90000000000000000000000000000000000021
:103FA0000000000000000000000000000000000011
:103FB0000100000000000000000000000000000000
:043FC00000000000FD
:04000005000000C136
:00000001FF
