:020000040000FA
:1000000000300020B5030000532D0000E502000081
:1000100000000000000000000000000000000000E0
:10002000000000000000000000000000C10300000C
:100030000000000000000000C3030000C503000032
:10004000C7030000C7030000C7030000C703000088
:10005000C7030000C7030000C7030000C703000078
:10006000C7030000C7030000C7030000C703000068
:10007000C7030000C7030000C7030000C703000058
:10008000C7030000C7030000C7030000C703000048
:10009000C7030000C7030000C7030000C703000038
:1000A000C7030000C7030000C7030000C703000028
:1000B000C7030000C7030000C7030000C703000018
:1000C00000F002F800F0C3F80CA030C8083824187B
:1000D0002D18A246671EAB4654465D46AC4201D180
:1000E00000F0B5F87E460F3E0FCCB64601263342EF
:1000F00000D0FB1AA246AB4633431847EC7600000B
:100100000C770000103A02D378C878C1FAD85207A9
:1001100001D330C830C101D504680C6070470000BD
:100120000023002400250026103A01D378C1FBD813
:10013000520700D330C100D50B60704710B56E294F
:1001400002D101F0E3F810BD702902D101F045FCA5
:1001500010BD662902D106F0ABFD10BD652902D1A4
:1001600006F0A6FD10BD672902D106F0A1FD10BD65
:10017000612902D106F0A4FD10BD03681B0A01D35A
:1001800080231943692902D101F08AF810BD64293E
:1001900002D101F085F810BD752902D101F080F877
:1001A00010BD6F2902D101F0C3FB10BD782902D127
:1001B00001F000FC10BDE92902D101F05FFB10BD88
:1001C000E42902D101F05AFB10BDF52902D101F05A
:1001D00055FB10BDEF2902D101F0B6FB10BDF82987
:1001E00002D101F0F5FB10BD0368DB0901D38023C8
:1001F0001943632902D102F05AF910BD732902D1C3
:1002000002F05DF910BDE32902D102F067F910BDDB
:10021000F32902D102F06AF910BD002010BD1FB50C
:100220000098019900F09BFF01F0D2FE040000202D
:10023000002106F0DDFB401C60600020002106F07C
:10024000C1FBE06001F092FD00F0FCFD1FBD03F07A
:10025000ABFE114603B403F0BBFE03BCFFF7DFFFA8
:1002600002F06BFD04F0BEF8704708007047100004
:100270007047180070472000704728007047300012
:1002800070473800704740467047484670475046B0
:1002900070475846704760467047684670477046DA
:1002A00070477846704768467047000070B505464D
:1002B0000C46164602E00FCC0FC5103E102EFAD2A7
:1002C000082E02D303CC03C5083E042E07D301CC6D
:1002D00001C5361F03E021782970641C6D1C761E51
:1002E000F9D270BD2C4B05E02C4B03E02C4B01E008
:1002F0002C4BC046EFF308802B4972460A4201D0CE
:10030000EFF309809C46294B196802680A600431A2
:1003100042680A60043182680A600431C2680A6077
:100320000431F0C147460F6004314F460F6004317D
:1003300057460F6004315F460F60043102690A605E
:10034000083142690A60043182690A600431C26975
:100350000A60043103462033154E324200D0043384
:1003600075460D4E354200D148330C46103C236093
:10037000EFF309820A600431EFF308820A60043166
:1003800072460A600431EFF314820A60604607493E
:1003900004F0F2FBFEE70000100000002000000067
:1003A000300000004000000004000000586D000014
:1003B000000200000448804704480047FEE7FEE7CB
:1003C000FEE7FEE7FEE7FEE7652D0000C100000046
:1003D0000048704728F5FF1F10B5202A04DB0146AE
:1003E000203A9140002010BD914020239C1A0346E2
:1003F000E3401943904010BD0048704728F6FF1FA6
:10040000FFFFFFFFFFFFFFFFFFFFFFFFFEFFFFFFFD
:1004100070B50646FFF7F0FF056830460B30C4089C
:10042000E400B44201D8002070BD68682A46002864
:1004300018D00168A14211D30B46214608318B42E6
:1004400008D3436801194B6003681B1B0B605160A4
:10045000046001E041685160001D70BD02464068C3
:100460000028E6D12146284600F064FE0028DCD1B1
:1004700070BD70B50446051FFFF7BEFF0068002C75
:100480001AD0446801E020466468002C01D0AC42D8
:10049000F9D301680A18AA4204D12A6805468918C6
:1004A000016000E0456028684119A14205D16168FA
:1004B000696021684018286070BD6C6070BD10B51F
:1004C000202A04DB0846203AD040002110BD0B460C
:1004D0002024D340D040A21A91400843194610BDB1
:1004E0004343514330B55C18010C130C0D4692B2D6
:1004F0005D4380B251432C19054655430A0C09044B
:100500004D1962415843010C00044019514130BD5E
:10051000FEB5054610460C46184373D0AE468C46D1
:100520000020AD1A01469C4167D36646002701248E
:100530003D46B61A9D4102D313463A4621246546EC
:1005400076462F04360C3E432D0CB61A9D4104D33B
:10055000150C1B042B4312041034654676462F06F7
:10056000360A3E432D0AB61A9D4104D3150E1B02CE
:100570002B4312020834654676462F0736093E4360
:100580002D09B61A9D4104D3150F1B012B431201EF
:10059000241D65467646AF07B6083E43AD08B61A39
:1005A0009D4104D3950F9B002B439200A41C6546EC
:1005B0007646EF0776083E436D08B61A9D411AD37A
:1005C00092185B41641C16E0001876466546494166
:1005D000B71A9D410191009009D36046B11A984124
:1005E0008E468446009801990025401C6941DD072C
:1005F00052082A435B08641EE6D57246634603B080
:10060000F0BDFFE700200146C046C0462A4623460B
:10061000F5E700007CB51D4616460C00009001D0A1
:100620000019401E084B7B442A466946019030461B
:1006300001F091F8002C054603D06946002001F036
:100640009DF828467CBD00005D11000010B50B46EA
:100650000146184601F0A0F810BD00000FB41CB50B
:10066000084B06AA7B4469460090059801F073F890
:1006700004460020694601F081F820461CBC08BCF5
:1006800004B0184715110000F3B50446002081B0EE
:1006900020622046E1688847002872D0252802D0D1
:1006A0006268A168ABE0594F00267F442046E168AC
:1006B00088472028054608DB312D06D278192038D6
:1006C0000078002801D00643F0E7B00701D50420E8
:1006D00086430020E0610746A0612A2D0AD0284603
:1006E00003F066FC002827D0B8000019303D0090C8
:1006F000856119E00298BA00121902C8916102904E
:100700002046E1688847012F054617D1E069002897
:100710001FDA202086431CE000980A2180694843A4
:1007200000994019303888612046E16888470546BD
:1007300003F03EFC0028EFD1012F0AD02E2D08D166
:100740002046E16888470546202006437F1C022F8B
:10075000C3DBA069002803DA4042A0610120064300
:10076000F00701D0102086436C2D0BD0682D09D0E6
:100770004C2D3CD06A2D38D0742D38D07A2D36D0FF
:1007800016E040E0E1682F4620468847B84205461B
:1007900009D16C2F29D001208002E1680643204650
:1007A0008847054604E06C2F1DD0FF20013006432A
:1007B000002D28D028464138192803D80120C0022E
:1007C00006432035204626602946029A1646FFF742
:1007D000B5FC002810D001280BD0F61DF008C00091
:1007E0000830029055E74020E1E78020D5E700205F
:1007F000D3E7361D02964CE762682846A168904709
:10080000206A401C44E7206AFEBD0000DE6700004D
:1008100070B50446C068810713D0800601D5A56A6B
:1008200004E0A169606840182169451A204601F07A
:1008300055FA002206462946204600F01DF83046AB
:1008400070BD002070BD70B5002802D0FFF7E0FF3A
:1008500070BD0025074C6E1E08E02046FFF7D8FF4C
:10086000002800D03546206D44086400002CF4D1E7
:10087000284670BD2CF5FF1FF8B5044616460D46F8
:100880004769007B800730D0384603F0E9FB002839
:100890002BD132461026002A25D0012A02D0022A66
:1008A00023D104E0204601F0A1F945191BE03846A8
:1008B00003F0BEFBE16831430028E16004DA204622
:1008C00001F0DCF90120F8BDC9030BD56268E16ACB
:1008D000914200D81146A26989182269891A814279
:1008E00000DD08462D18002D01DA0220F8BDE16A6E
:1008F0006068E268814206D29103E06203D501217B
:1009000049048A433243A669AE4211DCE16A81425E
:1009100001D90B4600E003469F192369FF1AAF4235
:1009200006DD814201D90F4600E007469F4206D10D
:10093000202002430020A060A56220600DE0AD1BD6
:10094000E669AE1B8142A66000D90846C01A281A83
:100950002060581960602020824303480240002034
:10096000E26040342072F8BDBFCFD7FFF7B516461E
:100970000C46104600F07CF82078611C61280AD0F3
:10098000722802D0772839D102E00125002404E042
:100990000225042401E02D4D08240222032301270F
:1009A0000878491C2B2806D0622807D02039C87F38
:1009B000742807D008E01D431443F1E704200543E1
:1009C0003C43EDE7102004430098214603F060FB10
:1009D000411C13D00021316171600121F560490291
:1009E000F1617061200704D5304602220021FFF733
:1009F00043FF306D384330653046FEBD0020FEBDFC
:100A0000F8B50D460646124C206DC10704D04108CA
:100A100004D044086400F7E7224610E05420FFF7B2
:100A2000F7FC070010D07908206D4900012211431E
:100A3000084354212065384600F0BEF83A4629465E
:100A40003046FFF793FFF8BD0020F8BD028000009C
:100A50002CF5FF1F10B5002902D0FF22013201E062
:100A60000122920201235B0201F0E2F810BD0000B6
:100A7000FEB50446466900690F4F0190E568002005
:100A80000090A80707D0204601F028F9304603F06F
:100A9000AFFA002801DA3846FEBD280502D50198D4
:100AA000FFF7E7FC4C21204600F086F8206D400857
:100AB000400020650098FEBDFFFFFFFF30B50346F4
:100AC0001D78002D08D00A461478521C002C03D043
:100AD000AC42F9D15B1CF3E7181A30BD034610B5E0
:100AE0000B439B070FD1042A0DD308C810C9121F4E
:100AF000A342F8D018BA21BA884201D9012010BD0A
:100B00000020C04310BD002A03D0D30703D0521CDD
:100B100007E0002010BD03780C78401C491C1B1B0B
:100B200007D103780C78401C491C1B1B01D1921E75
:100B3000F1D1184610BD000030B5441C03E0017827
:100B4000401C00290DD08107F9D10B4BDD0104C8F1
:100B5000D11A91432940FAD0001B0A0603D0C01EC7
:100B600030BD001B30BD0A0401D0801E30BD09021B
:100B7000FCD0401E30BD00000101010101E004C0B5
:100B8000091F0429FBD28B0701D50280801CC907ED
:100B900000D00270704700290BD0C30702D002704A
:100BA000401C491E022904D3830702D50280801C01
:100BB000891EE3E70022EEE70022DFE782078B07CA
:100BC0009A4237D170B5920F0AD0032402780B787D
:100BD000401C491C002A2BD09A4229D12042F5D131
:100BE0001D4EF40104C808C9951B9543254010D13A
:100BF0009A4207D104C808C9951B9543254008D1DE
:100C00009A42EFD012BA1BBA01209A4200D2404257
:100C100070BD12BA1BBA2DBA18241000E04019009A
:100C2000E140401A05D12E00E64002D1083CF4D143
:100C3000D01A70BD02780B78401C491C002A09D0DC
:100C40009A4207D102780B78401C491C002A01D037
:100C50009A42EFD0D01A7047010101010022030926
:100C60008B4273D3030A8B4258D3030B8B423CD382
:100C7000030C8B4221D312E003460B437FD40022A6
:100C800043088B4274D303098B425FD3030A8B4220
:100C900044D3030B8B4228D3030C8B420DD3FF228A
:100CA000090212BA030C8B4202D31212090265D058
:100CB000030B8B4219D300E0090AC30B8B4201D30B
:100CC000CB03C01A5241830B8B4201D38B03C01A52
:100CD0005241430B8B4201D34B03C01A5241030BC9
:100CE0008B4201D30B03C01A5241C30A8B4201D37A
:100CF000CB02C01A5241830A8B4201D38B02C01A25
:100D00005241430A8B4201D34B02C01A5241030A9B
:100D10008B4201D30B02C01A5241CDD2C3098B4280
:100D200001D3CB01C01A524183098B4201D38B01FD
:100D3000C01A524143098B4201D34B01C01A5241A0
:100D400003098B4201D30B01C01A5241C3088B42E5
:100D500001D3CB00C01A524183088B4201D38B00D0
:100D6000C01A524143088B4201D34B00C01A524172
:100D7000411A00D201465241104670475DE0CA0F49
:100D800000D04942031000D34042534000229C4609
:100D900003098B422DD3030A8B4212D3FC22890113
:100DA00012BA030A8B420CD3890192118B4208D3E9
:100DB000890192118B4204D389013AD0921100E04B
:100DC0008909C3098B4201D3CB01C01A524183095F
:100DD0008B4201D38B01C01A524143098B4201D38C
:100DE0004B01C01A524103098B4201D30B01C01AB7
:100DF0005241C3088B4201D3CB00C01A5241830831
:100E00008B4201D38B00C01A5241D9D243088B4286
:100E100001D34B00C01A5241411A00D20146634629
:100E200052415B10104601D34042002B00D549428D
:100E3000704763465B1000D3404201B50020C046B6
:100E4000C04602BD70B5064C7C44064D7D4403E0AF
:100E5000206800198047241DAC42F9D170BD000004
:100E6000E86A0000E86A0000F8B517460E46054635
:100E7000002B07D0104658434419E41B2046B047C6
:100E8000A542FAD128460838F8BD00000121C9055D
:100E90000123411842001B06D3185B0E0AD0C11073
:100EA0000722D206891840075242D14201D552008A
:100EB00089187047090208D50146002A03D0C10FDE
:100EC000C9070020704710467047420202D0002038
:100ED00002497047072109050143F4E70000F87F44
:100EE000F0B5FF252D04C609C209FF2704462E4090
:100EF0000137CB093E4348402A402B400746002A91
:100F00006BD0002B69D0AA4267D0AB4265D00028D5
:100F100000DA32460125ED0529432C43090220025F
:100F2000090AD21A4B0C7F24E31A434C000A7C4472
:100F3000E35C7D242404121914145B00A218884277
:100F400001D3521C00E0400049420C465C4324118E
:100F50005C43DB016415E318040A5C43C502200D01
:100F60000C4644436419250A5D432303EC0C0D46EB
:100F7000654300030019EB184C42A34201D35B18F0
:100F8000401CD4052018002B07D05B00C91804D3DF
:100F9000401C002901D1400840003F2189048A42B9
:100FA00009D3002A08DC1106090F04D003214907E0
:100FB0004018C00FC007F0BD012241001206891879
:100FC0007F2252069142F6D205214907C84201D537
:100FD0009010F0BDFF20C005F0BD002F00DA3246B2
:100FE0001648AA4207D2AB4205D21902090E17D001
:100FF000F80FC007F0BDFF2563002D06AB42F9D8FE
:101000004900A942F6D8AB4201D1A942F2D0A94287
:1010100001D1002101E061004908D0050843F0BD7D
:101020001102090EFBD0FF200243D005F0BD0A4695
:101030000146104654E700006B5F00000000C07FCF
:1010400010B50202C11504D00123DB071A430029A1
:1010500014DBBE235B1A0CD41146D9401C46203C3D
:1010600002D41046E04010BD2020C31A104698401C
:1010700010BDFF2241001206914202D90020014614
:1010800010BDC017C043C11710BD1F22030C02D1F1
:101090000F2200041CD0030E01D10002083A030FF6
:1010A00001D10001121F830F01D18000921E002880
:1010B00001DB4000521ED2055118021251181922AC
:1010C000904004D3491C002801D149084900084632
:1010D0007047C10FC90700D0404201229207114357
:1010E000D3E701218907D0E710B5FF22C30D1340D4
:1010F00009D05A4007D0914205DA5C42A14202DD94
:10110000C905081810BDC40FE407002B06D0002A3B
:1011100006D0002902DBFF20C0050443204610BD95
:101120004102FCD0004810BD0000C07F70477047EE
:101130007047704738B504460A460020694601F0FA
:101140006FFD002805D002462046009900F044FFBC
:10115000012038BD10B5012001F024FD10BDF8B507
:1011600001F052FD054600200C461020C046064600
:10117000A819A0420DD932466946002001F050FD61
:10118000070001D101F00EFD0098A04200D00546F5
:10119000C419FFF731F9F61D07460560F008C000D5
:1011A0004619284600F008F8B44204D031463868A1
:1011B000A21B00F011FFF8BD0021016041608060BA
:1011C00070471020704710B5FFF702F9006810BD96
:1011D00010B50446FFF7FCF8046010BD70B5044676
:1011E00085690068C10601D5302600E02026C007C9
:1011F00007D070BD62683046A1689047206A401CE5
:1012000020626D1EF6D570BD70B504468569007804
:10121000C00707D170BD6268A16820209047206A8E
:10122000401C20626D1EF6D570BD09684A0501D5C7
:1012300040B27047C905FCD500B2704709684A053D
:1012400001D5C0B27047C905FCD580B2704770B5F2
:101250000C460546012A05D02878800600D5EA69A3
:10126000002302E0012305E05B1C934202D2E05C14
:101270000028F9D1A869E618C01AA861286AC01820
:1012800028622846FFF7AAFF04E06A682078A96868
:10129000641C9047B442F8D32846FFF7B5FF70BDF1
:1012A000F7B5002575291068009914A611D0FFF72D
:1012B000BCFF002802DA404211A608E00099096844
:1012C0008A0701D50FA602E0490704D50EA601251D
:1012D00001E0FFF7B3FF009F0024243704E001F092
:1012E0007FFC30313955641C0028F8D12B4632463A
:1012F0002146009800F0C7FEFEBD0000000000007F
:101300002D0000002B000000200000001168026882
:10131000006A530501D5087009E0D30501D508809E
:1013200005E0130602D5C21705C100E008600120E0
:10133000704700007047FFB50C461E468FB003CAC9
:10134000089009914F007D0D00D16D1E00210846C7
:101350000020C0460321099A89050840002A03DAC3
:101360008200801840080840800D01280A9002DDA4
:101370000020C0430A90089807430DD0F048F14977
:10138000281848430714189800281DD07542291EB4
:101390001DDD0A9842421BE01898012802D0002067
:1013A000302104E00020F24305E02154401CB0420B
:1013B000FBDB30460022189B002121540F998B60E3
:1013C0000A60486013B0F0BDBD1B6D1CDFE70A9AD0
:1013D000002900DA69420BA801F08CF80BAB07CBAF
:1013E00003AB07C30899099801F0F0F86B4607C3EF
:1013F0000146D5480918002D00910BDDD24903980C
:101400000A9A49424018002303A90390684601F054
:101410004DFB08E003990A9A0023081803A90390DA
:10142000684601F0EDFA6B4607C30004000C03D0D8
:101430000020C043410800E01046189A002A03D05B
:101440000022009215461EE0751E05D400F0DEFD58
:10145000303262556D1EF9D501220843079602D03D
:1014600000227F1C04E02078302801D100227F1E5A
:10147000002A069787D01EE0112D07DA00F0C6FD7E
:10148000303262556D1C02460A43F5D1084303D041
:101490000098002819D00EE00021681E05E0235CAA
:1014A000625C63542254401E491C8142F7DBA81B36
:1014B000401E07950690079A18990020A0540F988F
:1014C000079B069A81600CC07CE7112600201890CB
:1014D00059E7D21DF0B50D460446D10893B0C900B6
:1014E00003C90C900D9102F069FC02460D98C00FE3
:1014F00001D02D2007E02068810701D52B2002E0D4
:101500004007C00F4001032A0F9001D0072A05DBD6
:1015100003462946204600F07BFF0EE12078800636
:1015200001D5E76900E006272846652D04D0662826
:1015300014D0672D69D12DE00020112F009001DB20
:10154000112300E07B1C0CAA03A910A8FFF7F3FEEF
:101550001199002610987D1C0E9142E001203B4617
:101560000CAAC0070B900120009003A910A8FFF758
:10157000E2FE119D12981099002600280E9501D1C7
:10158000781C0D18781B02D446427D1C761EE81B81
:1015900000903AE0012F00DA01270020112F00907F
:1015A00001DD112300E03B460CAA03A910A8FFF7B8
:1015B000C2FE11993D46109800260E912178090728
:1015C0000BD40E99A94200DA0D4603A9012D04DDC2
:1015D0004A19203AD27F302A06D0B84201DA011DDA
:1015E00004DA012100910FE06D1EEFE7002802DC14
:1015F00086192D1A03E0411CA94200DD0D46801B0F
:10160000401C00900120C0070B902078000705D4F3
:101610000098A84202DB0020C043009069460020E9
:10162000C8720B98012102AF0337C907884225D041
:10163000022010902B2011900B9800280BDA4042CA
:101640000B902D20119006E00B9801F0C9FA303173
:101650007F1E0B9039701099481E00291090F3DC02
:101660000B980028F0D111987F1E38702088000553
:1016700001D5452000E065207F1E387001A8C01B01
:10168000C01D0B900F98002800D001204119009830
:10169000C01709180B980818A169081A401EA06104
:1016A0002078C00602D42046FFF798FD0F98002846
:1016B00005D06268A1689047206A401C20622078AB
:1016C000C00625D52046FFF789FD21E0002E07DB67
:1016D0000E98B04204DD03A86268805DA16802E054
:1016E0006268A16830209047206A761C401C206206
:1016F0000098401E002800900AD100F069FCC068E4
:1017000062680168405CA1689047206A401C2062C2
:1017100028466D1E0028D9DC07E062683878A16889
:101720007F1C9047206A401C20620B99481E0029AC
:101730000B90F2DC2046FFF767FD032042E6000035
:1017400001FCFFFF104D0000E1DFFFFF01694A1CB3
:1017500002610878704700B58FB0029100210591B1
:101760000549019379440391114604906846FEF7B8
:101770008BFF0FB000BD0000E5FFFFFF0A6810708F
:10178000521C0A6070470CC908399A4202D2531C95
:101790000B60107070470000084B70B50D467B441D
:1017A000FFF7D9FF0446284600F024F9002802D0AC
:1017B0000020C04370BD204670BD0000BB2C00005F
:1017C000F7B50446154686B02B487844002703C871
:1017D0003E460090019111E007986A467100415A17
:1017E00002A801F0B3F9411C07D02178890603D57E
:1017F000E269391891420ED83F18761C207880068D
:1018000002D5E069B84206DDAE42E5DB079871001B
:10181000405A0028E0D1A069C01BA0612046FFF714
:10182000DDFC154878445A3803C800900020019127
:1018300016E041006A460798415A02A801F086F96D
:101840000590401C0AD0002505E0626802A8A16846
:10185000405D90476D1C05988542F6D30498401C66
:10186000B0420490E5DB206AC01920622046FFF7F1
:10187000CBFC09B0F0BD000052580000F7B5D21DF6
:101880000025D20815A6D200F52905CA11D0002AD4
:1018900005DA00214042914111A60A4608E000996C
:1018A00009688B0701D50FA602E0490701D50EA6EE
:1018B00001251146009F0024243704E000F0A6FB18
:1018C00030323A55641C02460A43F7D12B46324661
:1018D0002146009800F0D7FBFEBD0000000000008C
:1018E0002D0000002B0000002000000070B5044611
:1018F0000021243408E05507D2086D0F30356554B7
:101900005D072A43DB08491C15461D43F3D10468D3
:10191000002310A2250708D5A40601D4002904D06D
:10192000C46901230CA2641EC46100F0ACFB70BD4D
:1019300010B5044621461068FFF780FC00230246DC
:101940002046FFF7D3FF10BDD21DD108C9000CC936
:10195000CCE700000000000030000000F8B50F46A2
:101960000188090502D5224C7C4402E0204C7C44CD
:101970000E3405460021243508E016071209360FFB
:10198000A65D6E541E0732431B09491C16461E43B2
:10199000F3D1224604780023240705D5702F06D002
:1019A000002901D00223113200F06DFBF8BD0123A4
:1019B0001032F9E770B504460D4621461068FFF76E
:1019C0003DFC0023024629462046FFF7C7FF70BDB5
:1019D000D21DD308DB000CCBC0E730B40368202451
:1019E0001268234303600823C36130BC0023B5E7BA
:1019F000BC560000C068802108407047F8B5054615
:101A00000C46C8680521C90488430121890508439B
:101A1000E060800602D5204600F086F97149E06852
:101A20000140022903D0204600F028F9BCE005213E
:101A3000012249030140D20391420FD1C00306D5D0
:101A40006168E06A884200D80846606006E0206964
:101A5000E0626060606902F0EBFAA061A1680022B8
:101A6000EEB200290EDAE06883050BD4C943A16009
:101A70000921226049030843E0606068411C6160FD
:101A80000670ACE0E068012149030843E0600020F3
:101A900020602069002831D1606902F0E1FA012557
:101AA00027462437ED02002816D0A0898005800F34
:101AB00008D0E069FEF7ACFC0028206102D0E068A5
:101AC000284318E001202761E061E0680321090252
:101AD0008843012189020DE0E069FEF799FC0028A6
:101AE0002061EFD0E0682843E0608105890F03D1D1
:101AF000FF2101310843E06020696060E2683A4FED
:101B00002569D0051FD56168E06A884200D808467B
:101B1000411B05D02246284600F0BAF8002843D1E0
:101B2000E068010204D5E56200206560A06053E032
:101B3000691CE1626160E169491E3843A160E060AF
:101B400030462E70F8BD100201D53A4009E06068B9
:101B5000411C61600670E06838430A2EE06006D0E0
:101B60000022E16A6068814203D90B4602E001224B
:101B7000F7E70346A7895B1B7F0504D4E7699F420B
:101B800001DD002A1ED0814200D801460F1A002034
:101B9000E5626560002BA06009DD224619462846F3
:101BA00000F076F8002802D00020C043F8BD002FD6
:101BB00008D0A069E5626560C01BA061E0681021E3
:101BC0000843E060E068000209D56168A069E56249
:101BD000491B40186560A0610120C043F8BD304634
:101BE000F8BD0000821000000000010010B50146A1
:101BF000C268900703D0900607D5886A0AE0FEF70E
:101C0000E7FB01210160881E10BD8B694868C01880
:101C10000B69C01A40310B7A002B02D0497A401A66
:101C200010BD1103FCD50028FADD401E10BD0000D8
:101C300070B5C468A50713D0650211D4D51FF93D4E
:101C40000AD0FF3D6D1E07D0FF3DFF3D022D07D19D
:101C500001462431012305E0074E5D1EB54201D344
:101C6000012070BD0161C36141600F2109028C43F5
:101C70001443C460002070BDFFFFFF00C1688022D4
:101C8000114392039143C16000218160016070475C
:101C9000F7B514460E463348D5685769054209D052
:101CA0003846A16902F054FA002811DB2D48C043E0
:101CB0000540E5602B4632463846009902F064FA4A
:101CC0004200A1695208B21A89180028A16104D003
:101CD0002046FFF7D3FF0020C043FEBD70B5044689
:101CE0000569C06A6168884200D80846E168052233
:101CF000D2049143E160C90314D5A84209D0224619
:101D0000411B2846FFF7C4FF002802D00020C04333
:101D100070BDE56200206560A060E06801210904F3
:101D20008843E060002070BD10B50446C0682021E3
:101D30008843E060A16AA06988420ED02046FFF780
:101D4000CDFFE06803210903884310210843E060C8
:101D5000A06AA0612069E06260600349E068084011
:101D6000E06010BD10000200BFBFFFFF10B5434888
:101D70005421FEF721FF42485421FEF71DFF414840
:101D80005421FEF719FF40483C493D4B404A016051
:101D90003E4803603B4810605A1C0A65411C1965A7
:101DA000012101653C48354A3AA17844FEF7DEFD41
:101DB000002804D1384878440C3800F0EDFE38484B
:101DC0002F4A36A17844FEF7D1FD002804D13448CB
:101DD00078440C3800F0E0FE32482A4A2FA17844BB
:101DE000FEF7C4FD002804D12E4878440C3800F0DA
:101DF000D3FE40232148DC0000212246FFF718FFD4
:101E0000002804D0244878445C3800F0C5FE1C4803
:101E1000224640230021FFF70BFF002804D0204872
:101E200078445C3800F0B8FE1648224610230021A2
:101E3000FFF7FEFE002804D01A4878445C3800F012
:101E4000ABFE10BD0F4870B5006D44080B48640030
:101E5000FEF70EFE0A48FEF70BFE0A48FEF708FEE4
:101E600009E0206D450820466D00FEF701FE204682
:101E7000FEF7FFFA2C46002CF3D170BD2CF5FF1FA6
:101E800080F5FF1FD4F5FF1FB0F1FF1FB4F1FF1F56
:101E9000B8F1FF1F72000000AE4F00007700000095
:101EA0009B4F0000894F000010B500F081FE00F04C
:101EB0006DFE10BD70B5024601020123C01520243D
:101EC0009E26DD07002802D02943002813DB361A9E
:101ED000002E29DD0846F040A21B01D4914000E00D
:101EE0004908002906D0994000D3401C002901D19F
:101EF0004008400070BD0006000E01D149004908AD
:101F0000361A11D40846F040404200280CDCA21BCF
:101F100001D4914000E049080029EBD0CA0F4900E4
:101F200000D11843801A70BDFF2150000906884275
:101F300001D9002070BDD017C043684070BD0000BB
:101F400030B5C30D1906214A090E31D0FF292FD013
:101F500000283ADB01025002014301207D33C340D7
:101F600000D24908012080071724091A24064908CD
:101F700082102343FF252D064C00211A04D4891A10
:101F800002D45400201800E0214652085B19F3D512
:101F90001A220446944007D382068A4203D1802144
:101FA0008030884300E08030C009D905081830BD72
:101FB000FF2904D04100FAD0C00FC00730BD410254
:101FC00001D0104630BD0028FCDAFAE70000C07FDF
:101FD000004870472CF6FF1F10B50346406801E02B
:101FE00003464068002801D08842F9D31868C31816
:101FF0008B4206D0CB1CD808C000001D411A521AD3
:102000000146081D0A60FEF734FA10BD0B4670B594
:10201000024689078008084319469D08141AA941F9
:1020200025090807054308092C194841250A010616
:102030000D43010A2C194141200C0D0428430D0CBD
:1020400000194D41002140194D41C008690708435E
:10205000E908840F8D002543840024184D4124197C
:102060006D41121BAB4107E00925ED432C115219BC
:1020700063410024401C61411C460A250026551B73
:10208000B441F1D270BDFFB504460D4681B0243095
:1020900000902168880604D51022E06991432160F0
:1020A00000E00120A84201DD471B00E00027049862
:1020B000A1697A191018081AA0612078C00602D404
:1020C0002046FFF78BF8002608E003986268A168B5
:1020D000805D9047206A401C761C206204988642EE
:1020E000F3DB2078C0060AD52046FFF777F806E034
:1020F0006268A16830209047206A401C2062384600
:102100007F1E0028F4DC07E000986268A168405D4B
:102110009047206A401C206228466D1E0028F3DC90
:102120002046FFF771F82078000602D5022005B09E
:10213000F0BD0120FBE70000D21DF0B504460D46BE
:10214000D0088DB0C000466807683146384601F0B7
:1021500035FE0246F00F01D02D2307E020688107ED
:1021600001D52B2302E04007C00F43016846002B36
:10217000037001D0012000E00020032A0A9001D062
:10218000072A04DB2946204600F042F92DE1207899
:10219000800601D40D2500E0E5697000400D0D2D8D
:1021A00001904BDA300D00210B9008460020C0460C
:1021B000032189050840002E05DA82008018C20F2D
:1021C0001018401008408015012801DD0020C04390
:1021D000A9000023182906D39C460A460123183A71
:1021E0001B07D34003E001221205CA4094460C317C
:1021F000202902D33A46203900E032468A4000289E
:1022000002DD002A06D119E0002817D10121C907F3
:102210008A4213D3194663467F185E41002806D1CF
:102220000120C007824202D1084687439E430B9893
:10223000310D814202D00198401C01902088000598
:1022400002D57149794402E06F49794419396B46E6
:102250000A9830221A540A980A7C401C1A54401CCE
:102260000A900198002801DC302000E0312018722B
:10227000019A0120002A02D0644BD21804E07200B7
:102280003A4302D0614A521C0192002D02DC2278AE
:10229000120703D56A462E2050720220002286467D
:1022A00094460CE032033601120F6D1E8B5C02AABD
:1022B00013546246521C401C9446052A01DA002D34
:1022C000F0DC002202AE08E03B0F3F01CB5C521C69
:1022D0006D1E3354401C082A01DA002DF4DC2368FB
:1022E0009A0601D511E0401E704504DD3218203AEF
:1022F000D27F302AF7D0002807DD3218203AD27F6B
:102300002E2A02D11A0700D4401E002D03DD3E22E2
:102310003254401C6D1E497C31540199401C0029E7
:1023200006DA2D21471C315401984042019003E008
:102330002B21471C315401987D21C900884206DBBE
:10234000FEF79AFC3030F0557F1C019101E06428C3
:1023500008DB01986421FEF78FFC3030F0557F1CBC
:10236000019101E00A2806DB01980A21FEF784FCAE
:102370003030F0557F1C01980A21FEF77DFC30318A
:10238000F1550A98A1697F1C7A191018081AA061E2
:102390002078C00602D42046FEF720FF216A6E4650
:1023A0000A980818206204E062683078A168761CF8
:1023B00090470A98401E0A90401CF5D12078C0062C
:1023C00002D52046FEF70AFF02AE09E03078761CFF
:1023D0003E280DD06268A1689047206A401C2062A8
:1023E0007F1EF3D22046FEF70FFF0DB00320F0BD95
:1023F000206A4019206203E06268A168302090479B
:102400006D1EEDD3F8E700001B4E000001FCFFFF3E
:10241000F8B51F46044601230068DB020326014687
:102420001840072A05DB002801D017A506E017A5EC
:1024300004E0002801D016A500E016A51020814375
:102440002160A069C01E002FA06101D0401EA061C4
:102450002046FEF7C3FE002F09D038466268A16807
:102460009047206A401C2062C01C206206E0206A5F
:10247000FAE762682878A1686D1C9047761EF8D24A
:102480002046FEF7C1FEF8BD4E414E006E616E0063
:10249000494E4600696E660010B54369002B02D0B4
:1024A000C046C04601E0FEF7D2FE012010BD127802
:1024B000014624310A7000224A700122ECE71168BB
:1024C0000022D243E8E710B54369002B02D0C04692
:1024D000C04601E0FFF774F9012010BD12880146E3
:1024E000243182840022C2840122ECE71168002298
:1024F000D243E8E7F7B516468AB0334878446C46CD
:1025000003467C33C06F5A689B680DC42E487844DC
:10251000763003AC0DC80DC43720C0010818372130
:102520001B30FEF7A9FB05460C46803D1B3C02D53F
:102530006442012000E000200027099010E0E0073D
:102540000CD00C2020497843794432464C3941184C
:102550006846012300F054FA6B4607C364107F1CE1
:10256000002CECD1184F7F442E3F16E0E80712D024
:102570002001C0190EC80691089307920068F04226
:1025800001D1981908903246012306A903A800F04A
:1025900037FA03AB07C36D10641C002DE6D1099810
:1025A000002806D032466946012303A800F07EFACF
:1025B00005E001233246694603A800F021FA0A9B90
:1025C00007C30DB0F0BD0000784B0000034640008B
:1025D0000A4610B5400D0BD00121C9070F24A402F3
:1025E00000191C0364082143540D2143D20207E063
:1025F00000210120F2E7D40F490021435200401E80
:102600000029F8DADB0FDB07184310BDFFB50D46D4
:10261000144685B04868516801F0ADFB0091019007
:10262000A868A16801F0A7FB02910390A8686168FF
:1026300001F0A1FB029A12188242029201D20120FB
:1026400000E00020019A0B18D2180028019202D055
:102650008A4202D903E08A4201D2012000E0002030
:102660000099081800906868A16801F084FB029A3C
:1026700012188242029201D2012000E00020019A49
:102680000B18D2180028019202D08A4202D903E026
:102690008A4201D2012000E0002000990818009031
:1026A0002868216840004900400849084018FA4954
:1026B000471814E001994000C90F084300900198A1
:1026C00002994000C90F0843019002980399400005
:1026D000C90F08430290039840007F1E03900098A2
:1026E0000028E7DA0898002801D0EC4E00E0002628
:1026F000B74201DA012000E00020002804902AD02F
:10270000F71BF806C00E15D0029B2021091A039A68
:102710008B401A430392029A019BC2408B401A439A
:102720000292019A009BC2408B4000991A43019289
:10273000C14000917B110DD06F460320C11A03D513
:1027400000218200B95003E08A008100BA587A5013
:10275000401EF3D5374603980299002800D0012087
:10276000014308980291002808460CD0002800D0A8
:1027700001200199019A490508430121D20AC902A1
:10278000D202019200E001210E9B0122D207012B0F
:1027900002D0002B03D013E0002807D120E09042A4
:1027A00004D890420CD1019B0B4209D0019B5918CF
:1027B000019105D10099491C009101D17F1C009223
:1027C00000280DD0102108460020C046049800289B
:1027D00006D00F98002803D0082108460020C046E4
:1027E00028682168019B009A4840C10F0598C907D5
:1027F00039430EC009B0F0BDFFB587B0099A0898FB
:102800000899536892684068896896460022039345
:1028100017469446089A12685300099A5B08126892
:10282000520052089A1A9E4BD4180A9A002A01D0D4
:10283000352200E040220692002201231546049230
:10284000DB07059324E0002D05D175460346039E62
:102850004D1BB34109D375466646039B491B049D36
:102860009841059B7519AC465F4163463B4308D0D0
:10287000059B049EDD0776082E435B0804960593AE
:1028800001E0521E641EC50FED0749184041521C5D
:10289000069B9A42D7DB002D04D17546039A6B1A2A
:1028A000824101D203200CE0039A0B466B40424068
:1028B000134303D0014303D0012002E0022000E0D3
:1028C0000020614601910021009702910A99002998
:1028D00005D0614640020143704B019102E0800740
:1028E000002302909C4201DA012000E00020070052
:1028F0003AD01A1BD006C00E15D0029D2021019C93
:10290000091AC5408C402543029C8C4000D001240C
:102910002543019C0295009DC4408D4000992C43A5
:102920000194C140009154111DD06D460221002236
:1029300002290CD10320001B07E0002804DB8600DD
:10294000AE59002E00D00122401C0328F5DB081BE5
:1029500002D588002A5004E08000285810438A00DD
:10296000A850491EE3D51C460A98002802980CD0AE
:10297000002800D001200199019A4905084301214E
:10298000D20AC902D202019200E00121109B012269
:10299000D207012B02D0002B03D013E0002807D16F
:1029A0001FE0904204D890420CD1019B0B4209D009
:1029B000019B5918019105D10099491C009101D141
:1029C000641C009200280CD0102108460020C0464C
:1029D000002F06D01198002803D0082108460020B7
:1029E000C04608980999019A009B00680968484008
:1029F000C10F0798C907214382600AC00BB0F0BD20
:102A000000B585B0019300920A460146002302A852
:102A1000FFF7FCFD02A807C805B000BDFFB50A46D8
:102A20001F4685B00799019301230091014602A832
:102A3000FFF7ECFD02990398049ECA0F4900D207E4
:102A400000920F22490892028C1A0021002800DB14
:102A50000C46450013486D08844214D3079A002A97
:102A600004DA441E0026104DF64302E004460D46EB
:102A70000E46102108460020C046002F03D0042136
:102A800008460020C0462005E90A0843009908438B
:102A90006905F20A1143ADE602C0FFFF013C0000E8
:102AA000FF3F0000FF070000FFFFFF7F00B585B07C
:102AB000019300920A460146002302A8FFF79CFEFC
:102AC00002A807C8A8E7FFB50A461F4685B00799C0
:102AD000019301230091014602A8FFF78DFE0299A0
:102AE0000398049ECA0F4900D20700920F2249089A
:102AF00092028C1A0021002800DB0C464500114888
:102B00006D08844214D3079A002A04DA441E002672
:102B10000D4DF64302E004460D460E4610210846D0
:102B20000020C046002F03D0042108460020C046E4
:102B30002005E90A0843009908436905F20A114390
:102B400058E60000FF070000FFFFFF7F70B5164644
:102B50000C46054600F086F80368FF200230C05C92
:102B6000012807D0FF2C0ED8185D00280BD00120BB
:102B70002C7070BDFF333246214608331868C318E5
:102B80002846984770BD0020C04370BD10B500288E
:102B900001D000F061F810BD10B500F085F8FFF726
:102BA000F5FF10BD10B500F099F8FFF7EFFF10BD6D
:102BB00010B5002102A000F05DF8012010BD00005A
:102BC0005349475056464E3A2050757265207669F3
:102BD000727475616C20666E2063616C6C65640054
:102BE00001468008081A02091018020A1018020C7F
:102BF0001018C008820012185200891A01E0401C07
:102C00000A390A29FBD2704701226946114B120387
:102C100082188A421A6001D81146704719607047BD
:102C200070B50C4C6D46012636032368AD1B9A180F
:102C3000AA420ED8AD1A9019EE0F75196D10AA1888
:102C4000904200D91046C01D0B60C208D200D01AB5
:102C5000226070BDBCF1FF1F01491820ABBEFEE72A
:102C60002600020010B5FFF7B3F9001D10BD00BF2C
:102C7000813D000070B505460C460A2000E06D1C41
:102C800000F054F8002D06D028780028F7D102E093
:102C9000641C00F04BF8002C02D020780028F7D1FB
:102CA0000A2000F043F870BD10B5014602A0FFF7FE
:102CB000E1FF012010BD00005349475254524544E2
:102CC0003A2052656469726563743A2063616E27C5
:102CD00074206F70656E3A200000000010B5012866
:102CE00005D0002103A0FFF7C5FF012010BD09A1F9
:102CF000F8E7000053494752544D454D3A204F756F
:102D000074206F662068656170206D656D6F7279E3
:102D1000000000003A2048656170206D656D6F729B
:102D20007920636F727275707465640008B56946C6
:102D300008700320ABBE08BD704710B5C046C04642
:102D400001F056FD10BD0021016041608160C1604D
:102D5000704700B587B01021684601F0D9FB07B075
:102D600000BD00001D48002101601D48826B431515
:102D70001A4382631C4A1B4850601C4883681C4AE3
:102D800013408360C3681340C3601A4A89201070DF
:102D90001948242242709A220270C278D206D20EBA
:102DA000C2700122027141718179C906FCD4817916
:102DB0000907890F0229FAD1402141718179090758
:102DC000890F0229FAD181794906FCD51A210170AF
:102DD00081790907890F0329FAD1704700810440DE
:102DE00000800440000001104080044040900440F6
:102DF000FFF8FFFE005006400040064000B50246C6
:102E0000000900F0EBF80749C87108790006FCD505
:102E10001007000F00F0E2F8C87108790006FCD531
:102E200000BD000000A00640064907E0CA71401C32
:102E30000A791206FCD50A795206F9D50278002AD9
:102E4000F4D1704700A006400748084900680A68A6
:102E50009042FDD01078521C054B0A609A4202D372
:102E60001A460A3A0A607047CCF0FF1FD0F0FF1FE5
:102E7000CAF1FF1F0448054900680968884201D16A
:102E80000020704701207047CCF0FF1FD0F0FF1FDB
:102E9000F8B5244800240778234E602F2BD8214909
:102EA00022484B788A783146214D0978442F06D044
:102EB0004E2F0ED0512F18D0562F1CD127E0452B66
:102EC00019D1422A17D1032915D10221017019A065
:102ED00017E04F2B0FD1522A0DD103290BD101211D
:102EE000017018A000F054F80EE0552B03D1492AC8
:102EF00001D1032903D017A000F04AF805E00470BF
:102F000017A000F045F82C7034703470F8BD032120
:102F1000017017A000F03CF816A000F039F819A0D5
:102F2000EFE70000B4F2FF1FC2F0FF1FC0F0FF1F69
:102F3000EAF0FF1F0D0A4D6F64653D444542554759
:102F40000A0000000D0A4D6F64653D4E4F524D4121
:102F50004C0A00000A0D4572726F722100000000D9
:102F60000D0A4D6F64653D51554945540A000000F6
:102F70000D0A0000322E3020323031362F30392FFA
:102F8000323900000D0A53656C656374202000001F
:102F9000094930B50A46074B283207E01C68401C37
:102FA0002570641C1C60944200D319600578002DC4
:102FB000F4D130BDD4F0FF1FCAF1FF1F05490A68E4
:102FC0001070521C04480A60824201D328380860FD
:102FD00070470000D4F0FF1FF2F1FF1F092802D84C
:102FE0003030C0B270470007000F37307047000024
:102FF000F3B581B00846FEF774F8504903F08CFD34
:103000004F49884201DD4F4C00E04F4C03F0E8FD92
:103010002146FDF765FF4D4903F0D6FD4C4903F00D
:1030200035FD4C4E4C4C4D49F06003F02FFD4C49A2
:1030300003F0D6FD01464B48FDF752FF01462046FE
:1030400002F09CF8484903F067FD05464749F068DF
:1030500003F0C6FD610202F091F80446F0684449AD
:10306000009003F059FD434903F010FD424F06461E
:103070003946009803F050FD404903F007FD314602
:10308000FDF72EFF214603F047FD394603F09CFD76
:1030900007460198FEF725F83949009003F03CFDFA
:1030A000384E314603F038FD04463749384603F0C0
:1030B00033FD01462846FDF713FF214603F090FD3E
:1030C00005463146009803F027FDB10702F056F897
:1030D000044601212D48FEF707F80646012228463E
:1030E000D20731465040FDF7FBFE07462946084609
:1030F00003F012FD054602212448FDF7F5FF2146A5
:1031000003F00AFD294603F06BFD03F0E3F83146B6
:10311000FDF7E6FE014603F0FFFC0446394608468B
:1031200003F0FAFC214603F0B1FC03F0D3F8184990
:1031300003F0F2FC174903F0EFFCFEBDE703403853
:10314000C74B373F98BED73ACADDE73A0000C841BF
:1031500033138943F8F0FF1F000020413393884365
:1031600000000C43CDCC77439C53C9378A1F7F4066
:103170002680F8488244044C00007A44AD158D48FE
:103180008FDF5B3DA913503C0EDB96BDBA6B893DCA
:1031900005D6A44185EB514070B51E481E4C016810
:1031A000002900D104600368A3422DD11B490320EC
:1031B000CA68051F002A1ED0042082008E58002EE7
:1031C00006D052185268002A0DD0801C1028F4DB5B
:1031D000102810DBFDF7FCF8182101600D4801688C
:1031E000002902D002E0401CF2E704600068A0421F
:1031F0000AD1284670BD82008D500649002B00D1AF
:103200000C600968A142F5D068220549054801F023
:10321000A5FB000050F4FF1F58F4FF1F14F1FF1F1F
:103220001C7300000873000017490A685209520114
:103230000A60002806D00C221823012809D0022891
:1032400011D113E088688860486A486208681E22C5
:1032500007E0886810438860486A18434862086835
:10326000092210430860086980B270470868400965
:1032700040010860886810438860486A18434862C3
:1032800008681A22EDE7000000B0034030B5164987
:103290008020486208680006FCD513484030C268A8
:1032A0008368D218436804681B19D218CB6BD218F4
:1032B0008B6BD2181204520C0123DB031A43CA622F
:1032C000C26A846A1219446A056A64191219C469C7
:1032D0008069121910180004400C18430863486AEA
:1032E0004006C00F30BD000000B0034010B50648D6
:1032F00000F0F4F8002804D00021034800F0B6F8EC
:1033000010BD0121F9E7000050F2FF1F10B506487B
:1033100000F0E4F8002804D00021034800F0A6F8EB
:1033200010BD0121F9E7000038F2FF1F102801DB72
:1033300000207047F8B51C4D014684002859421CF6
:1033400031D103292FDA0E4608460020C046002856
:1033500028D130460020C046002823D113480078E9
:10336000C0071ED1114800F061FD002819D0104E91
:103370001048306010484B27006808210422FF01E4
:10338000002806D10D4802F0AFFD39460B4802F087
:1033900085FC30460A4A0B490120C046034800F02C
:1033A00071FD03482851F8BD14F1FF1F0CF1FF1FF8
:1033B00010F1FF1F1471000054F1FF1F5CF1FF1F9B
:1033C000000000004D34000000B50F48816B02156D
:1033D00011438163C16B52041143C1630B49002047
:1033E000086088600A48016A402291430162016ACC
:1033F0000162416A41628168816081689202114381
:103400008160FFF743FF00BD0080044000A004403E
:1034100000B003401C20C04370471520C0437047D4
:103420000020704770B5002415460E46002A06D9C4
:10343000315D044802F094FE641CAC42F8D3284687
:1034400070BD00005CF1FF1F01207047704770B530
:103450000D46144606461821FDF7AEFB22462946C6
:10346000304601F087F8304670BD000010B50022EC
:10347000825E521C04D00029416806D0C26805E073
:10348000242203A10FA001F069FA0269116010BDA6
:103490006D6265642F5441524745545F4B4C323541
:1034A0005A2F544F4F4C434841494E5F41524D5F54
:1034B0005354442F6770696F5F6F626A6563742E3F
:1034C000680000006F626A2D3E70696E20213D2009
:1034D0002850696E4E616D65294E430010B500217C
:1034E000415E491C06D0416909684068014206D026
:1034F000012010BD2C2203A10FA001F02FFA002003
:1035000010BD00006D6265642F5441524745545F01
:103510004B4C32355A2F544F4F4C434841494E5F24
:1035200041524D5F5354442F6770696F5F6F626AF9
:103530006563742E680000006F626A2D3E70696ECC
:1035400020213D202850696E4E616D65294E430053
:1035500070B504460068012203690021204698479F
:1035600005000DD4206802220369002120469847F7
:1035700006462068002203692946204698473046BF
:1035800070BD002070470020704710B50C46001D2C
:1035900002F0E6FD204610BD0901081881690029E6
:1035A00002D009680C300847704770477047000028
:1035B000FFB585B0002444602049846001601E4648
:1035C000022310221E490C3000F01FFC05460C3D62
:1035D000002706623801441900206E460C34009022
:1035E000019002900390B4420ED0E1682046002979
:1035F00001D08968884703983146002802D0426884
:10360000204690470398E06003996846002901D05E
:10361000896888477F1C022FDCD3281D079A0699EA
:1036200002F062FC281DE96A02F038FB2A460549CF
:10363000281D02F01FFD284609B0F0BDB47100003E
:10364000472D000099350000F0B5054691B03C4883
:1036500000262860002002A90290039004900791A0
:1036600005902868F7B201682846884700F074FE84
:10367000059800281FD039014C19A069002801D1F4
:1036800002F0C8FD07980C3484420ED0E168204651
:10369000002901D08968884705980799002802D039
:1036A0004268204690470598E06001223946281D6F
:1036B00002F0ECFC2AE039014C19A069002801D085
:1036C00002F0DCFD00210CA80C910C340D910E9140
:1036D0000F91079084420ED0E1682046002901D066
:1036E000896888470F980799002802D042682046C9
:1036F00090470F98E0600F990CA8002901D08968C5
:10370000884700223946281D02F0C0FC00F052FE16
:103710002868416828468847059902A8002901D0F1
:1037200089688847761C022E94DB284602231022E3
:1037300004490C30FDF798FB284611B0F0BD00009D
:10374000B47100004D6A000038B5009001468469EC
:103750000831204602F0D4FD38BD01688968084769
:1037600010B5014682690831104602F04BFE10BDCB
:1037700010B50446074820600020A060E06020618A
:10378000606100F07BFE0449A06102F057FE204614
:1037900010BD0000CC7100005B37000010B504467E
:1037A0000448206021460831A06902F02BFE204623
:1037B00010BD0000CC710000F8B51249124A0B6828
:1037C000002B00D10A6009688C46914213D1002178
:1037D0000E4B10240E468D005F59874200D15E517A
:1037E000491C641EF7D107486146002900D10260D8
:1037F0000068904204D068220549064801F0AEF8FE
:10380000F8BD000050F4FF1F58F4FF1F14F1FF1F14
:103810001C7300000873000010B50021FDF71AF9B1
:1038200010BD70477047000010B51C46029BFFF7A3
:10383000BFFE2146303000F067F80449303801609F
:10384000034941630349016310BD0000E0710000BA
:10385000607200000072000010B506490160064960
:10386000416306490163303000F082F83038FFF7D9
:10387000EBFE10BDE07100006072000000720000FD
:1038800070470020704700207047002070470020DC
:103890007047F8B5054600680E460C468F18016D56
:1038A00028468847BC4209D028682178826C28467F
:1038B000641C9047401C01D0BC42F5D12868416D82
:1038C00028468847A01BF8BD002070470FB470B58C
:1038D00004460068016D2046884706AD012200219C
:1038E0006069FCF7C9FF2A4660690599FCF7AEFEDE
:1038F00005462068416D20468847284670BC08BCB4
:1039000004B018477047000038B50F4A04C00022C1
:1039100000F078F9041F0D48206000250C4865610F
:1039200060600CA1204600F0C9F86061000003D07F
:10393000FFF772FF204638BD2A46002306A10B4838
:10394000009501F08BF800006471000070720000B7
:10395000D0720000772B000053747265616D206F88
:10396000626A206661696C757265000019010180E8
:1039700010B5044605482060054860606069FDF7A1
:1039800077F8201D00F05EF9001F10BD7072000076
:10399000D072000010B50446C3688268016A406AAC
:1039A000521843412046FFF7CFFE616B002903D038
:1039B000204609682830884710BDF0B51FB4174667
:1039C0000E46044600F0C8FC606B002805D1382084
:1039D000005D002801D002F01DFC25462835B542C7
:1039E00010D0E9682846002901D089688847002D51
:1039F00008D0F068002803D0426831462846904736
:103A0000F068E860039D00F0A7FC2046FFF7A8FEE1
:103A100027626562A06902F0E4FC226A636A821888
:103A20004B412046FFF790FE00F0C4FC00F0C2FCC2
:103A300005B0F0BD70B584B01F490446016000F0C8
:103A40008BFC2046FFF78CFE606B002805D03820E9
:103A5000005D002801D002F011FC00206D462834E2
:103A60000090019002900390AC4210D0E168204693
:103A7000002901D089688847260008D00398294684
:103A8000002802D04268204690470398F0600399CE
:103A90006846002901D08968884700F08BFCE068FF
:103AA000002802D081682046884720462838FFF742
:103AB00075FE04B070BD0000E0720000F0B583B088
:103AC0000D460646FFF768FB244F002806DB820000
:103AD000BE50234A00211154224A1154040021D01F
:103AE00040226846027044702004020E68468270CC
:103AF0002002020E6846C270220E29460271FCF7AF
:103B00007FFF05001CD02046FFF710FC00280CD0DA
:103B10000168C969884704000BD5FCF759FC61426C
:103B2000016018E0002003B0F0BDFCF751FC092152
:103B3000F6E700280FD028460021FCF78BFF0AE0AB
:103B4000A0003958B14202D10021395003E0FCF7FE
:103B50003FFC09210160284603B0F0BD14F1FF1FAE
:103B600030F4FF1F40F4FF1FF8B507460D461E480E
:103B700002F076FF1D4E3468002C10D0A06800289B
:103B80000AD0FCF7D9FFA84206D12A463946A068D8
:103B9000FCF7A4FF002805D06468002CEED1072DA7
:103BA00010D016E0104812490268002A00D10160C6
:103BB0000068884204D068220E490F4800F0CEFE0B
:103BC0002046F8BD2A4639460CA0FCF787FF00289E
:103BD00004D0054802F044FF0020F8BD024802F07E
:103BE0003FFF7068F8BD000018F5FF1F8CF1FF1F44
:103BF00020F5FF1F1C7300000873000064656661F8
:103C0000756C740070B50446002666600A48A160B1
:103C100020600D462273094802F022FF002D04D0D7
:103C2000074801686160046000E06660034802F0D4
:103C300017FF204670BD0000F472000018F5FF1F4A
:103C40008CF1FF1F10B5044613482060134802F0A2
:103C500007FFA068124A00280ED01068A04202D1C7
:103C60006068106008E04168A14203D008464968D6
:103C7000A142FBD1616841605068A04201D100209F
:103C80005060064802F0ECFE207B002802D1201F85
:103C9000FFF792FD204610BDF472000018F5FF1FDB
:103CA0008CF1FF1F10B504464068002803D0007B4C
:103CB000C046012801D0002010BD60680028FBD05C
:103CC000001F10BD10B504464068002803D0007BDB
:103CD000C046002801D0002010BD60680028FBD03D
:103CE000001F10BD4068002800D00120704710B5AB
:103CF0004068002804D0007BC046002801D0002086
:103D000010BD012010BD000070B5044600200D4616
:103D1000206060600FA12846FCF7D0FE4319002107
:103D20001846236002782F2A05D0002A05D0401CAF
:103D3000491C2060F6E7401C2060002905D0184689
:103D4000FFF712FF6060204670BD2A22024903A0DF
:103D500000F004FE2F000000647600006C656E2009
:103D6000213D203000000000704710B53038FFF7CB
:103D70000CFC10BD7047F8B5040C8BB2264682B21D
:103D80005E43104658430D0C370C36040021801951
:103D9000164679416E43370C360480192646794120
:103DA0006E438919F8BD0A7802704B7843708A789F
:103DB0008270CA78C2700B79037170474900CA02D9
:103DC0000243100000D004204A0D01D0012210430C
:103DD000044A490D914201D102210843012800D132
:103DE00005207047FF0700004100080200D00420B2
:103DF0000A0E01D001221043090EFF2901D1022130
:103E00000843012800D105207047FFB581B01C464A
:103E100017460E0007D0019D02E02846B047ED1975
:103E20002046641EF9D2019805B0F0BD10B50178A6
:103E30008A07920F012A06D08A0706D0054A06494A
:103E400006A000F08BFD002010BD0222114301707E
:103E5000012010BD8C050000B474000030203D3DF1
:103E600020282A67756172645F6F626A65637420D7
:103E700026204358415F47554152445F4D41534BC3
:103E80002900000010B501788A07920F022A04D099
:103E9000044A054905A000F061FD89088900491C14
:103EA000017010BD94050000B47400004358415FD8
:103EB00047554152445F494E49545F494E5F505205
:103EC0004F4752455353203D3D20282A6775617264
:103ED000645F6F626A6563742026204358415F47C0
:103EE000554152445F4D41534B29000010B500200D
:103EF000FDF7DAFF10BD10B57F200021C005FCF7EB
:103F0000EFFF10BD10B502F0C1FD10BD10B50021CE
:103F10000846FCF7E5FF10BD10B50720612100073A
:103F2000FDF7E2F810BD5E2110B5C9430807FDF7A3
:103F3000DBF810BD08B51648FFF71AFC15490160FB
:103F40000021283002F072FD01220274124A134946
:103F500028380120C0460E48012211494030FFF7A1
:103F600076FA0F490A480122091D5830FFF76FFA07
:103F70004B20C00100900648002304220821703025
:103F8000FFF752FC044A07490120C04608BD000063
:103F9000F8F1FF1FE072000000000000353A000059
:103FA000481000005938000010B500F009F810BDA5
:103FB00030380A2801D201207047002070470000E5
:103FC00002486A46C008C0007047000047F6FF1F5D
:103FD00070B5054CA168054DC0222846FCF766F96E
:103FE000A560C046C04670BD00ED00E000F0FF1FB8
:103FF00070B50546FFF79AF90024A9000B4A661E22
:10400000545000280AD001684969884705000BD53B
:10401000FCF7DEF969420160304670BDFCF7D8F963
:1040200009210160304670BD204670BD14F1FF1FAC
:1040300070B5FFF77BF90025ED4300280AD0016831
:10404000896A8847040004D5FCF7C2F9614201601F
:10405000284670BDFCF7BCF909210160284670BDF7
:1040600070B5FFF763F9002500280AD00168C96917
:104070008847040004D5FCF7ABF96142016028468B
:1040800070BDFCF7A5F909210160284670BD00004C
:1040900070B50C4605462B49FCF790FD002812D060
:1040A00029492846FCF78AFD002811D027492846CF
:1040B000FCF784FD002810D02878402812D0A007F3
:1040C00027D502212EE00020FFF730F9002070BD37
:1040D0000120FFF72BF9012070BD0220FFF726F920
:1040E000022070BD6878090A09020143A878FF22FE
:1040F00012020002914310400143E87812020004CA
:104100009143104001432A790802000A110608432E
:1041100070BD600701D5012104E0200701D5092108
:1041200000E000212007800F02D00120400201435F
:10413000600702D5012080020143284600F0FAFE04
:1041400070BD00005C6D0000636D00006B6D0000D1
:1041500070B500240E46FFF7E9F8651E00280DD063
:10416000016822460B6931469847040004D5FCF7E4
:104170002FF9614201602C46204670BDFCF728F9FA
:10418000092101602C46F7E7F8B5064617480D46A9
:10419000824206D9FCF71CF9162101600020C043B9
:1041A000F8BD00271446002A1DDD3046FFF7BEF893
:1041B00000280DD001682246CB68294698470700A1
:1041C0000AD5FCF705F9794201600020C043F8BD2B
:1041D000FCF7FEF80921F7E7002F04DDE819203885
:1041E0000349C07F8855E01BF8BD0000FFFFFF7F3B
:1041F00040F4FF1FF8B50027234C244E3FE0FEF7A4
:1042000023FE05460D2808D0022D13D0FEF7D6FE5A
:10421000082D06D0032D14D00CE01DA0FEF7B8FE2B
:104220002BE02078002805D01AA0FEF7B1FE2078F8
:10423000401E207020780A2808D317A0FEF7A8FE99
:1042400013E01848077001F09DFF18E0164909783F
:1042500000290CD13178022909D0442907D04E29F0
:1042600005D0562903D0002801D0277007E0355427
:10427000401CC0B22070022801D9FEF709FEFEF7EB
:10428000F9FD0028BBD1F8BDC2F0FF1FB4F2FF1F3B
:104290002D3E0000200800000D0A546F6F204C6F67
:1042A0006E672100EAF0FF1FC0F0FF1FEFF31080E0
:1042B000C007C017401C704770B50D46044600F09B
:1042C0004BF82088401B85B22580074801680029EB
:1042D00007D00168491E01600068002801D100F084
:1042E000A9F9284670BD000074F1FF1F70B504469F
:1042F00000F032F825780120207009480168002973
:1043000007D00168491E01600068002801D100F053
:1043100091F9002D01D0012070BD002070BD00007A
:1043200074F1FF1F70B50D46044600F015F82088A3
:10433000401985B2258007480168002907D0016827
:10434000491E01600068002801D100F073F9284679
:1043500070BD000074F1FF1F10B5074C2068401CB1
:1043600005D000F057F92068401C206010BD512294
:10437000024903A000F0F2FA74F1FF1FAC760000CE
:10438000637269746963616C5F73656374696F6E8E
:104390005F7265656E7472616E63795F636F756E6F
:1043A000746572203C2055494E5433325F4D41585C
:1043B0000000000007480168002909D00168491E73
:1043C00001600068002803D110B500F033F910BD7A
:1043D0007047000074F1FF1FEFF30580002800D044
:1043E0000120704705461B48FCF72DFA1A48FCF7D8
:1043F0002AFA0120FEF79AFF0926002820D001683A
:1044000089698847040003D5FBF7E2FF6142016038
:104410000220FEF78BFF002816D0016889698847C3
:10442000040003D5FBF7D4FF6142016000F02CFCCF
:10443000002801D001F0C8FB002D09D000F09EFA41
:10444000FBF7C6FF0660E3E7FBF7C2FF0660EDE798
:10445000FEE7000080F5FF1FD4F5FF1F10B58A6846
:10446000002A02DCFDF7CAFA10BD521E8A604A68B3
:10447000C0B2531C4B60107010BD00000048704764
:10448000846E000010B50022825E521C09D0002903
:104490000CD0012904D181680A68406802430A608F
:1044A00010BD3322044905A000F058FA81680A685B
:1044B00040688243F3E70000087400006F626A2DD1
:1044C0003E70696E20213D202850696E4E616D65F9
:1044D000294E430070B5054601800C46481C14D097
:1044E0000121204600F07EFD6006C10E01208840BB
:1044F0006860200B054980014018011DE960091D15
:104500002961083114306961A86070BD00F00FF8AE
:1045100070B5022605460C46FFF7DCFF611C07D08C
:1045200000212846FFF7AEFF3146284600F06AF822
:1045300070BD000070B50D4604460026FFF7CAFFA7
:104540006D1C0DD0A05F401C0BD021696068086015
:1045500001212046FFF796FF3146204600F052F831
:1045600070BD24220149024800F0F8F9B845000066
:10457000EC450000F8B504460E4600271546FFF747
:10458000A9FF761C16D0E05F401C04D06068002DA7
:1045900006D0E16805E0242207A114A000F0DEF9AE
:1045A0002169086001212046FFF76CFF394620464B
:1045B00000F028F8F8BD0000746172676574732F0D
:1045C0005441524745545F467265657363616C653B
:1045D0002F5441524745545F4B4C58582F677069D0
:1045E0006F5F6F626A6563742E6800006F626A2D88
:1045F0003E70696E20213D202850696E4E616D65C8
:10460000294E430010B502460020105E00F01AFD4E
:1046100010BD0000EFF31080C007C01772B6044948
:104620004A78401C002A02D1087001204870704767
:1046300088F1FF1F10B5EFF31080C007C017401CB2
:1046400004D03622054906A000F088F90B48002165
:1046500041700078002800D062B610BD9877000045
:10466000216172655F696E74657272757074735FD3
:10467000656E61626C6564282900000088F1FF1F87
:10468000F0B50446406887B02030017E002972D121
:10469000807E00286FD12068006880472068C0694C
:1046A000804705680246002D09D0002005901F2094
:1046B000012739468140A94206D1059008E02D2204
:1046C0002E492FA000F04AF9401E0006000EF0D13E
:1046D00050680190001F1D2804D33B22274928A0C1
:1046E00000F03CF907228240104626490492FFF769
:1046F00042FB0026731E6A1E7341801859412A46E8
:104700003346FBF705FF039102906068066060681E
:1047100046602068406880476168086262680020DF
:104720009062D06260688560616805982031C876C3
:1047300001200021019AFBF74FFE6168401EC8600E
:104740006068049A0261626803990298D16190617D
:1047500062680020106350636068203046766068AD
:1047600020308676606820300776204601F034FFDE
:10477000204601F089F907B0F0BD00001C7600006A
:104780003000000040420F0070B5164801688022DA
:1047900011430160144900224D6840230124002D7B
:1047A0000BD0124E0260866002681A4302600268F3
:1047B000224302606D1E4D6070BD4D88002D09D0F2
:1047C0000260856005681D4305600368234303603C
:1047D0004A8070BD016849084900016002F084F810
:1047E00070BD00000000044068F1FF1FFFFF0000E3
:1047F0008AB0FEF7E9FD33480490334905A802F07A
:1048000015F904463148FCF71BFC0646E0680F46E4
:104810006D46002803D04268214628469047E0684C
:104820000390294632463B460498FFF7C6F868468F
:1048300002F00CF9002505A802F008F9214824A18E
:10484000A0300646FFF742F81E48254C3838606015
:10485000A0600A30E060206122A13046FFF736F800
:1048600025A0FEF7E1FA2BA0FEF7DEFA2DA0FEF759
:10487000DBFA2DA0FEF7D8FA2AA0FEF7D5FA01F050
:1048800081FC334F334E01F0A5F9FFF7B3FC00F084
:10489000FFF90220FEF7C8FC01465820FEF7A8FBEE
:1048A00020603888C1042C48C90C814202D9FEF727
:1048B0001DFD3D8030780028E5D0FEF727FD3570DE
:1048C000E1E70000F8F1FF1F556400000000C84256
:1048D00048656C6C6F20576F726C64210A00000091
:1048E000C8F0FF1F0D0A48656C6C6F20576F726C23
:1048F00064210A0A0D0000000D0A53797374656D76
:104900002052657365740D0A436F64652076657285
:104910002E200000322E3020323031362F30392F09
:10492000323900000D0A0000436F707972696768C0
:10493000742028632920556E6976657273697479CD
:10494000206F6620436F6C6F7261646F000000001F
:10495000EEF0FF1FE9F0FF1FFF0F000082B01446CA
:104960000D460646FFF7F8FC2B460022314602486A
:10497000009400F073F800004401FF8086B0FFF758
:10498000EBFC20496846FFF7D5FD1F4E1F4D002464
:1049900069460020085E401C2ED0039901980860EB
:1049A000304601F0E3FF69460020085E401C23D03A
:1049B000049901980860304601F0D8FF641C042C6B
:1049C000E6DB002469460020085E401C14D00399F1
:1049D00001980860284601F0C9FF69460020085E7A
:1049E000401C09D0049901980860284601F0BEFFD8
:1049F000641C042CE6DBCAE7242205A111A0FFF702
:104A0000ADFF000048100000F0490200801A0600C7
:104A1000746172676574732F5441524745545F4601
:104A20007265657363616C652F5441524745545FED
:104A30004B4C58582F6770696F5F6F626A6563747B
:104A40002E6800006F626A2D3E70696E20213D2045
:104A50002850696E4E616D65294E4300FFB58DB0DB
:104A6000044615462348169EFFF740FC002829D12E
:104A7000159F002C00DB204C34216846FCF79CF885
:104A8000019702950094FFF767FC1A4C6068401C80
:104A90006060012804D1342269461848FBF706FCFF
:104AA000342269461648FBF701FCA168002901D0B1
:104AB00013488847FFF77EFC33461148109A0E9939
:104AC00000F0F6FE0F48FFF711FC002805D0FFF7B5
:104AD00043FCBFF34F8F20BFFDE7FFF77DFC0028AD
:104AE00006D1FFF7E3FB002802D00120FFF77AFC94
:104AF000FFF744FF78F1FF1F0101FF80B0F4FF1FB3
:104B0000E4F4FF1F79F1FF1F0FB410B5A2B025AB7D
:104B100084216846249AFBF77DFD0446842804D34B
:104B20001FA80C490330FFF73EF9002C0CDD6C4642
:104B3000FFF712FC2046FBF7FFFF0246214602204A
:104B400001F023FFFFF736FC22B010BC08BC04B014
:104B500018470000506D000010B50446FFF7FCFB3D
:104B60002046FBF7E9FF02462146022001F00DFF37
:104B7000FFF720FC10BD0000044682B016A0FFF72E
:104B8000C3FF202C19D0302C1CD0402C1FD01DA0CE
:104B9000FFF7BAFF1E4C1FA0FFF7B6FF00F0FEFDA7
:104BA0001FA0FFF7B1FF00200090254800230068F8
:104BB00024A1C26B2046FFF751FF26A0FFF7A4FFF8
:104BC000284CE8E728A0FFF79FFF2A4CE3E72AA03C
:104BD000FFF79AFF2B4CDEE70A2B2B204D62656412
:104BE0004F53204661756C742048616E646C657229
:104BF000202B2B0A0A4661756C74547970653A2033
:104C000000000000486172644661756C7400000029
:104C10003D01FF800A0A436F6E746578743A0000A4
:104C20000A0A2D2D204D6265644F53204661756C34
:104C3000742048616E646C6572202D2D0A0A000094
:104C4000586D00004661756C7420657863657074FA
:104C5000696F6E004D656D4D616E6167654661758A
:104C60006C7400003E01FF804275734661756C7480
:104C7000000000003F01FF80557361676546617564
:104C80006C7400004001FF8010B500F097FF10BD6C
:104C9000F0B5A9B08022794904A8FBF707FB784852
:104CA000784C017800290FD02046774D774E784F09
:104CB000007801290ED0022939D0032907D075A028
:104CC000FEF766F929B0F0BD75A0FEF761F9002086
:104CD0002070F7E70128F5D172A0FEF7A5F8286843
:104CE000FCF7D4F802460B4671A124A8FBF7B6FCEA
:104CF00024A8FEF799F87149306801F071FFFCF7BC
:104D0000C5F802460B466EA124A8FBF7A7FC24A811
:104D1000FEF78AF83868FCF7B9F802460B466BA133
:104D200024A8FBF79BFC24A8FEF77EF8CFE7012818
:104D3000C8D169A0FEF778F869A0FEF775F8286871
:104D4000FCF7A4F802460B4667A124A8FBF786FCF3
:104D500024A8FEF769F865A0FEF766F857493068A1
:104D600001F03EFFFCF792F802460B465EA124A834
:104D7000FBF774FC24A8FEF757F85EA0FEF754F882
:104D80003868FCF783F802460B465CA124A8FBF7C1
:104D900065FC24A8FEF748F85AA0FEF745F8002461
:104DA00004AEE700B819406880470546F059FEF7A1
:104DB0003BF8280EFEF722F82802000EFEF71EF838
:104DC0002804000EFEF71AF8E8B2FEF717F84DA017
:104DD000FEF72AF8641CE4B2102CE2D34AA0FEF7D6
:104DE00023F80024102726464BA0FEF71DF8E0B25A
:104DF000FEF704F84AA0FEF717F8A0003558280E71
:104E0000FDF7FCFF2802000EFDF7F8FF2804000E56
:104E1000FDF7F4FFE8B2FDF7F1FF641CBC42E3D3F9
:104E200038A0FEF701F841A0FDF7FEFF6846C04636
:104E30000646002438A0FDF7F7FF2046FDF7DEFF09
:104E400037A0FDF7F1FF3568280EFDF7D7FF2802E0
:104E5000000EFDF7D3FF2804000EFDF7CFFFE8B2E8
:104E6000FDF7CCFF641CE4B2361F0F2CE2D325A063
:104E7000FDF7DAFF03490020087023E7D06C00003B
:104E8000C0F0FF1FEBF0FF1FC8F0FF1F04F1FF1F72
:104E9000C4F0FF1F4D6F6465204572726F72000091
:104EA0000D0A20000D0A4E4F524D414C20000000CB
:104EB00020466C6F773A2025660000003313894343
:104EC0002054656D703A20256643000020467265C7
:104ED000713A2025660D0A000D0A444542554700E7
:104EE00020466C6F773A2000256600002054656DDF
:104EF000703A200020467265713A200025660D0A3E
:104F0000000000000D0A00004D656D6F7279206C85
:104F100061796F75740D0A000D0A30780000000089
:104F20003A20202020202030780000005374616354
:104F30006B0D0A000FB4F0B587B00646FEF72CF9EA
:104F4000040032D40025314604A80195FEF7DCFEAA
:104F500004A8FEF7C7FE13261F4F00282AD004A876
:104F6000FEF7C5FE002804A803D0FEF7ABFE0190B3
:104F700029E0FEF797FE00281CD0064604A800682A
:104F8000C0460246306801A980680D9B84463046C1
:104F90006646B047002815D00646FBF719FA71425D
:104FA0000160A0003D500020C04307B0F0BC08BC29
:104FB00004B01847FBF70CFA0660A0003D50002033
:104FC000C043F2E70198A100785004480555044811
:104FD00005552046E9E7000014F1FF1F30F4FF1FDC
:104FE00040F4FF1F70B5421C17D00E4B020B400659
:104FF0009C6BC00E154609350126AE4034439C63B8
:10500000120380001018084A8018026807231B0248
:105010009A4309020A43026070BD1422034904A0A6
:10502000FFF79CFC008004400090044000750000E5
:1050300070696E20213D202850696E4E616D652992
:105040004E43000010B5421C07D0064A8018026883
:10505000920892000A43026010BD2122024903A077
:10506000FFF77CFC009004400075000070696E2022
:10507000213D202850696E4E616D65294E43000028
:10508000884202D0421C01D10846704708B5491C2D
:1050900007D000210B460246009102A10648FFF707
:1050A000DDFC08BD70696E6D6170206D69732D6DDA
:1050B00061746368000000003001018008B50022BF
:1050C000D243431C0AD00023CB5E5B1C0DD00023CF
:1050D000CB5E834204D14A68501C06D0104608BDFE
:1050E0000C23CB5E0C315B1CF1D1002003460090F9
:1050F00001A10948FFF7B2FC70696E6D6170206E06
:105100006F7420666F756E6420666F7220706572B2
:105110006970686572616C003001018038B50446C1
:10512000401C0FD00020085E401C12D00020085EFA
:10513000A04208D189682046FFF754FF002120468D
:10514000FFF780FF38BD0C20085E0C31401C0028A2
:10515000ECD1002003460090224602A10648FFF74A
:105160007DFC0000636F756C64206E6F7420706945
:105170006E6F75740000000030010180F0B50D46BF
:1051800084468BB00020029001216046C9057F262D
:10519000431A0122F60569005206770089182C4649
:1051A000BB427DD2520191427AD3F8490122411883
:1051B0005203914275D951014118C90C0C070905D8
:1051C0000A0E1146F24BD205D218801A00900298AE
:1051D0007F390818240F06902046FBF77AFF032139
:1051E000C943FBF781FF7F21C90501F04FFC014650
:1051F0000190009801F0F4FC02900199009801F0F0
:1052000045FC0127FF020890C019000B000301466E
:105210000390019801F0E4FC009901F037FC049040
:105220007F20C0050899FBF75BFE014601900298BC
:1052300001F072FCC019000B00030090049901F00A
:105240006BFC04900399009801F066FC029901F050
:10525000BBFC049901F0C4FC019901F05DFC01461E
:105260000290009801F012FC0146049001F054FCF9
:10527000C849019001F050FCC74901F007FC0199B1
:1052800001F04AFC039000210098FBF72DFF0190EC
:105290000399049801F040FC00900021029801E07D
:1052A00028E12AE2FBF720FF009901F0EFFB01461D
:1052B0000090019801F0EAFBC019000B00030146C1
:1052C0000390019801F08CFC009901F0DFFB009045
:1052D000B249039801F020FC0290B149009801F016
:1052E0001BFC0090AF49039801F016FC009901F0F7
:1052F000CDFB01460090029801F0C8FBC019000BDD
:10530000000301460190029801F06AFC009901F047
:10531000BDFBA5490890E00079440A58401809925D
:10532000446806980001FBF7D4FE049021460898D3
:1053300001F0ACFB019901F0A9FB099901F0A6FB72
:10534000049901F0A3FBC019070B3F0338460499E9
:1053500001F046FC099901F043FC019901F040FC81
:10536000214601F03DFC089901F02EFC0446012085
:10537000C0022818000B000301460390284601F0E4
:105380002FFC0021029008460020C0460C21084056
:1053900005903846039901F0BFFB410005468B207C
:1053A0004908C00581420ADD4A00FF2109068A42F8
:1053B00005D8E90FC9070843044600201FE00299F9
:1053C000039801F063FB214601F0A6FB0446384632
:1053D000029901F0A1FB214601F058FB0746014666
:1053E000284601F053FB0121C9024018040B240395
:1053F0002146284601F0F4FB394601F047FB0190B5
:105400000C2005990020C0462046019901F03EFB82
:10541000FCF750FD07460511FBF75BFE214601F046
:10542000D3FB019901F032FB0446604901F074FBA3
:105430005F4901F02BFB214601F06EFB5D4901F055
:1054400025FB214601F068FB01463807840E5A48C7
:105450007844005901F060FB58497944095901F03A
:1054600015FB57497944095901F010FB29467D3154
:10547000FC2907D22946FBF737FE314601F04CFBE9
:105480000BB0F0BD2946FF22BF318032914217D2C6
:105490002946FBF729FE314601F03EFB0446410058
:1054A000FF200006814219D060000BD02046FEF795
:1054B0009BFC042801D1FEF736FD20460BB0F0BD61
:1054C000002D0BDA0220FBF783FEFEF72CFD4000D7
:1054D0004008F10FC90708430BB0F0BD0220FBF7ED
:1054E00077FEFEF719FD40004008F10FC907084399
:1054F0000BB0F0BD01229207914239D3FF21C905BB
:105500007F224118120691421AD2400061004008E1
:10551000090E7F2909DB972900DB46E69622521AFD
:10552000012191404A1E224206D00120FBF750FE85
:10553000FEF7ECFC0BB0F0BD2142EED0214E34E67C
:10554000410004D0012241001206914207D30121FB
:10555000C9057F22411A12069142DED346E01B2183
:10556000FBF7C2FD1A21C94302910028CDDB1CE6DE
:1055700001225206914232D3690025D0EA0F3F2121
:10558000D207C90554182546B8E70000001080C0AE
:10559000000080C07EE24C3EABAAAA3E00B038427A
:1055A0003BAA3842D49AB8BBC41B0000FC596337ED
:1055B000C9FF753A1872313D8C1B0000421B000078
:1055C000F81A0000000080BF410097D0FF21420080
:1055D00009068A4292D27F20C0050BB0F0BD01229D
:1055E0001206914202D25110651A87E742006449BF
:1055F0005208644E5318B34210D363005B08591825
:10560000B1420BD37F21C905884264D0660062D0C5
:10561000FF26F605B24201D8B34204D92946FEF767
:1056200071FC0BB0F0BDB04202D1002C49DB61E04F
:105630006200120E7F2A08DB972A0CDA96239B1A47
:1056400001229A40531E234201D0002204E022424C
:1056500001D0012200E002224B4B98420BD1002CDA
:1056600004DB012A46D118460BB0F0BD012A28D12F
:10567000D0070BB0F0BD00280ED00125ED07A842E1
:1056800025D1B4421DD09C4208D0002C15DA002A46
:1056900004D0012A09D001E0002C12DA0220FBF725
:1056A00097FDFEF728FC0BB0F0BD0220FBF790FD44
:1056B000FEF721FC68400BB0F0BD002A01D0012AA2
:1056C00002D000200BB0F0BD28460BB0F0BD812207
:1056D000D205D04202D108460BB0F0BD7F21400078
:1056E0000906884201D3012100E00021E017401C97
:1056F0008142E6D130460BB0F0BD7F21C90501F0F3
:105700006FFA01210446C943FBF7EEFC1F4901F083
:105710005BFA214601F000FA3F21090601F054FA34
:1057200007462146084601F0F7F90121C90748401C
:10573000394601F0F1F907461549204601F0ECF928
:1057400002901449384601F0E7F90746124920460D
:1057500001F0E2F9394601F099F904460146029850
:1057600001F094F90121C9024018070B3F033946A3
:10577000029801F035FA214601F088F9F6E50000BB
:10578000FFFF7F80FFFF3F00000080FFABAAAA3E23
:1057900000B0B8413BAAB841D49A38BB30B5224DCD
:1057A00083B000242968A0000A5821461FA0FFF7F3
:1057B000ABF9641C0D2CF5DB2A6829682868926C0B
:1057C000496C006C0292019100902868C36B826B57
:1057D000416B1A48FFF798F91948016819A0FFF7BB
:1057E00093F92868C06C00070CD51AA0FFF78CF954
:1057F0002868006DC00701D01AA000E01DA0FFF7C7
:1058000083F905E020A0FFF77FF91AA0FFF77CF9E4
:105810002868C06C400701D51FA000E021A0FFF759
:1058200073F903B030BD0000586D00000A52252DF9
:1058300034643A20253038580000000068740000B5
:1058400000ED00E00A43505549443A2025303858CD
:10585000000000000A4D6F6465203A2054687265AC
:10586000616400000A50726976203A2055736572AF
:10587000000000000A50726976203A205072697662
:10588000696C6567656400000A4D6F6465203A20A5
:1058900048616E646C6572000A537461636B3A20F0
:1058A000505350000A537461636B3A204D535000BB
:1058B000FFB50F4601680446480FC04381B0164645
:1058C000800716D08DB20802030E2A462D48FFF736
:1058D0001BF9FF213631681A8D4221D00BDCFF3DC8
:1058E000323D11D0012D12D0022D13D0032D28D11D
:1058F00013E04D42E7E7012818D0022813D003280F
:1059000017D00F281DD119E01FA0A16813E024A013
:10591000A16810E026A0A1680DE029A0A1680AE016
:105920002CA0A16807E030A0A16804E033A0A16822
:1059300001E036A0A168FFF7E7F802E039A0FFF721
:10594000E3F83846FFF708F93BA06168FFF7DCF899
:10595000002E09D03CA0FFF7FFF83046FFF7FCF817
:105960003BA00499FFF7D0F83AA0A168FFF7CCF864
:105970003D482168FFF7C8F83CA0FFF7C5F805B01F
:10598000F0BD0000F87600004B65726E656C204536
:1059900072726F723A20307825582C200000000077
:1059A0005468726561643A20307825582C200000D4
:1059B0004D757465783A20307825582C2000000009
:1059C00053656D6170686F72653A20307825582C88
:1059D000200000004D656D6F7279506F6F6C3A203A
:1059E000307825582C2000004576656E74466C6131
:1059F00067733A20307825582C20000054696D6573
:105A0000723A20307825582C200000004D657373C1
:105A100061676551756575653A20307825582C2089
:105A200000000000417373657274696F6E206661D7
:105A3000696C65643A2000000A4C6F636174696F99
:105A40006E3A2030782558000A46696C653A200085
:105A50002B2564000A4572726F722056616C756561
:105A60003A203078255800004C7700000A2D2D2070
:105A70004D6265644F53204572726F7220496E66A5
:105A80006F202D2D0A000000F8B544680546204619
:105A90002030817E002965D1407E002862D12846D1
:105AA00000F09AFD6A685168002964D0566B136B48
:105AB00008684968B4461F1A8E4158D2C71A009226
:105AC00066461069B1419369D269DB1B06468A417B
:105AD0002BD300982D4A8068904203D138468642E5
