:020000040000FA
:100000000030002099030000BB2D0000C902000051
:1000100000000000000000000000000000000000E0
:10002000000000000000000000000000A503000028
:100030000000000000000000A7030000A90300006A
:10004000AB030000AB030000AB030000AB030000F8
:10005000AB030000AB030000AB030000AB030000E8
:10006000AB030000AB030000AB030000AB030000D8
:10007000AB030000AB030000AB030000AB030000C8
:10008000AB030000AB030000AB030000AB030000B8
:10009000AB030000AB030000AB030000AB030000A8
:1000A000AB030000AB030000AB030000AB03000098
:1000B000AB030000AB030000AB030000AB03000088
:1000C00000F002F800F0B5F80CA030C80838241889
:1000D0002D18A246671EAB4654465D46AC4201D180
:1000E00000F0A7F87E460F3E0FCCB64601263342FD
:1000F00000D0FB1AA246AB4633431847D87800001D
:10010000F87800000023002400250026103A01D3CF
:1001100078C1FBD8520700D330C100D50B607047BF
:1001200010B56E2902D101F0FBF810BD702902D183
:1001300001F05DFC10BD662902D106F02FFE10BD56
:10014000652902D106F02AFE10BD672902D106F00A
:1001500025FE10BD612902D106F028FE10BD0368FE
:100160001B0A01D380231943692902D101F0A2F8A7
:1001700010BD642902D101F09DF810BD752902D18E
:1001800001F098F810BD6F2902D101F0DBFB10BD22
:10019000782902D101F018FC10BDE92902D101F043
:1001A00077FB10BDE42902D101F072FB10BDF529E7
:1001B00002D101F06DFB10BDEF2902D101F0CEFBA1
:1001C00010BDF82902D101F00DFC10BD0368DB0958
:1001D00001D380231943632902D102F072F910BDC3
:1001E000732902D102F075F910BDE32902D102F0A2
:1001F0007FF910BDF32902D102F082F910BD002071
:1002000010BD1FB50098019900F0B3FF01F0EAFEA0
:1002100004000020002106F061FC401C606000200A
:10022000002106F045FCE06001F0AAFD00F0F8FDB9
:100230001FBD03F059FF114603B403F069FF03BC6F
:10024000FFF7DFFF02F0ADFD04F060F97047080032
:100250007047100070471800704720007047280052
:100260007047300070473800704740467047484636
:10027000704750467047584670476046704768461A
:100280007047704670477846704768467047000070
:1002900070B505460C46164602E00FCC0FC5103E61
:1002A000102EFAD2082E02D303CC03C5083E042E2A
:1002B00007D301CC01C5361F03E021782970641CE7
:1002C0006D1C761EF9D270BD2C4B05E02C4B03E063
:1002D0002C4B01E02C4BC046EFF308802B497246B3
:1002E0000A4201D0EFF309809C46294B1968026845
:1002F0000A60043142680A60043182680A6004318D
:10030000C2680A600431F0C147460F6004314F46AD
:100310000F60043157460F6004315F460F600431AF
:1003200002690A60083142690A60043182690A6020
:100330000431C2690A60043103462033154E32424B
:1003400000D0043375460D4E354200D148330C467B
:10035000103C2360EFF309820A600431EFF3088256
:100360000A60043172460A600431EFF314820A60B5
:100370006046074904F084FCFEE70000100000001E
:1003800020000000300000004000000004000000D9
:10039000446E000000020000044880470448004703
:1003A000FEE7FEE7FEE7FEE7FEE7FEE7CD2D0000F5
:1003B000C10000000048704788F5FF1F10B5202AD3
:1003C00004DB0146203A9140002010BD91402023DB
:1003D0009C1A0346E3401943904010BD10B5202AF3
:1003E00004DB0846203AD040002110BD0B462024F3
:1003F000D340D040A21A91400843194610BD70471F
:10040000FFFFFFFFFFFFFFFFFFFFFFFFFEFFFFFFFD
:1004100070B5064600F090FE056830460B30C40803
:10042000E400B44201D8002070BD68682A46002864
:1004300018D00168A14211D30B46214608318B42E6
:1004400008D3436801194B6003681B1B0B605160A4
:10045000046001E041685160001D70BD02464068C3
:100460000028E6D12146284600F06EFE0028DCD1A7
:1004700070BD70B50446051F00F05EFE0068002CDC
:100480001AD0446801E020466468002C01D0AC42D8
:10049000F9D301680A18AA4204D12A6805468918C6
:1004A000016000E0456028684119A14205D16168FA
:1004B000696021684018286070BD6C6070BD43435E
:1004C000514330B55C18010C130C0D4692B25D43DC
:1004D00080B251432C19054655430A0C09044D19A5
:1004E00062415843010C00044019514130BDFEB532
:1004F000054610460C46184373D0AE468C46002085
:10050000AD1A01469C4167D36646002701243D464B
:10051000B61A9D4102D313463A46212465467646D3
:100520002F04360C3E432D0CB61A9D4104D3150CF6
:100530001B042B4312041034654676462F06360AF8
:100540003E432D0AB61A9D4104D3150E1B022B43C0
:1005500012020834654676462F0736093E432D09B8
:10056000B61A9D4104D3150F1B012B431201241D04
:1005700065467646AF07B6083E43AD08B61A9D41BC
:1005800004D3950F9B002B439200A41C654676462E
:10059000EF0776083E436D08B61A9D411AD39218AC
:1005A0005B41641C16E00018764665464941B71A5F
:1005B0009D410191009009D36046B11A98418E4641
:1005C0008446009801990025401C6941DD075208C6
:1005D0002A435B08641EE6D57246634603B0F0BD4D
:1005E000FFE700200146C046C0462A462346F5E7FD
:1005F0007CB51D4616460C00009001D00019401E27
:10060000084B7B442A4669460190304601F0ADF81C
:10061000002C054603D06946002001F0B9F82846B1
:100620007CBD00009511000010B50B460146184630
:1006300001F0BCF810BD00000FB41CB5084B06AAB1
:100640007B4469460090059801F08FF8044600202D
:10065000694601F09DF820461CBC08BC04B0184750
:100660004D110000F3B50446002081B02062204601
:10067000E1688847002872D0252802D06268A16806
:10068000ABE0594F00267F442046E1688847202888
:10069000054608DB312D06D278192038007800286D
:1006A00001D00643F0E7B00701D5042086430020BF
:1006B000E0610746A0612A2D0AD0284603F018FD04
:1006C000002827D0B8000019303D0090856119E05E
:1006D0000298BA00121902C8916102902046E1689E
:1006E0008847012F054617D1E06900281FDA20202E
:1006F00086431CE000980A2180694843009940190C
:10070000303888612046E1688847054603F0F0FCF0
:100710000028EFD1012F0AD02E2D08D12046E16804
:1007200088470546202006437F1C022FC3DBA069B3
:10073000002803DA4042A06101200643F00701D0FF
:10074000102086436C2D0BD0682D09D04C2D3CD049
:100750006A2D38D0742D38D07A2D36D016E040E08E
:10076000E1682F4620468847B842054609D16C2FDC
:1007700029D001208002E1680643204688470546CB
:1007800004E06C2F1DD0FF2001300643002D28D03F
:1007900028464138192803D80120C00206432035D5
:1007A000204626602946029A1646FFF7B9FC002823
:1007B00010D001280BD0F61DF008C00008300290C0
:1007C00055E74020E1E78020D5E70020D3E7361D3C
:1007D00002964CE762682846A1689047206A401C50
:1007E00044E7206AFEBD0000EE68000070B50446D4
:1007F000C068810713D0800601D5A56A04E0A1690D
:10080000606840182169451A204601F071FA0022FB
:1008100006462946204600F01DF8304670BD0020EF
:1008200070BD70B5002802D0FFF7E0FF70BD002555
:10083000074C6E1E08E02046FFF7D8FF002800D0C6
:100840003546206D44086400002CF4D1284670BD64
:100850008CF5FF1FF8B5044616460D464769007B28
:10086000800730D0384603F09BFC00282BD132465D
:100870001026002A25D0012A02D0022A23D104E022
:10088000204601F0BDF945191BE0384603F070FC25
:10089000E16831430028E16004DA204601F0F8F90C
:1008A0000120F8BDC9030BD56268E16A914200D806
:1008B0001146A26989182269891A814200DD084619
:1008C0002D18002D01DA0220F8BDE16A6068E268A7
:1008D000814206D29103E06203D5012149048A4393
:1008E0003243A669AE4211DCE16A814201D90B466E
:1008F00000E003469F192369FF1AAF4206DD8142DB
:1009000001D90F4600E007469F4206D1202002434E
:100910000020A060A56220600DE0AD1BE669AE1B63
:100920008142A66000D90846C01A281A20605819CA
:10093000606020208243034802400020E26040348F
:100940002072F8BDBFCFD7FFF7B516460C4610464C
:1009500000F07CF82078611C61280AD0722802D04F
:10096000772839D102E00125002404E0022504247F
:1009700001E02D4D08240222032301270878491C99
:100980002B2806D0622807D02039C87F742807D0CA
:1009900008E01D431443F1E7042005433C43EDE721
:1009A000102004430098214603F012FC411C13D090
:1009B0000021316171600121F5604902F1617061CE
:1009C000200704D5304602220021FFF743FF306D97
:1009D000384330653046FEBD0020FEBDF8B50D46FB
:1009E0000646124C206DC10704D0410804D04408CB
:1009F0006400F7E7224610E05420FFF709FD0700E6
:100A000010D07908206D4900012211430843542178
:100A10002065384600F0BEF83A4629463046FFF7D2
:100A200093FFF8BD0020F8BD028000008CF5FF1F89
:100A300010B5002902D0FF22013201E0012292020A
:100A400001235B0201F0FEF810BD0000FEB5044674
:100A5000466900690F4F0190E56800200090A807E3
:100A600007D0204601F044F9304603F061FB00282E
:100A700001DA3846FEBD280502D50198FFF7F9FCDA
:100A80004C21204600F086F8206D4008400020658B
:100A90000098FEBDFFFFFFFF30B503461D78002D17
:100AA00008D00A461478521C002C03D0AC42F9D16D
:100AB0005B1CF3E7181A30BD034610B50B439B07C8
:100AC0000FD1042A0DD308C810C9121FA342F8D0B1
:100AD00018BA21BA884201D9012010BD0020C043B4
:100AE00010BD002A03D0D30703D0521C07E000201A
:100AF00010BD03780C78401C491C1B1B07D10378E0
:100B00000C78401C491C1B1B01D1921EF1D11846C8
:100B100010BD000030B5441C03E00178401C0029E2
:100B20000DD08107F9D10B4BDD0104C8D11A9143D7
:100B30002940FAD0001B0A0603D0C01E30BD001B9E
:100B400030BD0A0401D0801E30BD0902FCD0401E19
:100B500030BD00000101010101E004C0091F0429AA
:100B6000FBD28B0701D50280801CC90700D0027020
:100B7000704700290BD0C30702D00270401C491EE9
:100B8000022904D3830702D50280801C891EE3E773
:100B90000022EEE70022DFE782078B079A4237D177
:100BA00070B5920F0AD0032402780B78401C491CC0
:100BB000002A2BD09A4229D12042F5D11D4EF401B2
:100BC00004C808C9951B9543254010D19A4207D106
:100BD00004C808C9951B9543254008D19A42EFD017
:100BE00012BA1BBA01209A4200D2404270BD12BA1A
:100BF0001BBA2DBA18241000E0401900E140401A39
:100C000005D12E00E64002D1083CF4D1D01A70BDC7
:100C100002780B78401C491C002A09D09A4207D15F
:100C200002780B78401C491C002A01D09A42EFD070
:100C3000D01A704701010101002203098B4273D3CE
:100C4000030A8B4258D3030B8B423CD3030C8B42D9
:100C500021D312E003460B437FD4002243088B428A
:100C600074D303098B425FD3030A8B4244D3030B33
:100C70008B4228D3030C8B420DD3FF22090212BAF8
:100C8000030C8B4202D31212090265D0030B8B4274
:100C900019D300E0090AC30B8B4201D3CB03C01A5E
:100CA0005241830B8B4201D38B03C01A5241430B39
:100CB0008B4201D34B03C01A5241030B8B4201D329
:100CC0000B03C01A5241C30A8B4201D3CB02C01A94
:100CD0005241830A8B4201D38B02C01A5241430A0C
:100CE0008B4201D34B02C01A5241030A8B4201D3FB
:100CF0000B02C01A5241CDD2C3098B4201D3CB01A2
:100D0000C01A524183098B4201D38B01C01A524150
:100D100043098B4201D34B01C01A524103098B4254
:100D200001D30B01C01A5241C3088B4201D3CB003F
:100D3000C01A524183088B4201D38B00C01A524122
:100D400043088B4201D34B00C01A5241411A00D2D2
:100D500001465241104670475DE0CA0F00D049423B
:100D6000031000D34042534000229C4603098B42AB
:100D70002DD3030A8B4212D3FC22890112BA030A33
:100D80008B420CD3890192118B4208D389019211B5
:100D90008B4204D389013AD0921100E08909C3093A
:100DA0008B4201D3CB01C01A524183098B4201D33C
:100DB0008B01C01A524143098B4201D34B01C01A27
:100DC000524103098B4201D30B01C01A5241C3089F
:100DD0008B4201D3CB00C01A524183088B4201D30E
:100DE0008B00C01A5241D9D243088B4201D34B0029
:100DF000C01A5241411A00D20146634652415B106B
:100E0000104601D34042002B00D54942704763464B
:100E10005B1000D3404201B50020C046C04602BD71
:100E200070B5064C7C44064D7D4403E020680019F3
:100E30008047241DAC42F9D170BD0000F86C000061
:100E4000F86C0000F8B517460E460546002B07D093
:100E5000104658434419E41B2046B047A542FAD136
:100E600028460838F8BD00000121C90501234118B2
:100E700042001B06D3185B0E0AD0C1100722D2060F
:100E8000891840075242D14201D552008918704753
:100E9000090208D50146002A03D0C10FC907002066
:100EA000704710467047420202D000200249704746
:100EB000072109050143F4E70000F87FF0B5FF259D
:100EC0002D04C609C209FF2704462E400137CB096D
:100ED0003E4348402A402B400746002A6BD0002B57
:100EE00069D0AA4267D0AB4265D0002800DA32460A
:100EF0000125ED0529432C4309022002090AD21AD3
:100F00004B0C7F24E31A434C000A7C44E35C7D24B1
:100F10002404121914145B00A218884201D3521C35
:100F200000E0400049420C465C4324115C43DB0175
:100F30006415E318040A5C43C502200D0C464443C3
:100F40006419250A5D432303EC0C0D466543000339
:100F50000019EB184C42A34201D35B18401CD40586
:100F60002018002B07D05B00C91804D3401C0029AF
:100F700001D1400840003F2189048A4209D3002A58
:100F800008DC1106090F04D0032149074018C00FDF
:100F9000C007F0BD01224100120689187F225206C7
:100FA0009142F6D205214907C84201D59010F0BD03
:100FB000FF20C005F0BD002F00DA32461648AA42D5
:100FC00007D2AB4205D21902090E17D0F80FC0079D
:100FD000F0BDFF2563002D06AB42F9D84900A942B8
:100FE000F6D8AB4201D1A942F2D0A94201D10021E9
:100FF00001E061004908D0050843F0BD1102090E67
:10100000FBD0FF200243D005F0BD0A460146104642
:1010100054E700007B6000000000C07F0102C215A1
:1010200004D00123DB071943002A0ADB9E239A1A06
:1010300002D40846D0407047FF2241001206914278
:1010400001D900207047C017C043704710B5020295
:10105000C11504D00123DB071A43002914DBBE238A
:101060005B1A0CD41146D9401C46203C02D41046D1
:10107000E04010BD2020C31A1046984010BDFF224A
:1010800041001206914202D90020014610BDC0174E
:10109000C043C11710BD1F22030C02D10F22000450
:1010A0001CD0030E01D10002083A030F01D1000148
:1010B000121F830F01D18000921E002801DB400027
:1010C000521ED2055118021251181922904004D311
:1010D000491C002801D14908490008467047C10F42
:1010E000C90700D04042012292071143D3E70121F2
:1010F0008907D0E710B5FF22C30D134009D05A402D
:1011000007D0914205DA5C42A14202DDC905081808
:1011100010BDC40FE407002B06D0002A06D000291A
:1011200002DBFF20C0050443204610BD4102FCD075
:10113000004810BD0000C07F0048704788F6FF1FC0
:10114000704770477047704738B504460A4600201C
:10115000694601F06FFD002805D00246204600993F
:1011600000F044FF012038BD10B5012001F024FD3E
:1011700010BDF8B501F052FD054600200C461020C8
:10118000C0460646A819A0420DD93246694600203D
:1011900001F050FD070001D101F00EFD0098A042C2
:1011A00000D00546C419FFF7C7FFF61D07460560C6
:1011B000F008C0004619284600F008F8B44204D0F0
:1011C00031463868A21B00F011FFF8BD0021016014
:1011D0004160806070471020704710B5FFF7EAF853
:1011E000006810BD10B50446FFF7E4F8046010BDB8
:1011F00070B5044685690068C10601D5302600E057
:101200002026C00707D070BD62683046A1689047AD
:10121000206A401C20626D1EF6D570BD70B5044674
:1012200085690078C00707D170BD6268A168202079
:101230009047206A401C20626D1EF6D570BD09687B
:101240004A0501D540B27047C905FCD500B27047C8
:1012500009684A0501D5C0B27047C905FCD580B2FE
:10126000704770B50C460546012A05D028788006DF
:1012700000D5EA69002302E0012305E05B1C9342EC
:1012800002D2E05C0028F9D1A869E618C01AA8616A
:10129000286AC01828622846FFF7AAFF04E06A6897
:1012A0002078A968641C9047B442F8D32846FFF719
:1012B000B5FF70BDF7B5002575291068009914A613
:1012C00011D0FFF7BCFF002802DA404211A608E067
:1012D000009909688A0701D50FA602E0490704D5DD
:1012E0000EA6012501E0FFF7B3FF009F002424377D
:1012F00004E001F07FFC30313955641C0028F8D13E
:101300002B4632462146009800F0C7FEFEBD000085
:10131000000000002D0000002B0000002000000055
:1013200011680268006A530501D5087009E0D30509
:1013300001D5088005E0130602D5C21705C100E0FB
:1013400008600120704700007047FFB50C461E463C
:101350008FB003CA089009914F007D0D00D16D1E1A
:10136000002108460020C0460321099A890508404B
:10137000002A03DA8200801840080840800D012806
:101380000A9002DD0020C0430A90089807430DD060
:10139000F048F149281848430714189800281DD030
:1013A0007542291E1DDD0A9842421BE0189801284B
:1013B00002D00020302104E00020F24305E0215457
:1013C000401CB042FBDB30460022189B0021215418
:1013D0000F998B600A60486013B0F0BDBD1B6D1C97
:1013E000DFE70A9A002900DA69420BA801F08CF8BD
:1013F0000BAB07CB03AB07C30899099801F0F0F8D2
:101400006B4607C30146D5480918002D00910BDD36
:10141000D24903980A9A49424018002303A903902D
:10142000684601F04DFB08E003990A9A002308186A
:1014300003A90390684601F0EDFA6B4607C3000468
:10144000000C03D00020C043410800E01046189A69
:10145000002A03D00022009215461EE0751E05D416
:1014600000F0DEFD303262556D1EF9D501220843D1
:10147000079602D000227F1C04E02078302801D19A
:1014800000227F1E002A069787D01EE0112D07DA62
:1014900000F0C6FD303262556D1C02460A43F5D19C
:1014A000084303D00098002819D00EE00021681EE0
:1014B00005E0235C625C63542254401E491C814257
:1014C000F7DBA81B401E07950690079A1899002085
:1014D000A0540F98079B069A81600CC07CE71126E8
:1014E0000020189059E7D21DF0B50D460446D108EA
:1014F00093B0C90003C90C900D9102F0FFFC0246A5
:101500000D98C00F01D02D2007E02068810701D57C
:101510002B2002E04007C00F4001032A0F9001D0AA
:10152000072A05DB03462946204600F07BFF0EE133
:101530002078800601D5E76900E006272846652D5A
:1015400004D0662814D0672D69D12DE00020112F1A
:10155000009001DB112300E07B1C0CAA03A910A85A
:10156000FFF7F3FE1199002610987D1C0E9142E0C2
:1015700001203B460CAAC0070B900120009003A954
:1015800010A8FFF7E2FE119D12981099002600287E
:101590000E9501D1781C0D18781B02D446427D1C93
:1015A000761EE81B00903AE0012F00DA01270020A8
:1015B000112F009001DD112300E03B460CAA03A986
:1015C00010A8FFF7C2FE11993D46109800260E9113
:1015D000217809070BD40E99A94200DA0D4603A918
:1015E000012D04DD4A19203AD27F302A06D0B842B4
:1015F00001DA011D04DA012100910FE06D1EEFE711
:10160000002802DC86192D1A03E0411CA94200DDE6
:101610000D46801B401C00900120C0070B902078D5
:10162000000705D40098A84202DB0020C0430090C8
:1016300069460020C8720B98012102AF0337C90721
:10164000884225D0022010902B2011900B98002862
:101650000BDA40420B902D20119006E00B9801F020
:10166000C9FA30317F1E0B9039701099481E00293D
:101670001090F3DC0B980028F0D111987F1E387081
:101680002088000501D5452000E065207F1E3870C8
:1016900001A8C01BC01D0B900F98002800D001208E
:1016A00041190098C01709180B980818A169081A61
:1016B000401EA0612078C00602D42046FFF798FDA6
:1016C0000F98002805D06268A1689047206A401CE6
:1016D00020622078C00625D52046FFF789FD21E04D
:1016E000002E07DB0E98B04204DD03A86268805D1F
:1016F000A16802E06268A16830209047206A761CE9
:10170000401C20620098401E002800900AD100F082
:1017100069FCC06862680168405CA1689047206A03
:10172000401C206228466D1E0028D9DC07E0626854
:101730003878A1687F1C9047206A401C20620B9972
:10174000481E00290B90F2DC2046FFF767FD0320BE
:1017500042E6000001FCFFFF104D0000E1DFFFFF4B
:1017600001694A1C02610878704700B58FB0029188
:101770000021059105490193794403911146049094
:101780006846FEF76FFF0FB000BD0000E5FFFFFFEA
:101790000A681070521C0A6070470CC908399A42D6
:1017A00002D2531C0B60107070470000084B70B5DC
:1017B0000D467B44FFF7D9FF0446284600F024F984
:1017C000002802D00020C04370BD204670BD00003C
:1017D000CF2D0000F7B50446154686B02B48784457
:1017E000002703C83E460090019111E007986A4621
:1017F0007100415A02A801F0B3F9411C07D02178C9
:10180000890603D5E269391891420ED83F18761C33
:101810002078800602D5E069B84206DDAE42E5DBFD
:1018200007987100405A0028E0D1A069C01BA06150
:101830002046FFF7DDFC154878445A3803C800906D
:101840000020019116E041006A460798415A02A81B
:1018500001F086F90590401C0AD0002505E0626879
:1018600002A8A168405D90476D1C05988542F6D39B
:101870000498401CB0420490E5DB206AC019206245
:101880002046FFF7CBFC09B0F0BD00002A5900004C
:10189000F7B5D21D0025D20815A6D200F52905CA34
:1018A00011D0002A05DA00214042914111A60A46D2
:1018B00008E0009909688B0701D50FA602E04907E7
:1018C00001D50EA601251146009F0024243704E00F
:1018D00000F0A6FB30323A55641C02460A43F7D1A9
:1018E0002B4632462146009800F0D7FBFEBD000093
:1018F000000000002D0000002B0000002000000070
:1019000070B504460021243408E05507D2086D0F55
:10191000303565545D072A43DB08491C15461D43D5
:10192000F3D10468002310A2250708D5A40601D42A
:10193000002904D0C46901230CA2641EC46100F014
:10194000ACFB70BD10B5044621461068FFF780FC63
:10195000002302462046FFF7D3FF10BDD21DD10859
:10196000C9000CC9CCE700000000000030000000F6
:10197000F8B50F460188090502D5224C7C4402E0E7
:10198000204C7C440E3405460021243508E016071F
:101990001209360FA65D6E541E0732431B09491CFF
:1019A00016461E43F3D1224604780023240705D5AA
:1019B000702F06D0002901D00223113200F06DFBF8
:1019C000F8BD01231032F9E770B504460D462146F3
:1019D0001068FFF73DFC0023024629462046FFF72A
:1019E000C7FF70BDD21DD308DB000CCBC0E730B4FD
:1019F000036820241268234303600823C36130BCBA
:101A00000023B5E794570000C06880210840704764
:101A1000F8B505460C46C8680521C904884301216C
:101A200089050843E060800602D5204600F086F96B
:101A30007149E0680140022903D0204600F028F9EE
:101A4000BCE00521012249030140D20391420FD19C
:101A5000C00306D56168E06A884200D80846606025
:101A600006E02069E0626060606902F081FBA061CD
:101A7000A1680022EEB200290EDAE06883050BD4DB
:101A8000C943A1600921226049030843E0606068FE
:101A9000411C61600670ACE0E06801214903084325
:101AA000E060002020602069002831D1606902F0E8
:101AB00077FB012527462437ED02002816D0A089A0
:101AC0008005800F08D0E069FEF7A2FC00282061A5
:101AD00002D0E068284318E001202761E061E06857
:101AE000032109028843012189020DE0E069FEF724
:101AF0008FFC00282061EFD0E0682843E06081057A
:101B0000890F03D1FF2101310843E0602069606043
:101B1000E2683A4F2569D0051FD56168E06A8842BE
:101B200000D80846411B05D02246284600F0BAF8E6
:101B3000002843D1E068010204D5E5620020656019
:101B4000A06053E0691CE1626160E169491E3843AD
:101B5000A160E06030462E70F8BD100201D53A4019
:101B600009E06068411C61600670E06838430A2E35
:101B7000E06006D00022E16A6068814203D90B462A
:101B800002E00122F7E70346A7895B1B7F0504D427
:101B9000E7699F4201DD002A1ED0814200D801463C
:101BA0000F1A0020E5626560002BA06009DD224667
:101BB0001946284600F076F8002802D00020C043DD
:101BC000F8BD002F08D0A069E5626560C01BA06168
:101BD000E06810210843E060E068000209D5616810
:101BE000A069E562491B40186560A0610120C043FF
:101BF000F8BD3046F8BD0000821000000000010072
:101C000010B50146C268900703D0900607D5886AD0
:101C10000AE0FEF7CFFB01210160881E10BD8B6931
:101C20004868C0180B69C01A40310B7A002B02D0EB
:101C3000497A401A10BD1103FCD50028FADD401E78
:101C400010BD000070B5C468A50713D0650211D49B
:101C5000D51FF93D0AD0FF3D6D1E07D0FF3DFF3D6A
:101C6000022D07D101462431012305E0074E5D1EF8
:101C7000B54201D3012070BD0161C36141600F21F4
:101C800009028C431443C460002070BDFFFFFF00B5
:101C9000C1688022114392039143C1600021816099
:101CA00001607047F7B514460E463348D56857694A
:101CB000054209D03846A16902F0EAFA002811DB92
:101CC0002D48C0430540E5602B4632463846009912
:101CD00002F0FAFA4200A1695208B21A89180028E3
:101CE000A16104D02046FFF7D3FF0020C043FEBD12
:101CF00070B504460569C06A6168884200D8084624
:101D0000E1680522D2049143E160C90314D5A842D9
:101D100009D02246411B2846FFF7C4FF002802D005
:101D20000020C04370BDE56200206560A060E068EF
:101D3000012109048843E060002070BD10B504460D
:101D4000C06820218843E060A16AA06988420ED063
:101D50002046FFF7CDFFE0680321090388431021E7
:101D60000843E060A06AA0612069E0626060034906
:101D7000E0680840E06010BD10000200BFBFFFFF38
:101D800010B543485421FEF705FF42485421FEF7A1
:101D900001FF41485421FEF7FDFE40483C493D4BC0
:101DA000404A01603E4803603B4810605A1C0A6587
:101DB000411C1965012101653C48354A3AA1784426
:101DC000FEF7C2FD002804D1384878440C3800F0F2
:101DD000EDFE38482F4A36A17844FEF7B5FD0028BD
:101DE00004D1344878440C3800F0E0FE32482A4AE6
:101DF0002FA17844FEF7A8FD002804D12E4878448E
:101E00000C3800F0D3FE40232148DC00002122469C
:101E1000FFF718FF002804D0244878445C3800F00D
:101E2000C5FE1C48224640230021FFF70BFF002877
:101E300004D0204878445C3800F0B8FE16482246AA
:101E400010230021FFF7FEFE002804D01A48784432
:101E50005C3800F0ABFE10BD0F4870B5006D440853
:101E60000B486400FEF7F2FD0A48FEF7EFFD0A4852
:101E7000FEF7ECFD09E0206D450820466D00FEF7F9
:101E8000E5FD2046FEF7F5FA2C46002CF3D170BD97
:101E90008CF5FF1FE0F5FF1F34F6FF1F10F2FF1F48
:101EA00014F2FF1F18F2FF1F72000000865000009E
:101EB00077000000735000006150000010B500F082
:101EC00081FE00F06DFE10BD70B5024601020123D7
:101ED000C01520249E26DD07002802D029430028B3
:101EE00013DB361A002E29DD0846F040A21B01D470
:101EF000914000E04908002906D0994000D3401CD9
:101F0000002901D14008400070BD0006000E01D13B
:101F100049004908361A11D40846F04040420028CA
:101F20000CDCA21B01D4914000E049080029EBD051
:101F3000CA0F490000D11843801A70BDFF2150001C
:101F40000906884201D9002070BDD017C0436840FF
:101F500070BD000030B5C30D1906214A090E31D0FD
:101F6000FF292FD000283ADB010250020143012053
:101F70007D33C34000D24908012080071724091A85
:101F80002406490882102343FF252D064C00211A00
:101F900004D4891A02D45400201800E021465208C3
:101FA0005B19F3D51A220446944007D382068A426D
:101FB00003D180218030884300E08030C009D905FA
:101FC000081830BDFF2904D04100FAD0C00FC00767
:101FD00030BD410201D0104630BD0028FCDAFAE7DE
:101FE0000000C07F004870478CF6FF1F10B5034605
:101FF000406801E003464068002801D08842F9D3D8
:102000001868C3188B4206D0CB1CD808C000001D2E
:10201000411A521A0146081D0A60FEF72AFA10BD3D
:102020000B4670B5024689078008084319469D088B
:10203000141AA94125090807054308092C19484124
:10204000250A01060D43010A2C194141200C0D04FB
:1020500028430D0C00194D41002140194D41C00885
:1020600069070843E908840F8D002543840024187C
:102070004D4124196D41121BAB4107E00925ED4389
:102080002C11521963410024401C61411C460A2551
:102090000026551BB441F1D270BDFFB504460D4674
:1020A00081B0243000902168880604D51022E069B0
:1020B0009143216000E00120A84201DD471B00E0C0
:1020C00000270498A1697A191018081AA0612078CD
:1020D000C00602D42046FFF78BF8002608E00398DC
:1020E0006268A168805D9047206A401C761C20626F
:1020F00004988642F3DB2078C0060AD52046FFF715
:1021000077F806E06268A16830209047206A401C9A
:10211000206238467F1E0028F4DC07E000986268E1
:10212000A168405D9047206A401C206228466D1ED1
:102130000028F3DC2046FFF771F82078000602D56E
:10214000022005B0F0BD0120FBE70000D21DF0B574
:1021500004460D46D0088DB0C00046680768314679
:10216000384601F0CBFE0246F00F01D02D2307E0E8
:102170002068810701D52B2302E04007C00F4301EF
:102180006846002B037001D0012000E00020032AE4
:102190000A9001D0072A04DB2946204600F042F9C4
:1021A0002DE12078800601D40D2500E0E56970005E
:1021B000400D0D2D01904BDA300D00210B9008469B
:1021C0000020C046032189050840002E05DA820060
:1021D0008018C20F1018401008408015012801DD3A
:1021E0000020C043A9000023182906D39C460A46B4
:1021F0000123183A1B07D34003E001221205CA400D
:1022000094460C31202902D33A46203900E0324668
:102210008A40002802DD002A06D119E0002817D1E3
:102220000121C9078A4213D3194663467F185E41CC
:10223000002806D10120C007824202D10846874308
:102240009E430B98310D814202D00198401C0190B1
:102250002088000502D57149794402E06F4979442C
:1022600019396B460A9830221A540A980A7C401C85
:102270001A54401C0A900198002801DC302000E02C
:1022800031201872019A0120002A02D0644BD21822
:1022900004E072003A4302D0614A521C0192002DC0
:1022A00002DC2278120703D56A462E2050720220E3
:1022B0000022864694460CE032033601120F6D1E52
:1022C0008B5C02AA13546246521C401C9446052A99
:1022D00001DA002DF0DC002202AE08E03B0F3F01E6
:1022E000CB5C521C6D1E3354401C082A01DA002DB1
:1022F000F4DC23689A0601D511E0401E704504DD28
:102300003218203AD27F302AF7D0002807DD321861
:10231000203AD27F2E2A02D11A0700D4401E002D67
:1023200003DD3E223254401C6D1E497C315401991C
:10233000401C002906DA2D21471C315401984042E7
:10234000019003E02B21471C315401987D21C900E5
:10235000884206DBFEF77EFC3030F0557F1C019191
:1023600001E0642808DB01986421FEF773FC30303B
:10237000F0557F1C019101E00A2806DB01980A2133
:10238000FEF768FC3030F0557F1C01980A21FEF7FB
:1023900061FC3031F1550A98A1697F1C7A19101837
:1023A000081AA0612078C00602D42046FEF720FF5C
:1023B000216A6E460A980818206204E06268307844
:1023C000A168761C90470A98401E0A90401CF5D1DF
:1023D0002078C00602D52046FEF70AFF02AE09E0CB
:1023E0003078761C3E280DD06268A1689047206A3C
:1023F000401C20627F1EF3D22046FEF70FFF0DB077
:102400000320F0BD206A4019206203E06268A168E1
:10241000302090476D1EEDD3F8E70000F34E00002A
:1024200001FCFFFFF8B51F46044601230068DB02EC
:10243000032601461840072A05DB002801D017A50E
:1024400006E017A504E0002801D016A500E016A5B7
:10245000102081432160A069C01E002FA06101D01F
:10246000401EA0612046FEF7C3FE002F09D038466B
:102470006268A1689047206A401C2062C01C2062EC
:1024800006E0206AFAE762682878A1686D1C904728
:10249000761EF8D22046FEF7C1FEF8BD4E414E0032
:1024A0006E616E00494E4600696E660010B5436964
:1024B000002B02D0C046C04601E0FEF7D2FE01204C
:1024C00010BD1278014624310A7000224A700122A0
:1024D000ECE711680022D243E8E710B54369002B0E
:1024E00002D0C046C04601E0FFF774F9012010BDDC
:1024F00012880146243182840022C2840122ECE742
:1025000011680022D243E8E7F7B516468AB033488F
:1025100078446C4603467C33C06F5A689B680DC490
:102520002E487844763003AC0DC80DC43720C00166
:10253000081837211B30FEF78DFB05460C46803D01
:102540001B3C02D56442012000E0002000270990D6
:1025500010E0E0070CD00C20204978437944324643
:102560004C3941186846012300F054FA6B4607C302
:1025700064107F1C002CECD1184F7F442E3F16E0D6
:10258000E80712D02001C0190EC8069108930792DF
:102590000068F04201D1981908903246012306A93B
:1025A00003A800F037FA03AB07C36D10641C002DBD
:1025B000E6D10998002806D032466946012303A8CF
:1025C00000F07EFA05E001233246694603A800F0D8
:1025D00021FA0A9B07C30DB0F0BD0000504C00006B
:1025E000034640000A4610B5400D0BD00121C90733
:1025F0000F24A40200191C0364082143540D214335
:10260000D20207E000210120F2E7D40F4900214364
:102610005200401E0029F8DADB0FDB07184310BD1B
:10262000FFB50D46144685B04868516801F035FC89
:1026300000910190A868A16801F02FFC029103901D
:10264000A868616801F029FC029A1218824202927D
:1026500001D2012000E00020019A0B18D2180028B6
:10266000019202D08A4202D903E08A4201D20120BB
:1026700000E000200099081800906868A16801F047
:102680000CFC029A12188242029201D2012000E050
:102690000020019A0B18D2180028019202D08A4219
:1026A00002D903E08A4201D2012000E00020009913
:1026B000081800902868216840004900400849082F
:1026C0004018FA49471814E001994000C90F08431F
:1026D0000090019802994000C90F084301900298A8
:1026E00003994000C90F08430290039840007F1EE1
:1026F000039000980028E7DA0898002801D0EC4EF3
:1027000000E00026B74201DA012000E000200028A6
:1027100004902AD0F71BF806C00E15D0029B20218A
:10272000091A039A8B401A430392029A019BC240F2
:102730008B401A430292019A009BC2408B40009941
:102740001A430192C14000917B110DD06F460320C6
:10275000C11A03D500218200B95003E08A0081002C
:10276000BA587A50401EF3D537460398029900288C
:1027700000D00120014308980291002808460CD09F
:10278000002800D001200199019A49050843012140
:10279000D20AC902D202019200E001210E9B01225D
:1027A000D207012B02D0002B03D013E0002807D161
:1027B00020E0904204D890420CD1019B0B4209D0FA
:1027C000019B5918019105D10099491C009101D133
:1027D0007F1C009200280DD0102108460020C04622
:1027E0000498002806D00F98002803D00821084636
:1027F0000020C04628682168019B009A4840C10F0C
:102800000598C90739430EC009B0F0BDFFB587B0C0
:10281000099A0898089953689268406889689646AA
:102820000022039317469446089A12685300099AA7
:102830005B081268520052089A1A9E4BD4180A9AE2
:10284000002A01D0352200E0402206920022012316
:1028500015460492DB07059324E0002D05D175464B
:102860000346039E4D1BB34109D375466646039B41
:10287000491B049D9841059B7519AC465F41634611
:102880003B4308D0059B049EDD0776082E435B087A
:102890000496059301E0521E641EC50FED0749180A
:1028A0004041521C069B9A42D7DB002D04D175464D
:1028B000039A6B1A824101D203200CE0039A0B4663
:1028C0006B404240134303D0014303D0012002E098
:1028D000022000E000206146019100210097029152
:1028E0000A99002905D0614640020143704B0191CD
:1028F00002E08007002302909C4201DA012000E000
:10290000002007003AD01A1BD006C00E15D0029D39
:102910002021019C091AC5408C402543029C8C4013
:1029200000D001242543019C0295009DC4408D40A8
:1029300000992C430194C140009154111DD06D4663
:102940000221002202290CD10320001B07E00028ED
:1029500004DB8600AE59002E00D00122401C032863
:10296000F5DB081B02D588002A5004E080002858B7
:1029700010438A00A850491EE3D51C460A98002837
:1029800002980CD0002800D001200199019A490535
:1029900008430121D20AC902D202019200E00121BA
:1029A000109B0122D207012B02D0002B03D013E091
:1029B000002807D11FE0904204D890420CD1019B1F
:1029C0000B4209D0019B5918019105D10099491C6E
:1029D000009101D1641C009200280CD010210846FF
:1029E0000020C046002F06D01198002803D00821EF
:1029F00008460020C04608980999019A009B006883
:102A000009684840C10F0798C907214382600AC07E
:102A10000BB0F0BD00B585B0019300920A460146A7
:102A2000002302A8FFF7FCFD02A807C805B000BDFF
:102A3000FFB50A461F4685B007990193012300910F
:102A4000014602A8FFF7ECFD02990398049ECA0F05
:102A50004900D20700920F22490892028C1A0021E5
:102A6000002800DB0C46450013486D08844214D34F
:102A7000079A002A04DA441E0026104DF64302E0AD
:102A800004460D460E46102108460020C046002F81
:102A900003D0042108460020C0462005E90A084367
:102AA000009908436905F20A1143ADE602C0FFFF31
:102AB000013C0000FF3F0000FF070000FFFFFF7F19
:102AC00000B585B0019300920A460146002302A892
:102AD000FFF79CFE02A807C8A8E7FFB50A461F46F5
:102AE00085B00799019301230091014602A8FFF7E1
:102AF0008DFE02990398049ECA0F4900D2070092E6
:102B00000F22490892028C1A0021002800DB0C4693
:102B1000450011486D08844214D3079A002A04DA4C
:102B2000441E00260D4DF64302E004460D460E46B7
:102B3000102108460020C046002F03D0042108467B
:102B40000020C0462005E90A0843009908436905AA
:102B5000F20A114358E60000FF070000FFFFFF7F65
:102B600070B516460C46054600F086F80368FF204F
:102B70000230C05C012807D0FF2C0ED8185D002859
:102B80000BD001202C7070BDFF3332462146083334
:102B90001868C3182846984770BD0020C04370BD10
:102BA00010B5002801D000F061F810BD10B500F09C
:102BB00085F8FFF7F5FF10BD10B500F099F8FFF7A5
:102BC000EFFF10BD10B5002102A000F05DF801205C
:102BD00010BD00005349475056464E3A205075727A
:102BE00065207669727475616C20666E2063616C15
:102BF0006C65640001468008081A02091018020A70
:102C00001018020C1018C008820012185200891AFD
:102C100001E0401C0A390A29FBD2704701226946AB
:102C2000114B120382188A421A6001D8114670476C
:102C30001960704770B50C4C6D4601263603236849
:102C4000AD1B9A18AA420ED8AD1A9019EE0F75193D
:102C50006D10AA18904200D91046C01D0B60C20822
:102C6000D200D01A226070BD1CF2FF1F014918204B
:102C7000ABBEFEE72600020010B5FFF7B3F9001D5A
:102C800010BD00BF593E000070B505460C460A2035
:102C900000E06D1C00F054F8002D06D028780028C4
:102CA000F7D102E0641C00F04BF8002C02D0207831
:102CB0000028F7D10A2000F043F870BD10B5014696
:102CC00002A0FFF7E1FF012010BD00005349475269
:102CD000545245443A2052656469726563743A20DF
:102CE00063616E2774206F70656E3A2000000000EB
:102CF00010B5012805D0002103A0FFF7C5FF012072
:102D000010BD09A1F8E7000053494752544D454D05
:102D10003A204F7574206F662068656170206D657C
:102D20006D6F7279000000003A2048656170206D77
:102D3000656D6F727920636F72727570746564006F
:102D400008B5694608700320ABBE08BD70B58C1885
:102D50000578401C6B075B0F01D10378401C2A11DA
:102D600006D10278401C03E00678401C0E70491C16
:102D70005B1EF9D12B0705D40023521E0DD40B7016
:102D8000491CFAE70378401CCB1A921C03E01D781B
:102D90000D70491C5B1C521EF9D5A142D8D30020EE
:102DA00070BD10B5C046C04601F0B6FD10BD002193
:102DB000016041608160C160704700B587B010213B
:102DC000684601F039FC07B000BD00001D48002135
:102DD00001601D48826B43151A4382631C4A1B48DD
:102DE00050601C4883681C4A13408360C3681340CA
:102DF000C3601A4A892010701948242242709A220E
:102E00000270C278D206D20EC270012202714171E4
:102E10008179C906FCD481790907890F0229FAD181
:102E20004021417181790907890F0229FAD18179FD
:102E30004906FCD51A21017081790907890F0329F8
:102E4000FAD1704700810440008004400000011066
:102E50004080044040900440FFF8FFFE00500640D0
:102E60000040064000B50246000900F0D1F80749CD
:102E7000C87108790006FCD51007000F00F0C8F8EB
:102E8000C87108790006FCD500BD000000A006400E
:102E9000064907E0CA71401C0A791206FCD50A7976
:102EA0005206F9D50278002AF4D1704700A00640F6
:102EB0000748084900680A689042FDD01078521C03
:102EC000054B0A609A4202D31A460A3A0A607047D2
:102ED000CCF0FF1FD0F0FF1F2AF2FF1F0448054966
:102EE00000680968884201D10020704701207047BE
:102EF000CCF0FF1FD0F0FF1FF8B50024174D274678
:102F00000C2026464643A859154900F0AFF8002882
:102F100009D0A859696D00F0A9F800280FD0641CE9
:102F2000E4B2082CECD30A210D48FDF731FE0C2049
:102F300044436019806880470A480770F8BD0AA0BA
:102F4000FFF7A6FF0648FFF7A3FF08A0FFF7A0FFC3
:102F50000A210348FDF71CFEEEE7000008F1FF1F01
:102F600014F3FF1FC2F0FF1F0D0A27002720636F15
:102F70006D6D616E6420666F756E642C2070726575
:102F80007373206820666F7220746865206D656EAB
:102F900075210D0A00000000094930B50A46074BAB
:102FA000283207E01C68401C2570641C1C60944299
:102FB00000D319600578002DF4D130BDD4F0FF1F87
:102FC0002AF2FF1F05490A681070521C04480A6063
:102FD000824201D32838086070470000D4F0FF1FF8
:102FE00052F2FF1F10B505490220087004A0FFF738
:102FF000D3FF06490020087010BD0000C0F0FF1F7D
:103000000D0A44454255470D0A000000EAF0FF1F33
:10301000092802D83030C0B270470007000F37309F
:103020007047000010B504480024047003A0FFF7A7
:10303000B3FF0548047010BDC0F0FF1F0D0A5155C5
:103040004945540D0A000000EAF0FF1F10B503497E
:103050000120087002A0FFF79FFF10BDC0F0FF1F06
:103060000D0A4E4F524D414C0D0A000010B5002282
:1030700007E08C5CA34203D0D8B2E1B2401A10BD85
:10308000521C835C002BF4D1885C0028F7D0581EBA
:1030900010BD0000F3B581B00846FEF728F8434D97
:1030A000434C4449E86003F067FD434903F00EFEDA
:1030B00001464248FDF702FF0146204602F0D8F8DB
:1030C0003F4903F09FFD06463E49E86803F0FEFDD8
:1030D000610202F0CDF80446E8683B49009003F035
:1030E00091FD3A4903F048FD394F054639460098AD
:1030F00003F088FD374903F03FFD2946FDF7DEFE6A
:10310000214603F07FFD394603F0D4FD07460198C0
:10311000FDF7EDFF3049009003F074FD2F4C214680
:1031200003F070FD05462E49384603F06BFD01465D
:103130003046FDF7C3FE294603F0C8FD054621468B
:10314000009803F05FFDA10702F092F8254903F013
:1031500059FD064601212448FDF7CCFF0446012213
:103160002846D20721465040FDF7A8FE0746022117
:103170001D48FDF7BFFF314603F044FD06462946D2
:10318000084603F03FFD314603F0A0FD03F018F9B7
:103190002146FDF793FE0146384603F0EDFC134946
:1031A00003F030FD124903F02DFDFEBDF8F0FF1FC6
:1031B000000020413393884300000C43CDCC77437B
:1031C0009C53C9378A1F7F402680F8488244044CAC
:1031D00000007A44AD158D489B22003FA913503C56
:1031E0000EDB96BDB0B36E3FE190893D05D6A4419C
:1031F00085EB514070B51E481E4C0168002900D176
:1032000004600368A3422DD11B490320CA68051F2F
:10321000002A1ED0042082008E58002E06D052189C
:103220005268002A0DD0801C1028F4DB102810DB17
:10323000FDF7C0F8182101600D480168002902D08F
:1032400002E0401CF2E704600068A0420AD1284670
:1032500070BD82008D500649002B00D10C600968BA
:10326000A142F5D068220549054801F0FBFB0000AA
:10327000B0F4FF1FB8F4FF1F74F1FF1F08740000C3
:10328000F473000030B516498020486208680006D3
:10329000FCD513484030C2688368D218436804687C
:1032A0001B19D218CB6BD2188B6BD2181204520C8C
:1032B0000123DB031A43CA62C26A846A1219446A90
:1032C000056A64191219C46980691219101800047A
:1032D000400C18430863486A4006C00F30BD000028
:1032E00000B0034010B5064800F08AF9002804D069
:1032F0000021034800F04CF910BD0121F9E700005E
:10330000B0F2FF1F10B505490420087004A0FFF7B4
:10331000BFFD07490020087010BD0000C0F0FF1F6E
:103320000D0A5072696E7420737461636B0D0A002C
:10333000EAF0FF1F10B5064800F062F9002804D03B
:103340000021034800F024F910BD0121F9E7000035
:1033500098F2FF1F102801DB00207047F8B51C4DC4
:10336000014684002859421C31D103292FDA0E4628
:1033700008460020C046002828D130460020C0461C
:10338000002823D113480078C0071ED1114800F04F
:10339000EDFD002819D0104E1048306010484B2722
:1033A000006808210422FF01002806D10D4802F020
:1033B0000FFE39460B4802F0E5FC30460A4A0B493D
:1033C0000120C046034800F0FDFD03482851F8BD28
:1033D00074F1FF1F6CF1FF1F70F1FF1F00720000FE
:1033E000B4F1FF1FBCF1FF1F0000000071350000A9
:1033F00010B505490520087004A0FFF749FD0849EC
:103400000020087010BD0000C0F0FF1F0D0A5072B0
:10341000696E74206D656D6F72790D0A0000000091
:10342000EAF0FF1F10B508490620087007A0FFF753
:10343000B3FD07A0FFF7B0FD09A0FFF7ADFD0B49F5
:103440000020087010BD0000C0F0FF1F0D0A000032
:10345000322E3020323031362F30392F32390000C1
:103460000D0A53656C65637420200000EAF0FF1FAD
:1034700010B51648816B021511438163C16B52046C
:103480001143C1631249002048601248016A40227A
:1034900091430162016A0162416A03221143416260
:1034A00081688160816801221204114381600AA051
:1034B000FFF7EEFCFFF7E6FE040001D00CA000E0F1
:1034C0000DA0FFF7E5FC204610BD00000080044081
:1034D00000A0044000B0034043616C6962726174F3
:1034E000696F6E20726573756C74203A200000005D
:1034F0004661696C0D0A00005061737365640D0AC2
:103500000000000010B505490320087004A0FFF773
:10351000BFFC08490020087010BD0000C0F0FF1F6C
:103520000D0A5072696E7420526567697374657212
:10353000730D0A00EAF0FF1F1C20C04370471520DE
:10354000C04370470020704770B5002415460E46F2
:10355000002A06D9315D044802F076FE641CAC42B4
:10356000F8D3284670BD0000BCF1FF1F0120704752
:10357000704770B50D46144606461821FDF70AFB44
:1035800022462946304601F089F8304670BD0000D9
:1035900010B50022825E521C04D00029416806D07A
:1035A000C26805E0242203A10FA001F05BFA0269C2
:1035B000116010BD6D6265642F5441524745545FE0
:1035C0004B4C32355A2F544F4F4C434841494E5F74
:1035D00041524D5F5354442F6770696F5F6F626A49
:1035E0006563742E680000006F626A2D3E70696E1C
:1035F00020213D202850696E4E616D65294E4300A3
:1036000010B50021415E491C06D041690968406837
:10361000014206D0012010BD2C2203A10FA001F011
:1036200021FA002010BD00006D6265642F544152E4
:103630004745545F4B4C32355A2F544F4F4C4348FB
:1036400041494E5F41524D5F5354442F6770696F3B
:103650005F6F626A6563742E680000006F626A2D96
:103660003E70696E20213D202850696E4E616D6567
:10367000294E430070B50446006801220369002109
:103680002046984705000DD42068022203690021D6
:1036900020469847064620680022036929462046AE
:1036A0009847304670BD002070470020704710B525
:1036B0000C46001D02F0C8FD204610BD0901081887
:1036C0008169002902D009680C30084770477047AB
:1036D00070470000FFB585B0002444602049846035
:1036E00001601E46022310221E490C3000F02DFC02
:1036F00005460C3D002706623801441900206E463D
:103700000C340090019002900390B4420ED0E16816
:103710002046002901D0896888470398314600284F
:1037200002D04268204690470398E06003996846BB
:10373000002901D0896888477F1C022FDCD3281D0F
:10374000079A069902F044FC281DE96A02F01AFB68
:103750002A460549281D02F001FD284609B0F0BDA2
:10376000A0720000AF2D0000BD360000F0B5054688
:1037700091B03C4800262860002002A902900390E6
:103780000490079105902868F7B201682846884799
:1037900000F076FE059800281FD039014C19A06969
:1037A000002801D102F0ACFD07980C3484420ED001
:1037B000E1682046002901D0896888470598079963
:1037C000002802D04268204690470598E060012218
:1037D0003946281D02F0CEFC2AE039014C19A069B7
:1037E000002801D002F0C0FD00210CA80C910C347F
:1037F0000D910E910F91079084420ED0E168204602
:10380000002901D0896888470F980799002802D0BD
:103810004268204690470F98E0600F990CA8002955
:1038200001D08968884700223946281D02F0A2FC91
:1038300000F054FE2868416828468847059902A888
:10384000002901D089688847761C022E94DB28461F
:103850000223102204490C30FDF7F4FA284611B077
:10386000F0BD0000A0720000396B000038B5009078
:10387000014684690831204602F0B8FD38BD016870
:103880008968084710B5014682690831104602F080
:103890002FFE10BD10B50446074820600020A06030
:1038A000E0602061606100F07DFE0449A06102F0EB
:1038B0003BFE204610BD0000B87200007F380000BB
:1038C00010B504460448206021460831A06902F082
:1038D0000FFE204610BD0000B8720000F8B5124976
:1038E000124A0B68002B00D10A6009688C4691428D
:1038F00013D100210E4B10240E468D005F598742D4
:1039000000D15E51491C641EF7D107486146002969
:1039100000D102600068904204D068220549064840
:1039200001F0A0F8F8BD0000B0F4FF1FB8F4FF1FCD
:1039300074F1FF1F08740000F473000010B500213B
:10394000FDF776F810BD70477047000010B51C46B3
:10395000029BFFF7BFFE2146303000F067F80449B4
:1039600030380160034941630349016310BD000021
:10397000CC7200004C730000EC72000010B50649D8
:1039800001600649416306490163303000F082F866
:103990003038FFF7EBFE10BDCC7200004C73000016
:1039A000EC72000070470020704700207047002034
:1039B000704700207047F8B5054600680E460C4673
:1039C0008F18016D28468847BC4209D028682178A5
:1039D000826C2846641C9047401C01D0BC42F5D143
:1039E0002868416D28468847A01BF8BD0020704715
:1039F0000FB470B504460068016D2046884706ADD7
:103A0000012200216069FCF725FF2A4660690599BB
:103A1000FCF70AFE05462068416D20468847284687
:103A200070BC08BC04B018477047000038B50F4A96
:103A300004C0002200F078F9041F0D482060002522
:103A40000C48656160600CA1204600F0C9F8606117
:103A5000000003D0FFF772FF204638BD2A4600233E
:103A600006A10B48009501F07DF80000507200009F
:103A70005C730000BC730000772B00005374726508
:103A8000616D206F626A206661696C757265000005
:103A90001901018010B504460548206005486060A2
:103AA0006069FCF7D3FF201D00F05EF9001F10BD18
:103AB0005C730000BC73000010B50446C3688268E4
:103AC000016A406A521843412046FFF7CFFE616BFE
:103AD000002903D0204609682830884710BDF0B57A
:103AE0001FB417460E46044600F0CAFC606B00285F
:103AF00005D13820005D002801D002F001FC2546E8
:103B00002835B54210D0E9682846002901D08968D7
:103B10008847002D08D0F068002803D0426831465D
:103B200028469047F068E860039D00F0A9FC204615
:103B3000FFF7A8FE27626562A06902F0C8FC226A4E
:103B4000636A82184B412046FFF790FE00F0C6FCE6
:103B500000F0C4FC05B0F0BD70B584B01F49044648
:103B6000016000F08DFC2046FFF78CFE606B0028A2
:103B700005D03820005D002801D002F0F5FB0020C0
:103B80006D4628340090019002900390AC4210D012
:103B9000E1682046002901D089688847260008D0BE
:103BA00003982946002802D042682046904703988F
:103BB000F06003996846002901D08968884700F0C1
:103BC0008DFCE068002802D08168204688472046A6
:103BD0002838FFF775FE04B070BD0000CC730000FC
:103BE000F0B583B00D460646FFF704FB244F0028CE
:103BF00006DB8200BE50234A00211154224A115490
:103C0000040021D040226846027044702004020E55
:103C1000684682702002020E6846C270220E294653
:103C20000271FCF7DBFE05001CD02046FFF792FB7B
:103C300000280CD00168C969884704000BD5FCF73F
:103C4000B9FB6142016018E0002003B0F0BDFCF751
:103C5000B1FB0921F6E700280FD028460021FCF728
:103C6000E7FE0AE0A0003958B14202D100213950E4
:103C700003E0FCF79FFB09210160284603B0F0BD7B
:103C800074F1FF1F90F4FF1FA0F4FF1FF8B5074663
:103C90000D461E4802F05AFF1D4E3468002C10D00D
:103CA000A06800280AD0FCF735FFA84206D12A46B2
:103CB0003946A068FCF700FF002805D06468002C96
:103CC000EED1072D10D016E0104812490268002AE4
:103CD00000D101600068884204D068220E490F4874
:103CE00000F0C0FE2046F8BD2A4639460CA0FCF77D
:103CF000E3FE002804D0054802F028FF0020F8BDAC
:103D0000024802F023FF7068F8BD000078F5FF1F3D
:103D1000ECF1FF1F80F5FF1F08740000F473000032
:103D200064656661756C740070B504460026666053
:103D30000A48A16020600D462273094802F006FF80
:103D4000002D04D0074801686160046000E06660EF
:103D5000034802F0FBFE204670BD0000E073000047
:103D600078F5FF1FECF1FF1F10B5044613482060E3
:103D7000134802F0EBFEA068124A00280ED010682B
:103D8000A04202D16068106008E04168A14203D0FF
:103D900008464968A142FBD1616841605068A04271
:103DA00001D100205060064802F0D0FE207B0028A0
:103DB00002D1201FFFF792FD204610BDE0730000E6
:103DC00078F5FF1FECF1FF1F10B50446406800288E
:103DD00003D0007BC046012801D0002010BD6068E0
:103DE0000028FBD0001F10BD10B504464068002815
:103DF00003D0007BC046002801D0002010BD6068C1
:103E00000028FBD0001F10BD4068002800D0012012
:103E1000704710B54068002804D0007BC0460028D9
:103E200001D0002010BD012010BD000070B5044677
:103E300000200D46206060600FA12846FCF72CFE94
:103E4000431900211846236002782F2A05D0002A42
:103E500005D0401C491C2060F6E7401C206000296A
:103E600005D01846FFF712FF6060204670BD2A2279
:103E7000024903A000F0F6FD2F000000507800007A
:103E80006C656E20213D203000000000704710B5A9
:103E90003038FFF70CFC10BD7047F8B5040C8BB23E
:103EA000264682B25E43104658430D0C370C36044A
:103EB00000218019164679416E43370C360480196B
:103EC000264679416E438919F8BD0A7802704B780D
:103ED00043708A788270CA78C2700B790371704718
:103EE00030B47446641E2578641CAB4200D21D4673
:103EF000635D5B00E31830BC184700004900CA024C
:103F00000243100000D004204A0D01D001221043CA
:103F1000044A490D914201D102210843012800D1F0
:103F200005207047FF0700004100080200D0042070
:103F30000A0E01D001221043090EFF2901D10221EE
:103F40000843012800D105207047FFB581B01C4609
:103F500017460E0007D0019D02E02846B047ED1934
:103F60002046641EF9D2019805B0F0BD10B5017865
:103F70008A07920F012A06D08A0706D0054A064909
:103F800006A000F06FFD002010BD02221143017059
:103F9000012010BD8C050000A076000030203D3DC2
:103FA00020282A67756172645F6F626A6563742096
:103FB00026204358415F47554152445F4D41534B82
:103FC0002900000010B501788A07920F022A04D058
:103FD000044A054905A000F045FD89088900491CEF
:103FE000017010BD94050000A07600004358415FA9
:103FF00047554152445F494E49545F494E5F5052C4
:104000004F4752455353203D3D20282A6775617222
:10401000645F6F626A6563742026204358415F477E
:10402000554152445F4D41534B29000010B50020CB
:10403000FDF744FF10BD10B57F200021C005FCF73F
:104040003DFF10BD10B502F097FD10BD10B5002169
:104050000846FCF733FF10BD10B5072061210007AB
:10406000FDF748F810BD5E2110B5C9430807FDF7FC
:1040700041F810BD08B51648FFF70CFC1549016062
:104080000021283002F048FD01220274124A13492F
:1040900028380120C0460E48012211494030FFF760
:1040A00068FA0F490A480122091D5830FFF761FAE2
:1040B0004B20C001009006480023042208217030E4
:1040C000FFF744FC044A07490120C04608BD000030
:1040D00058F2FF1FCC73000000000000593B0000A5
:1040E000481000007D39000010B500F009F810BD3F
:1040F00030380A2801D201207047002070470000A4
:1041000002486A46C008C00070470000A7F6FF1FBB
:1041100070B5054CA168054DC0222846FCF7B8F8DB
:10412000A560C046C04670BD00ED00E000F0FF1F76
:1041300070B50546FFF70EF90024A9000B4A661E6C
:10414000545000280AD001684969884705000BD5FA
:10415000FCF730F969420160304670BDFCF72AF97E
:1041600009210160304670BD204670BD74F1FF1F0B
:1041700070B5FFF7EFF80025ED4300280AD001687D
:10418000896A8847040004D5FCF714F9614201608C
:10419000284670BDFCF70EF909210160284670BD64
:1041A00070B5FFF7D7F8002500280AD00168C96963
:1041B0008847040004D5FCF7FDF8614201602846F9
:1041C00070BDFCF7F7F809210160284670BD0000BA
:1041D00070B50C4605462B49FCF7DEFC002812D0D2
:1041E00029492846FCF7D8FC002811D02749284641
:1041F000FCF7D2FC002810D02878402812D0A00765
:1042000027D502212EE00020FFF7A4F8002070BD82
:104210000120FFF79FF8012070BD0220FFF79AF8F8
:10422000022070BD6878090A09020143A878FF22BC
:1042300012020002914310400143E8781202000488
:104240009143104001432A790802000A11060843ED
:1042500070BD600701D5012104E0200701D50921C7
:1042600000E000212007800F02D00120400201431E
:10427000600702D5012080020143284600F0D4FEE9
:1042800070BD0000486E00004F6E0000576E0000C9
:1042900070B500240E46FFF75DF8651E00280DD0AE
:1042A000016822460B6931469847040004D5FCF7A3
:1042B00081F8614201602C46204670BDFCF77AF817
:1042C000092101602C46F7E7F8B5064617480D4668
:1042D000824206D9FCF76EF8162101600020C04327
:1042E000F8BD00271446002A1DDD3046FFF732F8DE
:1042F00000280DD001682246CB6829469847070060
:104300000AD5FCF757F8794201600020C043F8BD98
:10431000FCF750F80921F7E7002F04DDE8192038F1
:104320000349C07F8855E01BF8BD0000FFFFFF7FF9
:10433000A0F4FF1F70B500261E4C35E0FEF7B8FD57
:1043400005460D2815D0022D07D0FEF73BFE082D9F
:1043500012D0032D19D0682D17D020780A281FD32A
:1043600015A0FEF719FE0A211648FCF711FC26706D
:104370001AE0FEF7C1FD17E02078002814D012A043
:10438000FEF70AFE2078401E0DE010480670104827
:10439000067001F06BFF0A210A48FCF7F9FB03E005
:1043A00008490D54401C2070FEF798FD0028C5D127
:1043B00070BD0000C2F0FF1F0D0A546F6F204C6FDC
:1043C0006E67210014F3FF1F20080000C0F0FF1FDC
:1043D000EAF0FF1FEFF31080C007C017401C7047C2
:1043E00070B50D46044600F04BF82088401B85B29E
:1043F000258007480168002907D00168491E01602F
:104400000068002801D100F0A9F9284670BD00001D
:10441000D4F1FF1F70B5044600F032F82578012072
:10442000207009480168002907D00168491E016011
:104430000068002801D100F091F9002D01D0012081
:1044400070BD002070BD0000D4F1FF1F70B50D4697
:10445000044600F015F82088401985B225800748E9
:104460000168002907D00168491E01600068002822
:1044700001D100F073F9284670BD0000D4F1FF1F90
:1044800010B5074C2068401C05D000F057F9206893
:10449000401C206010BD5122024903A000F0E2FA46
:1044A000D4F1FF1F98780000637269746963616CCE
:1044B0005F73656374696F6E5F7265656E74726158
:1044C0006E63795F636F756E746572203C20554929
:1044D0004E5433325F4D41580000000007480168D8
:1044E000002909D00168491E01600068002803D135
:1044F00010B500F033F910BD70470000D4F1FF1F74
:10450000EFF30580002800D00120704705461B48C6
:10451000FCF787F91A48FCF784F90120FEF71AFF27
:104520000926002820D0016889698847040003D53E
:10453000FBF740FF614201600220FEF70BFF0028FD
:1045400016D0016889698847040003D5FBF732FF5C
:104550006142016000F01CFC002801D001F0AEFBBC
:10456000002D09D000F08EFAFBF724FF0660E3E788
:10457000FBF720FF0660EDE7FEE70000E0F5FF1F18
:1045800034F6FF1F10B58A68002A02DCFDF740FAF6
:1045900010BD521E8A604A68C0B2531C4B60107036
:1045A00010BD000000487047706F000010B5002279
:1045B000825E521C09D000290CD0012904D18168E7
:1045C0000A68406802430A6010BD3322044905A00E
:1045D00000F048FA81680A6840688243F3E7000007
:1045E000F47500006F626A2D3E70696E20213D20D7
:1045F0002850696E4E616D65294E430070B50546C1
:1046000001800C46481C14D00121204600F064FDB6
:104610006006C10E012088406860200B05498001BA
:104620004018011DE960091D2961083114306961D4
:10463000A86070BD00F00FF870B5022605460C4664
:10464000FFF7DCFF611C07D000212846FFF7AEFF13
:104650003146284600F06AF870BD000070B50D467E
:1046600004460026FFF7CAFF6D1C0DD0A05F401C5A
:104670000BD021696068086001212046FFF796FF92
:104680003146204600F052F870BD2422014902480C
:1046900000F0E8F9E046000014470000F8B50446D1
:1046A0000E4600271546FFF7A9FF761C16D0E05FDF
:1046B000401C04D06068002D06D0E16805E024228B
:1046C00007A114A000F0CEF921690860012120465D
:1046D000FFF76CFF3946204600F028F8F8BD0000CF
:1046E000746172676574732F5441524745545F4635
:1046F0007265657363616C652F5441524745545F21
:104700004B4C58582F6770696F5F6F626A656374AE
:104710002E6800006F626A2D3E70696E20213D2078
:104720002850696E4E616D65294E430010B50246F2
:104730000020105E00F000FD10BD0000EFF31080BF
:10474000C007C01772B604494A78401C002A02D13B
:104750000870012048707047E8F1FF1F10B5EFF3B3
:104760001080C007C017401C04D03622054906A09F
:1047700000F078F90B48002141700078002800D043
:1047800062B610BD84790000216172655F696E7444
:10479000657272757074735F656E61626C656428B2
:1047A00029000000E8F1FF1FF0B50446406887B01B
:1047B0002030017E002972D1807E00286FD12068D0
:1047C000006880472068C069804705680246002D60
:1047D00009D0002005901F20012739468140A942B9
:1047E00006D1059008E02D222E492FA000F03AF9BD
:1047F000401E0006000EF0D150680190001F1D28D9
:1048000004D33B22274928A000F02CF9072282403C
:10481000104626490492FFF740FB0026731E6A1ECD
:104820007341801859412A463346FBF760FE0391D5
:104830000290606806606068466020684068804753
:1048400061680862626800209062D062606885607A
:10485000616805982031C87601200021019AFBF794
:10486000ADFD6168401EC8606068049A02616268BC
:1048700003990298D16190616268002010635063CF
:104880006068203046766068203086766068203028
:104890000776204601F016FF204601F06FF907B0B9
:1048A000F0BD0000087800003000000040420F001A
:1048B00070B5164801688022114301601449002236
:1048C0004D6840230124002D0BD0124E02608660FB
:1048D00002681A4302600268224302606D1E4D6046
:1048E00070BD4D88002D09D00260856005681D43AC
:1048F00005600368234303604A8070BD016849086E
:104900004900016002F066F870BD0000000004403C
:10491000C8F1FF1FFFFF00008AB0FEF7A9FD2F4876
:1049200004902F4905A802F0F7F804462D48FCF73B
:104930008DFB0646E0680F466D46002803D04268AE
:10494000214628469047E0680390294632463B4678
:104950000498FFF7C4F8684602F0EEF8002505A8B1
:1049600002F0EAF81D48204C3838A060E0600A30B8
:10497000206160611DA1CE30FFF73AF820A0FEF75C
:1049800087FA26A0FEF784FA28A0FEF781FA28A06D
:10499000FEF77EFA25A0FEF77BFA01F067FC2E4EAB
:1049A0002E4F01F091F9FFF7C5FC00F0F5F92068F2
:1049B000FCF734FB1A21FEF76DFB60603088C10400
:1049C0002748C90C814202D9FEF78CFC3580387823
:1049D0000028E6D0FEF7AEFC3D70E2E758F2FF1F7C
:1049E000416500000000C842C4F0FF1F0D0A486581
:1049F0006C6C6F20576F726C64210A0A0D00000006
:104A00000D0A53797374656D2052657365740D0AD0
:104A1000436F6465207665722E200000322E3020B0
:104A2000323031362F30392F323900000D0A000074
:104A3000436F707972696768742028632920556E06
:104A40006976657273697479206F6620436F6C6F45
:104A50007261646F00000000EEF0FF1FE9F0FF1FBD
:104A6000FF0F000082B014460D460646FFF708FD12
:104A70002B46002231460248009400F073F80000F3
:104A80004401FF8086B0FFF7FBFC20496846FFF732
:104A9000E5FD1F4E1F4D002469460020085E401CA6
:104AA0002ED0039901980860304601F0D5FF694681
:104AB0000020085E401C23D004990198086030460D
:104AC00001F0CAFF641C042CE6DB002469460020C8
:104AD000085E401C14D0039901980860284601F034
:104AE000BBFF69460020085E401C09D0049901986C
:104AF0000860284601F0B0FF641C042CE6DBCAE71E
:104B0000242205A111A0FFF7ADFF0000481000000E
:104B1000F0490200801A0600746172676574732F91
:104B20005441524745545F467265657363616C65D5
:104B30002F5441524745545F4B4C58582F6770696A
:104B40006F5F6F626A6563742E6800006F626A2D22
:104B50003E70696E20213D202850696E4E616D6562
:104B6000294E4300FFB58DB0044615462348169ED6
:104B7000FFF750FC002829D1159F002C00DB204CAA
:104B800034216846FCF706F8019702950094FFF778
:104B900077FC1A4C6068401C6060012804D1342204
:104BA00069461848FBF774FB342269461648FBF740
:104BB0006FFBA168002901D013488847FFF78EFCDE
:104BC00033461148109A0E9900F0ECFE0F48FFF79B
:104BD00021FC002805D0FFF753FCBFF34F8F20BF07
:104BE000FDE7FFF78DFC002806D1FFF7F3FB002857
:104BF00002D00120FFF78AFCFFF744FFD8F1FF1F26
:104C00000101FF8010F5FF1F44F5FF1FD9F1FF1FC1
:104C10000FB410B5A2B025AB84216846249AFBF7E7
:104C2000E7FC0446842804D31FA80C490330FFF78F
:104C30004CF9002C0CDD6C46FFF722FC2046FBF7FC
:104C400069FF02462146022001F015FFFFF746FCEE
:104C500022B010BC08BC04B0184700003C6E000035
:104C600010B50446FFF70CFC2046FBF753FF024645
:104C70002146022001F0FFFEFFF730FC10BD0000CE
:104C8000044682B016A0FFF7C3FF202C19D0302CA9
:104C90001CD0402C1FD01DA0FFF7BAFF1E4C1FA038
:104CA000FFF7B6FF00F0F4FD1FA0FFF7B1FF0020F3
:104CB000009025480023006824A1C26B2046FFF71E
:104CC00051FF26A0FFF7A4FF284CE8E728A0FFF734
:104CD0009FFF2A4CE3E72AA0FFF79AFF2B4CDEE761
:104CE0000A2B2B204D6265644F53204661756C740E
:104CF0002048616E646C6572202B2B0A0A46617530
:104D00006C74547970653A20000000004861726448
:104D10004661756C740000003D01FF800A0A436F14
:104D20006E746578743A00000A0A2D2D204D626574
:104D3000644F53204661756C742048616E646C65E5
:104D400072202D2D0A0A0000446E00004661756C29
:104D50007420657863657074696F6E004D656D4D84
:104D6000616E6167654661756C7400003E01FF808D
:104D70004275734661756C74000000003F01FF804E
:104D800055736167654661756C7400004001FF8072
:104D900010B500F08DFF10BDF0B5A7B080227649A8
:104DA00001A8FBF775FA7548002402787748744D1E
:104DB000744E754F01781300FFF792F80705082C21
:104DC00060B08905DA00047027B0F0BD0129FBD17D
:104DD0006FA0FEF75DF82868FCF746F802460B4620
:104DE0006EA121A8FBF728FC21A8FEF751F8306836
:104DF000FCF73AF802460B466BA121A8FBF71CFC16
:104E000021A8FEF745F83868FCF72EF80B46024655
:104E100068A12BE00129D7D169A0FEF739F86AA073
:104E2000FEF736F82868FCF71FF802460B4668A123
:104E300021A8FBF701FC21A8FEF72AF865A0FEF7E0
:104E400027F83068FCF710F802460B4660A121A84D
:104E5000FBF7F2FB21A8FEF71BF860A0FEF718F89D
:104E60003868FCF701F80B4602465EA121A8FBF763
:104E7000E3FB21A8FEF70CF84448A4E70129A3D1DD
:104E80005AA0FEF705F80025EE0001A8301840688A
:104E90008047074601A88059FDF7FAFF380EFDF755
:104EA000E1FF3802000EFDF7DDFF3804000EFDF7CC
:104EB000D9FFF8B2FDF7D6FF4CA0FDF7E9FF6D1C56
:104EC000EDB2102DE0D3314804702C487BE7012966
:104ED000A1D147A0FDF7DCFF002510202F46009050
:104EE00047A0FDF7D5FFE8B2FDF7BCFF46A0FDF7F0
:104EF000CFFFA8003E58300EFDF7B4FF3002000E81
:104F0000FDF7B0FF3004000EFDF7ACFFF0B2FDF787
:104F1000A9FF00986D1C8542E2D325E00129AED19E
:104F20003CA0FDF7B5FF6846C0460746002534A003
:104F3000FDF7AEFF2846FDF795FF33A0FDF7A8FF6C
:104F40003E68300EFDF78EFF3002000EFDF78AFF3F
:104F50003004000EFDF786FFF0B2FDF783FF6D1CF5
:104F6000EDB23F1F0F2DE2D320A0FDF791FFAAE77E
:104F70002AA0FEF711F827E7BC6D0000C0F0FF1F64
:104F8000C8F0FF1F04F1FF1FC4F0FF1FEBF0FF1F6D
:104F90000D0A4E4F524D414C2000000020466C6FD0
:104FA000773A2025660000002054656D703A202570
:104FB0006643000020467265713A2025660D0A009E
:104FC0000D0A44454255470020466C6F773A200051
:104FD000256600002054656D703A200020467265F9
:104FE000713A200025660D0A000000000D0A00003D
:104FF0004D656D6F7279206C61796F75740D0A0063
:105000000D0A3078000000003A20202020202030B7
:1050100078000000537461636B0D0A004D6F646586
:10502000204572726F7200000FB4F0B587B006466B
:10503000FEF7E0F8040032D40025314604A80195BB
:10504000FEF7F4FE04A8FEF7DFFE13261F4F00282C
:105050002AD004A8FEF7DDFE002804A803D0FEF73E
:10506000C3FE019029E0FEF7AFFE00281CD00646E3
:1050700004A80068C0460246306801A980680D9BFC
:10508000844630466646B047002815D00646FBF7F2
:1050900091F971420160A0003D500020C04307B06B
:1050A000F0BC08BC04B01847FBF784F90660A00008
:1050B0003D500020C043F2E70198A1007850044819
:1050C0000555044805552046E9E7000074F1FF1F27
:1050D00090F4FF1FA0F4FF1F70B5421C17D00E4BB9
:1050E000020B40069C6BC00E154609350126AE40EA
:1050F00034439C63120380001018084A8018026829
:1051000007231B029A4309020A43026070BD14225E
:10511000034904A0FFF7A6FC00800440009004406F
:10512000EC76000070696E20213D202850696E4E9B
:10513000616D65294E43000010B5421C07D0064A38
:1051400080180268920892000A43026010BD212272
:10515000024903A0FFF786FC00900440EC760000B3
:1051600070696E20213D202850696E4E616D652961
:105170004E430000884202D0421C01D108467047CD
:1051800008B5491C07D000210B460246009102A138
:105190000648FFF7E7FC08BD70696E6D6170206D11
:1051A00069732D6D61746368000000003001018037
:1051B00008B50022D243431C0AD00023CB5E5B1CFF
:1051C0000DD00023CB5E834204D14A68501C06D028
:1051D000104608BD0C23CB5E0C315B1CF1D10020C6
:1051E0000346009001A10948FFF7BCFC70696E6D91
:1051F0006170206E6F7420666F756E6420666F72CA
:10520000207065726970686572616C0030010180A0
:1052100038B50446401C0FD00020085E401C12D058
:105220000020085EA04208D189682046FFF754FF9D
:1052300000212046FFF780FF38BD0C20085E0C31AE
:10524000401C0028ECD1002003460090224602A119
:105250000648FFF787FC0000636F756C64206E6F73
:10526000742070696E6F7574000000003001018059
:10527000F0B50D4684468BB00020029001216046B7
:10528000C9057F26431A0122F605690052067700F8
:1052900089182C46BB427DD2520191427AD3F849FB
:1052A000012241185203914275D951014118C90C8C
:1052B0000C0709050A0E1146F24BD205D218801AC6
:1052C000009002987F390818240F06902046FBF7BB
:1052D00006FF0321C943FBF70DFF7F21C90501F03C
:1052E0004BFC01460190009801F0F0FC02900199FE
:1052F000009801F041FC0127FF020890C019000B43
:10530000000301460390019801F0E0FC009901F0D0
:1053100033FC04907F20C0050899FBF7CFFD0146C0
:105320000190029801F06EFCC019000B0003009080
:10533000049901F067FC04900399009801F062FC65
:10534000029901F0B7FC049901F0C0FC019901F049
:1053500059FC01460290009801F00EFC01460490B1
:1053600001F050FCC849019001F04CFCC74901F024
:1053700003FC019901F046FC039000210098FBF723
:10538000B9FE01900399049801F03CFC00900021C3
:10539000029801E028E12AE2FBF7ACFE009901F057
:1053A000EBFB01460090019801F0E6FBC019000BF1
:1053B000000301460390019801F088FC009901F078
:1053C000DBFB0090B249039801F01CFC0290B1494C
:1053D000009801F017FC0090AF49039801F012FC0F
:1053E000009901F0C9FB01460090029801F0C4FB4E
:1053F000C019000B000301460190029801F066FC01
:10540000009901F0B9FBA5490890E00079440A58D9
:1054100040180992446806980001FBF760FE04906A
:105420002146089801F0A8FB019901F0A5FB099914
:1054300001F0A2FB049901F09FFBC019070B3F0389
:105440003846049901F042FC099901F03FFC0199AA
:1054500001F03CFC214601F039FC089901F02AFCDE
:1054600004460120C0022818000B000301460390E7
:10547000284601F02BFC0021029008460020C0467F
:105480000C21084005903846039901F0BBFB410010
:1054900005468B204908C00581420ADD4A00FF21EC
:1054A00009068A4205D8E90FC907084304460020C7
:1054B0001FE00299039801F05FFB214601F0A2FB77
:1054C00004463846029901F09DFB214601F054FB49
:1054D00007460146284601F04FFB0121C90240184A
:1054E000040B24032146284601F0F0FB394601F065
:1054F00043FB01900C2005990020C04620460199ED
:1055000001F03AFBFCF7E0FC07460511FBF7E7FD6D
:10551000214601F0CFFB019901F02EFB04466049C2
:1055200001F070FB5F4901F027FB214601F06AFBA7
:105530005D4901F021FB214601F064FB014638077B
:10554000840E5A487844005901F05CFB584979446C
:10555000095901F011FB57497944095901F00CFB35
:1055600029467D31FC2907D22946FBF7C3FD314688
:1055700001F048FB0BB0F0BD2946FF22BF3180325D
:10558000914217D22946FBF7B5FD314601F03AFBAF
:1055900004464100FF200006814219D060000BD074
:1055A0002046FEF7C1FC042801D1FEF75CFD204631
:1055B0000BB0F0BD002D0BDA0220FBF713FEFEF757
:1055C00052FD40004008F10FC90708430BB0F0BD81
:1055D0000220FBF707FEFEF73FFD40004008F10FF9
:1055E000C90708430BB0F0BD01229207914239D39D
:1055F000FF21C9057F224118120691421AD24000AC
:1056000061004008090E7F2909DB972900DB46E687
:105610009622521A012191404A1E224206D00120B0
:10562000FBF7E0FDFEF712FD0BB0F0BD2142EED01E
:10563000214E34E6410004D001224100120691427D
:1056400007D30121C9057F22411A12069142DED3F8
:1056500046E01B21FBF74EFD1A21C94302910028A9
:10566000CDDB1CE601225206914232D3690025D0DF
:10567000EA0F3F21D207C90554182546B8E70000B4
:10568000001080C0000080C07EE24C3EABAAAA3E63
:1056900000B038423BAA3842D49AB8BBBC1B0000C9
:1056A000FC596337C9FF753A1872313D841B0000FD
:1056B0003A1B0000F01A0000000080BF410097D0A4
:1056C000FF21420009068A4292D27F20C0050BB01A
:1056D000F0BD01221206914202D25110651A87E7ED
:1056E000420064495208644E5318B34210D3630019
:1056F0005B085918B1420BD37F21C905884264D099
:10570000660062D0FF26F605B24201D8B34204D942
:105710002946FEF797FC0BB0F0BDB04202D1002C39
:1057200049DB61E06200120E7F2A08DB972A0CDA5F
:1057300096239B1A01229A40531E234201D0002235
:1057400004E0224201D0012200E002224B4B9842A9
:105750000BD1002C04DB012A46D118460BB0F0BD5A
:10576000012A28D1D0070BB0F0BD00280ED00125AA
:10577000ED07A84225D1B4421DD09C4208D0002C90
:1057800015DA002A04D0012A09D001E0002C12DA2F
:105790000220FBF727FDFEF74EFC0BB0F0BD022008
:1057A000FBF720FDFEF747FC68400BB0F0BD002A78
:1057B00001D0012A02D000200BB0F0BD28460BB06A
:1057C000F0BD8122D205D04202D108460BB0F0BD17
:1057D0007F2140000906884201D3012100E0002119
:1057E000E017401C8142E6D130460BB0F0BD7F216E
:1057F000C90501F06BFA01210446C943FBF77AFCA5
:105800001F4901F057FA214601F0FCF93F21090632
:1058100001F050FA07462146084601F0F3F901214C
:10582000C9074840394601F0EDF9074615492046B9
:1058300001F0E8F902901449384601F0E3F907460F
:105840001249204601F0DEF9394601F095F9044687
:105850000146029801F090F90121C9024018070B96
:105860003F033946029801F031FA214601F084F9EC
:10587000F6E50000FFFF7F80FFFF3F00000080FF94
:10588000ABAAAA3E00B0B8413BAAB841D49A38BBF3
:1058900030B5224D83B000242968A0000A58214663
:1058A0001FA0FFF7B5F9641C0D2CF5DB2A682968E9
:1058B0002868926C496C006C0292019100902868F3
:1058C000C36B826B416B1A48FFF7A2F91948016854
:1058D00019A0FFF79DF92868C06C00070CD51AA025
:1058E000FFF796F92868006DC00701D01AA000E004
:1058F0001DA0FFF78DF905E020A0FFF789F91AA098
:10590000FFF786F92868C06C400701D51FA000E0AA
:1059100021A0FFF77DF903B030BD0000446E000008
:105920000A52252D34643A202530385800000000F2
:105930005476000000ED00E00A43505549443A20F7
:1059400025303858000000000A4D6F6465203A2069
:1059500054687265616400000A50726976203A20CA
:1059600055736572000000000A50726976203A2073
:1059700050726976696C6567656400000A4D6F64F2
:1059800065203A2048616E646C6572000A53746148
:10599000636B3A20505350000A537461636B3A2092
:1059A0004D535000FFB50F4601680446480FC043F1
:1059B00081B01646800716D08DB20802030E2A4623
:1059C0002D48FFF725F9FF213631681A8D4221D085
:1059D0000BDCFF3D323D11D0012D12D0022D13D032
:1059E000032D28D113E04D42E7E7012818D0022803
:1059F00013D0032817D00F281DD119E01FA0A168CC
:105A000013E024A0A16810E026A0A1680DE029A061
:105A1000A1680AE02CA0A16807E030A0A16804E01A
:105A200033A0A16801E036A0A168FFF7F1F802E019
:105A300039A0FFF7EDF83846FFF712F93BA061688F
:105A4000FFF7E6F8002E09D03CA0FFF709F9304631
:105A5000FFF706F93BA00499FFF7DAF83AA0A1682E
:105A6000FFF7D6F83D482168FFF7D2F83CA0FFF7D2
:105A7000CFF805B0F0BD0000E47800004B65726E11
:105A8000656C204572726F723A20307825582C2050
:105A9000000000005468726561643A20307825582F
:105AA0002C2000004D757465783A20307825582CEC
:105AB0002000000053656D6170686F72653A203098
:105AC0007825582C200000004D656D6F7279506F5D
:105AD0006F6C3A20307825582C2000004576656E92
